{
  "contractName": "MyContract",
  "abi": [
    {
      "inputs": [
        {
          "internalType": "uint256",
          "name": "budget",
          "type": "uint256"
        },
        {
          "internalType": "uint256",
          "name": "isee_limit",
          "type": "uint256"
        },
        {
          "internalType": "uint256[]",
          "name": "credits",
          "type": "uint256[]"
        },
        {
          "internalType": "uint256[]",
          "name": "funds",
          "type": "uint256[]"
        },
        {
          "internalType": "string",
          "name": "name",
          "type": "string"
        },
        {
          "internalType": "string",
          "name": "date",
          "type": "string"
        }
      ],
      "stateMutability": "nonpayable",
      "type": "constructor"
    },
    {
      "inputs": [],
      "name": "BUDGET",
      "outputs": [
        {
          "internalType": "uint256",
          "name": "",
          "type": "uint256"
        }
      ],
      "stateMutability": "view",
      "type": "function"
    },
    {
      "inputs": [
        {
          "internalType": "uint256",
          "name": "",
          "type": "uint256"
        }
      ],
      "name": "CREDITS_PER_YEAR",
      "outputs": [
        {
          "internalType": "uint256",
          "name": "",
          "type": "uint256"
        }
      ],
      "stateMutability": "view",
      "type": "function"
    },
    {
      "inputs": [],
      "name": "DATE",
      "outputs": [
        {
          "internalType": "string",
          "name": "",
          "type": "string"
        }
      ],
      "stateMutability": "view",
      "type": "function"
    },
    {
      "inputs": [
        {
          "internalType": "uint256",
          "name": "",
          "type": "uint256"
        }
      ],
      "name": "FUNDS",
      "outputs": [
        {
          "internalType": "uint256",
          "name": "",
          "type": "uint256"
        }
      ],
      "stateMutability": "view",
      "type": "function"
    },
    {
      "inputs": [],
      "name": "ISEE_LIMIT",
      "outputs": [
        {
          "internalType": "uint256",
          "name": "",
          "type": "uint256"
        }
      ],
      "stateMutability": "view",
      "type": "function"
    },
    {
      "inputs": [],
      "name": "ISEE_MIN",
      "outputs": [
        {
          "internalType": "uint256",
          "name": "",
          "type": "uint256"
        }
      ],
      "stateMutability": "view",
      "type": "function"
    },
    {
      "inputs": [],
      "name": "NAME",
      "outputs": [
        {
          "internalType": "string",
          "name": "",
          "type": "string"
        }
      ],
      "stateMutability": "view",
      "type": "function"
    },
    {
      "inputs": [
        {
          "internalType": "uint256",
          "name": "",
          "type": "uint256"
        }
      ],
      "name": "keys",
      "outputs": [
        {
          "internalType": "address",
          "name": "",
          "type": "address"
        }
      ],
      "stateMutability": "view",
      "type": "function"
    },
    {
      "inputs": [
        {
          "internalType": "address",
          "name": "",
          "type": "address"
        }
      ],
      "name": "mappingStudents",
      "outputs": [
        {
          "internalType": "address",
          "name": "accountAddress",
          "type": "address"
        },
        {
          "internalType": "uint256",
          "name": "isee",
          "type": "uint256"
        },
        {
          "internalType": "uint256",
          "name": "credits",
          "type": "uint256"
        },
        {
          "internalType": "uint256",
          "name": "year",
          "type": "uint256"
        },
        {
          "internalType": "uint256",
          "name": "score",
          "type": "uint256"
        },
        {
          "internalType": "uint256",
          "name": "funds",
          "type": "uint256"
        },
        {
          "internalType": "bool",
          "name": "eligible",
          "type": "bool"
        },
        {
          "internalType": "enum MyContract.status",
          "name": "_status",
          "type": "uint8"
        }
      ],
      "stateMutability": "view",
      "type": "function"
    },
    {
      "inputs": [
        {
          "internalType": "uint256",
          "name": "",
          "type": "uint256"
        }
      ],
      "name": "rankedKeys",
      "outputs": [
        {
          "internalType": "address",
          "name": "",
          "type": "address"
        }
      ],
      "stateMutability": "view",
      "type": "function"
    },
    {
      "inputs": [],
      "name": "getKeys",
      "outputs": [
        {
          "internalType": "address[]",
          "name": "",
          "type": "address[]"
        }
      ],
      "stateMutability": "view",
      "type": "function"
    },
    {
      "inputs": [],
      "name": "getRankedKeys",
      "outputs": [
        {
          "internalType": "address[]",
          "name": "",
          "type": "address[]"
        }
      ],
      "stateMutability": "view",
      "type": "function"
    },
    {
      "inputs": [],
      "name": "getStudents",
      "outputs": [
        {
          "components": [
            {
              "internalType": "address",
              "name": "accountAddress",
              "type": "address"
            },
            {
              "internalType": "uint256",
              "name": "isee",
              "type": "uint256"
            },
            {
              "internalType": "uint256",
              "name": "credits",
              "type": "uint256"
            },
            {
              "internalType": "uint256",
              "name": "year",
              "type": "uint256"
            },
            {
              "internalType": "uint256",
              "name": "score",
              "type": "uint256"
            },
            {
              "internalType": "uint256",
              "name": "funds",
              "type": "uint256"
            },
            {
              "internalType": "bool",
              "name": "eligible",
              "type": "bool"
            },
            {
              "internalType": "enum MyContract.status",
              "name": "_status",
              "type": "uint8"
            }
          ],
          "internalType": "struct MyContract.Student[]",
          "name": "",
          "type": "tuple[]"
        }
      ],
      "stateMutability": "view",
      "type": "function"
    },
    {
      "inputs": [
        {
          "internalType": "uint256",
          "name": "_isee",
          "type": "uint256"
        },
        {
          "internalType": "uint256",
          "name": "_crediti",
          "type": "uint256"
        },
        {
          "internalType": "uint256",
          "name": "_year",
          "type": "uint256"
        },
        {
          "internalType": "address",
          "name": "key",
          "type": "address"
        },
        {
          "internalType": "enum MyContract.status",
          "name": "_status",
          "type": "uint8"
        }
      ],
      "name": "addStudent",
      "outputs": [
        {
          "internalType": "bool",
          "name": "",
          "type": "bool"
        }
      ],
      "stateMutability": "nonpayable",
      "type": "function"
    },
    {
      "inputs": [],
      "name": "getStudentCount",
      "outputs": [
        {
          "internalType": "uint256",
          "name": "",
          "type": "uint256"
        }
      ],
      "stateMutability": "view",
      "type": "function"
    },
    {
      "inputs": [],
      "name": "rankStudents",
      "outputs": [],
      "stateMutability": "nonpayable",
      "type": "function"
    },
    {
      "inputs": [],
      "name": "assignFunding",
      "outputs": [],
      "stateMutability": "nonpayable",
      "type": "function"
    }
  ],
  "bytecode": "0x6080604052601860005560026001556040518060600160405280600060ff168152602001602d60ff168152602001605560ff168152506002906003620000479291906200012b565b50604051806060016040528061051461ffff16815260200161070861ffff168152602001610c0761ffff1681525060039060036200008792919062000182565b503480156200009557600080fd5b50604051620028a9380380620028a98339818101604052810190620000bb9190620004f4565b84600081905550856004819055508360029080519060200190620000e1929190620001da565b508260039080519060200190620000fa929190620001da565b5081600590816200010c91906200084d565b5080600690816200011e91906200084d565b5050505050505062000934565b8280548282559060005260206000209081019282156200016f579160200282015b828111156200016e578251829060ff169055916020019190600101906200014c565b5b5090506200017e91906200022c565b5090565b828054828255906000526020600020908101928215620001c7579160200282015b82811115620001c6578251829061ffff16905591602001919060010190620001a3565b5b509050620001d691906200022c565b5090565b82805482825590600052602060002090810192821562000219579160200282015b8281111562000218578251825591602001919060010190620001fb565b5b5090506200022891906200022c565b5090565b5b80821115620002475760008160009055506001016200022d565b5090565b6000604051905090565b600080fd5b600080fd5b6000819050919050565b62000274816200025f565b81146200028057600080fd5b50565b600081519050620002948162000269565b92915050565b600080fd5b6000601f19601f8301169050919050565b7f4e487b7100000000000000000000000000000000000000000000000000000000600052604160045260246000fd5b620002ea826200029f565b810181811067ffffffffffffffff821117156200030c576200030b620002b0565b5b80604052505050565b6000620003216200024b565b90506200032f8282620002df565b919050565b600067ffffffffffffffff821115620003525762000351620002b0565b5b602082029050602081019050919050565b600080fd5b60006200037f620003798462000334565b62000315565b90508083825260208201905060208402830185811115620003a557620003a462000363565b5b835b81811015620003d25780620003bd888262000283565b845260208401935050602081019050620003a7565b5050509392505050565b600082601f830112620003f457620003f36200029a565b5b81516200040684826020860162000368565b91505092915050565b600080fd5b600067ffffffffffffffff821115620004325762000431620002b0565b5b6200043d826200029f565b9050602081019050919050565b60005b838110156200046a5780820151818401526020810190506200044d565b60008484015250505050565b60006200048d620004878462000414565b62000315565b905082815260208101848484011115620004ac57620004ab6200040f565b5b620004b98482856200044a565b509392505050565b600082601f830112620004d957620004d86200029a565b5b8151620004eb84826020860162000476565b91505092915050565b60008060008060008060c0878903121562000514576200051362000255565b5b60006200052489828a0162000283565b96505060206200053789828a0162000283565b955050604087015167ffffffffffffffff8111156200055b576200055a6200025a565b5b6200056989828a01620003dc565b945050606087015167ffffffffffffffff8111156200058d576200058c6200025a565b5b6200059b89828a01620003dc565b935050608087015167ffffffffffffffff811115620005bf57620005be6200025a565b5b620005cd89828a01620004c1565b92505060a087015167ffffffffffffffff811115620005f157620005f06200025a565b5b620005ff89828a01620004c1565b9150509295509295509295565b600081519050919050565b7f4e487b7100000000000000000000000000000000000000000000000000000000600052602260045260246000fd5b600060028204905060018216806200065f57607f821691505b60208210810362000675576200067462000617565b5b50919050565b60008190508160005260206000209050919050565b60006020601f8301049050919050565b600082821b905092915050565b600060088302620006df7fffffffffffffffffffffffffffffffffffffffffffffffffffffffffffffffff82620006a0565b620006eb8683620006a0565b95508019841693508086168417925050509392505050565b6000819050919050565b60006200072e6200072862000722846200025f565b62000703565b6200025f565b9050919050565b6000819050919050565b6200074a836200070d565b62000762620007598262000735565b848454620006ad565b825550505050565b600090565b620007796200076a565b620007868184846200073f565b505050565b5b81811015620007ae57620007a26000826200076f565b6001810190506200078c565b5050565b601f821115620007fd57620007c7816200067b565b620007d28462000690565b81016020851015620007e2578190505b620007fa620007f18562000690565b8301826200078b565b50505b505050565b600082821c905092915050565b6000620008226000198460080262000802565b1980831691505092915050565b60006200083d83836200080f565b9150826002028217905092915050565b62000858826200060c565b67ffffffffffffffff811115620008745762000873620002b0565b5b62000880825462000646565b6200088d828285620007b2565b600060209050601f831160018114620008c55760008415620008b0578287015190505b620008bc85826200082f565b8655506200092c565b601f198416620008d5866200067b565b60005b82811015620008ff57848901518255600182019150602085019450602081019050620008d8565b868310156200091f57848901516200091b601f8916826200080f565b8355505b6001600288020188555050505b505050505050565b611f6580620009446000396000f3fe608060405234801561001057600080fd5b506004361061010b5760003560e01c8063a3f4df7e116100a2578063e7d7393d11610071578063e7d7393d146102d2578063ea8728ea146102dc578063eb63e643146102e6578063ed0484501461031d578063f1d064b31461033b5761010b565b8063a3f4df7e14610248578063e03eb24914610266578063e2ff94c514610296578063e4861bdd146102b45761010b565b80635fc67f46116100de5780635fc67f461461019a5780636fd4d505146101ca5780637d3567b8146101e857806395cdd66e146102185761010b565b80630cb6aaf1146101105780632150c5181461014057806341e0c4071461015e57806342d65b2c1461017c575b600080fd5b61012a60048036038101906101259190611663565b610359565b60405161013791906116d1565b60405180910390f35b610148610398565b60405161015591906117aa565b60405180910390f35b610166610426565b60405161017391906117db565b60405180910390f35b610184610433565b60405161019191906117db565b60405180910390f35b6101b460048036038101906101af9190611663565b610439565b6040516101c191906116d1565b60405180910390f35b6101d2610478565b6040516101df91906117db565b60405180910390f35b61020260048036038101906101fd9190611663565b61047e565b60405161020f91906117db565b60405180910390f35b610232600480360381019061022d9190611847565b6104a2565b60405161023f91906118dd565b60405180910390f35b6102506107d1565b60405161025d9190611988565b60405180910390f35b610280600480360381019061027b9190611663565b61085f565b60405161028d91906117db565b60405180910390f35b61029e610883565b6040516102ab91906117db565b60405180910390f35b6102bc610889565b6040516102c99190611988565b60405180910390f35b6102da610917565b005b6102e4610e01565b005b61030060048036038101906102fb91906119aa565b61117f565b604051610314989796959493929190611a4e565b60405180910390f35b610325611201565b60405161033291906117aa565b60405180910390f35b61034361128f565b6040516103509190611c4b565b60405180910390f35b6008818154811061036957600080fd5b906000526020600020016000915054906101000a900473ffffffffffffffffffffffffffffffffffffffff1681565b6060600880548060200260200160405190810160405280929190818152602001828054801561041c57602002820191906000526020600020905b8160009054906101000a900473ffffffffffffffffffffffffffffffffffffffff1673ffffffffffffffffffffffffffffffffffffffff16815260200190600101908083116103d2575b5050505050905090565b6000600880549050905090565b60005481565b6009818154811061044957600080fd5b906000526020600020016000915054906101000a900473ffffffffffffffffffffffffffffffffffffffff1681565b60015481565b6003818154811061048e57600080fd5b906000526020600020016000915090505481565b6000808614806104b3575061012c85115b806104be5750600184105b806104c95750600384115b8061055a57506002808111156104e2576104e16119d7565b5b8260028111156104f5576104f46119d7565b5b14158015610528575060006002811115610512576105116119d7565b5b826002811115610525576105246119d7565b5b14155b8015610559575060016002811115610543576105426119d7565b5b826002811115610556576105556119d7565b5b14155b5b1561056857600090506107c8565b60006040518061010001604052808573ffffffffffffffffffffffffffffffffffffffff16815260200188815260200187815260200186815260200160008152602001600081526020016000151581526020018460028111156105ce576105cd6119d7565b5b81525090506105dc8161149f565b8160c00190151590811515815250508060c0015115610608576105fe81611504565b8160800181815250505b6000600760008673ffffffffffffffffffffffffffffffffffffffff1673ffffffffffffffffffffffffffffffffffffffff16815260200190815260200160002060010154036106b6576008849080600181540180825580915050600190039060005260206000200160009091909190916101000a81548173ffffffffffffffffffffffffffffffffffffffff021916908373ffffffffffffffffffffffffffffffffffffffff1602179055505b80600760008673ffffffffffffffffffffffffffffffffffffffff1673ffffffffffffffffffffffffffffffffffffffff16815260200190815260200160002060008201518160000160006101000a81548173ffffffffffffffffffffffffffffffffffffffff021916908373ffffffffffffffffffffffffffffffffffffffff1602179055506020820151816001015560408201518160020155606082015181600301556080820151816004015560a0820151816005015560c08201518160060160006101000a81548160ff02191690831515021790555060e08201518160060160016101000a81548160ff021916908360028111156107ba576107b96119d7565b5b021790555090505060019150505b95945050505050565b600580546107de90611c9c565b80601f016020809104026020016040519081016040528092919081815260200182805461080a90611c9c565b80156108575780601f1061082c57610100808354040283529160200191610857565b820191906000526020600020905b81548152906001019060200180831161083a57829003601f168201915b505050505081565b6002818154811061086f57600080fd5b906000526020600020016000915090505481565b60045481565b6006805461089690611c9c565b80601f01602080910402602001604051908101604052809291908181526020018280546108c290611c9c565b801561090f5780601f106108e45761010080835404028352916020019161090f565b820191906000526020600020905b8154815290600101906020018083116108f257829003601f168201915b505050505081565b6000600980549050905060006004549050600080600080600090505b85811015610df857600760006009838154811061095357610952611ccd565b5b9060005260206000200160009054906101000a900473ffffffffffffffffffffffffffffffffffffffff1673ffffffffffffffffffffffffffffffffffffffff1673ffffffffffffffffffffffffffffffffffffffff16815260200190815260200160002060060160009054906101000a900460ff1615610de55760076000600983815481106109e6576109e5611ccd565b5b9060005260206000200160009054906101000a900473ffffffffffffffffffffffffffffffffffffffff1673ffffffffffffffffffffffffffffffffffffffff1673ffffffffffffffffffffffffffffffffffffffff16815260200190815260200160002060010154935060006002811115610a6557610a646119d7565b5b6007600060098481548110610a7d57610a7c611ccd565b5b9060005260206000200160009054906101000a900473ffffffffffffffffffffffffffffffffffffffff1673ffffffffffffffffffffffffffffffffffffffff1673ffffffffffffffffffffffffffffffffffffffff16815260200190815260200160002060060160019054906101000a900460ff166002811115610b0557610b046119d7565b5b03610b31576003600081548110610b1f57610b1e611ccd565b5b90600052602060002001549250610cee565b60016002811115610b4557610b446119d7565b5b6007600060098481548110610b5d57610b5c611ccd565b5b9060005260206000200160009054906101000a900473ffffffffffffffffffffffffffffffffffffffff1673ffffffffffffffffffffffffffffffffffffffff1673ffffffffffffffffffffffffffffffffffffffff16815260200190815260200160002060060160019054906101000a900460ff166002811115610be557610be46119d7565b5b03610c11576003600181548110610bff57610bfe611ccd565b5b90600052602060002001549250610ced565b600280811115610c2457610c236119d7565b5b6007600060098481548110610c3c57610c3b611ccd565b5b9060005260206000200160009054906101000a900473ffffffffffffffffffffffffffffffffffffffff1673ffffffffffffffffffffffffffffffffffffffff1673ffffffffffffffffffffffffffffffffffffffff16815260200190815260200160002060060160019054906101000a900460ff166002811115610cc457610cc36119d7565b5b03610cec576003600281548110610cde57610cdd611ccd565b5b906000526020600020015492505b5b5b600154600054610cfe9190611d2b565b60015485610d0c9190611d69565b84610d179190611dac565b610d219190611e53565b836002610d2e9190611dac565b610d389190611d69565b9150818510610dd9578185610d4d9190611d2b565b9450816007600060098481548110610d6857610d67611ccd565b5b9060005260206000200160009054906101000a900473ffffffffffffffffffffffffffffffffffffffff1673ffffffffffffffffffffffffffffffffffffffff1673ffffffffffffffffffffffffffffffffffffffff16815260200190815260200160002060050181905550610de4565b505050505050610dff565b5b8080610df090611e84565b915050610933565b5050505050505b565b60006008805480602002602001604051908101604052809291908181526020018280548015610e8557602002820191906000526020600020905b8160009054906101000a900473ffffffffffffffffffffffffffffffffffffffff1673ffffffffffffffffffffffffffffffffffffffff1681526020019060010190808311610e3b575b50505050509050600081519050600067ffffffffffffffff811115610ead57610eac611ecc565b5b604051908082528060200260200182016040528015610edb5781602001602082028036833780820191505090505b5060099080519060200190610ef1929190611512565b5060018103610f7d57600982600081518110610f1057610f0f611ccd565b5b60200260200101519080600181540180825580915050600190039060005260206000200160009091909190916101000a81548173ffffffffffffffffffffffffffffffffffffffff021916908373ffffffffffffffffffffffffffffffffffffffff16021790555061117b565b60005b600182610f8d9190611d2b565b811015611162576000600182610fa39190611efb565b90505b8281101561114e5760076000858381518110610fc557610fc4611ccd565b5b602002602001015173ffffffffffffffffffffffffffffffffffffffff1673ffffffffffffffffffffffffffffffffffffffff168152602001908152602001600020600401546007600086858151811061102257611021611ccd565b5b602002602001015173ffffffffffffffffffffffffffffffffffffffff1673ffffffffffffffffffffffffffffffffffffffff16815260200190815260200160002060040154111561113b5783818151811061108157611080611ccd565b5b602002602001015184838151811061109c5761109b611ccd565b5b60200260200101518584815181106110b7576110b6611ccd565b5b602002602001018684815181106110d1576110d0611ccd565b5b602002602001018273ffffffffffffffffffffffffffffffffffffffff1673ffffffffffffffffffffffffffffffffffffffff168152508273ffffffffffffffffffffffffffffffffffffffff1673ffffffffffffffffffffffffffffffffffffffff1681525050505b808061114690611e84565b915050610fa6565b50808061115a90611e84565b915050610f80565b508160099080519060200190611179929190611512565b505b5050565b60076020528060005260406000206000915090508060000160009054906101000a900473ffffffffffffffffffffffffffffffffffffffff16908060010154908060020154908060030154908060040154908060050154908060060160009054906101000a900460ff16908060060160019054906101000a900460ff16905088565b6060600980548060200260200160405190810160405280929190818152602001828054801561128557602002820191906000526020600020905b8160009054906101000a900473ffffffffffffffffffffffffffffffffffffffff1673ffffffffffffffffffffffffffffffffffffffff168152602001906001019080831161123b575b5050505050905090565b60606000600980549050905060008167ffffffffffffffff8111156112b7576112b6611ecc565b5b6040519080825280602002602001820160405280156112f057816020015b6112dd61159c565b8152602001906001900390816112d55790505b50905060005b8281101561149657600760006009838154811061131657611315611ccd565b5b9060005260206000200160009054906101000a900473ffffffffffffffffffffffffffffffffffffffff1673ffffffffffffffffffffffffffffffffffffffff1673ffffffffffffffffffffffffffffffffffffffff168152602001908152602001600020604051806101000160405290816000820160009054906101000a900473ffffffffffffffffffffffffffffffffffffffff1673ffffffffffffffffffffffffffffffffffffffff1673ffffffffffffffffffffffffffffffffffffffff16815260200160018201548152602001600282015481526020016003820154815260200160048201548152602001600582015481526020016006820160009054906101000a900460ff161515151581526020016006820160019054906101000a900460ff16600281111561144f5761144e6119d7565b5b6002811115611461576114606119d7565b5b8152505082828151811061147857611477611ccd565b5b6020026020010181905250808061148e90611e84565b9150506112f6565b50809250505090565b600080600190506000600184606001516114b99190611d2b565b9050600054846020015111806114f05750600281815481106114de576114dd611ccd565b5b90600052602060002001548460400151105b156114fa57600091505b8192505050919050565b600081602001519050919050565b82805482825590600052602060002090810192821561158b579160200282015b8281111561158a5782518260006101000a81548173ffffffffffffffffffffffffffffffffffffffff021916908373ffffffffffffffffffffffffffffffffffffffff16021790555091602001919060010190611532565b5b509050611598919061160b565b5090565b604051806101000160405280600073ffffffffffffffffffffffffffffffffffffffff168152602001600081526020016000815260200160008152602001600081526020016000815260200160001515815260200160006002811115611605576116046119d7565b5b81525090565b5b8082111561162457600081600090555060010161160c565b5090565b600080fd5b6000819050919050565b6116408161162d565b811461164b57600080fd5b50565b60008135905061165d81611637565b92915050565b60006020828403121561167957611678611628565b5b60006116878482850161164e565b91505092915050565b600073ffffffffffffffffffffffffffffffffffffffff82169050919050565b60006116bb82611690565b9050919050565b6116cb816116b0565b82525050565b60006020820190506116e660008301846116c2565b92915050565b600081519050919050565b600082825260208201905092915050565b6000819050602082019050919050565b611721816116b0565b82525050565b60006117338383611718565b60208301905092915050565b6000602082019050919050565b6000611757826116ec565b61176181856116f7565b935061176c83611708565b8060005b8381101561179d5781516117848882611727565b975061178f8361173f565b925050600181019050611770565b5085935050505092915050565b600060208201905081810360008301526117c4818461174c565b905092915050565b6117d58161162d565b82525050565b60006020820190506117f060008301846117cc565b92915050565b6117ff816116b0565b811461180a57600080fd5b50565b60008135905061181c816117f6565b92915050565b6003811061182f57600080fd5b50565b60008135905061184181611822565b92915050565b600080600080600060a0868803121561186357611862611628565b5b60006118718882890161164e565b95505060206118828882890161164e565b94505060406118938882890161164e565b93505060606118a48882890161180d565b92505060806118b588828901611832565b9150509295509295909350565b60008115159050919050565b6118d7816118c2565b82525050565b60006020820190506118f260008301846118ce565b92915050565b600081519050919050565b600082825260208201905092915050565b60005b83811015611932578082015181840152602081019050611917565b60008484015250505050565b6000601f19601f8301169050919050565b600061195a826118f8565b6119648185611903565b9350611974818560208601611914565b61197d8161193e565b840191505092915050565b600060208201905081810360008301526119a2818461194f565b905092915050565b6000602082840312156119c0576119bf611628565b5b60006119ce8482850161180d565b91505092915050565b7f4e487b7100000000000000000000000000000000000000000000000000000000600052602160045260246000fd5b60038110611a1757611a166119d7565b5b50565b6000819050611a2882611a06565b919050565b6000611a3882611a1a565b9050919050565b611a4881611a2d565b82525050565b600061010082019050611a64600083018b6116c2565b611a71602083018a6117cc565b611a7e60408301896117cc565b611a8b60608301886117cc565b611a9860808301876117cc565b611aa560a08301866117cc565b611ab260c08301856118ce565b611abf60e0830184611a3f565b9998505050505050505050565b600081519050919050565b600082825260208201905092915050565b6000819050602082019050919050565b611b018161162d565b82525050565b611b10816118c2565b82525050565b611b1f81611a2d565b82525050565b61010082016000820151611b3c6000850182611718565b506020820151611b4f6020850182611af8565b506040820151611b626040850182611af8565b506060820151611b756060850182611af8565b506080820151611b886080850182611af8565b5060a0820151611b9b60a0850182611af8565b5060c0820151611bae60c0850182611b07565b5060e0820151611bc160e0850182611b16565b50505050565b6000611bd38383611b25565b6101008301905092915050565b6000602082019050919050565b6000611bf882611acc565b611c028185611ad7565b9350611c0d83611ae8565b8060005b83811015611c3e578151611c258882611bc7565b9750611c3083611be0565b925050600181019050611c11565b5085935050505092915050565b60006020820190508181036000830152611c658184611bed565b905092915050565b7f4e487b7100000000000000000000000000000000000000000000000000000000600052602260045260246000fd5b60006002820490506001821680611cb457607f821691505b602082108103611cc757611cc6611c6d565b5b50919050565b7f4e487b7100000000000000000000000000000000000000000000000000000000600052603260045260246000fd5b7f4e487b7100000000000000000000000000000000000000000000000000000000600052601160045260246000fd5b6000611d368261162d565b9150611d418361162d565b9250828203905081811115611d5957611d58611cfc565b5b92915050565b6000819050919050565b6000611d7482611d5f565b9150611d7f83611d5f565b9250828203905081811260008412168282136000851215161715611da657611da5611cfc565b5b92915050565b6000611db782611d5f565b9150611dc283611d5f565b9250828202611dd081611d5f565b91507f80000000000000000000000000000000000000000000000000000000000000008414600084121615611e0857611e07611cfc565b5b8282058414831517611e1d57611e1c611cfc565b5b5092915050565b7f4e487b7100000000000000000000000000000000000000000000000000000000600052601260045260246000fd5b6000611e5e8261162d565b9150611e698361162d565b925082611e7957611e78611e24565b5b828204905092915050565b6000611e8f8261162d565b91507fffffffffffffffffffffffffffffffffffffffffffffffffffffffffffffffff8203611ec157611ec0611cfc565b5b600182019050919050565b7f4e487b7100000000000000000000000000000000000000000000000000000000600052604160045260246000fd5b6000611f068261162d565b9150611f118361162d565b9250828201905080821115611f2957611f28611cfc565b5b9291505056fea26469706673582212208245cb10479b981cceb3c1b7d955a522683ed21313fd0be4b3fe3d8c5e7e1f8c64736f6c63430008130033",
  "immutableReferences": {},
  "source": "// SPDX-License-Identifier: MIT\npragma solidity ^0.8.0;\n\ncontract MyContract {\n\n    /////////////////////////////////////////////////////////////////////\n    // STRUCTS AND GLOBAL VARIABLES\n\n    struct Student {\n        address accountAddress; //address of the account of the student\n        uint256 isee; // [1, 1000000]\n        uint256 credits; // [0, 1000]\n        uint256 year; //year you are asking for the scholarship [1, 3]\n        uint256 score; //computed for ranking \n        uint256 funds; //scholarship value for the student\n        bool eligible; // true/false\n        status _status;\n    }\n\n    enum status{ IN_SEDE, PENDOLARE, FUORI_SEDE } //the three allowed statuses for students\n\n    uint256 public ISEE_LIMIT = 24; //maximum allowed ISEE to be eligible\n    uint256 public ISEE_MIN = 2; //supposed minimum ISEE (for scholarship computation)\n    uint256[] public CREDITS_PER_YEAR = [0, 45, 85]; //required credits for each year of the bachelor to be eligible\n    uint256[] public FUNDS = [1300, 1800, 3079]; //minimum scholarsip value for each student status (max is double)\n    uint256 public BUDGET; //entire budget for the scholarships\n    string public NAME; //name of scholarship\n    string public DATE; //end date to apply for the scholarship\n    \n    mapping(address => Student) public mappingStudents; //contains the association address->student\n\n    address[] public keys; //stores the key of each applying student\n    address[] public rankedKeys; //stores the keys of students after rankStudents() gets called\n\n    /////////////////////////////////////////////////////////////////////\n\n    constructor(uint256 budget, uint256 isee_limit, uint256[] memory credits, uint256[] memory funds, string memory name, string memory date) {\n        ISEE_LIMIT = isee_limit;\n        BUDGET = budget;\n        CREDITS_PER_YEAR = credits;\n        FUNDS = funds;\n        NAME = name;\n        DATE = date;\n    }\n\n    /////////////////////////////////////////////////////////////////////\n    // STUDENTS\n\n    function getKeys() external view returns (address[] memory) {\n        return keys;\n    }\n\n     function getRankedKeys() external view returns (address[] memory) {\n        return rankedKeys;\n    }\n\n    function getStudents() external view returns (Student[] memory){\n        uint256 len = rankedKeys.length;\n        Student[] memory studentArray = new Student[](len);\n\n        for (uint256 i = 0; i < len; i++) {\n            studentArray[i] = mappingStudents[rankedKeys[i]];\n        }\n\n        return studentArray;\n    }\n\n    function addStudent(uint256 _isee, uint256 _crediti, uint256 _year, address key, status _status) external  returns (bool){\n        // input checking\n        if(_isee == 0 || _crediti > 300 || _year < 1 || _year > 3 || (_status != status.FUORI_SEDE && _status != status.IN_SEDE && _status != status.PENDOLARE)) {\n            return false;\n        }\n\n        Student memory newStudent = Student(key, _isee, _crediti, _year, uint256(0), uint256(0), false, _status);\n\n        newStudent.eligible = isEligible(newStudent);\n        if(newStudent.eligible)\n            newStudent.score = computeScore(newStudent);\n\n        if(mappingStudents[key].isee == 0) //check if students is already inserted by looking at isee value\n            keys.push(key);\n\n        mappingStudents[key] = newStudent;\n\n        return true;\n    }\n\n    function getStudentCount() external view returns (uint256) {\n        return keys.length;\n    }\n\n    function computeScore(Student memory student) private pure returns (uint256) {\n        //To be modified if a different ranking metric is necessary\n        return student.isee;\n    }\n\n    function rankStudents() external {\n        address[] memory sortedArray = keys;\n        uint256 len = sortedArray.length;\n\n        rankedKeys = new address[](0);\n\n        if(len == 1) {\n            rankedKeys.push(sortedArray[0]);\n        }\n        else \n        {\n            // Order students' addresses by looking at their score\n            for (uint256 i = 0; i < len - 1; i++) {\n                for (uint256 j = i + 1; j < len; j++) {\n                    if (mappingStudents[sortedArray[i]].score > mappingStudents[sortedArray[j]].score) {\n                        // Swap elements\n                        (sortedArray[i], sortedArray[j]) = (sortedArray[j], sortedArray[i]); \n                    }\n                }\n            }\n\n            rankedKeys = sortedArray;\n        }\n            \n    }\n\n    //Uses the student's ranking to assign funds to each student until funds are depleted\n    function assignFunding() external {\n\n        uint256 len = rankedKeys.length;\n        uint256 budget = BUDGET;\n        uint256 isee = 0;\n        uint256 minFund = 0;\n        uint256 funds;\n\n        for (uint256 i = 0; i < len; i++) {\n            if(mappingStudents[rankedKeys[i]].eligible){\n                isee = mappingStudents[rankedKeys[i]].isee; //> ISEE_MIN ? mappingStudents[rankedKeys[i]].isee : ISEE_MIN + 1;\n\n                if(mappingStudents[rankedKeys[i]]._status == status.IN_SEDE) {\n                    minFund = FUNDS[0];\n                } else if (mappingStudents[rankedKeys[i]]._status == status.PENDOLARE) {\n                    minFund = FUNDS[1];\n                } else if (mappingStudents[rankedKeys[i]]._status == status.FUORI_SEDE) {\n                    minFund = FUNDS[2];\n                }\n              \n                //funds = uint256(int256((minFund / (ISEE_LIMIT - ISEE_MIN))) * (int256(ISEE_MIN) - int256(isee)) + 2 * int256(minFund))\n                funds = uint256(2 * int256(minFund) - int256((uint256(int256(minFund) * (int256(isee) - int256(ISEE_MIN))) / (ISEE_LIMIT - ISEE_MIN))));\n\n                if(budget >= funds) {\n                    budget = budget - funds;\n                    mappingStudents[rankedKeys[i]].funds = funds;\n                } else {\n                    return;\n                }\n            }\n        }\n    }\n\n    // Checks if a student should be eligible for the scholarship based on its ISEE and credits\n    function isEligible(Student memory student) private view returns (bool) {\n        bool eligible = true;\n        uint256 studentYear = student.year-1;\n        if(student.isee > ISEE_LIMIT || student.credits < CREDITS_PER_YEAR[studentYear]) {\n            eligible = false;\n        }\n\n        return eligible;\n    }\n    /////////////////////////////////////////////////////////////////////\n}",
  "sourcePath": "/home/nicola/Scrivania/Blockchain-Project/Scholarship-master/ScholarshipServer/contracts/MyContract.sol",
  "compiler": {
    "name": "solc",
    "version": "0.8.19+commit.7dd6d404.Emscripten.clang"
  },
  "schemaVersion": "3.4.13",
  "updatedAt": "2023-07-03T18:41:49.277Z",
  "devdoc": {
    "kind": "dev",
    "methods": {},
    "version": 1
  },
  "userdoc": {
    "kind": "user",
    "methods": {},
    "version": 1
  }
}