{
  "contractName": "MyContract",
  "abi": [
    {
      "inputs": [
        {
          "internalType": "uint256",
          "name": "budget",
          "type": "uint256"
        },
        {
          "internalType": "uint256",
          "name": "isee_limit",
          "type": "uint256"
        }
      ],
      "stateMutability": "nonpayable",
      "type": "constructor"
    },
    {
      "inputs": [],
      "name": "BUDGET",
      "outputs": [
        {
          "internalType": "uint256",
          "name": "",
          "type": "uint256"
        }
      ],
      "stateMutability": "view",
      "type": "function"
    },
    {
      "inputs": [
        {
          "internalType": "uint256",
          "name": "",
          "type": "uint256"
        }
      ],
      "name": "CREDITS_PER_YEAR",
      "outputs": [
        {
          "internalType": "uint256",
          "name": "",
          "type": "uint256"
        }
      ],
      "stateMutability": "view",
      "type": "function"
    },
    {
      "inputs": [
        {
          "internalType": "uint256",
          "name": "",
          "type": "uint256"
        }
      ],
      "name": "FUNDS",
      "outputs": [
        {
          "internalType": "uint256",
          "name": "",
          "type": "uint256"
        }
      ],
      "stateMutability": "view",
      "type": "function"
    },
    {
      "inputs": [],
      "name": "ISEE_LIMIT",
      "outputs": [
        {
          "internalType": "uint256",
          "name": "",
          "type": "uint256"
        }
      ],
      "stateMutability": "view",
      "type": "function"
    },
    {
      "inputs": [],
      "name": "ISEE_MIN",
      "outputs": [
        {
          "internalType": "uint256",
          "name": "",
          "type": "uint256"
        }
      ],
      "stateMutability": "view",
      "type": "function"
    },
    {
      "inputs": [
        {
          "internalType": "uint256",
          "name": "",
          "type": "uint256"
        }
      ],
      "name": "keys",
      "outputs": [
        {
          "internalType": "address",
          "name": "",
          "type": "address"
        }
      ],
      "stateMutability": "view",
      "type": "function"
    },
    {
      "inputs": [
        {
          "internalType": "address",
          "name": "",
          "type": "address"
        }
      ],
      "name": "mappingStudents",
      "outputs": [
        {
          "internalType": "uint256",
          "name": "isee",
          "type": "uint256"
        },
        {
          "internalType": "uint256",
          "name": "credits",
          "type": "uint256"
        },
        {
          "internalType": "uint256",
          "name": "year",
          "type": "uint256"
        },
        {
          "internalType": "uint256",
          "name": "score",
          "type": "uint256"
        },
        {
          "internalType": "uint256",
          "name": "funds",
          "type": "uint256"
        },
        {
          "internalType": "bool",
          "name": "eligible",
          "type": "bool"
        },
        {
          "internalType": "enum MyContract.status",
          "name": "_status",
          "type": "uint8"
        }
      ],
      "stateMutability": "view",
      "type": "function"
    },
    {
      "inputs": [
        {
          "internalType": "uint256",
          "name": "",
          "type": "uint256"
        }
      ],
      "name": "rankedKeys",
      "outputs": [
        {
          "internalType": "address",
          "name": "",
          "type": "address"
        }
      ],
      "stateMutability": "view",
      "type": "function"
    },
    {
      "inputs": [],
      "name": "getBudget",
      "outputs": [
        {
          "internalType": "uint256",
          "name": "",
          "type": "uint256"
        }
      ],
      "stateMutability": "view",
      "type": "function"
    },
    {
      "inputs": [],
      "name": "incrementBudget",
      "outputs": [],
      "stateMutability": "nonpayable",
      "type": "function"
    },
    {
      "inputs": [],
      "name": "getKeys",
      "outputs": [
        {
          "internalType": "address[]",
          "name": "",
          "type": "address[]"
        }
      ],
      "stateMutability": "view",
      "type": "function"
    },
    {
      "inputs": [
        {
          "internalType": "address",
          "name": "key",
          "type": "address"
        }
      ],
      "name": "getStudent",
      "outputs": [
        {
          "components": [
            {
              "internalType": "uint256",
              "name": "isee",
              "type": "uint256"
            },
            {
              "internalType": "uint256",
              "name": "credits",
              "type": "uint256"
            },
            {
              "internalType": "uint256",
              "name": "year",
              "type": "uint256"
            },
            {
              "internalType": "uint256",
              "name": "score",
              "type": "uint256"
            },
            {
              "internalType": "uint256",
              "name": "funds",
              "type": "uint256"
            },
            {
              "internalType": "bool",
              "name": "eligible",
              "type": "bool"
            },
            {
              "internalType": "enum MyContract.status",
              "name": "_status",
              "type": "uint8"
            }
          ],
          "internalType": "struct MyContract.Student",
          "name": "",
          "type": "tuple"
        }
      ],
      "stateMutability": "view",
      "type": "function"
    },
    {
      "inputs": [
        {
          "internalType": "uint256",
          "name": "_isee",
          "type": "uint256"
        },
        {
          "internalType": "uint256",
          "name": "_crediti",
          "type": "uint256"
        },
        {
          "internalType": "uint256",
          "name": "_year",
          "type": "uint256"
        },
        {
          "internalType": "address",
          "name": "key",
          "type": "address"
        },
        {
          "internalType": "enum MyContract.status",
          "name": "_status",
          "type": "uint8"
        }
      ],
      "name": "addStudent",
      "outputs": [],
      "stateMutability": "nonpayable",
      "type": "function"
    },
    {
      "inputs": [],
      "name": "getStudentCount",
      "outputs": [
        {
          "internalType": "uint256",
          "name": "",
          "type": "uint256"
        }
      ],
      "stateMutability": "view",
      "type": "function"
    },
    {
      "inputs": [
        {
          "components": [
            {
              "internalType": "uint256",
              "name": "isee",
              "type": "uint256"
            },
            {
              "internalType": "uint256",
              "name": "credits",
              "type": "uint256"
            },
            {
              "internalType": "uint256",
              "name": "year",
              "type": "uint256"
            },
            {
              "internalType": "uint256",
              "name": "score",
              "type": "uint256"
            },
            {
              "internalType": "uint256",
              "name": "funds",
              "type": "uint256"
            },
            {
              "internalType": "bool",
              "name": "eligible",
              "type": "bool"
            },
            {
              "internalType": "enum MyContract.status",
              "name": "_status",
              "type": "uint8"
            }
          ],
          "internalType": "struct MyContract.Student",
          "name": "student",
          "type": "tuple"
        }
      ],
      "name": "computeScore",
      "outputs": [
        {
          "internalType": "uint256",
          "name": "",
          "type": "uint256"
        }
      ],
      "stateMutability": "pure",
      "type": "function"
    },
    {
      "inputs": [],
      "name": "rankStudents",
      "outputs": [
        {
          "internalType": "address[]",
          "name": "",
          "type": "address[]"
        }
      ],
      "stateMutability": "nonpayable",
      "type": "function"
    },
    {
      "inputs": [],
      "name": "assignFunding",
      "outputs": [],
      "stateMutability": "nonpayable",
      "type": "function"
    },
    {
      "inputs": [
        {
          "components": [
            {
              "internalType": "uint256",
              "name": "isee",
              "type": "uint256"
            },
            {
              "internalType": "uint256",
              "name": "credits",
              "type": "uint256"
            },
            {
              "internalType": "uint256",
              "name": "year",
              "type": "uint256"
            },
            {
              "internalType": "uint256",
              "name": "score",
              "type": "uint256"
            },
            {
              "internalType": "uint256",
              "name": "funds",
              "type": "uint256"
            },
            {
              "internalType": "bool",
              "name": "eligible",
              "type": "bool"
            },
            {
              "internalType": "enum MyContract.status",
              "name": "_status",
              "type": "uint8"
            }
          ],
          "internalType": "struct MyContract.Student",
          "name": "student",
          "type": "tuple"
        }
      ],
      "name": "isEligible",
      "outputs": [
        {
          "internalType": "bool",
          "name": "",
          "type": "bool"
        }
      ],
      "stateMutability": "view",
      "type": "function"
    }
  ],
  "bytecode": "0x6080604052615dc06000556107d06001556040518060600160405280600060ff168152602001602d60ff168152602001605560ff16815250600290600362000049929190620000d3565b50604051806060016040528061051461ffff16815260200161070861ffff168152602001610c0761ffff168152506003906003620000899291906200012a565b503480156200009757600080fd5b5060405162001c5e38038062001c5e8339818101604052810190620000bd9190620001e1565b8060008190555081600481905550505062000228565b82805482825590600052602060002090810192821562000117579160200282015b8281111562000116578251829060ff16905591602001919060010190620000f4565b5b50905062000126919062000182565b5090565b8280548282559060005260206000209081019282156200016f579160200282015b828111156200016e578251829061ffff169055916020019190600101906200014b565b5b5090506200017e919062000182565b5090565b5b808211156200019d57600081600090555060010162000183565b5090565b600080fd5b6000819050919050565b620001bb81620001a6565b8114620001c757600080fd5b50565b600081519050620001db81620001b0565b92915050565b60008060408385031215620001fb57620001fa620001a1565b5b60006200020b85828601620001ca565b92505060206200021e85828601620001ca565b9150509250929050565b611a2680620002386000396000f3fe608060405234801561001057600080fd5b50600436106101165760003560e01c80636d21ac33116100a2578063e03eb24911610071578063e03eb249146102f7578063e2ff94c514610327578063e7d7393d14610345578063ea8728ea1461034f578063eb63e6431461036d57610116565b80636d21ac331461025d5780636fd4d5051461028d5780637d3567b8146102ab57806395cdd66e146102db57610116565b806321536493116100e957806321536493146101b757806341e0c407146101c157806342d65b2c146101df5780635fc67f46146101fd5780636b7b44d71461022d57610116565b80630cb6aaf11461011b578063127714c71461014b57806312858edb146101695780632150c51814610199575b600080fd5b6101356004803603810190610130919061115d565b6103a3565b60405161014291906111cb565b60405180910390f35b6101536103e2565b60405161016091906111f5565b60405180910390f35b610183600480360381019061017e91906113b2565b6103ec565b60405161019091906111f5565b60405180910390f35b6101a16103fa565b6040516101ae919061149d565b60405180910390f35b6101bf610488565b005b6101c96104a2565b6040516101d691906111f5565b60405180910390f35b6101e76104af565b6040516101f491906111f5565b60405180910390f35b6102176004803603810190610212919061115d565b6104b5565b60405161022491906111cb565b60405180910390f35b610247600480360381019061024291906114eb565b6104f4565b604051610254919061163b565b60405180910390f35b610277600480360381019061027291906113b2565b6105d5565b6040516102849190611665565b60405180910390f35b610295610628565b6040516102a291906111f5565b60405180910390f35b6102c560048036038101906102c0919061115d565b61062e565b6040516102d291906111f5565b60405180910390f35b6102f560048036038101906102f09190611680565b610652565b005b610311600480360381019061030c919061115d565b610805565b60405161031e91906111f5565b60405180910390f35b61032f610829565b60405161033c91906111f5565b60405180910390f35b61034d61082f565b005b610357610d22565b604051610364919061149d565b60405180910390f35b610387600480360381019061038291906114eb565b610fc4565b60405161039a979695949392919061170a565b60405180910390f35b600681815481106103b357600080fd5b906000526020600020016000915054906101000a900473ffffffffffffffffffffffffffffffffffffffff1681565b6000600454905090565b600081600001519050919050565b6060600680548060200260200160405190810160405280929190818152602001828054801561047e57602002820191906000526020600020905b8160009054906101000a900473ffffffffffffffffffffffffffffffffffffffff1673ffffffffffffffffffffffffffffffffffffffff1681526020019060010190808311610434575b5050505050905090565b6004600081548092919061049b906117a8565b9190505550565b6000600680549050905090565b60005481565b600781815481106104c557600080fd5b906000526020600020016000915054906101000a900473ffffffffffffffffffffffffffffffffffffffff1681565b6104fc611020565b600560008373ffffffffffffffffffffffffffffffffffffffff1673ffffffffffffffffffffffffffffffffffffffff1681526020019081526020016000206040518060e001604052908160008201548152602001600182015481526020016002820154815260200160038201548152602001600482015481526020016005820160009054906101000a900460ff161515151581526020016005820160019054906101000a900460ff1660028111156105b8576105b7611536565b5b60028111156105ca576105c9611536565b5b815250509050919050565b600080600190506000548360000151118061061557506002836040015181548110610603576106026117f0565b5b90600052602060002001548360200151105b1561061f57600090505b80915050919050565b60015481565b6003818154811061063e57600080fd5b906000526020600020016000915090505481565b60006040518060e00160405280878152602001868152602001858152602001600081526020016000815260200160001515815260200183600281111561069b5761069a611536565b5b81525090506106a9816105d5565b8160a00190151590811515815250508060a00151156106d5576106cb816103ec565b8160600181815250505b80600560008573ffffffffffffffffffffffffffffffffffffffff1673ffffffffffffffffffffffffffffffffffffffff168152602001908152602001600020600082015181600001556020820151816001015560408201518160020155606082015181600301556080820151816004015560a08201518160050160006101000a81548160ff02191690831515021790555060c08201518160050160016101000a81548160ff0219169083600281111561079257610791611536565b5b02179055509050506006839080600181540180825580915050600190039060005260206000200160009091909190916101000a81548173ffffffffffffffffffffffffffffffffffffffff021916908373ffffffffffffffffffffffffffffffffffffffff160217905550505050505050565b6002818154811061081557600080fd5b906000526020600020016000915090505481565b60045481565b6000600780549050905060006004549050600080600080600090505b85811015610d1957600154600560006007848154811061086e5761086d6117f0565b5b9060005260206000200160009054906101000a900473ffffffffffffffffffffffffffffffffffffffff1673ffffffffffffffffffffffffffffffffffffffff1673ffffffffffffffffffffffffffffffffffffffff16815260200190815260200160002060000154116108ef57600180546108ea919061181f565b610971565b6005600060078381548110610907576109066117f0565b5b9060005260206000200160009054906101000a900473ffffffffffffffffffffffffffffffffffffffff1673ffffffffffffffffffffffffffffffffffffffff1673ffffffffffffffffffffffffffffffffffffffff168152602001908152602001600020600001545b93506000600281111561098757610986611536565b5b600560006007848154811061099f5761099e6117f0565b5b9060005260206000200160009054906101000a900473ffffffffffffffffffffffffffffffffffffffff1673ffffffffffffffffffffffffffffffffffffffff1673ffffffffffffffffffffffffffffffffffffffff16815260200190815260200160002060050160019054906101000a900460ff166002811115610a2757610a26611536565b5b03610a53576003600081548110610a4157610a406117f0565b5b90600052602060002001549250610c10565b60016002811115610a6757610a66611536565b5b6005600060078481548110610a7f57610a7e6117f0565b5b9060005260206000200160009054906101000a900473ffffffffffffffffffffffffffffffffffffffff1673ffffffffffffffffffffffffffffffffffffffff1673ffffffffffffffffffffffffffffffffffffffff16815260200190815260200160002060050160019054906101000a900460ff166002811115610b0757610b06611536565b5b03610b33576003600181548110610b2157610b206117f0565b5b90600052602060002001549250610c0f565b600280811115610b4657610b45611536565b5b6005600060078481548110610b5e57610b5d6117f0565b5b9060005260206000200160009054906101000a900473ffffffffffffffffffffffffffffffffffffffff1673ffffffffffffffffffffffffffffffffffffffff1673ffffffffffffffffffffffffffffffffffffffff16815260200190815260200160002060050160019054906101000a900460ff166002811115610be657610be5611536565b5b03610c0e576003600281548110610c0057610bff6117f0565b5b906000526020600020015492505b5b5b826002610c1d919061185d565b84600154610c2b91906118d5565b600154600054610c3b9190611918565b85610c46919061197b565b610c50919061185d565b610c5a91906119ac565b9150818510610cfb578185610c6f9190611918565b9450816005600060078481548110610c8a57610c896117f0565b5b9060005260206000200160009054906101000a900473ffffffffffffffffffffffffffffffffffffffff1673ffffffffffffffffffffffffffffffffffffffff1673ffffffffffffffffffffffffffffffffffffffff16815260200190815260200160002060040181905550610d06565b505050505050610d20565b8080610d11906117a8565b91505061084b565b5050505050505b565b606060006006805480602002602001604051908101604052809291908181526020018280548015610da857602002820191906000526020600020905b8160009054906101000a900473ffffffffffffffffffffffffffffffffffffffff1673ffffffffffffffffffffffffffffffffffffffff1681526020019060010190808311610d5e575b5050505050905060008151905060005b600182610dc59190611918565b811015610fa4576000600182610ddb919061181f565b90505b82811015610f905760056000858381518110610dfd57610dfc6117f0565b5b602002602001015173ffffffffffffffffffffffffffffffffffffffff1673ffffffffffffffffffffffffffffffffffffffff1681526020019081526020016000206003015460056000868581518110610e5a57610e596117f0565b5b602002602001015173ffffffffffffffffffffffffffffffffffffffff1673ffffffffffffffffffffffffffffffffffffffff168152602001908152602001600020600301541015610f7d576000848381518110610ebb57610eba6117f0565b5b60200260200101519050848281518110610ed857610ed76117f0565b5b6020026020010151858481518110610ef357610ef26117f0565b5b602002602001019073ffffffffffffffffffffffffffffffffffffffff16908173ffffffffffffffffffffffffffffffffffffffff168152505080858381518110610f4157610f406117f0565b5b602002602001019073ffffffffffffffffffffffffffffffffffffffff16908173ffffffffffffffffffffffffffffffffffffffff1681525050505b8080610f88906117a8565b915050610dde565b508080610f9c906117a8565b915050610db8565b508160079080519060200190610fbb929190611071565b50819250505090565b60056020528060005260406000206000915090508060000154908060010154908060020154908060030154908060040154908060050160009054906101000a900460ff16908060050160019054906101000a900460ff16905087565b6040518060e0016040528060008152602001600081526020016000815260200160008152602001600081526020016000151581526020016000600281111561106b5761106a611536565b5b81525090565b8280548282559060005260206000209081019282156110ea579160200282015b828111156110e95782518260006101000a81548173ffffffffffffffffffffffffffffffffffffffff021916908373ffffffffffffffffffffffffffffffffffffffff16021790555091602001919060010190611091565b5b5090506110f791906110fb565b5090565b5b808211156111145760008160009055506001016110fc565b5090565b6000604051905090565b600080fd5b6000819050919050565b61113a81611127565b811461114557600080fd5b50565b60008135905061115781611131565b92915050565b60006020828403121561117357611172611122565b5b600061118184828501611148565b91505092915050565b600073ffffffffffffffffffffffffffffffffffffffff82169050919050565b60006111b58261118a565b9050919050565b6111c5816111aa565b82525050565b60006020820190506111e060008301846111bc565b92915050565b6111ef81611127565b82525050565b600060208201905061120a60008301846111e6565b92915050565b600080fd5b6000601f19601f8301169050919050565b7f4e487b7100000000000000000000000000000000000000000000000000000000600052604160045260246000fd5b61125e82611215565b810181811067ffffffffffffffff8211171561127d5761127c611226565b5b80604052505050565b6000611290611118565b905061129c8282611255565b919050565b60008115159050919050565b6112b6816112a1565b81146112c157600080fd5b50565b6000813590506112d3816112ad565b92915050565b600381106112e657600080fd5b50565b6000813590506112f8816112d9565b92915050565b600060e0828403121561131457611313611210565b5b61131e60e0611286565b9050600061132e84828501611148565b600083015250602061134284828501611148565b602083015250604061135684828501611148565b604083015250606061136a84828501611148565b606083015250608061137e84828501611148565b60808301525060a0611392848285016112c4565b60a08301525060c06113a6848285016112e9565b60c08301525092915050565b600060e082840312156113c8576113c7611122565b5b60006113d6848285016112fe565b91505092915050565b600081519050919050565b600082825260208201905092915050565b6000819050602082019050919050565b611414816111aa565b82525050565b6000611426838361140b565b60208301905092915050565b6000602082019050919050565b600061144a826113df565b61145481856113ea565b935061145f836113fb565b8060005b83811015611490578151611477888261141a565b975061148283611432565b925050600181019050611463565b5085935050505092915050565b600060208201905081810360008301526114b7818461143f565b905092915050565b6114c8816111aa565b81146114d357600080fd5b50565b6000813590506114e5816114bf565b92915050565b60006020828403121561150157611500611122565b5b600061150f848285016114d6565b91505092915050565b61152181611127565b82525050565b611530816112a1565b82525050565b7f4e487b7100000000000000000000000000000000000000000000000000000000600052602160045260246000fd5b6003811061157657611575611536565b5b50565b600081905061158782611565565b919050565b600061159782611579565b9050919050565b6115a78161158c565b82525050565b60e0820160008201516115c36000850182611518565b5060208201516115d66020850182611518565b5060408201516115e96040850182611518565b5060608201516115fc6060850182611518565b50608082015161160f6080850182611518565b5060a082015161162260a0850182611527565b5060c082015161163560c085018261159e565b50505050565b600060e08201905061165060008301846115ad565b92915050565b61165f816112a1565b82525050565b600060208201905061167a6000830184611656565b92915050565b600080600080600060a0868803121561169c5761169b611122565b5b60006116aa88828901611148565b95505060206116bb88828901611148565b94505060406116cc88828901611148565b93505060606116dd888289016114d6565b92505060806116ee888289016112e9565b9150509295509295909350565b6117048161158c565b82525050565b600060e08201905061171f600083018a6111e6565b61172c60208301896111e6565b61173960408301886111e6565b61174660608301876111e6565b61175360808301866111e6565b61176060a0830185611656565b61176d60c08301846116fb565b98975050505050505050565b7f4e487b7100000000000000000000000000000000000000000000000000000000600052601160045260246000fd5b60006117b382611127565b91507fffffffffffffffffffffffffffffffffffffffffffffffffffffffffffffffff82036117e5576117e4611779565b5b600182019050919050565b7f4e487b7100000000000000000000000000000000000000000000000000000000600052603260045260246000fd5b600061182a82611127565b915061183583611127565b925082820190508082111561184d5761184c611779565b5b92915050565b6000819050919050565b600061186882611853565b915061187383611853565b925082820261188181611853565b91507f800000000000000000000000000000000000000000000000000000000000000084146000841216156118b9576118b8611779565b5b82820584148315176118ce576118cd611779565b5b5092915050565b60006118e082611853565b91506118eb83611853565b925082820390508181126000841216828213600085121516171561191257611911611779565b5b92915050565b600061192382611127565b915061192e83611127565b925082820390508181111561194657611945611779565b5b92915050565b7f4e487b7100000000000000000000000000000000000000000000000000000000600052601260045260246000fd5b600061198682611127565b915061199183611127565b9250826119a1576119a061194c565b5b828204905092915050565b60006119b782611853565b91506119c283611853565b9250828201905082811215600083121683821260008412151617156119ea576119e9611779565b5b9291505056fea2646970667358221220bf01f76aaadfd2f4cdcba533983d2dd29cf154b592890c62cb5ee81a71a1ad9364736f6c63430008130033",
  "immutableReferences": {},
  "source": "// SPDX-License-Identifier: MIT\npragma solidity ^0.8.0;\n\ncontract MyContract {\n\n    // Adjustments and imput checking needed to functions\n\n    /////////////////////////////////////////////////////////////////////\n    // STRUCTS AND GLOBAL VARIABLES\n\n    struct Student {\n        uint256 isee; // [0, 1000000]\n        uint256 credits; // [0, 1000]\n        uint256 year; //year you are asking for the scholarship [1, 3]\n        uint256 score; //computed for ranking\n        uint256 funds; //scholarship value for the student\n        bool eligible; // true/false\n        status _status;\n    }\n\n    enum status{ IN_SEDE, PENDOLARE, FUORI_SEDE } //the three allowed statuses for students\n\n\n    uint256 public ISEE_LIMIT = 24000; //maximum allowed ISEE to be eligible\n    uint256 public ISEE_MIN = 2000; //supposed minimum ISEE (for scholarship computation)\n    uint256[] public CREDITS_PER_YEAR = [0, 45, 85]; //required credits for each year of the bachelor to be eligible\n    uint256[] public FUNDS = [1300, 1800, 3079]; //minimum scholarsip value for each student status (max is double)\n    uint256 public BUDGET; //entire budget for the scholarships\n    \n    mapping(address => Student) public mappingStudents; //contains the association address->student\n\n    address[] public keys; //stores the key of each applying student\n    address[] public rankedKeys; //stores the keys of students after rankStudents() gets called\n\n    /////////////////////////////////////////////////////////////////////\n\n    constructor(uint256 budget, uint256 isee_limit) {\n        ISEE_LIMIT = isee_limit;\n        BUDGET = budget;\n    }\n\n    function getBudget() public view returns (uint256) {\n        return BUDGET;\n    }\n\n    function incrementBudget() public {\n        BUDGET++;\n    }\n\n    /////////////////////////////////////////////////////////////////////\n    // STUDENTS\n\n    function getKeys() public view returns (address[] memory) {\n        return keys;\n    }\n\n    function getStudent(address key) public view returns (Student memory) {\n        return mappingStudents[key];\n    }\n\n    function addStudent(uint256 _isee, uint256 _crediti, uint256 _year, address key, status _status) public {\n\n        Student memory newStudent = Student(_isee, _crediti, _year, uint256(0), uint256(0), false, _status);\n\n        newStudent.eligible = isEligible(newStudent);\n        if(newStudent.eligible)\n            newStudent.score = computeScore(newStudent);\n\n        mappingStudents[key] = newStudent;\n        keys.push(key);\n    }\n\n    function getStudentCount() public view returns (uint256) {\n        return keys.length;\n    }\n\n    function computeScore(Student memory student) public pure returns (uint256) {\n\n        //To be modified if a different ranking metric is necessary\n        return student.isee;\n    }\n\n    function rankStudents() public returns (address[] memory){\n\n        address[] memory sortedArray = keys;\n        uint len = sortedArray.length;\n\n        // Order students' addresses by looking at their score\n        for (uint i = 0; i < len - 1; i++) {\n            for (uint j = i + 1; j < len; j++) {\n                if (mappingStudents[sortedArray[i]].score < mappingStudents[sortedArray[j]].score) {\n                    // Swap elements\n                    address temp = sortedArray[i];\n                    sortedArray[i] = sortedArray[j];\n                    sortedArray[j] = temp;\n                }\n            }\n        }\n\n        rankedKeys = sortedArray;\n\n        return sortedArray;\n    }\n\n    //Uses the student's ranking to assign funds to each student until funds are depleted\n    function assignFunding() public {\n\n        uint len = rankedKeys.length;\n        uint256 budget = BUDGET;\n        uint256 isee = 0;\n        uint256 minFund = 0;\n        uint256 funds;\n\n        for (uint i = 0; i < len; i++) {\n\n            isee = mappingStudents[rankedKeys[i]].isee > ISEE_MIN ? mappingStudents[rankedKeys[i]].isee : ISEE_MIN + 1;\n\n            if(mappingStudents[rankedKeys[i]]._status == status.IN_SEDE) {\n                minFund = FUNDS[0];\n            } else if (mappingStudents[rankedKeys[i]]._status == status.PENDOLARE) {\n                minFund = FUNDS[1];\n            } else if (mappingStudents[rankedKeys[i]]._status == status.FUORI_SEDE) {\n                minFund = FUNDS[2];\n            }\n\n            funds = uint256(int256((minFund / (ISEE_LIMIT - ISEE_MIN))) * (int256(ISEE_MIN) - int256(isee)) + 2 * int256(minFund));\n\n            if(budget >= funds) {\n                budget = budget - funds;\n                mappingStudents[rankedKeys[i]].funds = funds;\n            } else {\n                return;\n            }\n        }\n\n    }\n\n    // Checks if a student should be eligible for the scholarship based on its ISEE and credits\n    function isEligible(Student memory student) public view returns (bool) {\n        bool eligible = true;\n\n        if(student.isee > ISEE_LIMIT || student.credits < CREDITS_PER_YEAR[student.year]) {\n            eligible = false;\n        }\n\n        return eligible;\n    }\n\n    /////////////////////////////////////////////////////////////////////\n\n}\n",
  "sourcePath": "/home/nicola/Scrivania/Blockchain-Project/Scholarship-master/ScholarshipServer/contracts/MyContract.sol",
  "compiler": {
    "name": "solc",
    "version": "0.8.19+commit.7dd6d404.Emscripten.clang"
  },
  "schemaVersion": "3.4.13",
  "updatedAt": "2023-06-24T11:16:04.263Z",
  "devdoc": {
    "kind": "dev",
    "methods": {},
    "version": 1
  },
  "userdoc": {
    "kind": "user",
    "methods": {},
    "version": 1
  }
}