{
  "contractName": "MyContract",
  "abi": [
    {
      "inputs": [
        {
          "internalType": "uint256",
          "name": "budget",
          "type": "uint256"
        },
        {
          "internalType": "uint256",
          "name": "isee_limit",
          "type": "uint256"
        },
        {
          "internalType": "string",
          "name": "name",
          "type": "string"
        },
        {
          "internalType": "string",
          "name": "date",
          "type": "string"
        }
      ],
      "stateMutability": "nonpayable",
      "type": "constructor"
    },
    {
      "inputs": [],
      "name": "BUDGET",
      "outputs": [
        {
          "internalType": "uint256",
          "name": "",
          "type": "uint256"
        }
      ],
      "stateMutability": "view",
      "type": "function"
    },
    {
      "inputs": [
        {
          "internalType": "uint256",
          "name": "",
          "type": "uint256"
        }
      ],
      "name": "CREDITS_PER_YEAR",
      "outputs": [
        {
          "internalType": "uint256",
          "name": "",
          "type": "uint256"
        }
      ],
      "stateMutability": "view",
      "type": "function"
    },
    {
      "inputs": [],
      "name": "DATE",
      "outputs": [
        {
          "internalType": "string",
          "name": "",
          "type": "string"
        }
      ],
      "stateMutability": "view",
      "type": "function"
    },
    {
      "inputs": [
        {
          "internalType": "uint256",
          "name": "",
          "type": "uint256"
        }
      ],
      "name": "FUNDS",
      "outputs": [
        {
          "internalType": "uint256",
          "name": "",
          "type": "uint256"
        }
      ],
      "stateMutability": "view",
      "type": "function"
    },
    {
      "inputs": [],
      "name": "ISEE_LIMIT",
      "outputs": [
        {
          "internalType": "uint256",
          "name": "",
          "type": "uint256"
        }
      ],
      "stateMutability": "view",
      "type": "function"
    },
    {
      "inputs": [],
      "name": "ISEE_MIN",
      "outputs": [
        {
          "internalType": "uint256",
          "name": "",
          "type": "uint256"
        }
      ],
      "stateMutability": "view",
      "type": "function"
    },
    {
      "inputs": [],
      "name": "NAME",
      "outputs": [
        {
          "internalType": "string",
          "name": "",
          "type": "string"
        }
      ],
      "stateMutability": "view",
      "type": "function"
    },
    {
      "inputs": [
        {
          "internalType": "uint256",
          "name": "",
          "type": "uint256"
        }
      ],
      "name": "keys",
      "outputs": [
        {
          "internalType": "address",
          "name": "",
          "type": "address"
        }
      ],
      "stateMutability": "view",
      "type": "function"
    },
    {
      "inputs": [
        {
          "internalType": "address",
          "name": "",
          "type": "address"
        }
      ],
      "name": "mappingStudents",
      "outputs": [
        {
          "internalType": "uint256",
          "name": "isee",
          "type": "uint256"
        },
        {
          "internalType": "uint256",
          "name": "credits",
          "type": "uint256"
        },
        {
          "internalType": "uint256",
          "name": "year",
          "type": "uint256"
        },
        {
          "internalType": "uint256",
          "name": "score",
          "type": "uint256"
        },
        {
          "internalType": "uint256",
          "name": "funds",
          "type": "uint256"
        },
        {
          "internalType": "bool",
          "name": "eligible",
          "type": "bool"
        },
        {
          "internalType": "enum MyContract.status",
          "name": "_status",
          "type": "uint8"
        }
      ],
      "stateMutability": "view",
      "type": "function"
    },
    {
      "inputs": [
        {
          "internalType": "uint256",
          "name": "",
          "type": "uint256"
        }
      ],
      "name": "rankedKeys",
      "outputs": [
        {
          "internalType": "address",
          "name": "",
          "type": "address"
        }
      ],
      "stateMutability": "view",
      "type": "function"
    },
    {
      "inputs": [],
      "name": "getBudget",
      "outputs": [
        {
          "internalType": "uint256",
          "name": "",
          "type": "uint256"
        }
      ],
      "stateMutability": "view",
      "type": "function"
    },
    {
      "inputs": [],
      "name": "incrementBudget",
      "outputs": [],
      "stateMutability": "nonpayable",
      "type": "function"
    },
    {
      "inputs": [],
      "name": "getKeys",
      "outputs": [
        {
          "internalType": "address[]",
          "name": "",
          "type": "address[]"
        }
      ],
      "stateMutability": "view",
      "type": "function"
    },
    {
      "inputs": [
        {
          "internalType": "address",
          "name": "key",
          "type": "address"
        }
      ],
      "name": "getStudent",
      "outputs": [
        {
          "components": [
            {
              "internalType": "uint256",
              "name": "isee",
              "type": "uint256"
            },
            {
              "internalType": "uint256",
              "name": "credits",
              "type": "uint256"
            },
            {
              "internalType": "uint256",
              "name": "year",
              "type": "uint256"
            },
            {
              "internalType": "uint256",
              "name": "score",
              "type": "uint256"
            },
            {
              "internalType": "uint256",
              "name": "funds",
              "type": "uint256"
            },
            {
              "internalType": "bool",
              "name": "eligible",
              "type": "bool"
            },
            {
              "internalType": "enum MyContract.status",
              "name": "_status",
              "type": "uint8"
            }
          ],
          "internalType": "struct MyContract.Student",
          "name": "",
          "type": "tuple"
        }
      ],
      "stateMutability": "view",
      "type": "function"
    },
    {
      "inputs": [],
      "name": "getStudents",
      "outputs": [
        {
          "components": [
            {
              "internalType": "uint256",
              "name": "isee",
              "type": "uint256"
            },
            {
              "internalType": "uint256",
              "name": "credits",
              "type": "uint256"
            },
            {
              "internalType": "uint256",
              "name": "year",
              "type": "uint256"
            },
            {
              "internalType": "uint256",
              "name": "score",
              "type": "uint256"
            },
            {
              "internalType": "uint256",
              "name": "funds",
              "type": "uint256"
            },
            {
              "internalType": "bool",
              "name": "eligible",
              "type": "bool"
            },
            {
              "internalType": "enum MyContract.status",
              "name": "_status",
              "type": "uint8"
            }
          ],
          "internalType": "struct MyContract.Student[]",
          "name": "",
          "type": "tuple[]"
        }
      ],
      "stateMutability": "nonpayable",
      "type": "function"
    },
    {
      "inputs": [
        {
          "internalType": "uint256",
          "name": "_isee",
          "type": "uint256"
        },
        {
          "internalType": "uint256",
          "name": "_crediti",
          "type": "uint256"
        },
        {
          "internalType": "uint256",
          "name": "_year",
          "type": "uint256"
        },
        {
          "internalType": "address",
          "name": "key",
          "type": "address"
        },
        {
          "internalType": "enum MyContract.status",
          "name": "_status",
          "type": "uint8"
        }
      ],
      "name": "addStudent",
      "outputs": [],
      "stateMutability": "nonpayable",
      "type": "function"
    },
    {
      "inputs": [],
      "name": "getStudentCount",
      "outputs": [
        {
          "internalType": "uint256",
          "name": "",
          "type": "uint256"
        }
      ],
      "stateMutability": "view",
      "type": "function"
    },
    {
      "inputs": [
        {
          "components": [
            {
              "internalType": "uint256",
              "name": "isee",
              "type": "uint256"
            },
            {
              "internalType": "uint256",
              "name": "credits",
              "type": "uint256"
            },
            {
              "internalType": "uint256",
              "name": "year",
              "type": "uint256"
            },
            {
              "internalType": "uint256",
              "name": "score",
              "type": "uint256"
            },
            {
              "internalType": "uint256",
              "name": "funds",
              "type": "uint256"
            },
            {
              "internalType": "bool",
              "name": "eligible",
              "type": "bool"
            },
            {
              "internalType": "enum MyContract.status",
              "name": "_status",
              "type": "uint8"
            }
          ],
          "internalType": "struct MyContract.Student",
          "name": "student",
          "type": "tuple"
        }
      ],
      "name": "computeScore",
      "outputs": [
        {
          "internalType": "uint256",
          "name": "",
          "type": "uint256"
        }
      ],
      "stateMutability": "pure",
      "type": "function"
    },
    {
      "inputs": [],
      "name": "rankStudents",
      "outputs": [
        {
          "internalType": "address[]",
          "name": "",
          "type": "address[]"
        }
      ],
      "stateMutability": "nonpayable",
      "type": "function"
    },
    {
      "inputs": [],
      "name": "assignFunding",
      "outputs": [],
      "stateMutability": "nonpayable",
      "type": "function"
    },
    {
      "inputs": [
        {
          "components": [
            {
              "internalType": "uint256",
              "name": "isee",
              "type": "uint256"
            },
            {
              "internalType": "uint256",
              "name": "credits",
              "type": "uint256"
            },
            {
              "internalType": "uint256",
              "name": "year",
              "type": "uint256"
            },
            {
              "internalType": "uint256",
              "name": "score",
              "type": "uint256"
            },
            {
              "internalType": "uint256",
              "name": "funds",
              "type": "uint256"
            },
            {
              "internalType": "bool",
              "name": "eligible",
              "type": "bool"
            },
            {
              "internalType": "enum MyContract.status",
              "name": "_status",
              "type": "uint8"
            }
          ],
          "internalType": "struct MyContract.Student",
          "name": "student",
          "type": "tuple"
        }
      ],
      "name": "isEligible",
      "outputs": [
        {
          "internalType": "bool",
          "name": "",
          "type": "bool"
        }
      ],
      "stateMutability": "view",
      "type": "function"
    }
  ],
  "bytecode": "0x6080604052615dc06000556107d06001556040518060600160405280600060ff168152602001602d60ff168152602001605560ff16815250600290600362000049929190620000f9565b50604051806060016040528061051461ffff16815260200161070861ffff168152602001610c0761ffff1681525060039060036200008992919062000150565b503480156200009757600080fd5b5060405162002753380380620027538339818101604052810190620000bd919062000395565b82600081905550836004819055508160059081620000dc919062000686565b508060069081620000ee919062000686565b50505050506200076d565b8280548282559060005260206000209081019282156200013d579160200282015b828111156200013c578251829060ff169055916020019190600101906200011a565b5b5090506200014c9190620001a8565b5090565b82805482825590600052602060002090810192821562000195579160200282015b8281111562000194578251829061ffff1690559160200191906001019062000171565b5b509050620001a49190620001a8565b5090565b5b80821115620001c3576000816000905550600101620001a9565b5090565b6000604051905090565b600080fd5b600080fd5b6000819050919050565b620001f081620001db565b8114620001fc57600080fd5b50565b6000815190506200021081620001e5565b92915050565b600080fd5b600080fd5b6000601f19601f8301169050919050565b7f4e487b7100000000000000000000000000000000000000000000000000000000600052604160045260246000fd5b6200026b8262000220565b810181811067ffffffffffffffff821117156200028d576200028c62000231565b5b80604052505050565b6000620002a2620001c7565b9050620002b0828262000260565b919050565b600067ffffffffffffffff821115620002d357620002d262000231565b5b620002de8262000220565b9050602081019050919050565b60005b838110156200030b578082015181840152602081019050620002ee565b60008484015250505050565b60006200032e6200032884620002b5565b62000296565b9050828152602081018484840111156200034d576200034c6200021b565b5b6200035a848285620002eb565b509392505050565b600082601f8301126200037a576200037962000216565b5b81516200038c84826020860162000317565b91505092915050565b60008060008060808587031215620003b257620003b1620001d1565b5b6000620003c287828801620001ff565b9450506020620003d587828801620001ff565b935050604085015167ffffffffffffffff811115620003f957620003f8620001d6565b5b620004078782880162000362565b925050606085015167ffffffffffffffff8111156200042b576200042a620001d6565b5b620004398782880162000362565b91505092959194509250565b600081519050919050565b7f4e487b7100000000000000000000000000000000000000000000000000000000600052602260045260246000fd5b600060028204905060018216806200049857607f821691505b602082108103620004ae57620004ad62000450565b5b50919050565b60008190508160005260206000209050919050565b60006020601f8301049050919050565b600082821b905092915050565b600060088302620005187fffffffffffffffffffffffffffffffffffffffffffffffffffffffffffffffff82620004d9565b620005248683620004d9565b95508019841693508086168417925050509392505050565b6000819050919050565b600062000567620005616200055b84620001db565b6200053c565b620001db565b9050919050565b6000819050919050565b620005838362000546565b6200059b62000592826200056e565b848454620004e6565b825550505050565b600090565b620005b2620005a3565b620005bf81848462000578565b505050565b5b81811015620005e757620005db600082620005a8565b600181019050620005c5565b5050565b601f82111562000636576200060081620004b4565b6200060b84620004c9565b810160208510156200061b578190505b620006336200062a85620004c9565b830182620005c4565b50505b505050565b600082821c905092915050565b60006200065b600019846008026200063b565b1980831691505092915050565b600062000676838362000648565b9150826002028217905092915050565b620006918262000445565b67ffffffffffffffff811115620006ad57620006ac62000231565b5b620006b982546200047f565b620006c6828285620005eb565b600060209050601f831160018114620006fe5760008415620006e9578287015190505b620006f5858262000668565b86555062000765565b601f1984166200070e86620004b4565b60005b82811015620007385784890151825560018201915060208501945060208101905062000711565b8683101562000758578489015162000754601f89168262000648565b8355505b6001600288020188555050505b505050505050565b611fd6806200077d6000396000f3fe608060405234801561001057600080fd5b50600436106101375760003560e01c80636fd4d505116100b8578063e2ff94c51161007c578063e2ff94c514610366578063e4861bdd14610384578063e7d7393d146103a2578063ea8728ea146103ac578063eb63e643146103ca578063f1d064b31461040057610137565b80636fd4d505146102ae5780637d3567b8146102cc57806395cdd66e146102fc578063a3f4df7e14610318578063e03eb2491461033657610137565b806341e0c407116100ff57806341e0c407146101e257806342d65b2c146102005780635fc67f461461021e5780636b7b44d71461024e5780636d21ac331461027e57610137565b80630cb6aaf11461013c578063127714c71461016c57806312858edb1461018a5780632150c518146101ba57806321536493146101d8575b600080fd5b610156600480360381019061015191906114ad565b61041e565b604051610163919061151b565b60405180910390f35b61017461045d565b6040516101819190611545565b60405180910390f35b6101a4600480360381019061019f9190611702565b610467565b6040516101b19190611545565b60405180910390f35b6101c2610475565b6040516101cf91906117ed565b60405180910390f35b6101e0610503565b005b6101ea61051d565b6040516101f79190611545565b60405180910390f35b61020861052a565b6040516102159190611545565b60405180910390f35b610238600480360381019061023391906114ad565b610530565b604051610245919061151b565b60405180910390f35b6102686004803603810190610263919061183b565b61056f565b604051610275919061198b565b60405180910390f35b61029860048036038101906102939190611702565b610650565b6040516102a591906119b5565b60405180910390f35b6102b66106a3565b6040516102c39190611545565b60405180910390f35b6102e660048036038101906102e191906114ad565b6106a9565b6040516102f39190611545565b60405180910390f35b610316600480360381019061031191906119d0565b6106cd565b005b610320610880565b60405161032d9190611aca565b60405180910390f35b610350600480360381019061034b91906114ad565b61090e565b60405161035d9190611545565b60405180910390f35b61036e610932565b60405161037b9190611545565b60405180910390f35b61038c610938565b6040516103999190611aca565b60405180910390f35b6103aa6109c6565b005b6103b4610eb9565b6040516103c191906117ed565b60405180910390f35b6103e460048036038101906103df919061183b565b61115b565b6040516103f79796959493929190611afb565b60405180910390f35b6104086111b7565b6040516104159190611ca7565b60405180910390f35b6008818154811061042e57600080fd5b906000526020600020016000915054906101000a900473ffffffffffffffffffffffffffffffffffffffff1681565b6000600454905090565b600081600001519050919050565b606060088054806020026020016040519081016040528092919081815260200182805480156104f957602002820191906000526020600020905b8160009054906101000a900473ffffffffffffffffffffffffffffffffffffffff1673ffffffffffffffffffffffffffffffffffffffff16815260200190600101908083116104af575b5050505050905090565b6004600081548092919061051690611cf8565b9190505550565b6000600880549050905090565b60005481565b6009818154811061054057600080fd5b906000526020600020016000915054906101000a900473ffffffffffffffffffffffffffffffffffffffff1681565b610577611370565b600760008373ffffffffffffffffffffffffffffffffffffffff1673ffffffffffffffffffffffffffffffffffffffff1681526020019081526020016000206040518060e001604052908160008201548152602001600182015481526020016002820154815260200160038201548152602001600482015481526020016005820160009054906101000a900460ff161515151581526020016005820160019054906101000a900460ff16600281111561063357610632611886565b5b600281111561064557610644611886565b5b815250509050919050565b60008060019050600054836000015111806106905750600283604001518154811061067e5761067d611d40565b5b90600052602060002001548360200151105b1561069a57600090505b80915050919050565b60015481565b600381815481106106b957600080fd5b906000526020600020016000915090505481565b60006040518060e00160405280878152602001868152602001858152602001600081526020016000815260200160001515815260200183600281111561071657610715611886565b5b815250905061072481610650565b8160a00190151590811515815250508060a00151156107505761074681610467565b8160600181815250505b80600760008573ffffffffffffffffffffffffffffffffffffffff1673ffffffffffffffffffffffffffffffffffffffff168152602001908152602001600020600082015181600001556020820151816001015560408201518160020155606082015181600301556080820151816004015560a08201518160050160006101000a81548160ff02191690831515021790555060c08201518160050160016101000a81548160ff0219169083600281111561080d5761080c611886565b5b02179055509050506008839080600181540180825580915050600190039060005260206000200160009091909190916101000a81548173ffffffffffffffffffffffffffffffffffffffff021916908373ffffffffffffffffffffffffffffffffffffffff160217905550505050505050565b6005805461088d90611d9e565b80601f01602080910402602001604051908101604052809291908181526020018280546108b990611d9e565b80156109065780601f106108db57610100808354040283529160200191610906565b820191906000526020600020905b8154815290600101906020018083116108e957829003601f168201915b505050505081565b6002818154811061091e57600080fd5b906000526020600020016000915090505481565b60045481565b6006805461094590611d9e565b80601f016020809104026020016040519081016040528092919081815260200182805461097190611d9e565b80156109be5780601f10610993576101008083540402835291602001916109be565b820191906000526020600020905b8154815290600101906020018083116109a157829003601f168201915b505050505081565b6000600980549050905060006004549050600080600080600090505b85811015610eb0576001546007600060098481548110610a0557610a04611d40565b5b9060005260206000200160009054906101000a900473ffffffffffffffffffffffffffffffffffffffff1673ffffffffffffffffffffffffffffffffffffffff1673ffffffffffffffffffffffffffffffffffffffff1681526020019081526020016000206000015411610a865760018054610a819190611dcf565b610b08565b6007600060098381548110610a9e57610a9d611d40565b5b9060005260206000200160009054906101000a900473ffffffffffffffffffffffffffffffffffffffff1673ffffffffffffffffffffffffffffffffffffffff1673ffffffffffffffffffffffffffffffffffffffff168152602001908152602001600020600001545b935060006002811115610b1e57610b1d611886565b5b6007600060098481548110610b3657610b35611d40565b5b9060005260206000200160009054906101000a900473ffffffffffffffffffffffffffffffffffffffff1673ffffffffffffffffffffffffffffffffffffffff1673ffffffffffffffffffffffffffffffffffffffff16815260200190815260200160002060050160019054906101000a900460ff166002811115610bbe57610bbd611886565b5b03610bea576003600081548110610bd857610bd7611d40565b5b90600052602060002001549250610da7565b60016002811115610bfe57610bfd611886565b5b6007600060098481548110610c1657610c15611d40565b5b9060005260206000200160009054906101000a900473ffffffffffffffffffffffffffffffffffffffff1673ffffffffffffffffffffffffffffffffffffffff1673ffffffffffffffffffffffffffffffffffffffff16815260200190815260200160002060050160019054906101000a900460ff166002811115610c9e57610c9d611886565b5b03610cca576003600181548110610cb857610cb7611d40565b5b90600052602060002001549250610da6565b600280811115610cdd57610cdc611886565b5b6007600060098481548110610cf557610cf4611d40565b5b9060005260206000200160009054906101000a900473ffffffffffffffffffffffffffffffffffffffff1673ffffffffffffffffffffffffffffffffffffffff1673ffffffffffffffffffffffffffffffffffffffff16815260200190815260200160002060050160019054906101000a900460ff166002811115610d7d57610d7c611886565b5b03610da5576003600281548110610d9757610d96611d40565b5b906000526020600020015492505b5b5b826002610db49190611e0d565b84600154610dc29190611e85565b600154600054610dd29190611ec8565b85610ddd9190611f2b565b610de79190611e0d565b610df19190611f5c565b9150818510610e92578185610e069190611ec8565b9450816007600060098481548110610e2157610e20611d40565b5b9060005260206000200160009054906101000a900473ffffffffffffffffffffffffffffffffffffffff1673ffffffffffffffffffffffffffffffffffffffff1673ffffffffffffffffffffffffffffffffffffffff16815260200190815260200160002060040181905550610e9d565b505050505050610eb7565b8080610ea890611cf8565b9150506109e2565b5050505050505b565b606060006008805480602002602001604051908101604052809291908181526020018280548015610f3f57602002820191906000526020600020905b8160009054906101000a900473ffffffffffffffffffffffffffffffffffffffff1673ffffffffffffffffffffffffffffffffffffffff1681526020019060010190808311610ef5575b5050505050905060008151905060005b600182610f5c9190611ec8565b81101561113b576000600182610f729190611dcf565b90505b828110156111275760076000858381518110610f9457610f93611d40565b5b602002602001015173ffffffffffffffffffffffffffffffffffffffff1673ffffffffffffffffffffffffffffffffffffffff1681526020019081526020016000206003015460076000868581518110610ff157610ff0611d40565b5b602002602001015173ffffffffffffffffffffffffffffffffffffffff1673ffffffffffffffffffffffffffffffffffffffff16815260200190815260200160002060030154101561111457600084838151811061105257611051611d40565b5b6020026020010151905084828151811061106f5761106e611d40565b5b602002602001015185848151811061108a57611089611d40565b5b602002602001019073ffffffffffffffffffffffffffffffffffffffff16908173ffffffffffffffffffffffffffffffffffffffff1681525050808583815181106110d8576110d7611d40565b5b602002602001019073ffffffffffffffffffffffffffffffffffffffff16908173ffffffffffffffffffffffffffffffffffffffff1681525050505b808061111f90611cf8565b915050610f75565b50808061113390611cf8565b915050610f4f565b5081600990805190602001906111529291906113c1565b50819250505090565b60076020528060005260406000206000915090508060000154908060010154908060020154908060030154908060040154908060050160009054906101000a900460ff16908060050160019054906101000a900460ff16905087565b60606000600980549050905060008167ffffffffffffffff8111156111df576111de611576565b5b60405190808252806020026020018201604052801561121857816020015b611205611370565b8152602001906001900390816111fd5790505b50905060005b8281101561136757600760006009838154811061123e5761123d611d40565b5b9060005260206000200160009054906101000a900473ffffffffffffffffffffffffffffffffffffffff1673ffffffffffffffffffffffffffffffffffffffff1673ffffffffffffffffffffffffffffffffffffffff1681526020019081526020016000206040518060e001604052908160008201548152602001600182015481526020016002820154815260200160038201548152602001600482015481526020016005820160009054906101000a900460ff161515151581526020016005820160019054906101000a900460ff1660028111156113205761131f611886565b5b600281111561133257611331611886565b5b8152505082828151811061134957611348611d40565b5b6020026020010181905250808061135f90611cf8565b91505061121e565b50809250505090565b6040518060e001604052806000815260200160008152602001600081526020016000815260200160008152602001600015158152602001600060028111156113bb576113ba611886565b5b81525090565b82805482825590600052602060002090810192821561143a579160200282015b828111156114395782518260006101000a81548173ffffffffffffffffffffffffffffffffffffffff021916908373ffffffffffffffffffffffffffffffffffffffff160217905550916020019190600101906113e1565b5b509050611447919061144b565b5090565b5b8082111561146457600081600090555060010161144c565b5090565b6000604051905090565b600080fd5b6000819050919050565b61148a81611477565b811461149557600080fd5b50565b6000813590506114a781611481565b92915050565b6000602082840312156114c3576114c2611472565b5b60006114d184828501611498565b91505092915050565b600073ffffffffffffffffffffffffffffffffffffffff82169050919050565b6000611505826114da565b9050919050565b611515816114fa565b82525050565b6000602082019050611530600083018461150c565b92915050565b61153f81611477565b82525050565b600060208201905061155a6000830184611536565b92915050565b600080fd5b6000601f19601f8301169050919050565b7f4e487b7100000000000000000000000000000000000000000000000000000000600052604160045260246000fd5b6115ae82611565565b810181811067ffffffffffffffff821117156115cd576115cc611576565b5b80604052505050565b60006115e0611468565b90506115ec82826115a5565b919050565b60008115159050919050565b611606816115f1565b811461161157600080fd5b50565b600081359050611623816115fd565b92915050565b6003811061163657600080fd5b50565b60008135905061164881611629565b92915050565b600060e0828403121561166457611663611560565b5b61166e60e06115d6565b9050600061167e84828501611498565b600083015250602061169284828501611498565b60208301525060406116a684828501611498565b60408301525060606116ba84828501611498565b60608301525060806116ce84828501611498565b60808301525060a06116e284828501611614565b60a08301525060c06116f684828501611639565b60c08301525092915050565b600060e0828403121561171857611717611472565b5b60006117268482850161164e565b91505092915050565b600081519050919050565b600082825260208201905092915050565b6000819050602082019050919050565b611764816114fa565b82525050565b6000611776838361175b565b60208301905092915050565b6000602082019050919050565b600061179a8261172f565b6117a4818561173a565b93506117af8361174b565b8060005b838110156117e05781516117c7888261176a565b97506117d283611782565b9250506001810190506117b3565b5085935050505092915050565b60006020820190508181036000830152611807818461178f565b905092915050565b611818816114fa565b811461182357600080fd5b50565b6000813590506118358161180f565b92915050565b60006020828403121561185157611850611472565b5b600061185f84828501611826565b91505092915050565b61187181611477565b82525050565b611880816115f1565b82525050565b7f4e487b7100000000000000000000000000000000000000000000000000000000600052602160045260246000fd5b600381106118c6576118c5611886565b5b50565b60008190506118d7826118b5565b919050565b60006118e7826118c9565b9050919050565b6118f7816118dc565b82525050565b60e0820160008201516119136000850182611868565b5060208201516119266020850182611868565b5060408201516119396040850182611868565b50606082015161194c6060850182611868565b50608082015161195f6080850182611868565b5060a082015161197260a0850182611877565b5060c082015161198560c08501826118ee565b50505050565b600060e0820190506119a060008301846118fd565b92915050565b6119af816115f1565b82525050565b60006020820190506119ca60008301846119a6565b92915050565b600080600080600060a086880312156119ec576119eb611472565b5b60006119fa88828901611498565b9550506020611a0b88828901611498565b9450506040611a1c88828901611498565b9350506060611a2d88828901611826565b9250506080611a3e88828901611639565b9150509295509295909350565b600081519050919050565b600082825260208201905092915050565b60005b83811015611a85578082015181840152602081019050611a6a565b60008484015250505050565b6000611a9c82611a4b565b611aa68185611a56565b9350611ab6818560208601611a67565b611abf81611565565b840191505092915050565b60006020820190508181036000830152611ae48184611a91565b905092915050565b611af5816118dc565b82525050565b600060e082019050611b10600083018a611536565b611b1d6020830189611536565b611b2a6040830188611536565b611b376060830187611536565b611b446080830186611536565b611b5160a08301856119a6565b611b5e60c0830184611aec565b98975050505050505050565b600081519050919050565b600082825260208201905092915050565b6000819050602082019050919050565b60e082016000820151611bac6000850182611868565b506020820151611bbf6020850182611868565b506040820151611bd26040850182611868565b506060820151611be56060850182611868565b506080820151611bf86080850182611868565b5060a0820151611c0b60a0850182611877565b5060c0820151611c1e60c08501826118ee565b50505050565b6000611c308383611b96565b60e08301905092915050565b6000602082019050919050565b6000611c5482611b6a565b611c5e8185611b75565b9350611c6983611b86565b8060005b83811015611c9a578151611c818882611c24565b9750611c8c83611c3c565b925050600181019050611c6d565b5085935050505092915050565b60006020820190508181036000830152611cc18184611c49565b905092915050565b7f4e487b7100000000000000000000000000000000000000000000000000000000600052601160045260246000fd5b6000611d0382611477565b91507fffffffffffffffffffffffffffffffffffffffffffffffffffffffffffffffff8203611d3557611d34611cc9565b5b600182019050919050565b7f4e487b7100000000000000000000000000000000000000000000000000000000600052603260045260246000fd5b7f4e487b7100000000000000000000000000000000000000000000000000000000600052602260045260246000fd5b60006002820490506001821680611db657607f821691505b602082108103611dc957611dc8611d6f565b5b50919050565b6000611dda82611477565b9150611de583611477565b9250828201905080821115611dfd57611dfc611cc9565b5b92915050565b6000819050919050565b6000611e1882611e03565b9150611e2383611e03565b9250828202611e3181611e03565b91507f80000000000000000000000000000000000000000000000000000000000000008414600084121615611e6957611e68611cc9565b5b8282058414831517611e7e57611e7d611cc9565b5b5092915050565b6000611e9082611e03565b9150611e9b83611e03565b9250828203905081811260008412168282136000851215161715611ec257611ec1611cc9565b5b92915050565b6000611ed382611477565b9150611ede83611477565b9250828203905081811115611ef657611ef5611cc9565b5b92915050565b7f4e487b7100000000000000000000000000000000000000000000000000000000600052601260045260246000fd5b6000611f3682611477565b9150611f4183611477565b925082611f5157611f50611efc565b5b828204905092915050565b6000611f6782611e03565b9150611f7283611e03565b925082820190508281121560008312168382126000841215161715611f9a57611f99611cc9565b5b9291505056fea26469706673582212209169339ea6223109165d7d196ef1f368eb9b03bad10b81498538496f902ed09464736f6c63430008130033",
  "immutableReferences": {},
  "source": "// SPDX-License-Identifier: MIT\npragma solidity ^0.8.0;\n\ncontract MyContract {\n\n    // Adjustments and imput checking needed to functions\n\n    /////////////////////////////////////////////////////////////////////\n    // STRUCTS AND GLOBAL VARIABLES\n\n    struct Student {\n        uint256 isee; // [0, 1000000]\n        uint256 credits; // [0, 1000]\n        uint256 year; //year you are asking for the scholarship [1, 3]\n        uint256 score; //computed for ranking\n        uint256 funds; //scholarship value for the student\n        bool eligible; // true/false\n        status _status;\n    }\n\n    enum status{ IN_SEDE, PENDOLARE, FUORI_SEDE } //the three allowed statuses for students\n\n\n    uint256 public ISEE_LIMIT = 24000; //maximum allowed ISEE to be eligible\n    uint256 public ISEE_MIN = 2000; //supposed minimum ISEE (for scholarship computation)\n    uint256[] public CREDITS_PER_YEAR = [0, 45, 85]; //required credits for each year of the bachelor to be eligible\n    uint256[] public FUNDS = [1300, 1800, 3079]; //minimum scholarsip value for each student status (max is double)\n    uint256 public BUDGET; //entire budget for the scholarships\n    string public NAME; //name of scholarship\n    string public DATE; //end date to appply for the scholarship\n    \n    mapping(address => Student) public mappingStudents; //contains the association address->student\n\n    address[] public keys; //stores the key of each applying student\n    address[] public rankedKeys; //stores the keys of students after rankStudents() gets called\n\n    /////////////////////////////////////////////////////////////////////\n\n    constructor(uint256 budget, uint256 isee_limit, string memory name, string memory date) {\n        ISEE_LIMIT = isee_limit;\n        BUDGET = budget;\n        NAME = name;\n        DATE = date;\n    }\n\n    function getBudget() public view returns (uint256) {\n        return BUDGET;\n    }\n\n    function incrementBudget() public {\n        BUDGET++;\n    }\n\n    /////////////////////////////////////////////////////////////////////\n    // STUDENTS\n\n    function getKeys() public view returns (address[] memory) {\n        return keys;\n    }\n\n    function getStudent(address key) public view returns (Student memory) {\n        return mappingStudents[key];\n    }\n\n    function getStudents() public returns (Student[] memory){\n        uint len = rankedKeys.length;\n        Student[] memory studentArray = new Student[](len);\n        \n        for (uint i = 0; i < len; i++) {\n            studentArray[i] = mappingStudents[rankedKeys[i]];\n        }\n\n        return studentArray;\n    }\n\n    function addStudent(uint256 _isee, uint256 _crediti, uint256 _year, address key, status _status) public {\n\n        Student memory newStudent = Student(_isee, _crediti, _year, uint256(0), uint256(0), false, _status);\n\n        newStudent.eligible = isEligible(newStudent);\n        if(newStudent.eligible)\n            newStudent.score = computeScore(newStudent);\n\n        mappingStudents[key] = newStudent;\n        keys.push(key);\n    }\n\n    function getStudentCount() public view returns (uint256) {\n        return keys.length;\n    }\n\n    function computeScore(Student memory student) public pure returns (uint256) {\n\n        //To be modified if a different ranking metric is necessary\n        return student.isee;\n    }\n\n    function rankStudents() public returns (address[] memory){\n\n        address[] memory sortedArray = keys;\n        uint len = sortedArray.length;\n\n        // Order students' addresses by looking at their score\n        for (uint i = 0; i < len - 1; i++) {\n            for (uint j = i + 1; j < len; j++) {\n                if (mappingStudents[sortedArray[i]].score < mappingStudents[sortedArray[j]].score) {\n                    // Swap elements\n                    address temp = sortedArray[i];\n                    sortedArray[i] = sortedArray[j];\n                    sortedArray[j] = temp;\n                }\n            }\n        }\n\n        rankedKeys = sortedArray;\n\n        return sortedArray;\n    }\n\n    //Uses the student's ranking to assign funds to each student until funds are depleted\n    function assignFunding() public {\n\n        uint len = rankedKeys.length;\n        uint256 budget = BUDGET;\n        uint256 isee = 0;\n        uint256 minFund = 0;\n        uint256 funds;\n\n        for (uint i = 0; i < len; i++) {\n\n            isee = mappingStudents[rankedKeys[i]].isee > ISEE_MIN ? mappingStudents[rankedKeys[i]].isee : ISEE_MIN + 1;\n\n            if(mappingStudents[rankedKeys[i]]._status == status.IN_SEDE) {\n                minFund = FUNDS[0];\n            } else if (mappingStudents[rankedKeys[i]]._status == status.PENDOLARE) {\n                minFund = FUNDS[1];\n            } else if (mappingStudents[rankedKeys[i]]._status == status.FUORI_SEDE) {\n                minFund = FUNDS[2];\n            }\n\n            funds = uint256(int256((minFund / (ISEE_LIMIT - ISEE_MIN))) * (int256(ISEE_MIN) - int256(isee)) + 2 * int256(minFund));\n\n            if(budget >= funds) {\n                budget = budget - funds;\n                mappingStudents[rankedKeys[i]].funds = funds;\n            } else {\n                return;\n            }\n        }\n\n    }\n\n    // Checks if a student should be eligible for the scholarship based on its ISEE and credits\n    function isEligible(Student memory student) public view returns (bool) {\n        bool eligible = true;\n\n        if(student.isee > ISEE_LIMIT || student.credits < CREDITS_PER_YEAR[student.year]) {\n            eligible = false;\n        }\n\n        return eligible;\n    }\n\n    /////////////////////////////////////////////////////////////////////\n\n}\n",
  "sourcePath": "/home/nicola/Scrivania/Blockchain-Project/Scholarship-master/ScholarshipServer/contracts/MyContract.sol",
  "compiler": {
    "name": "solc",
    "version": "0.8.19+commit.7dd6d404.Emscripten.clang"
  },
  "schemaVersion": "3.4.13",
  "updatedAt": "2023-06-25T11:29:28.530Z",
  "devdoc": {
    "kind": "dev",
    "methods": {},
    "version": 1
  },
  "userdoc": {
    "kind": "user",
    "methods": {},
    "version": 1
  }
}