{
  "contractName": "MyContract",
  "abi": [
    {
      "inputs": [
        {
          "internalType": "uint256",
          "name": "budget",
          "type": "uint256"
        },
        {
          "internalType": "uint256",
          "name": "isee_limit",
          "type": "uint256"
        },
        {
          "internalType": "uint256[]",
          "name": "credits",
          "type": "uint256[]"
        },
        {
          "internalType": "uint256[]",
          "name": "funds",
          "type": "uint256[]"
        },
        {
          "internalType": "string",
          "name": "name",
          "type": "string"
        },
        {
          "internalType": "string",
          "name": "date",
          "type": "string"
        }
      ],
      "stateMutability": "nonpayable",
      "type": "constructor"
    },
    {
      "inputs": [],
      "name": "BUDGET",
      "outputs": [
        {
          "internalType": "uint256",
          "name": "",
          "type": "uint256"
        }
      ],
      "stateMutability": "view",
      "type": "function",
      "constant": true
    },
    {
      "inputs": [
        {
          "internalType": "uint256",
          "name": "",
          "type": "uint256"
        }
      ],
      "name": "CREDITS_PER_YEAR",
      "outputs": [
        {
          "internalType": "uint256",
          "name": "",
          "type": "uint256"
        }
      ],
      "stateMutability": "view",
      "type": "function",
      "constant": true
    },
    {
      "inputs": [],
      "name": "DATE",
      "outputs": [
        {
          "internalType": "string",
          "name": "",
          "type": "string"
        }
      ],
      "stateMutability": "view",
      "type": "function",
      "constant": true
    },
    {
      "inputs": [
        {
          "internalType": "uint256",
          "name": "",
          "type": "uint256"
        }
      ],
      "name": "FUNDS",
      "outputs": [
        {
          "internalType": "uint256",
          "name": "",
          "type": "uint256"
        }
      ],
      "stateMutability": "view",
      "type": "function",
      "constant": true
    },
    {
      "inputs": [],
      "name": "ISEE_LIMIT",
      "outputs": [
        {
          "internalType": "uint256",
          "name": "",
          "type": "uint256"
        }
      ],
      "stateMutability": "view",
      "type": "function",
      "constant": true
    },
    {
      "inputs": [],
      "name": "ISEE_MIN",
      "outputs": [
        {
          "internalType": "uint256",
          "name": "",
          "type": "uint256"
        }
      ],
      "stateMutability": "view",
      "type": "function",
      "constant": true
    },
    {
      "inputs": [],
      "name": "NAME",
      "outputs": [
        {
          "internalType": "string",
          "name": "",
          "type": "string"
        }
      ],
      "stateMutability": "view",
      "type": "function",
      "constant": true
    },
    {
      "inputs": [
        {
          "internalType": "uint256",
          "name": "",
          "type": "uint256"
        }
      ],
      "name": "keys",
      "outputs": [
        {
          "internalType": "address",
          "name": "",
          "type": "address"
        }
      ],
      "stateMutability": "view",
      "type": "function",
      "constant": true
    },
    {
      "inputs": [
        {
          "internalType": "address",
          "name": "",
          "type": "address"
        }
      ],
      "name": "mappingStudents",
      "outputs": [
        {
          "internalType": "address",
          "name": "accountAddress",
          "type": "address"
        },
        {
          "internalType": "uint256",
          "name": "isee",
          "type": "uint256"
        },
        {
          "internalType": "uint256",
          "name": "credits",
          "type": "uint256"
        },
        {
          "internalType": "uint256",
          "name": "year",
          "type": "uint256"
        },
        {
          "internalType": "uint256",
          "name": "score",
          "type": "uint256"
        },
        {
          "internalType": "uint256",
          "name": "funds",
          "type": "uint256"
        },
        {
          "internalType": "bool",
          "name": "eligible",
          "type": "bool"
        },
        {
          "internalType": "enum MyContract.status",
          "name": "_status",
          "type": "uint8"
        }
      ],
      "stateMutability": "view",
      "type": "function",
      "constant": true
    },
    {
      "inputs": [
        {
          "internalType": "uint256",
          "name": "",
          "type": "uint256"
        }
      ],
      "name": "rankedKeys",
      "outputs": [
        {
          "internalType": "address",
          "name": "",
          "type": "address"
        }
      ],
      "stateMutability": "view",
      "type": "function",
      "constant": true
    },
    {
      "inputs": [],
      "name": "getKeys",
      "outputs": [
        {
          "internalType": "address[]",
          "name": "",
          "type": "address[]"
        }
      ],
      "stateMutability": "view",
      "type": "function",
      "constant": true
    },
    {
      "inputs": [],
      "name": "getRankedKeys",
      "outputs": [
        {
          "internalType": "address[]",
          "name": "",
          "type": "address[]"
        }
      ],
      "stateMutability": "view",
      "type": "function",
      "constant": true
    },
    {
      "inputs": [
        {
          "internalType": "address",
          "name": "key",
          "type": "address"
        }
      ],
      "name": "getStudent",
      "outputs": [
        {
          "components": [
            {
              "internalType": "address",
              "name": "accountAddress",
              "type": "address"
            },
            {
              "internalType": "uint256",
              "name": "isee",
              "type": "uint256"
            },
            {
              "internalType": "uint256",
              "name": "credits",
              "type": "uint256"
            },
            {
              "internalType": "uint256",
              "name": "year",
              "type": "uint256"
            },
            {
              "internalType": "uint256",
              "name": "score",
              "type": "uint256"
            },
            {
              "internalType": "uint256",
              "name": "funds",
              "type": "uint256"
            },
            {
              "internalType": "bool",
              "name": "eligible",
              "type": "bool"
            },
            {
              "internalType": "enum MyContract.status",
              "name": "_status",
              "type": "uint8"
            }
          ],
          "internalType": "struct MyContract.Student",
          "name": "",
          "type": "tuple"
        }
      ],
      "stateMutability": "view",
      "type": "function",
      "constant": true
    },
    {
      "inputs": [],
      "name": "getStudents",
      "outputs": [
        {
          "components": [
            {
              "internalType": "address",
              "name": "accountAddress",
              "type": "address"
            },
            {
              "internalType": "uint256",
              "name": "isee",
              "type": "uint256"
            },
            {
              "internalType": "uint256",
              "name": "credits",
              "type": "uint256"
            },
            {
              "internalType": "uint256",
              "name": "year",
              "type": "uint256"
            },
            {
              "internalType": "uint256",
              "name": "score",
              "type": "uint256"
            },
            {
              "internalType": "uint256",
              "name": "funds",
              "type": "uint256"
            },
            {
              "internalType": "bool",
              "name": "eligible",
              "type": "bool"
            },
            {
              "internalType": "enum MyContract.status",
              "name": "_status",
              "type": "uint8"
            }
          ],
          "internalType": "struct MyContract.Student[]",
          "name": "",
          "type": "tuple[]"
        }
      ],
      "stateMutability": "view",
      "type": "function",
      "constant": true
    },
    {
      "inputs": [
        {
          "internalType": "uint256",
          "name": "_isee",
          "type": "uint256"
        },
        {
          "internalType": "uint256",
          "name": "_crediti",
          "type": "uint256"
        },
        {
          "internalType": "uint256",
          "name": "_year",
          "type": "uint256"
        },
        {
          "internalType": "address",
          "name": "key",
          "type": "address"
        },
        {
          "internalType": "enum MyContract.status",
          "name": "_status",
          "type": "uint8"
        }
      ],
      "name": "addStudent",
      "outputs": [
        {
          "internalType": "bool",
          "name": "",
          "type": "bool"
        }
      ],
      "stateMutability": "nonpayable",
      "type": "function"
    },
    {
      "inputs": [],
      "name": "getStudentCount",
      "outputs": [
        {
          "internalType": "uint256",
          "name": "",
          "type": "uint256"
        }
      ],
      "stateMutability": "view",
      "type": "function",
      "constant": true
    },
    {
      "inputs": [
        {
          "components": [
            {
              "internalType": "address",
              "name": "accountAddress",
              "type": "address"
            },
            {
              "internalType": "uint256",
              "name": "isee",
              "type": "uint256"
            },
            {
              "internalType": "uint256",
              "name": "credits",
              "type": "uint256"
            },
            {
              "internalType": "uint256",
              "name": "year",
              "type": "uint256"
            },
            {
              "internalType": "uint256",
              "name": "score",
              "type": "uint256"
            },
            {
              "internalType": "uint256",
              "name": "funds",
              "type": "uint256"
            },
            {
              "internalType": "bool",
              "name": "eligible",
              "type": "bool"
            },
            {
              "internalType": "enum MyContract.status",
              "name": "_status",
              "type": "uint8"
            }
          ],
          "internalType": "struct MyContract.Student",
          "name": "student",
          "type": "tuple"
        }
      ],
      "name": "computeScore",
      "outputs": [
        {
          "internalType": "uint256",
          "name": "",
          "type": "uint256"
        }
      ],
      "stateMutability": "pure",
      "type": "function",
      "constant": true
    },
    {
      "inputs": [],
      "name": "rankStudents",
      "outputs": [],
      "stateMutability": "nonpayable",
      "type": "function"
    },
    {
      "inputs": [],
      "name": "assignFunding",
      "outputs": [],
      "stateMutability": "nonpayable",
      "type": "function"
    },
    {
      "inputs": [
        {
          "components": [
            {
              "internalType": "address",
              "name": "accountAddress",
              "type": "address"
            },
            {
              "internalType": "uint256",
              "name": "isee",
              "type": "uint256"
            },
            {
              "internalType": "uint256",
              "name": "credits",
              "type": "uint256"
            },
            {
              "internalType": "uint256",
              "name": "year",
              "type": "uint256"
            },
            {
              "internalType": "uint256",
              "name": "score",
              "type": "uint256"
            },
            {
              "internalType": "uint256",
              "name": "funds",
              "type": "uint256"
            },
            {
              "internalType": "bool",
              "name": "eligible",
              "type": "bool"
            },
            {
              "internalType": "enum MyContract.status",
              "name": "_status",
              "type": "uint8"
            }
          ],
          "internalType": "struct MyContract.Student",
          "name": "student",
          "type": "tuple"
        }
      ],
      "name": "isEligible",
      "outputs": [
        {
          "internalType": "bool",
          "name": "",
          "type": "bool"
        }
      ],
      "stateMutability": "view",
      "type": "function",
      "constant": true
    }
  ],
  "bytecode": "0x6080604052601860005560026001556040518060600160405280600060ff168152602001602d60ff168152602001605560ff168152506002906003620000479291906200012b565b50604051806060016040528061051461ffff16815260200161070861ffff168152602001610c0761ffff1681525060039060036200008792919062000182565b503480156200009557600080fd5b5060405162002ccf38038062002ccf8339818101604052810190620000bb9190620004f4565b84600081905550856004819055508360029080519060200190620000e1929190620001da565b508260039080519060200190620000fa929190620001da565b5081600590816200010c91906200084d565b5080600690816200011e91906200084d565b5050505050505062000934565b8280548282559060005260206000209081019282156200016f579160200282015b828111156200016e578251829060ff169055916020019190600101906200014c565b5b5090506200017e91906200022c565b5090565b828054828255906000526020600020908101928215620001c7579160200282015b82811115620001c6578251829061ffff16905591602001919060010190620001a3565b5b509050620001d691906200022c565b5090565b82805482825590600052602060002090810192821562000219579160200282015b8281111562000218578251825591602001919060010190620001fb565b5b5090506200022891906200022c565b5090565b5b80821115620002475760008160009055506001016200022d565b5090565b6000604051905090565b600080fd5b600080fd5b6000819050919050565b62000274816200025f565b81146200028057600080fd5b50565b600081519050620002948162000269565b92915050565b600080fd5b6000601f19601f8301169050919050565b7f4e487b7100000000000000000000000000000000000000000000000000000000600052604160045260246000fd5b620002ea826200029f565b810181811067ffffffffffffffff821117156200030c576200030b620002b0565b5b80604052505050565b6000620003216200024b565b90506200032f8282620002df565b919050565b600067ffffffffffffffff821115620003525762000351620002b0565b5b602082029050602081019050919050565b600080fd5b60006200037f620003798462000334565b62000315565b90508083825260208201905060208402830185811115620003a557620003a462000363565b5b835b81811015620003d25780620003bd888262000283565b845260208401935050602081019050620003a7565b5050509392505050565b600082601f830112620003f457620003f36200029a565b5b81516200040684826020860162000368565b91505092915050565b600080fd5b600067ffffffffffffffff821115620004325762000431620002b0565b5b6200043d826200029f565b9050602081019050919050565b60005b838110156200046a5780820151818401526020810190506200044d565b60008484015250505050565b60006200048d620004878462000414565b62000315565b905082815260208101848484011115620004ac57620004ab6200040f565b5b620004b98482856200044a565b509392505050565b600082601f830112620004d957620004d86200029a565b5b8151620004eb84826020860162000476565b91505092915050565b60008060008060008060c0878903121562000514576200051362000255565b5b60006200052489828a0162000283565b96505060206200053789828a0162000283565b955050604087015167ffffffffffffffff8111156200055b576200055a6200025a565b5b6200056989828a01620003dc565b945050606087015167ffffffffffffffff8111156200058d576200058c6200025a565b5b6200059b89828a01620003dc565b935050608087015167ffffffffffffffff811115620005bf57620005be6200025a565b5b620005cd89828a01620004c1565b92505060a087015167ffffffffffffffff811115620005f157620005f06200025a565b5b620005ff89828a01620004c1565b9150509295509295509295565b600081519050919050565b7f4e487b7100000000000000000000000000000000000000000000000000000000600052602260045260246000fd5b600060028204905060018216806200065f57607f821691505b60208210810362000675576200067462000617565b5b50919050565b60008190508160005260206000209050919050565b60006020601f8301049050919050565b600082821b905092915050565b600060088302620006df7fffffffffffffffffffffffffffffffffffffffffffffffffffffffffffffffff82620006a0565b620006eb8683620006a0565b95508019841693508086168417925050509392505050565b6000819050919050565b60006200072e6200072862000722846200025f565b62000703565b6200025f565b9050919050565b6000819050919050565b6200074a836200070d565b62000762620007598262000735565b848454620006ad565b825550505050565b600090565b620007796200076a565b620007868184846200073f565b505050565b5b81811015620007ae57620007a26000826200076f565b6001810190506200078c565b5050565b601f821115620007fd57620007c7816200067b565b620007d28462000690565b81016020851015620007e2578190505b620007fa620007f18562000690565b8301826200078b565b50505b505050565b600082821c905092915050565b6000620008226000198460080262000802565b1980831691505092915050565b60006200083d83836200080f565b9150826002028217905092915050565b62000858826200060c565b67ffffffffffffffff811115620008745762000873620002b0565b5b62000880825462000646565b6200088d828285620007b2565b600060209050601f831160018114620008c55760008415620008b0578287015190505b620008bc85826200082f565b8655506200092c565b601f198416620008d5866200067b565b60005b82811015620008ff57848901518255600182019150602085019450602081019050620008d8565b868310156200091f57848901516200091b601f8916826200080f565b8355505b6001600288020188555050505b505050505050565b61238b80620009446000396000f3fe608060405234801561001057600080fd5b506004361061012c5760003560e01c8063a547ad39116100ad578063e7d7393d11610071578063e7d7393d14610383578063ea8728ea1461038d578063eb63e64314610397578063ed048450146103ce578063f1d064b3146103ec5761012c565b8063a547ad39146102b7578063d8592867146102e7578063e03eb24914610317578063e2ff94c514610347578063e4861bdd146103655761012c565b80636b7b44d7116100f45780636b7b44d7146101eb5780636fd4d5051461021b5780637d3567b81461023957806395cdd66e14610269578063a3f4df7e146102995761012c565b80630cb6aaf1146101315780632150c5181461016157806341e0c4071461017f57806342d65b2c1461019d5780635fc67f46146101bb575b600080fd5b61014b60048036038101906101469190611856565b61040a565b60405161015891906118c4565b60405180910390f35b610169610449565b604051610176919061199d565b60405180910390f35b6101876104d7565b60405161019491906119ce565b60405180910390f35b6101a56104e4565b6040516101b291906119ce565b60405180910390f35b6101d560048036038101906101d09190611856565b6104ea565b6040516101e291906118c4565b60405180910390f35b61020560048036038101906102009190611a15565b610529565b6040516102129190611b85565b60405180910390f35b610223610661565b60405161023091906119ce565b60405180910390f35b610253600480360381019061024e9190611856565b610667565b60405161026091906119ce565b60405180910390f35b610283600480360381019061027e9190611bc6565b61068b565b6040516102909190611c50565b60405180910390f35b6102a16109ba565b6040516102ae9190611cfb565b60405180910390f35b6102d160048036038101906102cc9190611e93565b610a48565b6040516102de91906119ce565b60405180910390f35b61030160048036038101906102fc9190611e93565b610a56565b60405161030e9190611c50565b60405180910390f35b610331600480360381019061032c9190611856565b610abb565b60405161033e91906119ce565b60405180910390f35b61034f610adf565b60405161035c91906119ce565b60405180910390f35b61036d610ae5565b60405161037a9190611cfb565b60405180910390f35b61038b610b73565b005b61039561105d565b005b6103b160048036038101906103ac9190611a15565b6113db565b6040516103c5989796959493929190611ed0565b60405180910390f35b6103d661145d565b6040516103e3919061199d565b60405180910390f35b6103f46114eb565b60405161040191906120a0565b60405180910390f35b6008818154811061041a57600080fd5b906000526020600020016000915054906101000a900473ffffffffffffffffffffffffffffffffffffffff1681565b606060088054806020026020016040519081016040528092919081815260200182805480156104cd57602002820191906000526020600020905b8160009054906101000a900473ffffffffffffffffffffffffffffffffffffffff1673ffffffffffffffffffffffffffffffffffffffff1681526020019060010190808311610483575b5050505050905090565b6000600880549050905090565b60005481565b600981815481106104fa57600080fd5b906000526020600020016000915054906101000a900473ffffffffffffffffffffffffffffffffffffffff1681565b6105316116fb565b600760008373ffffffffffffffffffffffffffffffffffffffff1673ffffffffffffffffffffffffffffffffffffffff168152602001908152602001600020604051806101000160405290816000820160009054906101000a900473ffffffffffffffffffffffffffffffffffffffff1673ffffffffffffffffffffffffffffffffffffffff1673ffffffffffffffffffffffffffffffffffffffff16815260200160018201548152602001600282015481526020016003820154815260200160048201548152602001600582015481526020016006820160009054906101000a900460ff161515151581526020016006820160019054906101000a900460ff16600281111561064457610643611a6c565b5b600281111561065657610655611a6c565b5b815250509050919050565b60015481565b6003818154811061067757600080fd5b906000526020600020016000915090505481565b60008086148061069c575061012c85115b806106a75750600184105b806106b25750600384115b8061074357506002808111156106cb576106ca611a6c565b5b8260028111156106de576106dd611a6c565b5b141580156107115750600060028111156106fb576106fa611a6c565b5b82600281111561070e5761070d611a6c565b5b14155b801561074257506001600281111561072c5761072b611a6c565b5b82600281111561073f5761073e611a6c565b5b14155b5b1561075157600090506109b1565b60006040518061010001604052808573ffffffffffffffffffffffffffffffffffffffff16815260200188815260200187815260200186815260200160008152602001600081526020016000151581526020018460028111156107b7576107b6611a6c565b5b81525090506107c581610a56565b8160c00190151590811515815250508060c00151156107f1576107e781610a48565b8160800181815250505b6000600760008673ffffffffffffffffffffffffffffffffffffffff1673ffffffffffffffffffffffffffffffffffffffff168152602001908152602001600020600101540361089f576008849080600181540180825580915050600190039060005260206000200160009091909190916101000a81548173ffffffffffffffffffffffffffffffffffffffff021916908373ffffffffffffffffffffffffffffffffffffffff1602179055505b80600760008673ffffffffffffffffffffffffffffffffffffffff1673ffffffffffffffffffffffffffffffffffffffff16815260200190815260200160002060008201518160000160006101000a81548173ffffffffffffffffffffffffffffffffffffffff021916908373ffffffffffffffffffffffffffffffffffffffff1602179055506020820151816001015560408201518160020155606082015181600301556080820151816004015560a0820151816005015560c08201518160060160006101000a81548160ff02191690831515021790555060e08201518160060160016101000a81548160ff021916908360028111156109a3576109a2611a6c565b5b021790555090505060019150505b95945050505050565b600580546109c7906120f1565b80601f01602080910402602001604051908101604052809291908181526020018280546109f3906120f1565b8015610a405780601f10610a1557610100808354040283529160200191610a40565b820191906000526020600020905b815481529060010190602001808311610a2357829003601f168201915b505050505081565b600081602001519050919050565b60008060019050600060018460600151610a709190612151565b905060005484602001511180610aa7575060028181548110610a9557610a94612185565b5b90600052602060002001548460400151105b15610ab157600091505b8192505050919050565b60028181548110610acb57600080fd5b906000526020600020016000915090505481565b60045481565b60068054610af2906120f1565b80601f0160208091040260200160405190810160405280929190818152602001828054610b1e906120f1565b8015610b6b5780601f10610b4057610100808354040283529160200191610b6b565b820191906000526020600020905b815481529060010190602001808311610b4e57829003601f168201915b505050505081565b6000600980549050905060006004549050600080600080600090505b85811015611054576007600060098381548110610baf57610bae612185565b5b9060005260206000200160009054906101000a900473ffffffffffffffffffffffffffffffffffffffff1673ffffffffffffffffffffffffffffffffffffffff1673ffffffffffffffffffffffffffffffffffffffff16815260200190815260200160002060060160009054906101000a900460ff1615611041576007600060098381548110610c4257610c41612185565b5b9060005260206000200160009054906101000a900473ffffffffffffffffffffffffffffffffffffffff1673ffffffffffffffffffffffffffffffffffffffff1673ffffffffffffffffffffffffffffffffffffffff16815260200190815260200160002060010154935060006002811115610cc157610cc0611a6c565b5b6007600060098481548110610cd957610cd8612185565b5b9060005260206000200160009054906101000a900473ffffffffffffffffffffffffffffffffffffffff1673ffffffffffffffffffffffffffffffffffffffff1673ffffffffffffffffffffffffffffffffffffffff16815260200190815260200160002060060160019054906101000a900460ff166002811115610d6157610d60611a6c565b5b03610d8d576003600081548110610d7b57610d7a612185565b5b90600052602060002001549250610f4a565b60016002811115610da157610da0611a6c565b5b6007600060098481548110610db957610db8612185565b5b9060005260206000200160009054906101000a900473ffffffffffffffffffffffffffffffffffffffff1673ffffffffffffffffffffffffffffffffffffffff1673ffffffffffffffffffffffffffffffffffffffff16815260200190815260200160002060060160019054906101000a900460ff166002811115610e4157610e40611a6c565b5b03610e6d576003600181548110610e5b57610e5a612185565b5b90600052602060002001549250610f49565b600280811115610e8057610e7f611a6c565b5b6007600060098481548110610e9857610e97612185565b5b9060005260206000200160009054906101000a900473ffffffffffffffffffffffffffffffffffffffff1673ffffffffffffffffffffffffffffffffffffffff1673ffffffffffffffffffffffffffffffffffffffff16815260200190815260200160002060060160019054906101000a900460ff166002811115610f2057610f1f611a6c565b5b03610f48576003600281548110610f3a57610f39612185565b5b906000526020600020015492505b5b5b600154600054610f5a9190612151565b60015485610f6891906121be565b84610f739190612201565b610f7d91906122a8565b836002610f8a9190612201565b610f9491906121be565b9150818510611035578185610fa99190612151565b9450816007600060098481548110610fc457610fc3612185565b5b9060005260206000200160009054906101000a900473ffffffffffffffffffffffffffffffffffffffff1673ffffffffffffffffffffffffffffffffffffffff1673ffffffffffffffffffffffffffffffffffffffff16815260200190815260200160002060050181905550611040565b50505050505061105b565b5b808061104c906122d9565b915050610b8f565b5050505050505b565b600060088054806020026020016040519081016040528092919081815260200182805480156110e157602002820191906000526020600020905b8160009054906101000a900473ffffffffffffffffffffffffffffffffffffffff1673ffffffffffffffffffffffffffffffffffffffff1681526020019060010190808311611097575b50505050509050600081519050600067ffffffffffffffff81111561110957611108611d22565b5b6040519080825280602002602001820160405280156111375781602001602082028036833780820191505090505b506009908051906020019061114d92919061176a565b50600181036111d95760098260008151811061116c5761116b612185565b5b60200260200101519080600181540180825580915050600190039060005260206000200160009091909190916101000a81548173ffffffffffffffffffffffffffffffffffffffff021916908373ffffffffffffffffffffffffffffffffffffffff1602179055506113d7565b60005b6001826111e99190612151565b8110156113be5760006001826111ff9190612321565b90505b828110156113aa576007600085838151811061122157611220612185565b5b602002602001015173ffffffffffffffffffffffffffffffffffffffff1673ffffffffffffffffffffffffffffffffffffffff168152602001908152602001600020600401546007600086858151811061127e5761127d612185565b5b602002602001015173ffffffffffffffffffffffffffffffffffffffff1673ffffffffffffffffffffffffffffffffffffffff168152602001908152602001600020600401541115611397578381815181106112dd576112dc612185565b5b60200260200101518483815181106112f8576112f7612185565b5b602002602001015185848151811061131357611312612185565b5b6020026020010186848151811061132d5761132c612185565b5b602002602001018273ffffffffffffffffffffffffffffffffffffffff1673ffffffffffffffffffffffffffffffffffffffff168152508273ffffffffffffffffffffffffffffffffffffffff1673ffffffffffffffffffffffffffffffffffffffff1681525050505b80806113a2906122d9565b915050611202565b5080806113b6906122d9565b9150506111dc565b5081600990805190602001906113d592919061176a565b505b5050565b60076020528060005260406000206000915090508060000160009054906101000a900473ffffffffffffffffffffffffffffffffffffffff16908060010154908060020154908060030154908060040154908060050154908060060160009054906101000a900460ff16908060060160019054906101000a900460ff16905088565b606060098054806020026020016040519081016040528092919081815260200182805480156114e157602002820191906000526020600020905b8160009054906101000a900473ffffffffffffffffffffffffffffffffffffffff1673ffffffffffffffffffffffffffffffffffffffff1681526020019060010190808311611497575b5050505050905090565b60606000600980549050905060008167ffffffffffffffff81111561151357611512611d22565b5b60405190808252806020026020018201604052801561154c57816020015b6115396116fb565b8152602001906001900390816115315790505b50905060005b828110156116f257600760006009838154811061157257611571612185565b5b9060005260206000200160009054906101000a900473ffffffffffffffffffffffffffffffffffffffff1673ffffffffffffffffffffffffffffffffffffffff1673ffffffffffffffffffffffffffffffffffffffff168152602001908152602001600020604051806101000160405290816000820160009054906101000a900473ffffffffffffffffffffffffffffffffffffffff1673ffffffffffffffffffffffffffffffffffffffff1673ffffffffffffffffffffffffffffffffffffffff16815260200160018201548152602001600282015481526020016003820154815260200160048201548152602001600582015481526020016006820160009054906101000a900460ff161515151581526020016006820160019054906101000a900460ff1660028111156116ab576116aa611a6c565b5b60028111156116bd576116bc611a6c565b5b815250508282815181106116d4576116d3612185565b5b602002602001018190525080806116ea906122d9565b915050611552565b50809250505090565b604051806101000160405280600073ffffffffffffffffffffffffffffffffffffffff16815260200160008152602001600081526020016000815260200160008152602001600081526020016000151581526020016000600281111561176457611763611a6c565b5b81525090565b8280548282559060005260206000209081019282156117e3579160200282015b828111156117e25782518260006101000a81548173ffffffffffffffffffffffffffffffffffffffff021916908373ffffffffffffffffffffffffffffffffffffffff1602179055509160200191906001019061178a565b5b5090506117f091906117f4565b5090565b5b8082111561180d5760008160009055506001016117f5565b5090565b6000604051905090565b600080fd5b6000819050919050565b61183381611820565b811461183e57600080fd5b50565b6000813590506118508161182a565b92915050565b60006020828403121561186c5761186b61181b565b5b600061187a84828501611841565b91505092915050565b600073ffffffffffffffffffffffffffffffffffffffff82169050919050565b60006118ae82611883565b9050919050565b6118be816118a3565b82525050565b60006020820190506118d960008301846118b5565b92915050565b600081519050919050565b600082825260208201905092915050565b6000819050602082019050919050565b611914816118a3565b82525050565b6000611926838361190b565b60208301905092915050565b6000602082019050919050565b600061194a826118df565b61195481856118ea565b935061195f836118fb565b8060005b83811015611990578151611977888261191a565b975061198283611932565b925050600181019050611963565b5085935050505092915050565b600060208201905081810360008301526119b7818461193f565b905092915050565b6119c881611820565b82525050565b60006020820190506119e360008301846119bf565b92915050565b6119f2816118a3565b81146119fd57600080fd5b50565b600081359050611a0f816119e9565b92915050565b600060208284031215611a2b57611a2a61181b565b5b6000611a3984828501611a00565b91505092915050565b611a4b81611820565b82525050565b60008115159050919050565b611a6681611a51565b82525050565b7f4e487b7100000000000000000000000000000000000000000000000000000000600052602160045260246000fd5b60038110611aac57611aab611a6c565b5b50565b6000819050611abd82611a9b565b919050565b6000611acd82611aaf565b9050919050565b611add81611ac2565b82525050565b61010082016000820151611afa600085018261190b565b506020820151611b0d6020850182611a42565b506040820151611b206040850182611a42565b506060820151611b336060850182611a42565b506080820151611b466080850182611a42565b5060a0820151611b5960a0850182611a42565b5060c0820151611b6c60c0850182611a5d565b5060e0820151611b7f60e0850182611ad4565b50505050565b600061010082019050611b9b6000830184611ae3565b92915050565b60038110611bae57600080fd5b50565b600081359050611bc081611ba1565b92915050565b600080600080600060a08688031215611be257611be161181b565b5b6000611bf088828901611841565b9550506020611c0188828901611841565b9450506040611c1288828901611841565b9350506060611c2388828901611a00565b9250506080611c3488828901611bb1565b9150509295509295909350565b611c4a81611a51565b82525050565b6000602082019050611c656000830184611c41565b92915050565b600081519050919050565b600082825260208201905092915050565b60005b83811015611ca5578082015181840152602081019050611c8a565b60008484015250505050565b6000601f19601f8301169050919050565b6000611ccd82611c6b565b611cd78185611c76565b9350611ce7818560208601611c87565b611cf081611cb1565b840191505092915050565b60006020820190508181036000830152611d158184611cc2565b905092915050565b600080fd5b7f4e487b7100000000000000000000000000000000000000000000000000000000600052604160045260246000fd5b611d5a82611cb1565b810181811067ffffffffffffffff82111715611d7957611d78611d22565b5b80604052505050565b6000611d8c611811565b9050611d988282611d51565b919050565b611da681611a51565b8114611db157600080fd5b50565b600081359050611dc381611d9d565b92915050565b60006101008284031215611de057611ddf611d1d565b5b611deb610100611d82565b90506000611dfb84828501611a00565b6000830152506020611e0f84828501611841565b6020830152506040611e2384828501611841565b6040830152506060611e3784828501611841565b6060830152506080611e4b84828501611841565b60808301525060a0611e5f84828501611841565b60a08301525060c0611e7384828501611db4565b60c08301525060e0611e8784828501611bb1565b60e08301525092915050565b60006101008284031215611eaa57611ea961181b565b5b6000611eb884828501611dc9565b91505092915050565b611eca81611ac2565b82525050565b600061010082019050611ee6600083018b6118b5565b611ef3602083018a6119bf565b611f0060408301896119bf565b611f0d60608301886119bf565b611f1a60808301876119bf565b611f2760a08301866119bf565b611f3460c0830185611c41565b611f4160e0830184611ec1565b9998505050505050505050565b600081519050919050565b600082825260208201905092915050565b6000819050602082019050919050565b61010082016000820151611f91600085018261190b565b506020820151611fa46020850182611a42565b506040820151611fb76040850182611a42565b506060820151611fca6060850182611a42565b506080820151611fdd6080850182611a42565b5060a0820151611ff060a0850182611a42565b5060c082015161200360c0850182611a5d565b5060e082015161201660e0850182611ad4565b50505050565b60006120288383611f7a565b6101008301905092915050565b6000602082019050919050565b600061204d82611f4e565b6120578185611f59565b935061206283611f6a565b8060005b8381101561209357815161207a888261201c565b975061208583612035565b925050600181019050612066565b5085935050505092915050565b600060208201905081810360008301526120ba8184612042565b905092915050565b7f4e487b7100000000000000000000000000000000000000000000000000000000600052602260045260246000fd5b6000600282049050600182168061210957607f821691505b60208210810361211c5761211b6120c2565b5b50919050565b7f4e487b7100000000000000000000000000000000000000000000000000000000600052601160045260246000fd5b600061215c82611820565b915061216783611820565b925082820390508181111561217f5761217e612122565b5b92915050565b7f4e487b7100000000000000000000000000000000000000000000000000000000600052603260045260246000fd5b6000819050919050565b60006121c9826121b4565b91506121d4836121b4565b92508282039050818112600084121682821360008512151617156121fb576121fa612122565b5b92915050565b600061220c826121b4565b9150612217836121b4565b9250828202612225816121b4565b91507f8000000000000000000000000000000000000000000000000000000000000000841460008412161561225d5761225c612122565b5b828205841483151761227257612271612122565b5b5092915050565b7f4e487b7100000000000000000000000000000000000000000000000000000000600052601260045260246000fd5b60006122b382611820565b91506122be83611820565b9250826122ce576122cd612279565b5b828204905092915050565b60006122e482611820565b91507fffffffffffffffffffffffffffffffffffffffffffffffffffffffffffffffff820361231657612315612122565b5b600182019050919050565b600061232c82611820565b915061233783611820565b925082820190508082111561234f5761234e612122565b5b9291505056fea26469706673582212204e8671380dc89ee4efecc5442277ce7e17ad880d15a44482f96e5bc36d2f61e864736f6c63430008130033",
  "immutableReferences": {},
  "source": "// SPDX-License-Identifier: MIT\npragma solidity ^0.8.0;\n\ncontract MyContract {\n\n    // Adjustments and imput checking needed to functions\n\n    /////////////////////////////////////////////////////////////////////\n    // STRUCTS AND GLOBAL VARIABLES\n\n    struct Student {\n        address accountAddress; //address of the account of the student\n        uint256 isee; // [1, 1000000]\n        uint256 credits; // [0, 1000]\n        uint256 year; //year you are asking for the scholarship [1, 3]\n        uint256 score; //computed for ranking \n        uint256 funds; //scholarship value for the student\n        bool eligible; // true/false\n        status _status;\n    }\n\n    enum status{ IN_SEDE, PENDOLARE, FUORI_SEDE } //the three allowed statuses for students\n\n\n    uint256 public ISEE_LIMIT = 24; //maximum allowed ISEE to be eligible\n    uint256 public ISEE_MIN = 2; //supposed minimum ISEE (for scholarship computation)\n    uint256[] public CREDITS_PER_YEAR = [0, 45, 85]; //required credits for each year of the bachelor to be eligible\n    uint256[] public FUNDS = [1300, 1800, 3079]; //minimum scholarsip value for each student status (max is double)\n    uint256 public BUDGET; //entire budget for the scholarships\n    string public NAME; //name of scholarship\n    string public DATE; //end date to apply for the scholarship\n    \n    mapping(address => Student) public mappingStudents; //contains the association address->student\n\n    address[] public keys; //stores the key of each applying student\n    address[] public rankedKeys; //stores the keys of students after rankStudents() gets called\n\n    /////////////////////////////////////////////////////////////////////\n\n    constructor(uint256 budget, uint256 isee_limit, uint256[] memory credits, uint256[] memory funds, string memory name, string memory date) {\n        ISEE_LIMIT = isee_limit;\n        BUDGET = budget;\n        CREDITS_PER_YEAR = credits;\n        FUNDS = funds;\n        NAME = name;\n        DATE = date;\n    }\n\n    /////////////////////////////////////////////////////////////////////\n    // STUDENTS\n\n    function getKeys() public view returns (address[] memory) {\n        return keys;\n    }\n\n     function getRankedKeys() public view returns (address[] memory) {\n        return rankedKeys;\n    }\n\n    function getStudent(address key) public view returns (Student memory) {\n        return mappingStudents[key];\n    }\n\n    function getStudents() public view returns (Student[] memory){\n        uint len = rankedKeys.length;\n        Student[] memory studentArray = new Student[](len);\n\n        for (uint i = 0; i < len; i++) {\n            studentArray[i] = mappingStudents[rankedKeys[i]];\n        }\n\n        return studentArray;\n    }\n\n    function addStudent(uint256 _isee, uint256 _crediti, uint256 _year, address key, status _status) public returns (bool) {\n        // input checking\n        if(_isee == 0 || _crediti > 300 || _year < 1 || _year > 3 || (_status != status.FUORI_SEDE && _status != status.IN_SEDE && _status != status.PENDOLARE)) {\n            return false;\n        }\n\n        Student memory newStudent = Student(key, _isee, _crediti, _year, uint256(0), uint256(0), false, _status);\n\n        newStudent.eligible = isEligible(newStudent);\n        if(newStudent.eligible)\n            newStudent.score = computeScore(newStudent);\n\n        if(mappingStudents[key].isee == 0) //check if students is already inserted by looking at isee value\n            keys.push(key);\n\n        mappingStudents[key] = newStudent;\n\n        return true;\n    }\n\n    function getStudentCount() public view returns (uint256) {\n        return keys.length;\n    }\n\n    function computeScore(Student memory student) public pure returns (uint256) {\n\n        //To be modified if a different ranking metric is necessary\n        return student.isee;\n    }\n\n    function rankStudents() public {\n        address[] memory sortedArray = keys;\n        uint len = sortedArray.length;\n\n        rankedKeys = new address[](0);\n\n        if(len == 1) {\n            rankedKeys.push(sortedArray[0]);\n        }\n        else \n        {\n            // Order students' addresses by looking at their score\n            for (uint i = 0; i < len - 1; i++) {\n                for (uint j = i + 1; j < len; j++) {\n                    if (mappingStudents[sortedArray[i]].score > mappingStudents[sortedArray[j]].score) {\n                        // Swap elements\n                        (sortedArray[i], sortedArray[j]) = (sortedArray[j], sortedArray[i]); \n                    }\n                }\n            }\n\n            rankedKeys = sortedArray;\n        }\n            \n    }\n\n    //Uses the student's ranking to assign funds to each student until funds are depleted\n    function assignFunding() public {\n\n        uint len = rankedKeys.length;\n        uint256 budget = BUDGET;\n        uint256 isee = 0;\n        uint256 minFund = 0;\n        uint256 funds;\n\n        for (uint i = 0; i < len; i++) {\n            if(mappingStudents[rankedKeys[i]].eligible){\n                isee = mappingStudents[rankedKeys[i]].isee; //> ISEE_MIN ? mappingStudents[rankedKeys[i]].isee : ISEE_MIN + 1;\n\n                if(mappingStudents[rankedKeys[i]]._status == status.IN_SEDE) {\n                    minFund = FUNDS[0];\n                } else if (mappingStudents[rankedKeys[i]]._status == status.PENDOLARE) {\n                    minFund = FUNDS[1];\n                } else if (mappingStudents[rankedKeys[i]]._status == status.FUORI_SEDE) {\n                    minFund = FUNDS[2];\n                }\n              \n                //funds = uint256(int256((minFund / (ISEE_LIMIT - ISEE_MIN))) * (int256(ISEE_MIN) - int256(isee)) + 2 * int256(minFund))\n                funds = uint256(2 * int256(minFund) - int256((uint256(int256(minFund) * (int256(isee) - int256(ISEE_MIN))) / (ISEE_LIMIT - ISEE_MIN))));\n\n                if(budget >= funds) {\n                    budget = budget - funds;\n                    mappingStudents[rankedKeys[i]].funds = funds;\n                } else {\n                    return;\n                }\n            }\n        }\n    }\n\n    // Checks if a student should be eligible for the scholarship based on its ISEE and credits\n    function isEligible(Student memory student) public view returns (bool) {\n        bool eligible = true;\n        uint studentYear = student.year-1;\n        if(student.isee > ISEE_LIMIT || student.credits < CREDITS_PER_YEAR[studentYear]) {\n            eligible = false;\n        }\n\n        return eligible;\n    }\n\n    /////////////////////////////////////////////////////////////////////\n\n}\n",
  "sourcePath": "/Users/michelelamon/Documents/UNITN/Blockchain/Blockchain-Project/Scholarship-master/ScholarshipServer/contracts/MyContract.sol",
  "compiler": {
    "name": "solc",
    "version": "0.8.19+commit.7dd6d404.Emscripten.clang"
  },
  "schemaVersion": "3.4.14",
  "updatedAt": "2023-06-30T20:58:21.908Z",
  "networkType": "ethereum",
  "devdoc": {
    "kind": "dev",
    "methods": {},
    "version": 1
  },
  "userdoc": {
    "kind": "user",
    "methods": {},
    "version": 1
  }
}