{
  "contractName": "MyContract",
  "abi": [
    {
      "inputs": [
        {
          "internalType": "uint256",
          "name": "budget",
          "type": "uint256"
        }
      ],
      "stateMutability": "nonpayable",
      "type": "constructor"
    },
    {
      "inputs": [],
      "name": "BUDGET",
      "outputs": [
        {
          "internalType": "uint256",
          "name": "",
          "type": "uint256"
        }
      ],
      "stateMutability": "view",
      "type": "function",
      "constant": true
    },
    {
      "inputs": [
        {
          "internalType": "uint256",
          "name": "",
          "type": "uint256"
        }
      ],
      "name": "CREDITS_PER_YEAR",
      "outputs": [
        {
          "internalType": "uint256",
          "name": "",
          "type": "uint256"
        }
      ],
      "stateMutability": "view",
      "type": "function",
      "constant": true
    },
    {
      "inputs": [
        {
          "internalType": "uint256",
          "name": "",
          "type": "uint256"
        }
      ],
      "name": "FUNDS",
      "outputs": [
        {
          "internalType": "uint256",
          "name": "",
          "type": "uint256"
        }
      ],
      "stateMutability": "view",
      "type": "function",
      "constant": true
    },
    {
      "inputs": [],
      "name": "ISEE_LIMIT",
      "outputs": [
        {
          "internalType": "uint256",
          "name": "",
          "type": "uint256"
        }
      ],
      "stateMutability": "view",
      "type": "function",
      "constant": true
    },
    {
      "inputs": [],
      "name": "ISEE_MIN",
      "outputs": [
        {
          "internalType": "uint256",
          "name": "",
          "type": "uint256"
        }
      ],
      "stateMutability": "view",
      "type": "function",
      "constant": true
    },
    {
      "inputs": [
        {
          "internalType": "uint256",
          "name": "",
          "type": "uint256"
        }
      ],
      "name": "keys",
      "outputs": [
        {
          "internalType": "address",
          "name": "",
          "type": "address"
        }
      ],
      "stateMutability": "view",
      "type": "function",
      "constant": true
    },
    {
      "inputs": [
        {
          "internalType": "address",
          "name": "",
          "type": "address"
        }
      ],
      "name": "mappingStudents",
      "outputs": [
        {
          "internalType": "uint256",
          "name": "isee",
          "type": "uint256"
        },
        {
          "internalType": "uint256",
          "name": "crediti",
          "type": "uint256"
        },
        {
          "internalType": "uint256",
          "name": "year",
          "type": "uint256"
        },
        {
          "internalType": "uint256",
          "name": "score",
          "type": "uint256"
        },
        {
          "internalType": "uint256",
          "name": "funds",
          "type": "uint256"
        },
        {
          "internalType": "bool",
          "name": "eligible",
          "type": "bool"
        },
        {
          "internalType": "enum MyContract.status",
          "name": "_status",
          "type": "uint8"
        }
      ],
      "stateMutability": "view",
      "type": "function",
      "constant": true
    },
    {
      "inputs": [],
      "name": "myVariable",
      "outputs": [
        {
          "internalType": "string",
          "name": "",
          "type": "string"
        }
      ],
      "stateMutability": "view",
      "type": "function",
      "constant": true
    },
    {
      "inputs": [
        {
          "internalType": "uint256",
          "name": "",
          "type": "uint256"
        }
      ],
      "name": "rankedKeys",
      "outputs": [
        {
          "internalType": "address",
          "name": "",
          "type": "address"
        }
      ],
      "stateMutability": "view",
      "type": "function",
      "constant": true
    },
    {
      "inputs": [],
      "name": "val",
      "outputs": [
        {
          "internalType": "uint256",
          "name": "",
          "type": "uint256"
        }
      ],
      "stateMutability": "view",
      "type": "function",
      "constant": true
    },
    {
      "inputs": [],
      "name": "getBudget",
      "outputs": [
        {
          "internalType": "uint256",
          "name": "",
          "type": "uint256"
        }
      ],
      "stateMutability": "view",
      "type": "function",
      "constant": true
    },
    {
      "inputs": [],
      "name": "incrementBudget",
      "outputs": [],
      "stateMutability": "nonpayable",
      "type": "function"
    },
    {
      "inputs": [],
      "name": "getKeys",
      "outputs": [
        {
          "internalType": "address[]",
          "name": "",
          "type": "address[]"
        }
      ],
      "stateMutability": "view",
      "type": "function",
      "constant": true
    },
    {
      "inputs": [
        {
          "internalType": "address",
          "name": "key",
          "type": "address"
        }
      ],
      "name": "getStudent",
      "outputs": [
        {
          "components": [
            {
              "internalType": "uint256",
              "name": "isee",
              "type": "uint256"
            },
            {
              "internalType": "uint256",
              "name": "crediti",
              "type": "uint256"
            },
            {
              "internalType": "uint256",
              "name": "year",
              "type": "uint256"
            },
            {
              "internalType": "uint256",
              "name": "score",
              "type": "uint256"
            },
            {
              "internalType": "uint256",
              "name": "funds",
              "type": "uint256"
            },
            {
              "internalType": "bool",
              "name": "eligible",
              "type": "bool"
            },
            {
              "internalType": "enum MyContract.status",
              "name": "_status",
              "type": "uint8"
            }
          ],
          "internalType": "struct MyContract.Student",
          "name": "",
          "type": "tuple"
        }
      ],
      "stateMutability": "view",
      "type": "function",
      "constant": true
    },
    {
      "inputs": [
        {
          "internalType": "uint256",
          "name": "_isee",
          "type": "uint256"
        },
        {
          "internalType": "uint256",
          "name": "_crediti",
          "type": "uint256"
        },
        {
          "internalType": "uint256",
          "name": "_year",
          "type": "uint256"
        },
        {
          "internalType": "address",
          "name": "key",
          "type": "address"
        },
        {
          "internalType": "enum MyContract.status",
          "name": "_status",
          "type": "uint8"
        }
      ],
      "name": "addStudent",
      "outputs": [],
      "stateMutability": "nonpayable",
      "type": "function"
    },
    {
      "inputs": [],
      "name": "getStudentCount",
      "outputs": [
        {
          "internalType": "uint256",
          "name": "",
          "type": "uint256"
        }
      ],
      "stateMutability": "view",
      "type": "function",
      "constant": true
    },
    {
      "inputs": [
        {
          "components": [
            {
              "internalType": "uint256",
              "name": "isee",
              "type": "uint256"
            },
            {
              "internalType": "uint256",
              "name": "crediti",
              "type": "uint256"
            },
            {
              "internalType": "uint256",
              "name": "year",
              "type": "uint256"
            },
            {
              "internalType": "uint256",
              "name": "score",
              "type": "uint256"
            },
            {
              "internalType": "uint256",
              "name": "funds",
              "type": "uint256"
            },
            {
              "internalType": "bool",
              "name": "eligible",
              "type": "bool"
            },
            {
              "internalType": "enum MyContract.status",
              "name": "_status",
              "type": "uint8"
            }
          ],
          "internalType": "struct MyContract.Student",
          "name": "student",
          "type": "tuple"
        }
      ],
      "name": "computeScore",
      "outputs": [
        {
          "internalType": "uint256",
          "name": "",
          "type": "uint256"
        }
      ],
      "stateMutability": "pure",
      "type": "function",
      "constant": true
    },
    {
      "inputs": [],
      "name": "rankStudents",
      "outputs": [
        {
          "internalType": "address[]",
          "name": "",
          "type": "address[]"
        }
      ],
      "stateMutability": "nonpayable",
      "type": "function"
    },
    {
      "inputs": [],
      "name": "assignFunding",
      "outputs": [],
      "stateMutability": "nonpayable",
      "type": "function"
    },
    {
      "inputs": [
        {
          "internalType": "address",
          "name": "key",
          "type": "address"
        }
      ],
      "name": "IsEligible",
      "outputs": [
        {
          "internalType": "bool",
          "name": "",
          "type": "bool"
        }
      ],
      "stateMutability": "view",
      "type": "function",
      "constant": true
    }
  ],
  "bytecode": "0x6080604052615c306000556107d06001556040518060600160405280600060ff168152602001602d60ff168152602001605560ff16815250600290600362000049929190620000d0565b50604051806060016040528061051461ffff16815260200161070861ffff168152602001610c0761ffff1681525060039060036200008992919062000127565b5060006009553480156200009c57600080fd5b5060405162001ebb38038062001ebb8339818101604052810190620000c29190620001de565b806004819055505062000210565b82805482825590600052602060002090810192821562000114579160200282015b8281111562000113578251829060ff16905591602001919060010190620000f1565b5b5090506200012391906200017f565b5090565b8280548282559060005260206000209081019282156200016c579160200282015b828111156200016b578251829061ffff1690559160200191906001019062000148565b5b5090506200017b91906200017f565b5090565b5b808211156200019a57600081600090555060010162000180565b5090565b600080fd5b6000819050919050565b620001b881620001a3565b8114620001c457600080fd5b50565b600081519050620001d881620001ad565b92915050565b600060208284031215620001f757620001f66200019e565b5b60006200020784828501620001c7565b91505092915050565b611c9b80620002206000396000f3fe608060405234801561001057600080fd5b506004361061012c5760003560e01c80636b7b44d7116100ad578063e03eb24911610071578063e03eb24914610349578063e2ff94c514610379578063e7d7393d14610397578063ea8728ea146103a1578063eb63e643146103bf5761012c565b80636b7b44d71461027f5780636d92e25b146102af5780636fd4d505146102df5780637d3567b8146102fd57806395cdd66e1461032d5761012c565b80633c6bb436116100f45780633c6bb436146101d757806341e0c407146101f557806342d65b2c146102135780634e59ff56146102315780635fc67f461461024f5761012c565b80630cb6aaf114610131578063127714c71461016157806312858edb1461017f5780632150c518146101af57806321536493146101cd575b600080fd5b61014b600480360381019061014691906112d1565b6103f5565b604051610158919061133f565b60405180910390f35b610169610434565b6040516101769190611369565b60405180910390f35b61019960048036038101906101949190611526565b61043e565b6040516101a69190611369565b60405180910390f35b6101b761044c565b6040516101c49190611611565b60405180910390f35b6101d56104da565b005b6101df6104f4565b6040516101ec9190611369565b60405180910390f35b6101fd6104fa565b60405161020a9190611369565b60405180910390f35b61021b610507565b6040516102289190611369565b60405180910390f35b61023961050d565b60405161024691906116b2565b60405180910390f35b610269600480360381019061026491906112d1565b61059b565b604051610276919061133f565b60405180910390f35b61029960048036038101906102949190611700565b6105da565b6040516102a69190611850565b60405180910390f35b6102c960048036038101906102c49190611700565b6106bb565b6040516102d6919061187a565b60405180910390f35b6102e76107c8565b6040516102f49190611369565b60405180910390f35b610317600480360381019061031291906112d1565b6107ce565b6040516103249190611369565b60405180910390f35b61034760048036038101906103429190611895565b6107f2565b005b610363600480360381019061035e91906112d1565b610989565b6040516103709190611369565b60405180910390f35b6103816109ad565b60405161038e9190611369565b60405180910390f35b61039f6109b3565b005b6103a9610e96565b6040516103b69190611611565b60405180910390f35b6103d960048036038101906103d49190611700565b611138565b6040516103ec979695949392919061191f565b60405180910390f35b6007818154811061040557600080fd5b906000526020600020016000915054906101000a900473ffffffffffffffffffffffffffffffffffffffff1681565b6000600454905090565b600081600001519050919050565b606060078054806020026020016040519081016040528092919081815260200182805480156104d057602002820191906000526020600020905b8160009054906101000a900473ffffffffffffffffffffffffffffffffffffffff1673ffffffffffffffffffffffffffffffffffffffff1681526020019060010190808311610486575b5050505050905090565b600460008154809291906104ed906119bd565b9190505550565b60095481565b6000600780549050905090565b60005481565b6008805461051a90611a34565b80601f016020809104026020016040519081016040528092919081815260200182805461054690611a34565b80156105935780601f1061056857610100808354040283529160200191610593565b820191906000526020600020905b81548152906001019060200180831161057657829003601f168201915b505050505081565b600681815481106105ab57600080fd5b906000526020600020016000915054906101000a900473ffffffffffffffffffffffffffffffffffffffff1681565b6105e2611194565b600560008373ffffffffffffffffffffffffffffffffffffffff1673ffffffffffffffffffffffffffffffffffffffff1681526020019081526020016000206040518060e001604052908160008201548152602001600182015481526020016002820154815260200160038201548152602001600482015481526020016005820160009054906101000a900460ff161515151581526020016005820160019054906101000a900460ff16600281111561069e5761069d61174b565b5b60028111156106b0576106af61174b565b5b815250509050919050565b60008060019050600054600560008573ffffffffffffffffffffffffffffffffffffffff1673ffffffffffffffffffffffffffffffffffffffff1681526020019081526020016000206000015411806107b557506002600560008573ffffffffffffffffffffffffffffffffffffffff1673ffffffffffffffffffffffffffffffffffffffff168152602001908152602001600020600201548154811061076557610764611a65565b5b9060005260206000200154600560008573ffffffffffffffffffffffffffffffffffffffff1673ffffffffffffffffffffffffffffffffffffffff16815260200190815260200160002060010154105b156107bf57600090505b80915050919050565b60015481565b600381815481106107de57600080fd5b906000526020600020016000915090505481565b60006040518060e001604052808781526020018681526020018581526020016000815260200160008152602001610828856106bb565b151581526020018360028111156108425761084161174b565b5b81525090506108508161043e565b81606001818152505080600560008573ffffffffffffffffffffffffffffffffffffffff1673ffffffffffffffffffffffffffffffffffffffff168152602001908152602001600020600082015181600001556020820151816001015560408201518160020155606082015181600301556080820151816004015560a08201518160050160006101000a81548160ff02191690831515021790555060c08201518160050160016101000a81548160ff021916908360028111156109165761091561174b565b5b02179055509050506007839080600181540180825580915050600190039060005260206000200160009091909190916101000a81548173ffffffffffffffffffffffffffffffffffffffff021916908373ffffffffffffffffffffffffffffffffffffffff160217905550505050505050565b6002818154811061099957600080fd5b906000526020600020016000915090505481565b60045481565b6000600680549050905060006004549050600080600080600090505b85811015610e8e5760015460056000600684815481106109f2576109f1611a65565b5b9060005260206000200160009054906101000a900473ffffffffffffffffffffffffffffffffffffffff1673ffffffffffffffffffffffffffffffffffffffff1673ffffffffffffffffffffffffffffffffffffffff1681526020019081526020016000206000015411610a735760018054610a6e9190611a94565b610af5565b6005600060068381548110610a8b57610a8a611a65565b5b9060005260206000200160009054906101000a900473ffffffffffffffffffffffffffffffffffffffff1673ffffffffffffffffffffffffffffffffffffffff1673ffffffffffffffffffffffffffffffffffffffff168152602001908152602001600020600001545b935060006002811115610b0b57610b0a61174b565b5b6005600060068481548110610b2357610b22611a65565b5b9060005260206000200160009054906101000a900473ffffffffffffffffffffffffffffffffffffffff1673ffffffffffffffffffffffffffffffffffffffff1673ffffffffffffffffffffffffffffffffffffffff16815260200190815260200160002060050160019054906101000a900460ff166002811115610bab57610baa61174b565b5b03610bd7576003600081548110610bc557610bc4611a65565b5b90600052602060002001549250610d94565b60016002811115610beb57610bea61174b565b5b6005600060068481548110610c0357610c02611a65565b5b9060005260206000200160009054906101000a900473ffffffffffffffffffffffffffffffffffffffff1673ffffffffffffffffffffffffffffffffffffffff1673ffffffffffffffffffffffffffffffffffffffff16815260200190815260200160002060050160019054906101000a900460ff166002811115610c8b57610c8a61174b565b5b03610cb7576003600181548110610ca557610ca4611a65565b5b90600052602060002001549250610d93565b600280811115610cca57610cc961174b565b5b6005600060068481548110610ce257610ce1611a65565b5b9060005260206000200160009054906101000a900473ffffffffffffffffffffffffffffffffffffffff1673ffffffffffffffffffffffffffffffffffffffff1673ffffffffffffffffffffffffffffffffffffffff16815260200190815260200160002060050160019054906101000a900460ff166002811115610d6a57610d6961174b565b5b03610d92576003600281548110610d8457610d83611a65565b5b906000526020600020015492505b5b5b826002610da19190611ad2565b84600154610daf9190611b4a565b600154600054610dbf9190611b8d565b85610dca9190611bf0565b610dd49190611ad2565b610dde9190611c21565b9150818510610e7b578185610df39190611b8d565b9450816005600060068481548110610e0e57610e0d611a65565b5b9060005260206000200160009054906101000a900473ffffffffffffffffffffffffffffffffffffffff1673ffffffffffffffffffffffffffffffffffffffff1673ffffffffffffffffffffffffffffffffffffffff168152602001908152602001600020600401819055505b8080610e86906119bd565b9150506109cf565b505050505050565b606060006007805480602002602001604051908101604052809291908181526020018280548015610f1c57602002820191906000526020600020905b8160009054906101000a900473ffffffffffffffffffffffffffffffffffffffff1673ffffffffffffffffffffffffffffffffffffffff1681526020019060010190808311610ed2575b5050505050905060008151905060005b600182610f399190611b8d565b811015611118576000600182610f4f9190611a94565b90505b828110156111045760056000858381518110610f7157610f70611a65565b5b602002602001015173ffffffffffffffffffffffffffffffffffffffff1673ffffffffffffffffffffffffffffffffffffffff1681526020019081526020016000206003015460056000868581518110610fce57610fcd611a65565b5b602002602001015173ffffffffffffffffffffffffffffffffffffffff1673ffffffffffffffffffffffffffffffffffffffff1681526020019081526020016000206003015410156110f157600084838151811061102f5761102e611a65565b5b6020026020010151905084828151811061104c5761104b611a65565b5b602002602001015185848151811061106757611066611a65565b5b602002602001019073ffffffffffffffffffffffffffffffffffffffff16908173ffffffffffffffffffffffffffffffffffffffff1681525050808583815181106110b5576110b4611a65565b5b602002602001019073ffffffffffffffffffffffffffffffffffffffff16908173ffffffffffffffffffffffffffffffffffffffff1681525050505b80806110fc906119bd565b915050610f52565b508080611110906119bd565b915050610f2c565b50816006908051906020019061112f9291906111e5565b50819250505090565b60056020528060005260406000206000915090508060000154908060010154908060020154908060030154908060040154908060050160009054906101000a900460ff16908060050160019054906101000a900460ff16905087565b6040518060e001604052806000815260200160008152602001600081526020016000815260200160008152602001600015158152602001600060028111156111df576111de61174b565b5b81525090565b82805482825590600052602060002090810192821561125e579160200282015b8281111561125d5782518260006101000a81548173ffffffffffffffffffffffffffffffffffffffff021916908373ffffffffffffffffffffffffffffffffffffffff16021790555091602001919060010190611205565b5b50905061126b919061126f565b5090565b5b80821115611288576000816000905550600101611270565b5090565b6000604051905090565b600080fd5b6000819050919050565b6112ae8161129b565b81146112b957600080fd5b50565b6000813590506112cb816112a5565b92915050565b6000602082840312156112e7576112e6611296565b5b60006112f5848285016112bc565b91505092915050565b600073ffffffffffffffffffffffffffffffffffffffff82169050919050565b6000611329826112fe565b9050919050565b6113398161131e565b82525050565b60006020820190506113546000830184611330565b92915050565b6113638161129b565b82525050565b600060208201905061137e600083018461135a565b92915050565b600080fd5b6000601f19601f8301169050919050565b7f4e487b7100000000000000000000000000000000000000000000000000000000600052604160045260246000fd5b6113d282611389565b810181811067ffffffffffffffff821117156113f1576113f061139a565b5b80604052505050565b600061140461128c565b905061141082826113c9565b919050565b60008115159050919050565b61142a81611415565b811461143557600080fd5b50565b60008135905061144781611421565b92915050565b6003811061145a57600080fd5b50565b60008135905061146c8161144d565b92915050565b600060e0828403121561148857611487611384565b5b61149260e06113fa565b905060006114a2848285016112bc565b60008301525060206114b6848285016112bc565b60208301525060406114ca848285016112bc565b60408301525060606114de848285016112bc565b60608301525060806114f2848285016112bc565b60808301525060a061150684828501611438565b60a08301525060c061151a8482850161145d565b60c08301525092915050565b600060e0828403121561153c5761153b611296565b5b600061154a84828501611472565b91505092915050565b600081519050919050565b600082825260208201905092915050565b6000819050602082019050919050565b6115888161131e565b82525050565b600061159a838361157f565b60208301905092915050565b6000602082019050919050565b60006115be82611553565b6115c8818561155e565b93506115d38361156f565b8060005b838110156116045781516115eb888261158e565b97506115f6836115a6565b9250506001810190506115d7565b5085935050505092915050565b6000602082019050818103600083015261162b81846115b3565b905092915050565b600081519050919050565b600082825260208201905092915050565b60005b8381101561166d578082015181840152602081019050611652565b60008484015250505050565b600061168482611633565b61168e818561163e565b935061169e81856020860161164f565b6116a781611389565b840191505092915050565b600060208201905081810360008301526116cc8184611679565b905092915050565b6116dd8161131e565b81146116e857600080fd5b50565b6000813590506116fa816116d4565b92915050565b60006020828403121561171657611715611296565b5b6000611724848285016116eb565b91505092915050565b6117368161129b565b82525050565b61174581611415565b82525050565b7f4e487b7100000000000000000000000000000000000000000000000000000000600052602160045260246000fd5b6003811061178b5761178a61174b565b5b50565b600081905061179c8261177a565b919050565b60006117ac8261178e565b9050919050565b6117bc816117a1565b82525050565b60e0820160008201516117d8600085018261172d565b5060208201516117eb602085018261172d565b5060408201516117fe604085018261172d565b506060820151611811606085018261172d565b506080820151611824608085018261172d565b5060a082015161183760a085018261173c565b5060c082015161184a60c08501826117b3565b50505050565b600060e08201905061186560008301846117c2565b92915050565b61187481611415565b82525050565b600060208201905061188f600083018461186b565b92915050565b600080600080600060a086880312156118b1576118b0611296565b5b60006118bf888289016112bc565b95505060206118d0888289016112bc565b94505060406118e1888289016112bc565b93505060606118f2888289016116eb565b92505060806119038882890161145d565b9150509295509295909350565b611919816117a1565b82525050565b600060e082019050611934600083018a61135a565b611941602083018961135a565b61194e604083018861135a565b61195b606083018761135a565b611968608083018661135a565b61197560a083018561186b565b61198260c0830184611910565b98975050505050505050565b7f4e487b7100000000000000000000000000000000000000000000000000000000600052601160045260246000fd5b60006119c88261129b565b91507fffffffffffffffffffffffffffffffffffffffffffffffffffffffffffffffff82036119fa576119f961198e565b5b600182019050919050565b7f4e487b7100000000000000000000000000000000000000000000000000000000600052602260045260246000fd5b60006002820490506001821680611a4c57607f821691505b602082108103611a5f57611a5e611a05565b5b50919050565b7f4e487b7100000000000000000000000000000000000000000000000000000000600052603260045260246000fd5b6000611a9f8261129b565b9150611aaa8361129b565b9250828201905080821115611ac257611ac161198e565b5b92915050565b6000819050919050565b6000611add82611ac8565b9150611ae883611ac8565b9250828202611af681611ac8565b91507f80000000000000000000000000000000000000000000000000000000000000008414600084121615611b2e57611b2d61198e565b5b8282058414831517611b4357611b4261198e565b5b5092915050565b6000611b5582611ac8565b9150611b6083611ac8565b9250828203905081811260008412168282136000851215161715611b8757611b8661198e565b5b92915050565b6000611b988261129b565b9150611ba38361129b565b9250828203905081811115611bbb57611bba61198e565b5b92915050565b7f4e487b7100000000000000000000000000000000000000000000000000000000600052601260045260246000fd5b6000611bfb8261129b565b9150611c068361129b565b925082611c1657611c15611bc1565b5b828204905092915050565b6000611c2c82611ac8565b9150611c3783611ac8565b925082820190508281121560008312168382126000841215161715611c5f57611c5e61198e565b5b9291505056fea2646970667358221220d4efc7715c0248dd350885186cafab65e0639fb916f3eea19709c1f3b6aab60b64736f6c63430008130033",
  "immutableReferences": {},
  "source": "// SPDX-License-Identifier: MIT\npragma solidity ^0.8.0;\n\ncontract MyContract {\n\n    uint256 public ISEE_LIMIT = 23600;\n    uint256 public ISEE_MIN = 2000;\n    uint256[] public CREDITS_PER_YEAR = [0, 45, 85]; //crediti richiesti per onni anno della triennale\n    uint256[] public FUNDS = [1300, 1800, 3079];\n    uint256 public BUDGET;\n    enum status{ IN_SEDE, PENDOLARE, FUORI_SEDE }\n\n    struct Student {\n        uint256 isee;\n        uint256 crediti;\n        uint256 year; //supposed to go from 1 to 3 (anno della triennale per cui fai richiesta della borsa)\n        uint256 score;\n        uint256 funds;\n        bool eligible;\n        status _status;\n    }\n\n    mapping(address => Student) public mappingStudents;\n\n    address[] public rankedKeys;\n    address[] public keys;\n\n    string public myVariable;\n    uint256 public val = 0;\n\n    constructor(uint256 budget) {\n        BUDGET = budget;\n    }\n\n    function getBudget() public view returns (uint256) {\n        return BUDGET;\n    }\n\n    function incrementBudget() public {\n        BUDGET++;\n    }\n\n    function getKeys() public view returns (address[] memory) {\n        return keys;\n    }\n\n    function getStudent(address key) public view returns (Student memory) {\n        return mappingStudents[key];\n    }\n\n    function addStudent(\n        uint256 _isee,\n        uint256 _crediti,\n        uint256 _year,\n        address key,\n        status _status\n    ) public {\n        Student memory newStudent = Student(_isee, _crediti, _year, uint256(0), uint256(0), IsEligible(key), _status);\n        newStudent.score = computeScore(newStudent);\n        mappingStudents[key] = newStudent;\n        keys.push(key);\n    }\n\n    function getStudentCount() public view returns (uint256) {\n        return keys.length;\n    }\n\n    function computeScore(Student memory student) public pure returns (uint256) {\n\n        // uint256 score = 0;\n\n        // if(student.isee <= ISEE_LIMIT && student.year <= 3) {\n\n        //     if(student.year > 1 && student.crediti >= CREDITS_PER_YEAR[student.year - 1]) {\n        //         score = (ISEE_LIMIT - student.isee) + (student.crediti - CREDITS_PER_YEAR[student.year - 1]) * 100;\n        //     }\n        //     if(student.year == 1) {\n        //         score = (ISEE_LIMIT - student.isee) + 15 * 100;\n        //     }\n        // }\n\n        //return score;\n\n        return student.isee;\n    }\n\n    function rankStudents() public returns (address[] memory){\n\n        address[] memory sortedArray = keys;\n        uint len = sortedArray.length;\n\n        // Order students' addresses by looking at their score\n        for (uint i = 0; i < len - 1; i++) {\n            for (uint j = i + 1; j < len; j++) {\n                if (mappingStudents[sortedArray[i]].score < mappingStudents[sortedArray[j]].score) {\n                    // Swap elements\n                    address temp = sortedArray[i];\n                    sortedArray[i] = sortedArray[j];\n                    sortedArray[j] = temp;\n                }\n            }\n        }\n\n        rankedKeys = sortedArray;\n\n        return sortedArray;\n    }\n\n    function assignFunding() public {\n\n        uint len = rankedKeys.length;\n        uint256 budget = BUDGET;\n        uint256 isee = 0;\n        uint256 minFund = 0;\n        uint256 funds;\n\n        for (uint i = 0; i < len; i++) {\n\n            isee = mappingStudents[rankedKeys[i]].isee > ISEE_MIN ? mappingStudents[rankedKeys[i]].isee : ISEE_MIN + 1;\n\n            if(mappingStudents[rankedKeys[i]]._status == status.IN_SEDE) {\n                minFund = FUNDS[0];\n            } else if (mappingStudents[rankedKeys[i]]._status == status.PENDOLARE) {\n                minFund = FUNDS[1];\n            } else if (mappingStudents[rankedKeys[i]]._status == status.FUORI_SEDE) {\n                minFund = FUNDS[2];\n            }\n\n            funds = uint256(int256((minFund / (ISEE_LIMIT - ISEE_MIN))) * (int256(ISEE_MIN) - int256(isee)) + 2 * int256(minFund));\n\n            if(budget >= funds) {\n                budget = budget - funds;\n                mappingStudents[rankedKeys[i]].funds = funds;\n            }\n        }\n\n    }\n\n    function IsEligible(address key) public view returns (bool) {\n        bool eligible = true;\n\n        if(mappingStudents[key].isee > ISEE_LIMIT || mappingStudents[key].crediti < CREDITS_PER_YEAR[mappingStudents[key].year]) {\n            eligible = false;\n        }\n\n        return eligible;\n    }\n\n}\n",
  "sourcePath": "/Users/michelelamon/Documents/UNITN/Blockchain/Blockchain-Project/Scholarship-master/ScholarshipServer/contracts/MyContract.sol",
  "compiler": {
    "name": "solc",
    "version": "0.8.19+commit.7dd6d404.Emscripten.clang"
  },
  "schemaVersion": "3.4.14",
  "updatedAt": "2023-06-21T20:54:22.177Z",
  "networkType": "ethereum",
  "devdoc": {
    "kind": "dev",
    "methods": {},
    "version": 1
  },
  "userdoc": {
    "kind": "user",
    "methods": {},
    "version": 1
  }
}