{
  "contractName": "MyContract",
  "abi": [
    {
      "inputs": [
        {
          "internalType": "uint256",
          "name": "budget",
          "type": "uint256"
        },
        {
          "internalType": "uint256",
          "name": "isee_limit",
          "type": "uint256"
        },
        {
          "internalType": "string",
          "name": "name",
          "type": "string"
        },
        {
          "internalType": "string",
          "name": "date",
          "type": "string"
        }
      ],
      "stateMutability": "nonpayable",
      "type": "constructor"
    },
    {
      "inputs": [],
      "name": "BUDGET",
      "outputs": [
        {
          "internalType": "uint256",
          "name": "",
          "type": "uint256"
        }
      ],
      "stateMutability": "view",
      "type": "function"
    },
    {
      "inputs": [
        {
          "internalType": "uint256",
          "name": "",
          "type": "uint256"
        }
      ],
      "name": "CREDITS_PER_YEAR",
      "outputs": [
        {
          "internalType": "uint256",
          "name": "",
          "type": "uint256"
        }
      ],
      "stateMutability": "view",
      "type": "function"
    },
    {
      "inputs": [],
      "name": "DATE",
      "outputs": [
        {
          "internalType": "string",
          "name": "",
          "type": "string"
        }
      ],
      "stateMutability": "view",
      "type": "function"
    },
    {
      "inputs": [
        {
          "internalType": "uint256",
          "name": "",
          "type": "uint256"
        }
      ],
      "name": "FUNDS",
      "outputs": [
        {
          "internalType": "uint256",
          "name": "",
          "type": "uint256"
        }
      ],
      "stateMutability": "view",
      "type": "function"
    },
    {
      "inputs": [],
      "name": "ISEE_LIMIT",
      "outputs": [
        {
          "internalType": "uint256",
          "name": "",
          "type": "uint256"
        }
      ],
      "stateMutability": "view",
      "type": "function"
    },
    {
      "inputs": [],
      "name": "ISEE_MIN",
      "outputs": [
        {
          "internalType": "uint256",
          "name": "",
          "type": "uint256"
        }
      ],
      "stateMutability": "view",
      "type": "function"
    },
    {
      "inputs": [],
      "name": "NAME",
      "outputs": [
        {
          "internalType": "string",
          "name": "",
          "type": "string"
        }
      ],
      "stateMutability": "view",
      "type": "function"
    },
    {
      "inputs": [
        {
          "internalType": "uint256",
          "name": "",
          "type": "uint256"
        }
      ],
      "name": "keys",
      "outputs": [
        {
          "internalType": "address",
          "name": "",
          "type": "address"
        }
      ],
      "stateMutability": "view",
      "type": "function"
    },
    {
      "inputs": [
        {
          "internalType": "address",
          "name": "",
          "type": "address"
        }
      ],
      "name": "mappingStudents",
      "outputs": [
        {
          "internalType": "address",
          "name": "accountAddress",
          "type": "address"
        },
        {
          "internalType": "uint256",
          "name": "isee",
          "type": "uint256"
        },
        {
          "internalType": "uint256",
          "name": "credits",
          "type": "uint256"
        },
        {
          "internalType": "uint256",
          "name": "year",
          "type": "uint256"
        },
        {
          "internalType": "uint256",
          "name": "score",
          "type": "uint256"
        },
        {
          "internalType": "uint256",
          "name": "funds",
          "type": "uint256"
        },
        {
          "internalType": "bool",
          "name": "eligible",
          "type": "bool"
        },
        {
          "internalType": "enum MyContract.status",
          "name": "_status",
          "type": "uint8"
        }
      ],
      "stateMutability": "view",
      "type": "function"
    },
    {
      "inputs": [
        {
          "internalType": "uint256",
          "name": "",
          "type": "uint256"
        }
      ],
      "name": "rankedKeys",
      "outputs": [
        {
          "internalType": "address",
          "name": "",
          "type": "address"
        }
      ],
      "stateMutability": "view",
      "type": "function"
    },
    {
      "inputs": [],
      "name": "getBudget",
      "outputs": [
        {
          "internalType": "uint256",
          "name": "",
          "type": "uint256"
        }
      ],
      "stateMutability": "view",
      "type": "function"
    },
    {
      "inputs": [],
      "name": "incrementBudget",
      "outputs": [],
      "stateMutability": "nonpayable",
      "type": "function"
    },
    {
      "inputs": [],
      "name": "getKeys",
      "outputs": [
        {
          "internalType": "address[]",
          "name": "",
          "type": "address[]"
        }
      ],
      "stateMutability": "view",
      "type": "function"
    },
    {
      "inputs": [],
      "name": "getRankedKeys",
      "outputs": [
        {
          "internalType": "address[]",
          "name": "",
          "type": "address[]"
        }
      ],
      "stateMutability": "view",
      "type": "function"
    },
    {
      "inputs": [
        {
          "internalType": "address",
          "name": "key",
          "type": "address"
        }
      ],
      "name": "getStudent",
      "outputs": [
        {
          "components": [
            {
              "internalType": "address",
              "name": "accountAddress",
              "type": "address"
            },
            {
              "internalType": "uint256",
              "name": "isee",
              "type": "uint256"
            },
            {
              "internalType": "uint256",
              "name": "credits",
              "type": "uint256"
            },
            {
              "internalType": "uint256",
              "name": "year",
              "type": "uint256"
            },
            {
              "internalType": "uint256",
              "name": "score",
              "type": "uint256"
            },
            {
              "internalType": "uint256",
              "name": "funds",
              "type": "uint256"
            },
            {
              "internalType": "bool",
              "name": "eligible",
              "type": "bool"
            },
            {
              "internalType": "enum MyContract.status",
              "name": "_status",
              "type": "uint8"
            }
          ],
          "internalType": "struct MyContract.Student",
          "name": "",
          "type": "tuple"
        }
      ],
      "stateMutability": "view",
      "type": "function"
    },
    {
      "inputs": [],
      "name": "getStudents",
      "outputs": [
        {
          "components": [
            {
              "internalType": "address",
              "name": "accountAddress",
              "type": "address"
            },
            {
              "internalType": "uint256",
              "name": "isee",
              "type": "uint256"
            },
            {
              "internalType": "uint256",
              "name": "credits",
              "type": "uint256"
            },
            {
              "internalType": "uint256",
              "name": "year",
              "type": "uint256"
            },
            {
              "internalType": "uint256",
              "name": "score",
              "type": "uint256"
            },
            {
              "internalType": "uint256",
              "name": "funds",
              "type": "uint256"
            },
            {
              "internalType": "bool",
              "name": "eligible",
              "type": "bool"
            },
            {
              "internalType": "enum MyContract.status",
              "name": "_status",
              "type": "uint8"
            }
          ],
          "internalType": "struct MyContract.Student[]",
          "name": "",
          "type": "tuple[]"
        }
      ],
      "stateMutability": "view",
      "type": "function"
    },
    {
      "inputs": [
        {
          "internalType": "uint256",
          "name": "_isee",
          "type": "uint256"
        },
        {
          "internalType": "uint256",
          "name": "_crediti",
          "type": "uint256"
        },
        {
          "internalType": "uint256",
          "name": "_year",
          "type": "uint256"
        },
        {
          "internalType": "address",
          "name": "key",
          "type": "address"
        },
        {
          "internalType": "enum MyContract.status",
          "name": "_status",
          "type": "uint8"
        }
      ],
      "name": "addStudent",
      "outputs": [],
      "stateMutability": "nonpayable",
      "type": "function"
    },
    {
      "inputs": [],
      "name": "getStudentCount",
      "outputs": [
        {
          "internalType": "uint256",
          "name": "",
          "type": "uint256"
        }
      ],
      "stateMutability": "view",
      "type": "function"
    },
    {
      "inputs": [
        {
          "components": [
            {
              "internalType": "address",
              "name": "accountAddress",
              "type": "address"
            },
            {
              "internalType": "uint256",
              "name": "isee",
              "type": "uint256"
            },
            {
              "internalType": "uint256",
              "name": "credits",
              "type": "uint256"
            },
            {
              "internalType": "uint256",
              "name": "year",
              "type": "uint256"
            },
            {
              "internalType": "uint256",
              "name": "score",
              "type": "uint256"
            },
            {
              "internalType": "uint256",
              "name": "funds",
              "type": "uint256"
            },
            {
              "internalType": "bool",
              "name": "eligible",
              "type": "bool"
            },
            {
              "internalType": "enum MyContract.status",
              "name": "_status",
              "type": "uint8"
            }
          ],
          "internalType": "struct MyContract.Student",
          "name": "student",
          "type": "tuple"
        }
      ],
      "name": "computeScore",
      "outputs": [
        {
          "internalType": "uint256",
          "name": "",
          "type": "uint256"
        }
      ],
      "stateMutability": "pure",
      "type": "function"
    },
    {
      "inputs": [],
      "name": "rankStudents",
      "outputs": [],
      "stateMutability": "nonpayable",
      "type": "function"
    },
    {
      "inputs": [],
      "name": "assignFunding",
      "outputs": [],
      "stateMutability": "nonpayable",
      "type": "function"
    },
    {
      "inputs": [
        {
          "components": [
            {
              "internalType": "address",
              "name": "accountAddress",
              "type": "address"
            },
            {
              "internalType": "uint256",
              "name": "isee",
              "type": "uint256"
            },
            {
              "internalType": "uint256",
              "name": "credits",
              "type": "uint256"
            },
            {
              "internalType": "uint256",
              "name": "year",
              "type": "uint256"
            },
            {
              "internalType": "uint256",
              "name": "score",
              "type": "uint256"
            },
            {
              "internalType": "uint256",
              "name": "funds",
              "type": "uint256"
            },
            {
              "internalType": "bool",
              "name": "eligible",
              "type": "bool"
            },
            {
              "internalType": "enum MyContract.status",
              "name": "_status",
              "type": "uint8"
            }
          ],
          "internalType": "struct MyContract.Student",
          "name": "student",
          "type": "tuple"
        }
      ],
      "name": "isEligible",
      "outputs": [
        {
          "internalType": "bool",
          "name": "",
          "type": "bool"
        }
      ],
      "stateMutability": "view",
      "type": "function"
    }
  ],
  "bytecode": "0x6080604052615dc06000556107d06001556040518060600160405280600060ff168152602001602d60ff168152602001605560ff16815250600290600362000049929190620000f9565b50604051806060016040528061051461ffff16815260200161070861ffff168152602001610c0761ffff1681525060039060036200008992919062000150565b503480156200009757600080fd5b5060405162002ad638038062002ad68339818101604052810190620000bd919062000395565b82600081905550836004819055508160059081620000dc919062000686565b508060069081620000ee919062000686565b50505050506200076d565b8280548282559060005260206000209081019282156200013d579160200282015b828111156200013c578251829060ff169055916020019190600101906200011a565b5b5090506200014c9190620001a8565b5090565b82805482825590600052602060002090810192821562000195579160200282015b8281111562000194578251829061ffff1690559160200191906001019062000171565b5b509050620001a49190620001a8565b5090565b5b80821115620001c3576000816000905550600101620001a9565b5090565b6000604051905090565b600080fd5b600080fd5b6000819050919050565b620001f081620001db565b8114620001fc57600080fd5b50565b6000815190506200021081620001e5565b92915050565b600080fd5b600080fd5b6000601f19601f8301169050919050565b7f4e487b7100000000000000000000000000000000000000000000000000000000600052604160045260246000fd5b6200026b8262000220565b810181811067ffffffffffffffff821117156200028d576200028c62000231565b5b80604052505050565b6000620002a2620001c7565b9050620002b0828262000260565b919050565b600067ffffffffffffffff821115620002d357620002d262000231565b5b620002de8262000220565b9050602081019050919050565b60005b838110156200030b578082015181840152602081019050620002ee565b60008484015250505050565b60006200032e6200032884620002b5565b62000296565b9050828152602081018484840111156200034d576200034c6200021b565b5b6200035a848285620002eb565b509392505050565b600082601f8301126200037a576200037962000216565b5b81516200038c84826020860162000317565b91505092915050565b60008060008060808587031215620003b257620003b1620001d1565b5b6000620003c287828801620001ff565b9450506020620003d587828801620001ff565b935050604085015167ffffffffffffffff811115620003f957620003f8620001d6565b5b620004078782880162000362565b925050606085015167ffffffffffffffff8111156200042b576200042a620001d6565b5b620004398782880162000362565b91505092959194509250565b600081519050919050565b7f4e487b7100000000000000000000000000000000000000000000000000000000600052602260045260246000fd5b600060028204905060018216806200049857607f821691505b602082108103620004ae57620004ad62000450565b5b50919050565b60008190508160005260206000209050919050565b60006020601f8301049050919050565b600082821b905092915050565b600060088302620005187fffffffffffffffffffffffffffffffffffffffffffffffffffffffffffffffff82620004d9565b620005248683620004d9565b95508019841693508086168417925050509392505050565b6000819050919050565b600062000567620005616200055b84620001db565b6200053c565b620001db565b9050919050565b6000819050919050565b620005838362000546565b6200059b62000592826200056e565b848454620004e6565b825550505050565b600090565b620005b2620005a3565b620005bf81848462000578565b505050565b5b81811015620005e757620005db600082620005a8565b600181019050620005c5565b5050565b601f82111562000636576200060081620004b4565b6200060b84620004c9565b810160208510156200061b578190505b620006336200062a85620004c9565b830182620005c4565b50505b505050565b600082821c905092915050565b60006200065b600019846008026200063b565b1980831691505092915050565b600062000676838362000648565b9150826002028217905092915050565b620006918262000445565b67ffffffffffffffff811115620006ad57620006ac62000231565b5b620006b982546200047f565b620006c6828285620005eb565b600060209050601f831160018114620006fe5760008415620006e9578287015190505b620006f5858262000668565b86555062000765565b601f1984166200070e86620004b4565b60005b82811015620007385784890151825560018201915060208501945060208101905062000711565b8683101562000758578489015162000754601f89168262000648565b8355505b6001600288020188555050505b505050505050565b612359806200077d6000396000f3fe608060405234801561001057600080fd5b50600436106101425760003560e01c8063a3f4df7e116100b8578063e4861bdd1161007c578063e4861bdd1461038f578063e7d7393d146103ad578063ea8728ea146103b7578063eb63e643146103c1578063ed048450146103f8578063f1d064b31461041657610142565b8063a3f4df7e146102c3578063a547ad39146102e1578063d859286714610311578063e03eb24914610341578063e2ff94c51461037157610142565b806342d65b2c1161010a57806342d65b2c146101db5780635fc67f46146101f95780636b7b44d7146102295780636fd4d505146102595780637d3567b81461027757806395cdd66e146102a757610142565b80630cb6aaf114610147578063127714c7146101775780632150c5181461019557806321536493146101b357806341e0c407146101bd575b600080fd5b610161600480360381019061015c91906117e0565b610434565b60405161016e919061184e565b60405180910390f35b61017f610473565b60405161018c9190611878565b60405180910390f35b61019d61047d565b6040516101aa9190611951565b60405180910390f35b6101bb61050b565b005b6101c5610525565b6040516101d29190611878565b60405180910390f35b6101e3610532565b6040516101f09190611878565b60405180910390f35b610213600480360381019061020e91906117e0565b610538565b604051610220919061184e565b60405180910390f35b610243600480360381019061023e919061199f565b610577565b6040516102509190611b0f565b60405180910390f35b6102616106af565b60405161026e9190611878565b60405180910390f35b610291600480360381019061028c91906117e0565b6106b5565b60405161029e9190611878565b60405180910390f35b6102c160048036038101906102bc9190611b50565b6106d9565b005b6102cb61093b565b6040516102d89190611c5b565b60405180910390f35b6102fb60048036038101906102f69190611df3565b6109c9565b6040516103089190611878565b60405180910390f35b61032b60048036038101906103269190611df3565b6109d7565b6040516103389190611e30565b60405180910390f35b61035b600480360381019061035691906117e0565b610a3c565b6040516103689190611878565b60405180910390f35b610379610a60565b6040516103869190611878565b60405180910390f35b610397610a66565b6040516103a49190611c5b565b60405180910390f35b6103b5610af4565b005b6103bf610fe7565b005b6103db60048036038101906103d6919061199f565b611365565b6040516103ef989796959493929190611e5a565b60405180910390f35b6104006113e7565b60405161040d9190611951565b60405180910390f35b61041e611475565b60405161042b919061202a565b60405180910390f35b6008818154811061044457600080fd5b906000526020600020016000915054906101000a900473ffffffffffffffffffffffffffffffffffffffff1681565b6000600454905090565b6060600880548060200260200160405190810160405280929190818152602001828054801561050157602002820191906000526020600020905b8160009054906101000a900473ffffffffffffffffffffffffffffffffffffffff1673ffffffffffffffffffffffffffffffffffffffff16815260200190600101908083116104b7575b5050505050905090565b6004600081548092919061051e9061207b565b9190505550565b6000600880549050905090565b60005481565b6009818154811061054857600080fd5b906000526020600020016000915054906101000a900473ffffffffffffffffffffffffffffffffffffffff1681565b61057f611685565b600760008373ffffffffffffffffffffffffffffffffffffffff1673ffffffffffffffffffffffffffffffffffffffff168152602001908152602001600020604051806101000160405290816000820160009054906101000a900473ffffffffffffffffffffffffffffffffffffffff1673ffffffffffffffffffffffffffffffffffffffff1673ffffffffffffffffffffffffffffffffffffffff16815260200160018201548152602001600282015481526020016003820154815260200160048201548152602001600582015481526020016006820160009054906101000a900460ff161515151581526020016006820160019054906101000a900460ff166002811115610692576106916119f6565b5b60028111156106a4576106a36119f6565b5b815250509050919050565b60015481565b600381815481106106c557600080fd5b906000526020600020016000915090505481565b60006040518061010001604052808473ffffffffffffffffffffffffffffffffffffffff168152602001878152602001868152602001858152602001600081526020016000815260200160001515815260200183600281111561073f5761073e6119f6565b5b815250905061074d816109d7565b8160c00190151590811515815250508060c00151156107795761076f816109c9565b8160800181815250505b6000600760008573ffffffffffffffffffffffffffffffffffffffff1673ffffffffffffffffffffffffffffffffffffffff1681526020019081526020016000206001015403610827576008839080600181540180825580915050600190039060005260206000200160009091909190916101000a81548173ffffffffffffffffffffffffffffffffffffffff021916908373ffffffffffffffffffffffffffffffffffffffff1602179055505b80600760008573ffffffffffffffffffffffffffffffffffffffff1673ffffffffffffffffffffffffffffffffffffffff16815260200190815260200160002060008201518160000160006101000a81548173ffffffffffffffffffffffffffffffffffffffff021916908373ffffffffffffffffffffffffffffffffffffffff1602179055506020820151816001015560408201518160020155606082015181600301556080820151816004015560a0820151816005015560c08201518160060160006101000a81548160ff02191690831515021790555060e08201518160060160016101000a81548160ff0219169083600281111561092b5761092a6119f6565b5b0217905550905050505050505050565b60058054610948906120f2565b80601f0160208091040260200160405190810160405280929190818152602001828054610974906120f2565b80156109c15780601f10610996576101008083540402835291602001916109c1565b820191906000526020600020905b8154815290600101906020018083116109a457829003601f168201915b505050505081565b600081602001519050919050565b600080600190506000600184606001516109f19190612123565b905060005484602001511180610a28575060028181548110610a1657610a15612157565b5b90600052602060002001548460400151105b15610a3257600091505b8192505050919050565b60028181548110610a4c57600080fd5b906000526020600020016000915090505481565b60045481565b60068054610a73906120f2565b80601f0160208091040260200160405190810160405280929190818152602001828054610a9f906120f2565b8015610aec5780601f10610ac157610100808354040283529160200191610aec565b820191906000526020600020905b815481529060010190602001808311610acf57829003601f168201915b505050505081565b6000600980549050905060006004549050600080600080600090505b85811015610fde576001546007600060098481548110610b3357610b32612157565b5b9060005260206000200160009054906101000a900473ffffffffffffffffffffffffffffffffffffffff1673ffffffffffffffffffffffffffffffffffffffff1673ffffffffffffffffffffffffffffffffffffffff1681526020019081526020016000206001015411610bb45760018054610baf9190612186565b610c36565b6007600060098381548110610bcc57610bcb612157565b5b9060005260206000200160009054906101000a900473ffffffffffffffffffffffffffffffffffffffff1673ffffffffffffffffffffffffffffffffffffffff1673ffffffffffffffffffffffffffffffffffffffff168152602001908152602001600020600101545b935060006002811115610c4c57610c4b6119f6565b5b6007600060098481548110610c6457610c63612157565b5b9060005260206000200160009054906101000a900473ffffffffffffffffffffffffffffffffffffffff1673ffffffffffffffffffffffffffffffffffffffff1673ffffffffffffffffffffffffffffffffffffffff16815260200190815260200160002060060160019054906101000a900460ff166002811115610cec57610ceb6119f6565b5b03610d18576003600081548110610d0657610d05612157565b5b90600052602060002001549250610ed5565b60016002811115610d2c57610d2b6119f6565b5b6007600060098481548110610d4457610d43612157565b5b9060005260206000200160009054906101000a900473ffffffffffffffffffffffffffffffffffffffff1673ffffffffffffffffffffffffffffffffffffffff1673ffffffffffffffffffffffffffffffffffffffff16815260200190815260200160002060060160019054906101000a900460ff166002811115610dcc57610dcb6119f6565b5b03610df8576003600181548110610de657610de5612157565b5b90600052602060002001549250610ed4565b600280811115610e0b57610e0a6119f6565b5b6007600060098481548110610e2357610e22612157565b5b9060005260206000200160009054906101000a900473ffffffffffffffffffffffffffffffffffffffff1673ffffffffffffffffffffffffffffffffffffffff1673ffffffffffffffffffffffffffffffffffffffff16815260200190815260200160002060060160019054906101000a900460ff166002811115610eab57610eaa6119f6565b5b03610ed3576003600281548110610ec557610ec4612157565b5b906000526020600020015492505b5b5b826002610ee291906121c4565b84600154610ef0919061223c565b600154600054610f009190612123565b85610f0b91906122ae565b610f1591906121c4565b610f1f91906122df565b9150818510610fc0578185610f349190612123565b9450816007600060098481548110610f4f57610f4e612157565b5b9060005260206000200160009054906101000a900473ffffffffffffffffffffffffffffffffffffffff1673ffffffffffffffffffffffffffffffffffffffff1673ffffffffffffffffffffffffffffffffffffffff16815260200190815260200160002060050181905550610fcb565b505050505050610fe5565b8080610fd69061207b565b915050610b10565b5050505050505b565b6000600880548060200260200160405190810160405280929190818152602001828054801561106b57602002820191906000526020600020905b8160009054906101000a900473ffffffffffffffffffffffffffffffffffffffff1673ffffffffffffffffffffffffffffffffffffffff1681526020019060010190808311611021575b50505050509050600081519050600067ffffffffffffffff81111561109357611092611c82565b5b6040519080825280602002602001820160405280156110c15781602001602082028036833780820191505090505b50600990805190602001906110d79291906116f4565b5060018103611163576009826000815181106110f6576110f5612157565b5b60200260200101519080600181540180825580915050600190039060005260206000200160009091909190916101000a81548173ffffffffffffffffffffffffffffffffffffffff021916908373ffffffffffffffffffffffffffffffffffffffff160217905550611361565b60005b6001826111739190612123565b8110156113485760006001826111899190612186565b90505b8281101561133457600760008583815181106111ab576111aa612157565b5b602002602001015173ffffffffffffffffffffffffffffffffffffffff1673ffffffffffffffffffffffffffffffffffffffff168152602001908152602001600020600401546007600086858151811061120857611207612157565b5b602002602001015173ffffffffffffffffffffffffffffffffffffffff1673ffffffffffffffffffffffffffffffffffffffff1681526020019081526020016000206004015411156113215783818151811061126757611266612157565b5b602002602001015184838151811061128257611281612157565b5b602002602001015185848151811061129d5761129c612157565b5b602002602001018684815181106112b7576112b6612157565b5b602002602001018273ffffffffffffffffffffffffffffffffffffffff1673ffffffffffffffffffffffffffffffffffffffff168152508273ffffffffffffffffffffffffffffffffffffffff1673ffffffffffffffffffffffffffffffffffffffff1681525050505b808061132c9061207b565b91505061118c565b5080806113409061207b565b915050611166565b50816009908051906020019061135f9291906116f4565b505b5050565b60076020528060005260406000206000915090508060000160009054906101000a900473ffffffffffffffffffffffffffffffffffffffff16908060010154908060020154908060030154908060040154908060050154908060060160009054906101000a900460ff16908060060160019054906101000a900460ff16905088565b6060600980548060200260200160405190810160405280929190818152602001828054801561146b57602002820191906000526020600020905b8160009054906101000a900473ffffffffffffffffffffffffffffffffffffffff1673ffffffffffffffffffffffffffffffffffffffff1681526020019060010190808311611421575b5050505050905090565b60606000600980549050905060008167ffffffffffffffff81111561149d5761149c611c82565b5b6040519080825280602002602001820160405280156114d657816020015b6114c3611685565b8152602001906001900390816114bb5790505b50905060005b8281101561167c5760076000600983815481106114fc576114fb612157565b5b9060005260206000200160009054906101000a900473ffffffffffffffffffffffffffffffffffffffff1673ffffffffffffffffffffffffffffffffffffffff1673ffffffffffffffffffffffffffffffffffffffff168152602001908152602001600020604051806101000160405290816000820160009054906101000a900473ffffffffffffffffffffffffffffffffffffffff1673ffffffffffffffffffffffffffffffffffffffff1673ffffffffffffffffffffffffffffffffffffffff16815260200160018201548152602001600282015481526020016003820154815260200160048201548152602001600582015481526020016006820160009054906101000a900460ff161515151581526020016006820160019054906101000a900460ff166002811115611635576116346119f6565b5b6002811115611647576116466119f6565b5b8152505082828151811061165e5761165d612157565b5b602002602001018190525080806116749061207b565b9150506114dc565b50809250505090565b604051806101000160405280600073ffffffffffffffffffffffffffffffffffffffff1681526020016000815260200160008152602001600081526020016000815260200160008152602001600015158152602001600060028111156116ee576116ed6119f6565b5b81525090565b82805482825590600052602060002090810192821561176d579160200282015b8281111561176c5782518260006101000a81548173ffffffffffffffffffffffffffffffffffffffff021916908373ffffffffffffffffffffffffffffffffffffffff16021790555091602001919060010190611714565b5b50905061177a919061177e565b5090565b5b8082111561179757600081600090555060010161177f565b5090565b6000604051905090565b600080fd5b6000819050919050565b6117bd816117aa565b81146117c857600080fd5b50565b6000813590506117da816117b4565b92915050565b6000602082840312156117f6576117f56117a5565b5b6000611804848285016117cb565b91505092915050565b600073ffffffffffffffffffffffffffffffffffffffff82169050919050565b60006118388261180d565b9050919050565b6118488161182d565b82525050565b6000602082019050611863600083018461183f565b92915050565b611872816117aa565b82525050565b600060208201905061188d6000830184611869565b92915050565b600081519050919050565b600082825260208201905092915050565b6000819050602082019050919050565b6118c88161182d565b82525050565b60006118da83836118bf565b60208301905092915050565b6000602082019050919050565b60006118fe82611893565b611908818561189e565b9350611913836118af565b8060005b8381101561194457815161192b88826118ce565b9750611936836118e6565b925050600181019050611917565b5085935050505092915050565b6000602082019050818103600083015261196b81846118f3565b905092915050565b61197c8161182d565b811461198757600080fd5b50565b60008135905061199981611973565b92915050565b6000602082840312156119b5576119b46117a5565b5b60006119c38482850161198a565b91505092915050565b6119d5816117aa565b82525050565b60008115159050919050565b6119f0816119db565b82525050565b7f4e487b7100000000000000000000000000000000000000000000000000000000600052602160045260246000fd5b60038110611a3657611a356119f6565b5b50565b6000819050611a4782611a25565b919050565b6000611a5782611a39565b9050919050565b611a6781611a4c565b82525050565b61010082016000820151611a8460008501826118bf565b506020820151611a9760208501826119cc565b506040820151611aaa60408501826119cc565b506060820151611abd60608501826119cc565b506080820151611ad060808501826119cc565b5060a0820151611ae360a08501826119cc565b5060c0820151611af660c08501826119e7565b5060e0820151611b0960e0850182611a5e565b50505050565b600061010082019050611b256000830184611a6d565b92915050565b60038110611b3857600080fd5b50565b600081359050611b4a81611b2b565b92915050565b600080600080600060a08688031215611b6c57611b6b6117a5565b5b6000611b7a888289016117cb565b9550506020611b8b888289016117cb565b9450506040611b9c888289016117cb565b9350506060611bad8882890161198a565b9250506080611bbe88828901611b3b565b9150509295509295909350565b600081519050919050565b600082825260208201905092915050565b60005b83811015611c05578082015181840152602081019050611bea565b60008484015250505050565b6000601f19601f8301169050919050565b6000611c2d82611bcb565b611c378185611bd6565b9350611c47818560208601611be7565b611c5081611c11565b840191505092915050565b60006020820190508181036000830152611c758184611c22565b905092915050565b600080fd5b7f4e487b7100000000000000000000000000000000000000000000000000000000600052604160045260246000fd5b611cba82611c11565b810181811067ffffffffffffffff82111715611cd957611cd8611c82565b5b80604052505050565b6000611cec61179b565b9050611cf88282611cb1565b919050565b611d06816119db565b8114611d1157600080fd5b50565b600081359050611d2381611cfd565b92915050565b60006101008284031215611d4057611d3f611c7d565b5b611d4b610100611ce2565b90506000611d5b8482850161198a565b6000830152506020611d6f848285016117cb565b6020830152506040611d83848285016117cb565b6040830152506060611d97848285016117cb565b6060830152506080611dab848285016117cb565b60808301525060a0611dbf848285016117cb565b60a08301525060c0611dd384828501611d14565b60c08301525060e0611de784828501611b3b565b60e08301525092915050565b60006101008284031215611e0a57611e096117a5565b5b6000611e1884828501611d29565b91505092915050565b611e2a816119db565b82525050565b6000602082019050611e456000830184611e21565b92915050565b611e5481611a4c565b82525050565b600061010082019050611e70600083018b61183f565b611e7d602083018a611869565b611e8a6040830189611869565b611e976060830188611869565b611ea46080830187611869565b611eb160a0830186611869565b611ebe60c0830185611e21565b611ecb60e0830184611e4b565b9998505050505050505050565b600081519050919050565b600082825260208201905092915050565b6000819050602082019050919050565b61010082016000820151611f1b60008501826118bf565b506020820151611f2e60208501826119cc565b506040820151611f4160408501826119cc565b506060820151611f5460608501826119cc565b506080820151611f6760808501826119cc565b5060a0820151611f7a60a08501826119cc565b5060c0820151611f8d60c08501826119e7565b5060e0820151611fa060e0850182611a5e565b50505050565b6000611fb28383611f04565b6101008301905092915050565b6000602082019050919050565b6000611fd782611ed8565b611fe18185611ee3565b9350611fec83611ef4565b8060005b8381101561201d5781516120048882611fa6565b975061200f83611fbf565b925050600181019050611ff0565b5085935050505092915050565b600060208201905081810360008301526120448184611fcc565b905092915050565b7f4e487b7100000000000000000000000000000000000000000000000000000000600052601160045260246000fd5b6000612086826117aa565b91507fffffffffffffffffffffffffffffffffffffffffffffffffffffffffffffffff82036120b8576120b761204c565b5b600182019050919050565b7f4e487b7100000000000000000000000000000000000000000000000000000000600052602260045260246000fd5b6000600282049050600182168061210a57607f821691505b60208210810361211d5761211c6120c3565b5b50919050565b600061212e826117aa565b9150612139836117aa565b92508282039050818111156121515761215061204c565b5b92915050565b7f4e487b7100000000000000000000000000000000000000000000000000000000600052603260045260246000fd5b6000612191826117aa565b915061219c836117aa565b92508282019050808211156121b4576121b361204c565b5b92915050565b6000819050919050565b60006121cf826121ba565b91506121da836121ba565b92508282026121e8816121ba565b91507f800000000000000000000000000000000000000000000000000000000000000084146000841216156122205761221f61204c565b5b82820584148315176122355761223461204c565b5b5092915050565b6000612247826121ba565b9150612252836121ba565b92508282039050818112600084121682821360008512151617156122795761227861204c565b5b92915050565b7f4e487b7100000000000000000000000000000000000000000000000000000000600052601260045260246000fd5b60006122b9826117aa565b91506122c4836117aa565b9250826122d4576122d361227f565b5b828204905092915050565b60006122ea826121ba565b91506122f5836121ba565b92508282019050828112156000831216838212600084121516171561231d5761231c61204c565b5b9291505056fea264697066735822122090c3380dfcb3891d55aac6be5804b5407e082f73fe87553771a07352f1174efc64736f6c63430008130033",
  "immutableReferences": {},
  "source": "// SPDX-License-Identifier: MIT\npragma solidity ^0.8.0;\n\ncontract MyContract {\n\n    // Adjustments and imput checking needed to functions\n\n    /////////////////////////////////////////////////////////////////////\n    // STRUCTS AND GLOBAL VARIABLES\n\n    struct Student {\n        address accountAddress; //address of the account of the student\n        uint256 isee; // [1, 1000000]\n        uint256 credits; // [0, 1000]\n        uint256 year; //year you are asking for the scholarship [1, 3]\n        uint256 score; //computed for ranking\n        uint256 funds; //scholarship value for the student\n        bool eligible; // true/false\n        status _status;\n    }\n\n    enum status{ IN_SEDE, PENDOLARE, FUORI_SEDE } //the three allowed statuses for students\n\n\n    uint256 public ISEE_LIMIT = 24000; //maximum allowed ISEE to be eligible\n    uint256 public ISEE_MIN = 2000; //supposed minimum ISEE (for scholarship computation)\n    uint256[] public CREDITS_PER_YEAR = [0, 45, 85]; //required credits for each year of the bachelor to be eligible\n    uint256[] public FUNDS = [1300, 1800, 3079]; //minimum scholarsip value for each student status (max is double)\n    uint256 public BUDGET; //entire budget for the scholarships\n    string public NAME; //name of scholarship\n    string public DATE; //end date to apply for the scholarship\n    \n    mapping(address => Student) public mappingStudents; //contains the association address->student\n\n    address[] public keys; //stores the key of each applying student\n    address[] public rankedKeys; //stores the keys of students after rankStudents() gets called\n\n    /////////////////////////////////////////////////////////////////////\n\n    constructor(uint256 budget, uint256 isee_limit, string memory name, string memory date) {\n        ISEE_LIMIT = isee_limit;\n        BUDGET = budget;\n        NAME = name;\n        DATE = date;\n    }\n\n    function getBudget() public view returns (uint256) {\n        return BUDGET;\n    }\n\n    function incrementBudget() public {\n        BUDGET++;\n    }\n\n    /////////////////////////////////////////////////////////////////////\n    // STUDENTS\n\n    function getKeys() public view returns (address[] memory) {\n        return keys;\n    }\n\n     function getRankedKeys() public view returns (address[] memory) {\n        return rankedKeys;\n    }\n\n    function getStudent(address key) public view returns (Student memory) {\n        return mappingStudents[key];\n    }\n\n    function getStudents() public view returns (Student[] memory){\n        uint len = rankedKeys.length;\n        Student[] memory studentArray = new Student[](len);\n\n        for (uint i = 0; i < len; i++) {\n            studentArray[i] = mappingStudents[rankedKeys[i]];\n        }\n\n        return studentArray;\n    }\n\n    function addStudent(uint256 _isee, uint256 _crediti, uint256 _year, address key, status _status) public {\n        Student memory newStudent = Student(key, _isee, _crediti, _year, uint256(0), uint256(0), false, _status);\n\n        newStudent.eligible = isEligible(newStudent);\n        if(newStudent.eligible)\n            newStudent.score = computeScore(newStudent);\n\n        if(mappingStudents[key].isee == 0) //check if students is already inserted by looking at isee value\n            keys.push(key);\n\n        mappingStudents[key] = newStudent;\n        \n    }\n\n    function getStudentCount() public view returns (uint256) {\n        return keys.length;\n    }\n\n    function computeScore(Student memory student) public pure returns (uint256) {\n\n        //To be modified if a different ranking metric is necessary\n        return student.isee;\n    }\n\n    function rankStudents() public {\n        address[] memory sortedArray = keys;\n        uint len = sortedArray.length;\n\n        rankedKeys = new address[](0);\n\n        if(len == 1) {\n            rankedKeys.push(sortedArray[0]);\n        }\n        else \n        {\n            // Order students' addresses by looking at their score\n            for (uint i = 0; i < len - 1; i++) {\n                for (uint j = i + 1; j < len; j++) {\n                    if (mappingStudents[sortedArray[i]].score > mappingStudents[sortedArray[j]].score) {\n                        // Swap elements\n                        //address temp = sortedArray[i];\n                        //sortedArray[i] = sortedArray[j];\n                        //sortedArray[j] = temp;\n                        (sortedArray[i], sortedArray[j]) = (sortedArray[j], sortedArray[i]); \n                    }\n                }\n            }\n\n            rankedKeys = sortedArray;\n            /*\n            for (uint i = 0; i < len; i++) {\n                rankedKeys.push(sortedArray[i]);\n            } \n            */  \n        }\n            \n    }\n\n    //Uses the student's ranking to assign funds to each student until funds are depleted\n    function assignFunding() public {\n\n        uint len = rankedKeys.length;\n        uint256 budget = BUDGET;\n        uint256 isee = 0;\n        uint256 minFund = 0;\n        uint256 funds;\n\n        for (uint i = 0; i < len; i++) {\n\n            isee = mappingStudents[rankedKeys[i]].isee > ISEE_MIN ? mappingStudents[rankedKeys[i]].isee : ISEE_MIN + 1;\n\n            if(mappingStudents[rankedKeys[i]]._status == status.IN_SEDE) {\n                minFund = FUNDS[0];\n            } else if (mappingStudents[rankedKeys[i]]._status == status.PENDOLARE) {\n                minFund = FUNDS[1];\n            } else if (mappingStudents[rankedKeys[i]]._status == status.FUORI_SEDE) {\n                minFund = FUNDS[2];\n            }\n\n            funds = uint256(int256((minFund / (ISEE_LIMIT - ISEE_MIN))) * (int256(ISEE_MIN) - int256(isee)) + 2 * int256(minFund));\n\n            if(budget >= funds) {\n                budget = budget - funds;\n                mappingStudents[rankedKeys[i]].funds = funds;\n            } else {\n                return;\n            }\n        }\n\n    }\n\n    // Checks if a student should be eligible for the scholarship based on its ISEE and credits\n    function isEligible(Student memory student) public view returns (bool) {\n        bool eligible = true;\n        uint studentYear = student.year-1;\n        if(student.isee > ISEE_LIMIT || student.credits < CREDITS_PER_YEAR[studentYear]) {\n            eligible = false;\n        }\n\n        return eligible;\n    }\n\n    /////////////////////////////////////////////////////////////////////\n\n}\n",
  "sourcePath": "/home/nicola/Scrivania/Blockchain-Project/Scholarship-master/ScholarshipServer/contracts/MyContract.sol",
  "compiler": {
    "name": "solc",
    "version": "0.8.19+commit.7dd6d404.Emscripten.clang"
  },
  "schemaVersion": "3.4.13",
  "updatedAt": "2023-06-26T16:31:42.524Z",
  "devdoc": {
    "kind": "dev",
    "methods": {},
    "version": 1
  },
  "userdoc": {
    "kind": "user",
    "methods": {},
    "version": 1
  }
}