{
  "contractName": "MyContract",
  "abi": [
    {
      "inputs": [
        {
          "internalType": "uint256",
          "name": "budget",
          "type": "uint256"
        },
        {
          "internalType": "uint256",
          "name": "isee_limit",
          "type": "uint256"
        },
        {
          "internalType": "uint256[]",
          "name": "credits",
          "type": "uint256[]"
        },
        {
          "internalType": "uint256[]",
          "name": "funds",
          "type": "uint256[]"
        },
        {
          "internalType": "string",
          "name": "name",
          "type": "string"
        },
        {
          "internalType": "string",
          "name": "date",
          "type": "string"
        }
      ],
      "stateMutability": "nonpayable",
      "type": "constructor"
    },
    {
      "inputs": [],
      "name": "BUDGET",
      "outputs": [
        {
          "internalType": "uint256",
          "name": "",
          "type": "uint256"
        }
      ],
      "stateMutability": "view",
      "type": "function",
      "constant": true
    },
    {
      "inputs": [
        {
          "internalType": "uint256",
          "name": "",
          "type": "uint256"
        }
      ],
      "name": "CREDITS_PER_YEAR",
      "outputs": [
        {
          "internalType": "uint256",
          "name": "",
          "type": "uint256"
        }
      ],
      "stateMutability": "view",
      "type": "function",
      "constant": true
    },
    {
      "inputs": [],
      "name": "DATE",
      "outputs": [
        {
          "internalType": "string",
          "name": "",
          "type": "string"
        }
      ],
      "stateMutability": "view",
      "type": "function",
      "constant": true
    },
    {
      "inputs": [
        {
          "internalType": "uint256",
          "name": "",
          "type": "uint256"
        }
      ],
      "name": "FUNDS",
      "outputs": [
        {
          "internalType": "uint256",
          "name": "",
          "type": "uint256"
        }
      ],
      "stateMutability": "view",
      "type": "function",
      "constant": true
    },
    {
      "inputs": [],
      "name": "ISEE_LIMIT",
      "outputs": [
        {
          "internalType": "uint256",
          "name": "",
          "type": "uint256"
        }
      ],
      "stateMutability": "view",
      "type": "function",
      "constant": true
    },
    {
      "inputs": [],
      "name": "ISEE_MIN",
      "outputs": [
        {
          "internalType": "uint256",
          "name": "",
          "type": "uint256"
        }
      ],
      "stateMutability": "view",
      "type": "function",
      "constant": true
    },
    {
      "inputs": [],
      "name": "NAME",
      "outputs": [
        {
          "internalType": "string",
          "name": "",
          "type": "string"
        }
      ],
      "stateMutability": "view",
      "type": "function",
      "constant": true
    },
    {
      "inputs": [
        {
          "internalType": "uint256",
          "name": "",
          "type": "uint256"
        }
      ],
      "name": "keys",
      "outputs": [
        {
          "internalType": "address",
          "name": "",
          "type": "address"
        }
      ],
      "stateMutability": "view",
      "type": "function",
      "constant": true
    },
    {
      "inputs": [
        {
          "internalType": "address",
          "name": "",
          "type": "address"
        }
      ],
      "name": "mappingStudents",
      "outputs": [
        {
          "internalType": "address",
          "name": "accountAddress",
          "type": "address"
        },
        {
          "internalType": "uint256",
          "name": "isee",
          "type": "uint256"
        },
        {
          "internalType": "uint256",
          "name": "credits",
          "type": "uint256"
        },
        {
          "internalType": "uint256",
          "name": "year",
          "type": "uint256"
        },
        {
          "internalType": "uint256",
          "name": "score",
          "type": "uint256"
        },
        {
          "internalType": "uint256",
          "name": "funds",
          "type": "uint256"
        },
        {
          "internalType": "bool",
          "name": "eligible",
          "type": "bool"
        },
        {
          "internalType": "enum MyContract.status",
          "name": "_status",
          "type": "uint8"
        }
      ],
      "stateMutability": "view",
      "type": "function",
      "constant": true
    },
    {
      "inputs": [
        {
          "internalType": "uint256",
          "name": "",
          "type": "uint256"
        }
      ],
      "name": "rankedKeys",
      "outputs": [
        {
          "internalType": "address",
          "name": "",
          "type": "address"
        }
      ],
      "stateMutability": "view",
      "type": "function",
      "constant": true
    },
    {
      "inputs": [],
      "name": "getBudget",
      "outputs": [
        {
          "internalType": "uint256",
          "name": "",
          "type": "uint256"
        }
      ],
      "stateMutability": "view",
      "type": "function",
      "constant": true
    },
    {
      "inputs": [],
      "name": "getCredit",
      "outputs": [
        {
          "internalType": "uint256[]",
          "name": "",
          "type": "uint256[]"
        }
      ],
      "stateMutability": "view",
      "type": "function",
      "constant": true
    },
    {
      "inputs": [],
      "name": "incrementBudget",
      "outputs": [],
      "stateMutability": "nonpayable",
      "type": "function"
    },
    {
      "inputs": [],
      "name": "getKeys",
      "outputs": [
        {
          "internalType": "address[]",
          "name": "",
          "type": "address[]"
        }
      ],
      "stateMutability": "view",
      "type": "function",
      "constant": true
    },
    {
      "inputs": [],
      "name": "getRankedKeys",
      "outputs": [
        {
          "internalType": "address[]",
          "name": "",
          "type": "address[]"
        }
      ],
      "stateMutability": "view",
      "type": "function",
      "constant": true
    },
    {
      "inputs": [
        {
          "internalType": "address",
          "name": "key",
          "type": "address"
        }
      ],
      "name": "getStudent",
      "outputs": [
        {
          "components": [
            {
              "internalType": "address",
              "name": "accountAddress",
              "type": "address"
            },
            {
              "internalType": "uint256",
              "name": "isee",
              "type": "uint256"
            },
            {
              "internalType": "uint256",
              "name": "credits",
              "type": "uint256"
            },
            {
              "internalType": "uint256",
              "name": "year",
              "type": "uint256"
            },
            {
              "internalType": "uint256",
              "name": "score",
              "type": "uint256"
            },
            {
              "internalType": "uint256",
              "name": "funds",
              "type": "uint256"
            },
            {
              "internalType": "bool",
              "name": "eligible",
              "type": "bool"
            },
            {
              "internalType": "enum MyContract.status",
              "name": "_status",
              "type": "uint8"
            }
          ],
          "internalType": "struct MyContract.Student",
          "name": "",
          "type": "tuple"
        }
      ],
      "stateMutability": "view",
      "type": "function",
      "constant": true
    },
    {
      "inputs": [],
      "name": "getStudents",
      "outputs": [
        {
          "components": [
            {
              "internalType": "address",
              "name": "accountAddress",
              "type": "address"
            },
            {
              "internalType": "uint256",
              "name": "isee",
              "type": "uint256"
            },
            {
              "internalType": "uint256",
              "name": "credits",
              "type": "uint256"
            },
            {
              "internalType": "uint256",
              "name": "year",
              "type": "uint256"
            },
            {
              "internalType": "uint256",
              "name": "score",
              "type": "uint256"
            },
            {
              "internalType": "uint256",
              "name": "funds",
              "type": "uint256"
            },
            {
              "internalType": "bool",
              "name": "eligible",
              "type": "bool"
            },
            {
              "internalType": "enum MyContract.status",
              "name": "_status",
              "type": "uint8"
            }
          ],
          "internalType": "struct MyContract.Student[]",
          "name": "",
          "type": "tuple[]"
        }
      ],
      "stateMutability": "view",
      "type": "function",
      "constant": true
    },
    {
      "inputs": [
        {
          "internalType": "uint256",
          "name": "_isee",
          "type": "uint256"
        },
        {
          "internalType": "uint256",
          "name": "_crediti",
          "type": "uint256"
        },
        {
          "internalType": "uint256",
          "name": "_year",
          "type": "uint256"
        },
        {
          "internalType": "address",
          "name": "key",
          "type": "address"
        },
        {
          "internalType": "enum MyContract.status",
          "name": "_status",
          "type": "uint8"
        }
      ],
      "name": "addStudent",
      "outputs": [],
      "stateMutability": "nonpayable",
      "type": "function"
    },
    {
      "inputs": [],
      "name": "getStudentCount",
      "outputs": [
        {
          "internalType": "uint256",
          "name": "",
          "type": "uint256"
        }
      ],
      "stateMutability": "view",
      "type": "function",
      "constant": true
    },
    {
      "inputs": [
        {
          "components": [
            {
              "internalType": "address",
              "name": "accountAddress",
              "type": "address"
            },
            {
              "internalType": "uint256",
              "name": "isee",
              "type": "uint256"
            },
            {
              "internalType": "uint256",
              "name": "credits",
              "type": "uint256"
            },
            {
              "internalType": "uint256",
              "name": "year",
              "type": "uint256"
            },
            {
              "internalType": "uint256",
              "name": "score",
              "type": "uint256"
            },
            {
              "internalType": "uint256",
              "name": "funds",
              "type": "uint256"
            },
            {
              "internalType": "bool",
              "name": "eligible",
              "type": "bool"
            },
            {
              "internalType": "enum MyContract.status",
              "name": "_status",
              "type": "uint8"
            }
          ],
          "internalType": "struct MyContract.Student",
          "name": "student",
          "type": "tuple"
        }
      ],
      "name": "computeScore",
      "outputs": [
        {
          "internalType": "uint256",
          "name": "",
          "type": "uint256"
        }
      ],
      "stateMutability": "pure",
      "type": "function",
      "constant": true
    },
    {
      "inputs": [],
      "name": "rankStudents",
      "outputs": [],
      "stateMutability": "nonpayable",
      "type": "function"
    },
    {
      "inputs": [],
      "name": "assignFunding",
      "outputs": [],
      "stateMutability": "nonpayable",
      "type": "function"
    },
    {
      "inputs": [
        {
          "components": [
            {
              "internalType": "address",
              "name": "accountAddress",
              "type": "address"
            },
            {
              "internalType": "uint256",
              "name": "isee",
              "type": "uint256"
            },
            {
              "internalType": "uint256",
              "name": "credits",
              "type": "uint256"
            },
            {
              "internalType": "uint256",
              "name": "year",
              "type": "uint256"
            },
            {
              "internalType": "uint256",
              "name": "score",
              "type": "uint256"
            },
            {
              "internalType": "uint256",
              "name": "funds",
              "type": "uint256"
            },
            {
              "internalType": "bool",
              "name": "eligible",
              "type": "bool"
            },
            {
              "internalType": "enum MyContract.status",
              "name": "_status",
              "type": "uint8"
            }
          ],
          "internalType": "struct MyContract.Student",
          "name": "student",
          "type": "tuple"
        }
      ],
      "name": "isEligible",
      "outputs": [
        {
          "internalType": "bool",
          "name": "",
          "type": "bool"
        }
      ],
      "stateMutability": "view",
      "type": "function",
      "constant": true
    }
  ],
  "bytecode": "0x6080604052601860005560026001556040518060600160405280600060ff168152602001602d60ff168152602001605560ff168152506002906003620000479291906200012b565b50604051806060016040528061051461ffff16815260200161070861ffff168152602001610c0761ffff1681525060039060036200008792919062000182565b503480156200009557600080fd5b5060405162002e7938038062002e798339818101604052810190620000bb9190620004f4565b84600081905550856004819055508360029080519060200190620000e1929190620001da565b508260039080519060200190620000fa929190620001da565b5081600590816200010c91906200084d565b5080600690816200011e91906200084d565b5050505050505062000934565b8280548282559060005260206000209081019282156200016f579160200282015b828111156200016e578251829060ff169055916020019190600101906200014c565b5b5090506200017e91906200022c565b5090565b828054828255906000526020600020908101928215620001c7579160200282015b82811115620001c6578251829061ffff16905591602001919060010190620001a3565b5b509050620001d691906200022c565b5090565b82805482825590600052602060002090810192821562000219579160200282015b8281111562000218578251825591602001919060010190620001fb565b5b5090506200022891906200022c565b5090565b5b80821115620002475760008160009055506001016200022d565b5090565b6000604051905090565b600080fd5b600080fd5b6000819050919050565b62000274816200025f565b81146200028057600080fd5b50565b600081519050620002948162000269565b92915050565b600080fd5b6000601f19601f8301169050919050565b7f4e487b7100000000000000000000000000000000000000000000000000000000600052604160045260246000fd5b620002ea826200029f565b810181811067ffffffffffffffff821117156200030c576200030b620002b0565b5b80604052505050565b6000620003216200024b565b90506200032f8282620002df565b919050565b600067ffffffffffffffff821115620003525762000351620002b0565b5b602082029050602081019050919050565b600080fd5b60006200037f620003798462000334565b62000315565b90508083825260208201905060208402830185811115620003a557620003a462000363565b5b835b81811015620003d25780620003bd888262000283565b845260208401935050602081019050620003a7565b5050509392505050565b600082601f830112620003f457620003f36200029a565b5b81516200040684826020860162000368565b91505092915050565b600080fd5b600067ffffffffffffffff821115620004325762000431620002b0565b5b6200043d826200029f565b9050602081019050919050565b60005b838110156200046a5780820151818401526020810190506200044d565b60008484015250505050565b60006200048d620004878462000414565b62000315565b905082815260208101848484011115620004ac57620004ab6200040f565b5b620004b98482856200044a565b509392505050565b600082601f830112620004d957620004d86200029a565b5b8151620004eb84826020860162000476565b91505092915050565b60008060008060008060c0878903121562000514576200051362000255565b5b60006200052489828a0162000283565b96505060206200053789828a0162000283565b955050604087015167ffffffffffffffff8111156200055b576200055a6200025a565b5b6200056989828a01620003dc565b945050606087015167ffffffffffffffff8111156200058d576200058c6200025a565b5b6200059b89828a01620003dc565b935050608087015167ffffffffffffffff811115620005bf57620005be6200025a565b5b620005cd89828a01620004c1565b92505060a087015167ffffffffffffffff811115620005f157620005f06200025a565b5b620005ff89828a01620004c1565b9150509295509295509295565b600081519050919050565b7f4e487b7100000000000000000000000000000000000000000000000000000000600052602260045260246000fd5b600060028204905060018216806200065f57607f821691505b60208210810362000675576200067462000617565b5b50919050565b60008190508160005260206000209050919050565b60006020601f8301049050919050565b600082821b905092915050565b600060088302620006df7fffffffffffffffffffffffffffffffffffffffffffffffffffffffffffffffff82620006a0565b620006eb8683620006a0565b95508019841693508086168417925050509392505050565b6000819050919050565b60006200072e6200072862000722846200025f565b62000703565b6200025f565b9050919050565b6000819050919050565b6200074a836200070d565b62000762620007598262000735565b848454620006ad565b825550505050565b600090565b620007796200076a565b620007868184846200073f565b505050565b5b81811015620007ae57620007a26000826200076f565b6001810190506200078c565b5050565b601f821115620007fd57620007c7816200067b565b620007d28462000690565b81016020851015620007e2578190505b620007fa620007f18562000690565b8301826200078b565b50505b505050565b600082821c905092915050565b6000620008226000198460080262000802565b1980831691505092915050565b60006200083d83836200080f565b9150826002028217905092915050565b62000858826200060c565b67ffffffffffffffff811115620008745762000873620002b0565b5b62000880825462000646565b6200088d828285620007b2565b600060209050601f831160018114620008c55760008415620008b0578287015190505b620008bc85826200082f565b8655506200092c565b601f198416620008d5866200067b565b60005b82811015620008ff57848901518255600182019150602085019450602081019050620008d8565b868310156200091f57848901516200091b601f8916826200080f565b8355505b6001600288020188555050505b505050505050565b61253580620009446000396000f3fe608060405234801561001057600080fd5b506004361061014d5760003560e01c806395cdd66e116100c3578063e4861bdd1161007c578063e4861bdd146103b8578063e7d7393d146103d6578063ea8728ea146103e0578063eb63e643146103ea578063ed04845014610421578063f1d064b31461043f5761014d565b806395cdd66e146102d0578063a3f4df7e146102ec578063a547ad391461030a578063d85928671461033a578063e03eb2491461036a578063e2ff94c51461039a5761014d565b806342d65b2c1161011557806342d65b2c146101e657806359296e7b146102045780635fc67f46146102225780636b7b44d7146102525780636fd4d505146102825780637d3567b8146102a05761014d565b80630cb6aaf114610152578063127714c7146101825780632150c518146101a057806321536493146101be57806341e0c407146101c8575b600080fd5b61016c600480360381019061016791906118eb565b61045d565b6040516101799190611959565b60405180910390f35b61018a61049c565b6040516101979190611983565b60405180910390f35b6101a86104a6565b6040516101b59190611a5c565b60405180910390f35b6101c6610534565b005b6101d061054e565b6040516101dd9190611983565b60405180910390f35b6101ee61055b565b6040516101fb9190611983565b60405180910390f35b61020c610561565b6040516102199190611b3c565b60405180910390f35b61023c600480360381019061023791906118eb565b6105b9565b6040516102499190611959565b60405180910390f35b61026c60048036038101906102679190611b8a565b6105f8565b6040516102799190611ceb565b60405180910390f35b61028a610730565b6040516102979190611983565b60405180910390f35b6102ba60048036038101906102b591906118eb565b610736565b6040516102c79190611983565b60405180910390f35b6102ea60048036038101906102e59190611d2c565b61075a565b005b6102f46109bc565b6040516103019190611e37565b60405180910390f35b610324600480360381019061031f9190611fcf565b610a4a565b6040516103319190611983565b60405180910390f35b610354600480360381019061034f9190611fcf565b610a58565b604051610361919061200c565b60405180910390f35b610384600480360381019061037f91906118eb565b610abd565b6040516103919190611983565b60405180910390f35b6103a2610ae1565b6040516103af9190611983565b60405180910390f35b6103c0610ae7565b6040516103cd9190611e37565b60405180910390f35b6103de610b75565b005b6103e86110f2565b005b61040460048036038101906103ff9190611b8a565b611470565b604051610418989796959493929190612036565b60405180910390f35b6104296114f2565b6040516104369190611a5c565b60405180910390f35b610447611580565b6040516104549190612206565b60405180910390f35b6008818154811061046d57600080fd5b906000526020600020016000915054906101000a900473ffffffffffffffffffffffffffffffffffffffff1681565b6000600454905090565b6060600880548060200260200160405190810160405280929190818152602001828054801561052a57602002820191906000526020600020905b8160009054906101000a900473ffffffffffffffffffffffffffffffffffffffff1673ffffffffffffffffffffffffffffffffffffffff16815260200190600101908083116104e0575b5050505050905090565b6004600081548092919061054790612257565b9190505550565b6000600880549050905090565b60005481565b606060028054806020026020016040519081016040528092919081815260200182805480156105af57602002820191906000526020600020905b81548152602001906001019080831161059b575b5050505050905090565b600981815481106105c957600080fd5b906000526020600020016000915054906101000a900473ffffffffffffffffffffffffffffffffffffffff1681565b610600611790565b600760008373ffffffffffffffffffffffffffffffffffffffff1673ffffffffffffffffffffffffffffffffffffffff168152602001908152602001600020604051806101000160405290816000820160009054906101000a900473ffffffffffffffffffffffffffffffffffffffff1673ffffffffffffffffffffffffffffffffffffffff1673ffffffffffffffffffffffffffffffffffffffff16815260200160018201548152602001600282015481526020016003820154815260200160048201548152602001600582015481526020016006820160009054906101000a900460ff161515151581526020016006820160019054906101000a900460ff16600281111561071357610712611bd2565b5b600281111561072557610724611bd2565b5b815250509050919050565b60015481565b6003818154811061074657600080fd5b906000526020600020016000915090505481565b60006040518061010001604052808473ffffffffffffffffffffffffffffffffffffffff16815260200187815260200186815260200185815260200160008152602001600081526020016000151581526020018360028111156107c0576107bf611bd2565b5b81525090506107ce81610a58565b8160c00190151590811515815250508060c00151156107fa576107f081610a4a565b8160800181815250505b6000600760008573ffffffffffffffffffffffffffffffffffffffff1673ffffffffffffffffffffffffffffffffffffffff16815260200190815260200160002060010154036108a8576008839080600181540180825580915050600190039060005260206000200160009091909190916101000a81548173ffffffffffffffffffffffffffffffffffffffff021916908373ffffffffffffffffffffffffffffffffffffffff1602179055505b80600760008573ffffffffffffffffffffffffffffffffffffffff1673ffffffffffffffffffffffffffffffffffffffff16815260200190815260200160002060008201518160000160006101000a81548173ffffffffffffffffffffffffffffffffffffffff021916908373ffffffffffffffffffffffffffffffffffffffff1602179055506020820151816001015560408201518160020155606082015181600301556080820151816004015560a0820151816005015560c08201518160060160006101000a81548160ff02191690831515021790555060e08201518160060160016101000a81548160ff021916908360028111156109ac576109ab611bd2565b5b0217905550905050505050505050565b600580546109c9906122ce565b80601f01602080910402602001604051908101604052809291908181526020018280546109f5906122ce565b8015610a425780601f10610a1757610100808354040283529160200191610a42565b820191906000526020600020905b815481529060010190602001808311610a2557829003601f168201915b505050505081565b600081602001519050919050565b60008060019050600060018460600151610a7291906122ff565b905060005484602001511180610aa9575060028181548110610a9757610a96612333565b5b90600052602060002001548460400151105b15610ab357600091505b8192505050919050565b60028181548110610acd57600080fd5b906000526020600020016000915090505481565b60045481565b60068054610af4906122ce565b80601f0160208091040260200160405190810160405280929190818152602001828054610b20906122ce565b8015610b6d5780601f10610b4257610100808354040283529160200191610b6d565b820191906000526020600020905b815481529060010190602001808311610b5057829003601f168201915b505050505081565b6000600980549050905060006004549050600080600080600090505b858110156110e95760006007600060098481548110610bb357610bb2612333565b5b9060005260206000200160009054906101000a900473ffffffffffffffffffffffffffffffffffffffff1673ffffffffffffffffffffffffffffffffffffffff1673ffffffffffffffffffffffffffffffffffffffff1681526020019081526020016000206004015411156110d6576001546007600060098481548110610c3d57610c3c612333565b5b9060005260206000200160009054906101000a900473ffffffffffffffffffffffffffffffffffffffff1673ffffffffffffffffffffffffffffffffffffffff1673ffffffffffffffffffffffffffffffffffffffff1681526020019081526020016000206001015411610cbe5760018054610cb99190612362565b610d40565b6007600060098381548110610cd657610cd5612333565b5b9060005260206000200160009054906101000a900473ffffffffffffffffffffffffffffffffffffffff1673ffffffffffffffffffffffffffffffffffffffff1673ffffffffffffffffffffffffffffffffffffffff168152602001908152602001600020600101545b935060006002811115610d5657610d55611bd2565b5b6007600060098481548110610d6e57610d6d612333565b5b9060005260206000200160009054906101000a900473ffffffffffffffffffffffffffffffffffffffff1673ffffffffffffffffffffffffffffffffffffffff1673ffffffffffffffffffffffffffffffffffffffff16815260200190815260200160002060060160019054906101000a900460ff166002811115610df657610df5611bd2565b5b03610e22576003600081548110610e1057610e0f612333565b5b90600052602060002001549250610fdf565b60016002811115610e3657610e35611bd2565b5b6007600060098481548110610e4e57610e4d612333565b5b9060005260206000200160009054906101000a900473ffffffffffffffffffffffffffffffffffffffff1673ffffffffffffffffffffffffffffffffffffffff1673ffffffffffffffffffffffffffffffffffffffff16815260200190815260200160002060060160019054906101000a900460ff166002811115610ed657610ed5611bd2565b5b03610f02576003600181548110610ef057610eef612333565b5b90600052602060002001549250610fde565b600280811115610f1557610f14611bd2565b5b6007600060098481548110610f2d57610f2c612333565b5b9060005260206000200160009054906101000a900473ffffffffffffffffffffffffffffffffffffffff1673ffffffffffffffffffffffffffffffffffffffff1673ffffffffffffffffffffffffffffffffffffffff16815260200190815260200160002060060160019054906101000a900460ff166002811115610fb557610fb4611bd2565b5b03610fdd576003600281548110610fcf57610fce612333565b5b906000526020600020015492505b5b5b826002610fec91906123a0565b84600154610ffa9190612418565b60015460005461100a91906122ff565b85611015919061248a565b61101f91906123a0565b61102991906124bb565b91508185106110ca57818561103e91906122ff565b945081600760006009848154811061105957611058612333565b5b9060005260206000200160009054906101000a900473ffffffffffffffffffffffffffffffffffffffff1673ffffffffffffffffffffffffffffffffffffffff1673ffffffffffffffffffffffffffffffffffffffff168152602001908152602001600020600501819055506110d5565b5050505050506110f0565b5b80806110e190612257565b915050610b91565b5050505050505b565b6000600880548060200260200160405190810160405280929190818152602001828054801561117657602002820191906000526020600020905b8160009054906101000a900473ffffffffffffffffffffffffffffffffffffffff1673ffffffffffffffffffffffffffffffffffffffff168152602001906001019080831161112c575b50505050509050600081519050600067ffffffffffffffff81111561119e5761119d611e5e565b5b6040519080825280602002602001820160405280156111cc5781602001602082028036833780820191505090505b50600990805190602001906111e29291906117ff565b506001810361126e5760098260008151811061120157611200612333565b5b60200260200101519080600181540180825580915050600190039060005260206000200160009091909190916101000a81548173ffffffffffffffffffffffffffffffffffffffff021916908373ffffffffffffffffffffffffffffffffffffffff16021790555061146c565b60005b60018261127e91906122ff565b8110156114535760006001826112949190612362565b90505b8281101561143f57600760008583815181106112b6576112b5612333565b5b602002602001015173ffffffffffffffffffffffffffffffffffffffff1673ffffffffffffffffffffffffffffffffffffffff168152602001908152602001600020600401546007600086858151811061131357611312612333565b5b602002602001015173ffffffffffffffffffffffffffffffffffffffff1673ffffffffffffffffffffffffffffffffffffffff16815260200190815260200160002060040154111561142c5783818151811061137257611371612333565b5b602002602001015184838151811061138d5761138c612333565b5b60200260200101518584815181106113a8576113a7612333565b5b602002602001018684815181106113c2576113c1612333565b5b602002602001018273ffffffffffffffffffffffffffffffffffffffff1673ffffffffffffffffffffffffffffffffffffffff168152508273ffffffffffffffffffffffffffffffffffffffff1673ffffffffffffffffffffffffffffffffffffffff1681525050505b808061143790612257565b915050611297565b50808061144b90612257565b915050611271565b50816009908051906020019061146a9291906117ff565b505b5050565b60076020528060005260406000206000915090508060000160009054906101000a900473ffffffffffffffffffffffffffffffffffffffff16908060010154908060020154908060030154908060040154908060050154908060060160009054906101000a900460ff16908060060160019054906101000a900460ff16905088565b6060600980548060200260200160405190810160405280929190818152602001828054801561157657602002820191906000526020600020905b8160009054906101000a900473ffffffffffffffffffffffffffffffffffffffff1673ffffffffffffffffffffffffffffffffffffffff168152602001906001019080831161152c575b5050505050905090565b60606000600980549050905060008167ffffffffffffffff8111156115a8576115a7611e5e565b5b6040519080825280602002602001820160405280156115e157816020015b6115ce611790565b8152602001906001900390816115c65790505b50905060005b8281101561178757600760006009838154811061160757611606612333565b5b9060005260206000200160009054906101000a900473ffffffffffffffffffffffffffffffffffffffff1673ffffffffffffffffffffffffffffffffffffffff1673ffffffffffffffffffffffffffffffffffffffff168152602001908152602001600020604051806101000160405290816000820160009054906101000a900473ffffffffffffffffffffffffffffffffffffffff1673ffffffffffffffffffffffffffffffffffffffff1673ffffffffffffffffffffffffffffffffffffffff16815260200160018201548152602001600282015481526020016003820154815260200160048201548152602001600582015481526020016006820160009054906101000a900460ff161515151581526020016006820160019054906101000a900460ff1660028111156117405761173f611bd2565b5b600281111561175257611751611bd2565b5b8152505082828151811061176957611768612333565b5b6020026020010181905250808061177f90612257565b9150506115e7565b50809250505090565b604051806101000160405280600073ffffffffffffffffffffffffffffffffffffffff1681526020016000815260200160008152602001600081526020016000815260200160008152602001600015158152602001600060028111156117f9576117f8611bd2565b5b81525090565b828054828255906000526020600020908101928215611878579160200282015b828111156118775782518260006101000a81548173ffffffffffffffffffffffffffffffffffffffff021916908373ffffffffffffffffffffffffffffffffffffffff1602179055509160200191906001019061181f565b5b5090506118859190611889565b5090565b5b808211156118a257600081600090555060010161188a565b5090565b6000604051905090565b600080fd5b6000819050919050565b6118c8816118b5565b81146118d357600080fd5b50565b6000813590506118e5816118bf565b92915050565b600060208284031215611901576119006118b0565b5b600061190f848285016118d6565b91505092915050565b600073ffffffffffffffffffffffffffffffffffffffff82169050919050565b600061194382611918565b9050919050565b61195381611938565b82525050565b600060208201905061196e600083018461194a565b92915050565b61197d816118b5565b82525050565b60006020820190506119986000830184611974565b92915050565b600081519050919050565b600082825260208201905092915050565b6000819050602082019050919050565b6119d381611938565b82525050565b60006119e583836119ca565b60208301905092915050565b6000602082019050919050565b6000611a098261199e565b611a1381856119a9565b9350611a1e836119ba565b8060005b83811015611a4f578151611a3688826119d9565b9750611a41836119f1565b925050600181019050611a22565b5085935050505092915050565b60006020820190508181036000830152611a7681846119fe565b905092915050565b600081519050919050565b600082825260208201905092915050565b6000819050602082019050919050565b611ab3816118b5565b82525050565b6000611ac58383611aaa565b60208301905092915050565b6000602082019050919050565b6000611ae982611a7e565b611af38185611a89565b9350611afe83611a9a565b8060005b83811015611b2f578151611b168882611ab9565b9750611b2183611ad1565b925050600181019050611b02565b5085935050505092915050565b60006020820190508181036000830152611b568184611ade565b905092915050565b611b6781611938565b8114611b7257600080fd5b50565b600081359050611b8481611b5e565b92915050565b600060208284031215611ba057611b9f6118b0565b5b6000611bae84828501611b75565b91505092915050565b60008115159050919050565b611bcc81611bb7565b82525050565b7f4e487b7100000000000000000000000000000000000000000000000000000000600052602160045260246000fd5b60038110611c1257611c11611bd2565b5b50565b6000819050611c2382611c01565b919050565b6000611c3382611c15565b9050919050565b611c4381611c28565b82525050565b61010082016000820151611c6060008501826119ca565b506020820151611c736020850182611aaa565b506040820151611c866040850182611aaa565b506060820151611c996060850182611aaa565b506080820151611cac6080850182611aaa565b5060a0820151611cbf60a0850182611aaa565b5060c0820151611cd260c0850182611bc3565b5060e0820151611ce560e0850182611c3a565b50505050565b600061010082019050611d016000830184611c49565b92915050565b60038110611d1457600080fd5b50565b600081359050611d2681611d07565b92915050565b600080600080600060a08688031215611d4857611d476118b0565b5b6000611d56888289016118d6565b9550506020611d67888289016118d6565b9450506040611d78888289016118d6565b9350506060611d8988828901611b75565b9250506080611d9a88828901611d17565b9150509295509295909350565b600081519050919050565b600082825260208201905092915050565b60005b83811015611de1578082015181840152602081019050611dc6565b60008484015250505050565b6000601f19601f8301169050919050565b6000611e0982611da7565b611e138185611db2565b9350611e23818560208601611dc3565b611e2c81611ded565b840191505092915050565b60006020820190508181036000830152611e518184611dfe565b905092915050565b600080fd5b7f4e487b7100000000000000000000000000000000000000000000000000000000600052604160045260246000fd5b611e9682611ded565b810181811067ffffffffffffffff82111715611eb557611eb4611e5e565b5b80604052505050565b6000611ec86118a6565b9050611ed48282611e8d565b919050565b611ee281611bb7565b8114611eed57600080fd5b50565b600081359050611eff81611ed9565b92915050565b60006101008284031215611f1c57611f1b611e59565b5b611f27610100611ebe565b90506000611f3784828501611b75565b6000830152506020611f4b848285016118d6565b6020830152506040611f5f848285016118d6565b6040830152506060611f73848285016118d6565b6060830152506080611f87848285016118d6565b60808301525060a0611f9b848285016118d6565b60a08301525060c0611faf84828501611ef0565b60c08301525060e0611fc384828501611d17565b60e08301525092915050565b60006101008284031215611fe657611fe56118b0565b5b6000611ff484828501611f05565b91505092915050565b61200681611bb7565b82525050565b60006020820190506120216000830184611ffd565b92915050565b61203081611c28565b82525050565b60006101008201905061204c600083018b61194a565b612059602083018a611974565b6120666040830189611974565b6120736060830188611974565b6120806080830187611974565b61208d60a0830186611974565b61209a60c0830185611ffd565b6120a760e0830184612027565b9998505050505050505050565b600081519050919050565b600082825260208201905092915050565b6000819050602082019050919050565b610100820160008201516120f760008501826119ca565b50602082015161210a6020850182611aaa565b50604082015161211d6040850182611aaa565b5060608201516121306060850182611aaa565b5060808201516121436080850182611aaa565b5060a082015161215660a0850182611aaa565b5060c082015161216960c0850182611bc3565b5060e082015161217c60e0850182611c3a565b50505050565b600061218e83836120e0565b6101008301905092915050565b6000602082019050919050565b60006121b3826120b4565b6121bd81856120bf565b93506121c8836120d0565b8060005b838110156121f95781516121e08882612182565b97506121eb8361219b565b9250506001810190506121cc565b5085935050505092915050565b6000602082019050818103600083015261222081846121a8565b905092915050565b7f4e487b7100000000000000000000000000000000000000000000000000000000600052601160045260246000fd5b6000612262826118b5565b91507fffffffffffffffffffffffffffffffffffffffffffffffffffffffffffffffff820361229457612293612228565b5b600182019050919050565b7f4e487b7100000000000000000000000000000000000000000000000000000000600052602260045260246000fd5b600060028204905060018216806122e657607f821691505b6020821081036122f9576122f861229f565b5b50919050565b600061230a826118b5565b9150612315836118b5565b925082820390508181111561232d5761232c612228565b5b92915050565b7f4e487b7100000000000000000000000000000000000000000000000000000000600052603260045260246000fd5b600061236d826118b5565b9150612378836118b5565b92508282019050808211156123905761238f612228565b5b92915050565b6000819050919050565b60006123ab82612396565b91506123b683612396565b92508282026123c481612396565b91507f800000000000000000000000000000000000000000000000000000000000000084146000841216156123fc576123fb612228565b5b828205841483151761241157612410612228565b5b5092915050565b600061242382612396565b915061242e83612396565b925082820390508181126000841216828213600085121516171561245557612454612228565b5b92915050565b7f4e487b7100000000000000000000000000000000000000000000000000000000600052601260045260246000fd5b6000612495826118b5565b91506124a0836118b5565b9250826124b0576124af61245b565b5b828204905092915050565b60006124c682612396565b91506124d183612396565b9250828201905082811215600083121683821260008412151617156124f9576124f8612228565b5b9291505056fea264697066735822122041c59babffaad8d9573196f10403bc37e26e36da669735e7b7949e908485b1a964736f6c63430008130033",
  "immutableReferences": {},
  "source": "// SPDX-License-Identifier: MIT\npragma solidity ^0.8.0;\n\ncontract MyContract {\n\n    // Adjustments and imput checking needed to functions\n\n    /////////////////////////////////////////////////////////////////////\n    // STRUCTS AND GLOBAL VARIABLES\n\n    struct Student {\n        address accountAddress; //address of the account of the student\n        uint256 isee; // [1, 1000000]\n        uint256 credits; // [0, 1000]\n        uint256 year; //year you are asking for the scholarship [1, 3]\n        uint256 score; //computed for ranking \n        uint256 funds; //scholarship value for the student\n        bool eligible; // true/false\n        status _status;\n    }\n\n    enum status{ IN_SEDE, PENDOLARE, FUORI_SEDE } //the three allowed statuses for students\n\n\n    uint256 public ISEE_LIMIT = 24; //maximum allowed ISEE to be eligible\n    uint256 public ISEE_MIN = 2; //supposed minimum ISEE (for scholarship computation)\n    uint256[] public CREDITS_PER_YEAR = [0, 45, 85]; //required credits for each year of the bachelor to be eligible\n    uint256[] public FUNDS = [1300, 1800, 3079]; //minimum scholarsip value for each student status (max is double)\n    uint256 public BUDGET; //entire budget for the scholarships\n    string public NAME; //name of scholarship\n    string public DATE; //end date to apply for the scholarship\n    \n    mapping(address => Student) public mappingStudents; //contains the association address->student\n\n    address[] public keys; //stores the key of each applying student\n    address[] public rankedKeys; //stores the keys of students after rankStudents() gets called\n\n    /////////////////////////////////////////////////////////////////////\n\n    constructor(uint256 budget, uint256 isee_limit, uint256[] memory credits, uint256[] memory funds, string memory name, string memory date) {\n        ISEE_LIMIT = isee_limit;\n        BUDGET = budget;\n        CREDITS_PER_YEAR = credits;\n        FUNDS = funds;\n        NAME = name;\n        DATE = date;\n    }\n\n    function getBudget() public view returns (uint256) {\n        return BUDGET;\n    }\n\n    function getCredit() public view returns (uint256[] memory) {\n        return CREDITS_PER_YEAR;\n    }\n\n    function incrementBudget() public {\n        BUDGET++;\n    }\n\n    /////////////////////////////////////////////////////////////////////\n    // STUDENTS\n\n    function getKeys() public view returns (address[] memory) {\n        return keys;\n    }\n\n     function getRankedKeys() public view returns (address[] memory) {\n        return rankedKeys;\n    }\n\n    function getStudent(address key) public view returns (Student memory) {\n        return mappingStudents[key];\n    }\n\n    function getStudents() public view returns (Student[] memory){\n        uint len = rankedKeys.length;\n        Student[] memory studentArray = new Student[](len);\n\n        for (uint i = 0; i < len; i++) {\n            studentArray[i] = mappingStudents[rankedKeys[i]];\n        }\n\n        return studentArray;\n    }\n\n    function addStudent(uint256 _isee, uint256 _crediti, uint256 _year, address key, status _status) public {\n        Student memory newStudent = Student(key, _isee, _crediti, _year, uint256(0), uint256(0), false, _status);\n\n        newStudent.eligible = isEligible(newStudent);\n        if(newStudent.eligible)\n            newStudent.score = computeScore(newStudent);\n\n        if(mappingStudents[key].isee == 0) //check if students is already inserted by looking at isee value\n            keys.push(key);\n\n        mappingStudents[key] = newStudent;\n    }\n\n    function getStudentCount() public view returns (uint256) {\n        return keys.length;\n    }\n\n    function computeScore(Student memory student) public pure returns (uint256) {\n\n        //To be modified if a different ranking metric is necessary\n        return student.isee;\n    }\n\n    function rankStudents() public {\n        address[] memory sortedArray = keys;\n        uint len = sortedArray.length;\n\n        rankedKeys = new address[](0);\n\n        if(len == 1) {\n            rankedKeys.push(sortedArray[0]);\n        }\n        else \n        {\n            // Order students' addresses by looking at their score\n            for (uint i = 0; i < len - 1; i++) {\n                for (uint j = i + 1; j < len; j++) {\n                    if (mappingStudents[sortedArray[i]].score > mappingStudents[sortedArray[j]].score) {\n                        // Swap elements\n                        //address temp = sortedArray[i];\n                        //sortedArray[i] = sortedArray[j];\n                        //sortedArray[j] = temp;\n                        (sortedArray[i], sortedArray[j]) = (sortedArray[j], sortedArray[i]); \n                    }\n                }\n            }\n\n            rankedKeys = sortedArray;\n            /*\n            for (uint i = 0; i < len; i++) {\n                rankedKeys.push(sortedArray[i]);\n            } \n            */  \n        }\n            \n    }\n\n    //Uses the student's ranking to assign funds to each student until funds are depleted\n    function assignFunding() public {\n\n        uint len = rankedKeys.length;\n        uint256 budget = BUDGET;\n        uint256 isee = 0;\n        uint256 minFund = 0;\n        uint256 funds;\n\n        for (uint i = 0; i < len; i++) {\n            if(mappingStudents[rankedKeys[i]].score > 0){\n                isee = mappingStudents[rankedKeys[i]].isee > ISEE_MIN ? mappingStudents[rankedKeys[i]].isee : ISEE_MIN + 1;\n\n                if(mappingStudents[rankedKeys[i]]._status == status.IN_SEDE) {\n                    minFund = FUNDS[0];\n                } else if (mappingStudents[rankedKeys[i]]._status == status.PENDOLARE) {\n                    minFund = FUNDS[1];\n                } else if (mappingStudents[rankedKeys[i]]._status == status.FUORI_SEDE) {\n                    minFund = FUNDS[2];\n                }\n\n                funds = uint256(int256((minFund / (ISEE_LIMIT - ISEE_MIN))) * (int256(ISEE_MIN) - int256(isee)) + 2 * int256(minFund));\n\n                if(budget >= funds) {\n                    budget = budget - funds;\n                    mappingStudents[rankedKeys[i]].funds = funds;\n                } else {\n                    return;\n                }\n            }\n        }\n\n    }\n\n    // Checks if a student should be eligible for the scholarship based on its ISEE and credits\n    function isEligible(Student memory student) public view returns (bool) {\n        bool eligible = true;\n        uint studentYear = student.year-1;\n        if(student.isee > ISEE_LIMIT || student.credits < CREDITS_PER_YEAR[studentYear]) {\n            eligible = false;\n        }\n\n        return eligible;\n    }\n\n    /////////////////////////////////////////////////////////////////////\n\n}\n",
  "sourcePath": "/Users/michelelamon/Documents/UNITN/Blockchain/Blockchain-Project/Scholarship-master/ScholarshipServer/contracts/MyContract.sol",
  "compiler": {
    "name": "solc",
    "version": "0.8.19+commit.7dd6d404.Emscripten.clang"
  },
  "schemaVersion": "3.4.14",
  "updatedAt": "2023-06-27T19:43:49.666Z",
  "networkType": "ethereum",
  "devdoc": {
    "kind": "dev",
    "methods": {},
    "version": 1
  },
  "userdoc": {
    "kind": "user",
    "methods": {},
    "version": 1
  }
}