{
  "contractName": "MyContract",
  "abi": [
    {
      "inputs": [
        {
          "internalType": "uint256",
          "name": "budget",
          "type": "uint256"
        },
        {
          "internalType": "uint256",
          "name": "isee_limit",
          "type": "uint256"
        },
        {
          "internalType": "uint256[]",
          "name": "credits",
          "type": "uint256[]"
        },
        {
          "internalType": "uint256[]",
          "name": "funds",
          "type": "uint256[]"
        },
        {
          "internalType": "string",
          "name": "name",
          "type": "string"
        },
        {
          "internalType": "string",
          "name": "date",
          "type": "string"
        }
      ],
      "stateMutability": "nonpayable",
      "type": "constructor"
    },
    {
      "inputs": [],
      "name": "BUDGET",
      "outputs": [
        {
          "internalType": "uint256",
          "name": "",
          "type": "uint256"
        }
      ],
      "stateMutability": "view",
      "type": "function"
    },
    {
      "inputs": [
        {
          "internalType": "uint256",
          "name": "",
          "type": "uint256"
        }
      ],
      "name": "CREDITS_PER_YEAR",
      "outputs": [
        {
          "internalType": "uint256",
          "name": "",
          "type": "uint256"
        }
      ],
      "stateMutability": "view",
      "type": "function"
    },
    {
      "inputs": [],
      "name": "DATE",
      "outputs": [
        {
          "internalType": "string",
          "name": "",
          "type": "string"
        }
      ],
      "stateMutability": "view",
      "type": "function"
    },
    {
      "inputs": [
        {
          "internalType": "uint256",
          "name": "",
          "type": "uint256"
        }
      ],
      "name": "FUNDS",
      "outputs": [
        {
          "internalType": "uint256",
          "name": "",
          "type": "uint256"
        }
      ],
      "stateMutability": "view",
      "type": "function"
    },
    {
      "inputs": [],
      "name": "ISEE_LIMIT",
      "outputs": [
        {
          "internalType": "uint256",
          "name": "",
          "type": "uint256"
        }
      ],
      "stateMutability": "view",
      "type": "function"
    },
    {
      "inputs": [],
      "name": "ISEE_MIN",
      "outputs": [
        {
          "internalType": "uint256",
          "name": "",
          "type": "uint256"
        }
      ],
      "stateMutability": "view",
      "type": "function"
    },
    {
      "inputs": [],
      "name": "NAME",
      "outputs": [
        {
          "internalType": "string",
          "name": "",
          "type": "string"
        }
      ],
      "stateMutability": "view",
      "type": "function"
    },
    {
      "inputs": [
        {
          "internalType": "uint256",
          "name": "",
          "type": "uint256"
        }
      ],
      "name": "keys",
      "outputs": [
        {
          "internalType": "address",
          "name": "",
          "type": "address"
        }
      ],
      "stateMutability": "view",
      "type": "function"
    },
    {
      "inputs": [
        {
          "internalType": "address",
          "name": "",
          "type": "address"
        }
      ],
      "name": "mappingStudents",
      "outputs": [
        {
          "internalType": "address",
          "name": "accountAddress",
          "type": "address"
        },
        {
          "internalType": "uint256",
          "name": "isee",
          "type": "uint256"
        },
        {
          "internalType": "uint256",
          "name": "credits",
          "type": "uint256"
        },
        {
          "internalType": "uint256",
          "name": "year",
          "type": "uint256"
        },
        {
          "internalType": "uint256",
          "name": "score",
          "type": "uint256"
        },
        {
          "internalType": "uint256",
          "name": "funds",
          "type": "uint256"
        },
        {
          "internalType": "bool",
          "name": "eligible",
          "type": "bool"
        },
        {
          "internalType": "enum MyContract.status",
          "name": "_status",
          "type": "uint8"
        }
      ],
      "stateMutability": "view",
      "type": "function"
    },
    {
      "inputs": [
        {
          "internalType": "uint256",
          "name": "",
          "type": "uint256"
        }
      ],
      "name": "rankedKeys",
      "outputs": [
        {
          "internalType": "address",
          "name": "",
          "type": "address"
        }
      ],
      "stateMutability": "view",
      "type": "function"
    },
    {
      "inputs": [],
      "name": "getBudget",
      "outputs": [
        {
          "internalType": "uint256",
          "name": "",
          "type": "uint256"
        }
      ],
      "stateMutability": "view",
      "type": "function"
    },
    {
      "inputs": [],
      "name": "getCredit",
      "outputs": [
        {
          "internalType": "uint256[]",
          "name": "",
          "type": "uint256[]"
        }
      ],
      "stateMutability": "view",
      "type": "function"
    },
    {
      "inputs": [],
      "name": "incrementBudget",
      "outputs": [],
      "stateMutability": "nonpayable",
      "type": "function"
    },
    {
      "inputs": [],
      "name": "getKeys",
      "outputs": [
        {
          "internalType": "address[]",
          "name": "",
          "type": "address[]"
        }
      ],
      "stateMutability": "view",
      "type": "function"
    },
    {
      "inputs": [],
      "name": "getRankedKeys",
      "outputs": [
        {
          "internalType": "address[]",
          "name": "",
          "type": "address[]"
        }
      ],
      "stateMutability": "view",
      "type": "function"
    },
    {
      "inputs": [
        {
          "internalType": "address",
          "name": "key",
          "type": "address"
        }
      ],
      "name": "getStudent",
      "outputs": [
        {
          "components": [
            {
              "internalType": "address",
              "name": "accountAddress",
              "type": "address"
            },
            {
              "internalType": "uint256",
              "name": "isee",
              "type": "uint256"
            },
            {
              "internalType": "uint256",
              "name": "credits",
              "type": "uint256"
            },
            {
              "internalType": "uint256",
              "name": "year",
              "type": "uint256"
            },
            {
              "internalType": "uint256",
              "name": "score",
              "type": "uint256"
            },
            {
              "internalType": "uint256",
              "name": "funds",
              "type": "uint256"
            },
            {
              "internalType": "bool",
              "name": "eligible",
              "type": "bool"
            },
            {
              "internalType": "enum MyContract.status",
              "name": "_status",
              "type": "uint8"
            }
          ],
          "internalType": "struct MyContract.Student",
          "name": "",
          "type": "tuple"
        }
      ],
      "stateMutability": "view",
      "type": "function"
    },
    {
      "inputs": [],
      "name": "getStudents",
      "outputs": [
        {
          "components": [
            {
              "internalType": "address",
              "name": "accountAddress",
              "type": "address"
            },
            {
              "internalType": "uint256",
              "name": "isee",
              "type": "uint256"
            },
            {
              "internalType": "uint256",
              "name": "credits",
              "type": "uint256"
            },
            {
              "internalType": "uint256",
              "name": "year",
              "type": "uint256"
            },
            {
              "internalType": "uint256",
              "name": "score",
              "type": "uint256"
            },
            {
              "internalType": "uint256",
              "name": "funds",
              "type": "uint256"
            },
            {
              "internalType": "bool",
              "name": "eligible",
              "type": "bool"
            },
            {
              "internalType": "enum MyContract.status",
              "name": "_status",
              "type": "uint8"
            }
          ],
          "internalType": "struct MyContract.Student[]",
          "name": "",
          "type": "tuple[]"
        }
      ],
      "stateMutability": "view",
      "type": "function"
    },
    {
      "inputs": [
        {
          "internalType": "uint256",
          "name": "_isee",
          "type": "uint256"
        },
        {
          "internalType": "uint256",
          "name": "_crediti",
          "type": "uint256"
        },
        {
          "internalType": "uint256",
          "name": "_year",
          "type": "uint256"
        },
        {
          "internalType": "address",
          "name": "key",
          "type": "address"
        },
        {
          "internalType": "enum MyContract.status",
          "name": "_status",
          "type": "uint8"
        }
      ],
      "name": "addStudent",
      "outputs": [],
      "stateMutability": "nonpayable",
      "type": "function"
    },
    {
      "inputs": [],
      "name": "getStudentCount",
      "outputs": [
        {
          "internalType": "uint256",
          "name": "",
          "type": "uint256"
        }
      ],
      "stateMutability": "view",
      "type": "function"
    },
    {
      "inputs": [
        {
          "components": [
            {
              "internalType": "address",
              "name": "accountAddress",
              "type": "address"
            },
            {
              "internalType": "uint256",
              "name": "isee",
              "type": "uint256"
            },
            {
              "internalType": "uint256",
              "name": "credits",
              "type": "uint256"
            },
            {
              "internalType": "uint256",
              "name": "year",
              "type": "uint256"
            },
            {
              "internalType": "uint256",
              "name": "score",
              "type": "uint256"
            },
            {
              "internalType": "uint256",
              "name": "funds",
              "type": "uint256"
            },
            {
              "internalType": "bool",
              "name": "eligible",
              "type": "bool"
            },
            {
              "internalType": "enum MyContract.status",
              "name": "_status",
              "type": "uint8"
            }
          ],
          "internalType": "struct MyContract.Student",
          "name": "student",
          "type": "tuple"
        }
      ],
      "name": "computeScore",
      "outputs": [
        {
          "internalType": "uint256",
          "name": "",
          "type": "uint256"
        }
      ],
      "stateMutability": "pure",
      "type": "function"
    },
    {
      "inputs": [],
      "name": "rankStudents",
      "outputs": [],
      "stateMutability": "nonpayable",
      "type": "function"
    },
    {
      "inputs": [],
      "name": "assignFunding",
      "outputs": [],
      "stateMutability": "nonpayable",
      "type": "function"
    },
    {
      "inputs": [
        {
          "components": [
            {
              "internalType": "address",
              "name": "accountAddress",
              "type": "address"
            },
            {
              "internalType": "uint256",
              "name": "isee",
              "type": "uint256"
            },
            {
              "internalType": "uint256",
              "name": "credits",
              "type": "uint256"
            },
            {
              "internalType": "uint256",
              "name": "year",
              "type": "uint256"
            },
            {
              "internalType": "uint256",
              "name": "score",
              "type": "uint256"
            },
            {
              "internalType": "uint256",
              "name": "funds",
              "type": "uint256"
            },
            {
              "internalType": "bool",
              "name": "eligible",
              "type": "bool"
            },
            {
              "internalType": "enum MyContract.status",
              "name": "_status",
              "type": "uint8"
            }
          ],
          "internalType": "struct MyContract.Student",
          "name": "student",
          "type": "tuple"
        }
      ],
      "name": "isEligible",
      "outputs": [
        {
          "internalType": "bool",
          "name": "",
          "type": "bool"
        }
      ],
      "stateMutability": "view",
      "type": "function"
    }
  ],
  "bytecode": "0x6080604052601860005560026001556040518060600160405280600060ff168152602001602d60ff168152602001605560ff168152506002906003620000479291906200012b565b50604051806060016040528061051461ffff16815260200161070861ffff168152602001610c0761ffff1681525060039060036200008792919062000182565b503480156200009557600080fd5b5060405162002def38038062002def8339818101604052810190620000bb9190620004f4565b84600081905550856004819055508360029080519060200190620000e1929190620001da565b508260039080519060200190620000fa929190620001da565b5081600590816200010c91906200084d565b5080600690816200011e91906200084d565b5050505050505062000934565b8280548282559060005260206000209081019282156200016f579160200282015b828111156200016e578251829060ff169055916020019190600101906200014c565b5b5090506200017e91906200022c565b5090565b828054828255906000526020600020908101928215620001c7579160200282015b82811115620001c6578251829061ffff16905591602001919060010190620001a3565b5b509050620001d691906200022c565b5090565b82805482825590600052602060002090810192821562000219579160200282015b8281111562000218578251825591602001919060010190620001fb565b5b5090506200022891906200022c565b5090565b5b80821115620002475760008160009055506001016200022d565b5090565b6000604051905090565b600080fd5b600080fd5b6000819050919050565b62000274816200025f565b81146200028057600080fd5b50565b600081519050620002948162000269565b92915050565b600080fd5b6000601f19601f8301169050919050565b7f4e487b7100000000000000000000000000000000000000000000000000000000600052604160045260246000fd5b620002ea826200029f565b810181811067ffffffffffffffff821117156200030c576200030b620002b0565b5b80604052505050565b6000620003216200024b565b90506200032f8282620002df565b919050565b600067ffffffffffffffff821115620003525762000351620002b0565b5b602082029050602081019050919050565b600080fd5b60006200037f620003798462000334565b62000315565b90508083825260208201905060208402830185811115620003a557620003a462000363565b5b835b81811015620003d25780620003bd888262000283565b845260208401935050602081019050620003a7565b5050509392505050565b600082601f830112620003f457620003f36200029a565b5b81516200040684826020860162000368565b91505092915050565b600080fd5b600067ffffffffffffffff821115620004325762000431620002b0565b5b6200043d826200029f565b9050602081019050919050565b60005b838110156200046a5780820151818401526020810190506200044d565b60008484015250505050565b60006200048d620004878462000414565b62000315565b905082815260208101848484011115620004ac57620004ab6200040f565b5b620004b98482856200044a565b509392505050565b600082601f830112620004d957620004d86200029a565b5b8151620004eb84826020860162000476565b91505092915050565b60008060008060008060c0878903121562000514576200051362000255565b5b60006200052489828a0162000283565b96505060206200053789828a0162000283565b955050604087015167ffffffffffffffff8111156200055b576200055a6200025a565b5b6200056989828a01620003dc565b945050606087015167ffffffffffffffff8111156200058d576200058c6200025a565b5b6200059b89828a01620003dc565b935050608087015167ffffffffffffffff811115620005bf57620005be6200025a565b5b620005cd89828a01620004c1565b92505060a087015167ffffffffffffffff811115620005f157620005f06200025a565b5b620005ff89828a01620004c1565b9150509295509295509295565b600081519050919050565b7f4e487b7100000000000000000000000000000000000000000000000000000000600052602260045260246000fd5b600060028204905060018216806200065f57607f821691505b60208210810362000675576200067462000617565b5b50919050565b60008190508160005260206000209050919050565b60006020601f8301049050919050565b600082821b905092915050565b600060088302620006df7fffffffffffffffffffffffffffffffffffffffffffffffffffffffffffffffff82620006a0565b620006eb8683620006a0565b95508019841693508086168417925050509392505050565b6000819050919050565b60006200072e6200072862000722846200025f565b62000703565b6200025f565b9050919050565b6000819050919050565b6200074a836200070d565b62000762620007598262000735565b848454620006ad565b825550505050565b600090565b620007796200076a565b620007868184846200073f565b505050565b5b81811015620007ae57620007a26000826200076f565b6001810190506200078c565b5050565b601f821115620007fd57620007c7816200067b565b620007d28462000690565b81016020851015620007e2578190505b620007fa620007f18562000690565b8301826200078b565b50505b505050565b600082821c905092915050565b6000620008226000198460080262000802565b1980831691505092915050565b60006200083d83836200080f565b9150826002028217905092915050565b62000858826200060c565b67ffffffffffffffff811115620008745762000873620002b0565b5b62000880825462000646565b6200088d828285620007b2565b600060209050601f831160018114620008c55760008415620008b0578287015190505b620008bc85826200082f565b8655506200092c565b601f198416620008d5866200067b565b60005b82811015620008ff57848901518255600182019150602085019450602081019050620008d8565b868310156200091f57848901516200091b601f8916826200080f565b8355505b6001600288020188555050505b505050505050565b6124ab80620009446000396000f3fe608060405234801561001057600080fd5b506004361061014d5760003560e01c806395cdd66e116100c3578063e4861bdd1161007c578063e4861bdd146103b8578063e7d7393d146103d6578063ea8728ea146103e0578063eb63e643146103ea578063ed04845014610421578063f1d064b31461043f5761014d565b806395cdd66e146102d0578063a3f4df7e146102ec578063a547ad391461030a578063d85928671461033a578063e03eb2491461036a578063e2ff94c51461039a5761014d565b806342d65b2c1161011557806342d65b2c146101e657806359296e7b146102045780635fc67f46146102225780636b7b44d7146102525780636fd4d505146102825780637d3567b8146102a05761014d565b80630cb6aaf114610152578063127714c7146101825780632150c518146101a057806321536493146101be57806341e0c407146101c8575b600080fd5b61016c60048036038101906101679190611861565b61045d565b60405161017991906118cf565b60405180910390f35b61018a61049c565b60405161019791906118f9565b60405180910390f35b6101a86104a6565b6040516101b591906119d2565b60405180910390f35b6101c6610534565b005b6101d061054e565b6040516101dd91906118f9565b60405180910390f35b6101ee61055b565b6040516101fb91906118f9565b60405180910390f35b61020c610561565b6040516102199190611ab2565b60405180910390f35b61023c60048036038101906102379190611861565b6105b9565b60405161024991906118cf565b60405180910390f35b61026c60048036038101906102679190611b00565b6105f8565b6040516102799190611c61565b60405180910390f35b61028a610730565b60405161029791906118f9565b60405180910390f35b6102ba60048036038101906102b59190611861565b610736565b6040516102c791906118f9565b60405180910390f35b6102ea60048036038101906102e59190611ca2565b61075a565b005b6102f46109bc565b6040516103019190611dad565b60405180910390f35b610324600480360381019061031f9190611f45565b610a4a565b60405161033191906118f9565b60405180910390f35b610354600480360381019061034f9190611f45565b610a58565b6040516103619190611f82565b60405180910390f35b610384600480360381019061037f9190611861565b610abd565b60405161039191906118f9565b60405180910390f35b6103a2610ae1565b6040516103af91906118f9565b60405180910390f35b6103c0610ae7565b6040516103cd9190611dad565b60405180910390f35b6103de610b75565b005b6103e8611068565b005b61040460048036038101906103ff9190611b00565b6113e6565b604051610418989796959493929190611fac565b60405180910390f35b610429611468565b60405161043691906119d2565b60405180910390f35b6104476114f6565b604051610454919061217c565b60405180910390f35b6008818154811061046d57600080fd5b906000526020600020016000915054906101000a900473ffffffffffffffffffffffffffffffffffffffff1681565b6000600454905090565b6060600880548060200260200160405190810160405280929190818152602001828054801561052a57602002820191906000526020600020905b8160009054906101000a900473ffffffffffffffffffffffffffffffffffffffff1673ffffffffffffffffffffffffffffffffffffffff16815260200190600101908083116104e0575b5050505050905090565b60046000815480929190610547906121cd565b9190505550565b6000600880549050905090565b60005481565b606060028054806020026020016040519081016040528092919081815260200182805480156105af57602002820191906000526020600020905b81548152602001906001019080831161059b575b5050505050905090565b600981815481106105c957600080fd5b906000526020600020016000915054906101000a900473ffffffffffffffffffffffffffffffffffffffff1681565b610600611706565b600760008373ffffffffffffffffffffffffffffffffffffffff1673ffffffffffffffffffffffffffffffffffffffff168152602001908152602001600020604051806101000160405290816000820160009054906101000a900473ffffffffffffffffffffffffffffffffffffffff1673ffffffffffffffffffffffffffffffffffffffff1673ffffffffffffffffffffffffffffffffffffffff16815260200160018201548152602001600282015481526020016003820154815260200160048201548152602001600582015481526020016006820160009054906101000a900460ff161515151581526020016006820160019054906101000a900460ff16600281111561071357610712611b48565b5b600281111561072557610724611b48565b5b815250509050919050565b60015481565b6003818154811061074657600080fd5b906000526020600020016000915090505481565b60006040518061010001604052808473ffffffffffffffffffffffffffffffffffffffff16815260200187815260200186815260200185815260200160008152602001600081526020016000151581526020018360028111156107c0576107bf611b48565b5b81525090506107ce81610a58565b8160c00190151590811515815250508060c00151156107fa576107f081610a4a565b8160800181815250505b6000600760008573ffffffffffffffffffffffffffffffffffffffff1673ffffffffffffffffffffffffffffffffffffffff16815260200190815260200160002060010154036108a8576008839080600181540180825580915050600190039060005260206000200160009091909190916101000a81548173ffffffffffffffffffffffffffffffffffffffff021916908373ffffffffffffffffffffffffffffffffffffffff1602179055505b80600760008573ffffffffffffffffffffffffffffffffffffffff1673ffffffffffffffffffffffffffffffffffffffff16815260200190815260200160002060008201518160000160006101000a81548173ffffffffffffffffffffffffffffffffffffffff021916908373ffffffffffffffffffffffffffffffffffffffff1602179055506020820151816001015560408201518160020155606082015181600301556080820151816004015560a0820151816005015560c08201518160060160006101000a81548160ff02191690831515021790555060e08201518160060160016101000a81548160ff021916908360028111156109ac576109ab611b48565b5b0217905550905050505050505050565b600580546109c990612244565b80601f01602080910402602001604051908101604052809291908181526020018280546109f590612244565b8015610a425780601f10610a1757610100808354040283529160200191610a42565b820191906000526020600020905b815481529060010190602001808311610a2557829003601f168201915b505050505081565b600081602001519050919050565b60008060019050600060018460600151610a729190612275565b905060005484602001511180610aa9575060028181548110610a9757610a966122a9565b5b90600052602060002001548460400151105b15610ab357600091505b8192505050919050565b60028181548110610acd57600080fd5b906000526020600020016000915090505481565b60045481565b60068054610af490612244565b80601f0160208091040260200160405190810160405280929190818152602001828054610b2090612244565b8015610b6d5780601f10610b4257610100808354040283529160200191610b6d565b820191906000526020600020905b815481529060010190602001808311610b5057829003601f168201915b505050505081565b6000600980549050905060006004549050600080600080600090505b8581101561105f576001546007600060098481548110610bb457610bb36122a9565b5b9060005260206000200160009054906101000a900473ffffffffffffffffffffffffffffffffffffffff1673ffffffffffffffffffffffffffffffffffffffff1673ffffffffffffffffffffffffffffffffffffffff1681526020019081526020016000206001015411610c355760018054610c3091906122d8565b610cb7565b6007600060098381548110610c4d57610c4c6122a9565b5b9060005260206000200160009054906101000a900473ffffffffffffffffffffffffffffffffffffffff1673ffffffffffffffffffffffffffffffffffffffff1673ffffffffffffffffffffffffffffffffffffffff168152602001908152602001600020600101545b935060006002811115610ccd57610ccc611b48565b5b6007600060098481548110610ce557610ce46122a9565b5b9060005260206000200160009054906101000a900473ffffffffffffffffffffffffffffffffffffffff1673ffffffffffffffffffffffffffffffffffffffff1673ffffffffffffffffffffffffffffffffffffffff16815260200190815260200160002060060160019054906101000a900460ff166002811115610d6d57610d6c611b48565b5b03610d99576003600081548110610d8757610d866122a9565b5b90600052602060002001549250610f56565b60016002811115610dad57610dac611b48565b5b6007600060098481548110610dc557610dc46122a9565b5b9060005260206000200160009054906101000a900473ffffffffffffffffffffffffffffffffffffffff1673ffffffffffffffffffffffffffffffffffffffff1673ffffffffffffffffffffffffffffffffffffffff16815260200190815260200160002060060160019054906101000a900460ff166002811115610e4d57610e4c611b48565b5b03610e79576003600181548110610e6757610e666122a9565b5b90600052602060002001549250610f55565b600280811115610e8c57610e8b611b48565b5b6007600060098481548110610ea457610ea36122a9565b5b9060005260206000200160009054906101000a900473ffffffffffffffffffffffffffffffffffffffff1673ffffffffffffffffffffffffffffffffffffffff1673ffffffffffffffffffffffffffffffffffffffff16815260200190815260200160002060060160019054906101000a900460ff166002811115610f2c57610f2b611b48565b5b03610f54576003600281548110610f4657610f456122a9565b5b906000526020600020015492505b5b5b826002610f639190612316565b84600154610f71919061238e565b600154600054610f819190612275565b85610f8c9190612400565b610f969190612316565b610fa09190612431565b9150818510611041578185610fb59190612275565b9450816007600060098481548110610fd057610fcf6122a9565b5b9060005260206000200160009054906101000a900473ffffffffffffffffffffffffffffffffffffffff1673ffffffffffffffffffffffffffffffffffffffff1673ffffffffffffffffffffffffffffffffffffffff1681526020019081526020016000206005018190555061104c565b505050505050611066565b8080611057906121cd565b915050610b91565b5050505050505b565b600060088054806020026020016040519081016040528092919081815260200182805480156110ec57602002820191906000526020600020905b8160009054906101000a900473ffffffffffffffffffffffffffffffffffffffff1673ffffffffffffffffffffffffffffffffffffffff16815260200190600101908083116110a2575b50505050509050600081519050600067ffffffffffffffff81111561111457611113611dd4565b5b6040519080825280602002602001820160405280156111425781602001602082028036833780820191505090505b5060099080519060200190611158929190611775565b50600181036111e457600982600081518110611177576111766122a9565b5b60200260200101519080600181540180825580915050600190039060005260206000200160009091909190916101000a81548173ffffffffffffffffffffffffffffffffffffffff021916908373ffffffffffffffffffffffffffffffffffffffff1602179055506113e2565b60005b6001826111f49190612275565b8110156113c957600060018261120a91906122d8565b90505b828110156113b5576007600085838151811061122c5761122b6122a9565b5b602002602001015173ffffffffffffffffffffffffffffffffffffffff1673ffffffffffffffffffffffffffffffffffffffff1681526020019081526020016000206004015460076000868581518110611289576112886122a9565b5b602002602001015173ffffffffffffffffffffffffffffffffffffffff1673ffffffffffffffffffffffffffffffffffffffff1681526020019081526020016000206004015411156113a2578381815181106112e8576112e76122a9565b5b6020026020010151848381518110611303576113026122a9565b5b602002602001015185848151811061131e5761131d6122a9565b5b60200260200101868481518110611338576113376122a9565b5b602002602001018273ffffffffffffffffffffffffffffffffffffffff1673ffffffffffffffffffffffffffffffffffffffff168152508273ffffffffffffffffffffffffffffffffffffffff1673ffffffffffffffffffffffffffffffffffffffff1681525050505b80806113ad906121cd565b91505061120d565b5080806113c1906121cd565b9150506111e7565b5081600990805190602001906113e0929190611775565b505b5050565b60076020528060005260406000206000915090508060000160009054906101000a900473ffffffffffffffffffffffffffffffffffffffff16908060010154908060020154908060030154908060040154908060050154908060060160009054906101000a900460ff16908060060160019054906101000a900460ff16905088565b606060098054806020026020016040519081016040528092919081815260200182805480156114ec57602002820191906000526020600020905b8160009054906101000a900473ffffffffffffffffffffffffffffffffffffffff1673ffffffffffffffffffffffffffffffffffffffff16815260200190600101908083116114a2575b5050505050905090565b60606000600980549050905060008167ffffffffffffffff81111561151e5761151d611dd4565b5b60405190808252806020026020018201604052801561155757816020015b611544611706565b81526020019060019003908161153c5790505b50905060005b828110156116fd57600760006009838154811061157d5761157c6122a9565b5b9060005260206000200160009054906101000a900473ffffffffffffffffffffffffffffffffffffffff1673ffffffffffffffffffffffffffffffffffffffff1673ffffffffffffffffffffffffffffffffffffffff168152602001908152602001600020604051806101000160405290816000820160009054906101000a900473ffffffffffffffffffffffffffffffffffffffff1673ffffffffffffffffffffffffffffffffffffffff1673ffffffffffffffffffffffffffffffffffffffff16815260200160018201548152602001600282015481526020016003820154815260200160048201548152602001600582015481526020016006820160009054906101000a900460ff161515151581526020016006820160019054906101000a900460ff1660028111156116b6576116b5611b48565b5b60028111156116c8576116c7611b48565b5b815250508282815181106116df576116de6122a9565b5b602002602001018190525080806116f5906121cd565b91505061155d565b50809250505090565b604051806101000160405280600073ffffffffffffffffffffffffffffffffffffffff16815260200160008152602001600081526020016000815260200160008152602001600081526020016000151581526020016000600281111561176f5761176e611b48565b5b81525090565b8280548282559060005260206000209081019282156117ee579160200282015b828111156117ed5782518260006101000a81548173ffffffffffffffffffffffffffffffffffffffff021916908373ffffffffffffffffffffffffffffffffffffffff16021790555091602001919060010190611795565b5b5090506117fb91906117ff565b5090565b5b80821115611818576000816000905550600101611800565b5090565b6000604051905090565b600080fd5b6000819050919050565b61183e8161182b565b811461184957600080fd5b50565b60008135905061185b81611835565b92915050565b60006020828403121561187757611876611826565b5b60006118858482850161184c565b91505092915050565b600073ffffffffffffffffffffffffffffffffffffffff82169050919050565b60006118b98261188e565b9050919050565b6118c9816118ae565b82525050565b60006020820190506118e460008301846118c0565b92915050565b6118f38161182b565b82525050565b600060208201905061190e60008301846118ea565b92915050565b600081519050919050565b600082825260208201905092915050565b6000819050602082019050919050565b611949816118ae565b82525050565b600061195b8383611940565b60208301905092915050565b6000602082019050919050565b600061197f82611914565b611989818561191f565b935061199483611930565b8060005b838110156119c55781516119ac888261194f565b97506119b783611967565b925050600181019050611998565b5085935050505092915050565b600060208201905081810360008301526119ec8184611974565b905092915050565b600081519050919050565b600082825260208201905092915050565b6000819050602082019050919050565b611a298161182b565b82525050565b6000611a3b8383611a20565b60208301905092915050565b6000602082019050919050565b6000611a5f826119f4565b611a6981856119ff565b9350611a7483611a10565b8060005b83811015611aa5578151611a8c8882611a2f565b9750611a9783611a47565b925050600181019050611a78565b5085935050505092915050565b60006020820190508181036000830152611acc8184611a54565b905092915050565b611add816118ae565b8114611ae857600080fd5b50565b600081359050611afa81611ad4565b92915050565b600060208284031215611b1657611b15611826565b5b6000611b2484828501611aeb565b91505092915050565b60008115159050919050565b611b4281611b2d565b82525050565b7f4e487b7100000000000000000000000000000000000000000000000000000000600052602160045260246000fd5b60038110611b8857611b87611b48565b5b50565b6000819050611b9982611b77565b919050565b6000611ba982611b8b565b9050919050565b611bb981611b9e565b82525050565b61010082016000820151611bd66000850182611940565b506020820151611be96020850182611a20565b506040820151611bfc6040850182611a20565b506060820151611c0f6060850182611a20565b506080820151611c226080850182611a20565b5060a0820151611c3560a0850182611a20565b5060c0820151611c4860c0850182611b39565b5060e0820151611c5b60e0850182611bb0565b50505050565b600061010082019050611c776000830184611bbf565b92915050565b60038110611c8a57600080fd5b50565b600081359050611c9c81611c7d565b92915050565b600080600080600060a08688031215611cbe57611cbd611826565b5b6000611ccc8882890161184c565b9550506020611cdd8882890161184c565b9450506040611cee8882890161184c565b9350506060611cff88828901611aeb565b9250506080611d1088828901611c8d565b9150509295509295909350565b600081519050919050565b600082825260208201905092915050565b60005b83811015611d57578082015181840152602081019050611d3c565b60008484015250505050565b6000601f19601f8301169050919050565b6000611d7f82611d1d565b611d898185611d28565b9350611d99818560208601611d39565b611da281611d63565b840191505092915050565b60006020820190508181036000830152611dc78184611d74565b905092915050565b600080fd5b7f4e487b7100000000000000000000000000000000000000000000000000000000600052604160045260246000fd5b611e0c82611d63565b810181811067ffffffffffffffff82111715611e2b57611e2a611dd4565b5b80604052505050565b6000611e3e61181c565b9050611e4a8282611e03565b919050565b611e5881611b2d565b8114611e6357600080fd5b50565b600081359050611e7581611e4f565b92915050565b60006101008284031215611e9257611e91611dcf565b5b611e9d610100611e34565b90506000611ead84828501611aeb565b6000830152506020611ec18482850161184c565b6020830152506040611ed58482850161184c565b6040830152506060611ee98482850161184c565b6060830152506080611efd8482850161184c565b60808301525060a0611f118482850161184c565b60a08301525060c0611f2584828501611e66565b60c08301525060e0611f3984828501611c8d565b60e08301525092915050565b60006101008284031215611f5c57611f5b611826565b5b6000611f6a84828501611e7b565b91505092915050565b611f7c81611b2d565b82525050565b6000602082019050611f976000830184611f73565b92915050565b611fa681611b9e565b82525050565b600061010082019050611fc2600083018b6118c0565b611fcf602083018a6118ea565b611fdc60408301896118ea565b611fe960608301886118ea565b611ff660808301876118ea565b61200360a08301866118ea565b61201060c0830185611f73565b61201d60e0830184611f9d565b9998505050505050505050565b600081519050919050565b600082825260208201905092915050565b6000819050602082019050919050565b6101008201600082015161206d6000850182611940565b5060208201516120806020850182611a20565b5060408201516120936040850182611a20565b5060608201516120a66060850182611a20565b5060808201516120b96080850182611a20565b5060a08201516120cc60a0850182611a20565b5060c08201516120df60c0850182611b39565b5060e08201516120f260e0850182611bb0565b50505050565b60006121048383612056565b6101008301905092915050565b6000602082019050919050565b60006121298261202a565b6121338185612035565b935061213e83612046565b8060005b8381101561216f57815161215688826120f8565b975061216183612111565b925050600181019050612142565b5085935050505092915050565b60006020820190508181036000830152612196818461211e565b905092915050565b7f4e487b7100000000000000000000000000000000000000000000000000000000600052601160045260246000fd5b60006121d88261182b565b91507fffffffffffffffffffffffffffffffffffffffffffffffffffffffffffffffff820361220a5761220961219e565b5b600182019050919050565b7f4e487b7100000000000000000000000000000000000000000000000000000000600052602260045260246000fd5b6000600282049050600182168061225c57607f821691505b60208210810361226f5761226e612215565b5b50919050565b60006122808261182b565b915061228b8361182b565b92508282039050818111156122a3576122a261219e565b5b92915050565b7f4e487b7100000000000000000000000000000000000000000000000000000000600052603260045260246000fd5b60006122e38261182b565b91506122ee8361182b565b92508282019050808211156123065761230561219e565b5b92915050565b6000819050919050565b60006123218261230c565b915061232c8361230c565b925082820261233a8161230c565b91507f800000000000000000000000000000000000000000000000000000000000000084146000841216156123725761237161219e565b5b82820584148315176123875761238661219e565b5b5092915050565b60006123998261230c565b91506123a48361230c565b92508282039050818112600084121682821360008512151617156123cb576123ca61219e565b5b92915050565b7f4e487b7100000000000000000000000000000000000000000000000000000000600052601260045260246000fd5b600061240b8261182b565b91506124168361182b565b925082612426576124256123d1565b5b828204905092915050565b600061243c8261230c565b91506124478361230c565b92508282019050828112156000831216838212600084121516171561246f5761246e61219e565b5b9291505056fea26469706673582212204960294f297168f3c72475fb77e16b1a63b6e97bf797a8db3d9b4ab5d23ca70164736f6c63430008130033",
  "immutableReferences": {},
  "source": "// SPDX-License-Identifier: MIT\npragma solidity ^0.8.0;\n\ncontract MyContract {\n\n    // Adjustments and imput checking needed to functions\n\n    /////////////////////////////////////////////////////////////////////\n    // STRUCTS AND GLOBAL VARIABLES\n\n    struct Student {\n        address accountAddress; //address of the account of the student\n        uint256 isee; // [1, 1000000]\n        uint256 credits; // [0, 1000]\n        uint256 year; //year you are asking for the scholarship [1, 3]\n        uint256 score; //computed for ranking\n        uint256 funds; //scholarship value for the student\n        bool eligible; // true/false\n        status _status;\n    }\n\n    enum status{ IN_SEDE, PENDOLARE, FUORI_SEDE } //the three allowed statuses for students\n\n\n    uint256 public ISEE_LIMIT = 24; //maximum allowed ISEE to be eligible\n    uint256 public ISEE_MIN = 2; //supposed minimum ISEE (for scholarship computation)\n    uint256[] public CREDITS_PER_YEAR = [0, 45, 85]; //required credits for each year of the bachelor to be eligible\n    uint256[] public FUNDS = [1300, 1800, 3079]; //minimum scholarsip value for each student status (max is double)\n    uint256 public BUDGET; //entire budget for the scholarships\n    string public NAME; //name of scholarship\n    string public DATE; //end date to apply for the scholarship\n    \n    mapping(address => Student) public mappingStudents; //contains the association address->student\n\n    address[] public keys; //stores the key of each applying student\n    address[] public rankedKeys; //stores the keys of students after rankStudents() gets called\n\n    /////////////////////////////////////////////////////////////////////\n\n    constructor(uint256 budget, uint256 isee_limit, uint256[] memory credits, uint256[] memory funds, string memory name, string memory date) {\n        ISEE_LIMIT = isee_limit;\n        BUDGET = budget;\n        CREDITS_PER_YEAR = credits;\n        FUNDS = funds;\n        NAME = name;\n        DATE = date;\n    }\n\n    function getBudget() public view returns (uint256) {\n        return BUDGET;\n    }\n\n    function getCredit() public view returns (uint256[] memory) {\n        return CREDITS_PER_YEAR;\n    }\n\n    function incrementBudget() public {\n        BUDGET++;\n    }\n\n    /////////////////////////////////////////////////////////////////////\n    // STUDENTS\n\n    function getKeys() public view returns (address[] memory) {\n        return keys;\n    }\n\n     function getRankedKeys() public view returns (address[] memory) {\n        return rankedKeys;\n    }\n\n    function getStudent(address key) public view returns (Student memory) {\n        return mappingStudents[key];\n    }\n\n    function getStudents() public view returns (Student[] memory){\n        uint len = rankedKeys.length;\n        Student[] memory studentArray = new Student[](len);\n\n        for (uint i = 0; i < len; i++) {\n            studentArray[i] = mappingStudents[rankedKeys[i]];\n        }\n\n        return studentArray;\n    }\n\n    function addStudent(uint256 _isee, uint256 _crediti, uint256 _year, address key, status _status) public {\n        Student memory newStudent = Student(key, _isee, _crediti, _year, uint256(0), uint256(0), false, _status);\n\n        newStudent.eligible = isEligible(newStudent);\n        if(newStudent.eligible)\n            newStudent.score = computeScore(newStudent);\n\n        if(mappingStudents[key].isee == 0) //check if students is already inserted by looking at isee value\n            keys.push(key);\n\n        mappingStudents[key] = newStudent;\n    }\n\n    function getStudentCount() public view returns (uint256) {\n        return keys.length;\n    }\n\n    function computeScore(Student memory student) public pure returns (uint256) {\n\n        //To be modified if a different ranking metric is necessary\n        return student.isee;\n    }\n\n    function rankStudents() public {\n        address[] memory sortedArray = keys;\n        uint len = sortedArray.length;\n\n        rankedKeys = new address[](0);\n\n        if(len == 1) {\n            rankedKeys.push(sortedArray[0]);\n        }\n        else \n        {\n            // Order students' addresses by looking at their score\n            for (uint i = 0; i < len - 1; i++) {\n                for (uint j = i + 1; j < len; j++) {\n                    if (mappingStudents[sortedArray[i]].score > mappingStudents[sortedArray[j]].score) {\n                        // Swap elements\n                        //address temp = sortedArray[i];\n                        //sortedArray[i] = sortedArray[j];\n                        //sortedArray[j] = temp;\n                        (sortedArray[i], sortedArray[j]) = (sortedArray[j], sortedArray[i]); \n                    }\n                }\n            }\n\n            rankedKeys = sortedArray;\n            /*\n            for (uint i = 0; i < len; i++) {\n                rankedKeys.push(sortedArray[i]);\n            } \n            */  \n        }\n            \n    }\n\n    //Uses the student's ranking to assign funds to each student until funds are depleted\n    function assignFunding() public {\n\n        uint len = rankedKeys.length;\n        uint256 budget = BUDGET;\n        uint256 isee = 0;\n        uint256 minFund = 0;\n        uint256 funds;\n\n        for (uint i = 0; i < len; i++) {\n\n            isee = mappingStudents[rankedKeys[i]].isee > ISEE_MIN ? mappingStudents[rankedKeys[i]].isee : ISEE_MIN + 1;\n\n            if(mappingStudents[rankedKeys[i]]._status == status.IN_SEDE) {\n                minFund = FUNDS[0];\n            } else if (mappingStudents[rankedKeys[i]]._status == status.PENDOLARE) {\n                minFund = FUNDS[1];\n            } else if (mappingStudents[rankedKeys[i]]._status == status.FUORI_SEDE) {\n                minFund = FUNDS[2];\n            }\n\n            funds = uint256(int256((minFund / (ISEE_LIMIT - ISEE_MIN))) * (int256(ISEE_MIN) - int256(isee)) + 2 * int256(minFund));\n\n            if(budget >= funds) {\n                budget = budget - funds;\n                mappingStudents[rankedKeys[i]].funds = funds;\n            } else {\n                return;\n            }\n        }\n\n    }\n\n    // Checks if a student should be eligible for the scholarship based on its ISEE and credits\n    function isEligible(Student memory student) public view returns (bool) {\n        bool eligible = true;\n        uint studentYear = student.year-1;\n        if(student.isee > ISEE_LIMIT || student.credits < CREDITS_PER_YEAR[studentYear]) {\n            eligible = false;\n        }\n\n        return eligible;\n    }\n\n    /////////////////////////////////////////////////////////////////////\n\n}\n",
  "sourcePath": "/home/nicola/Scrivania/Blockchain-Project/Scholarship-master/ScholarshipServer/contracts/MyContract.sol",
  "compiler": {
    "name": "solc",
    "version": "0.8.19+commit.7dd6d404.Emscripten.clang"
  },
  "schemaVersion": "3.4.13",
  "updatedAt": "2023-06-27T10:53:04.046Z",
  "devdoc": {
    "kind": "dev",
    "methods": {},
    "version": 1
  },
  "userdoc": {
    "kind": "user",
    "methods": {},
    "version": 1
  }
}