{
  "contractName": "MyContract",
  "abi": [
    {
      "inputs": [
        {
          "internalType": "uint256",
          "name": "budget",
          "type": "uint256"
        },
        {
          "internalType": "uint256",
          "name": "isee_limit",
          "type": "uint256"
        },
        {
          "internalType": "uint256[]",
          "name": "credits",
          "type": "uint256[]"
        },
        {
          "internalType": "uint256[]",
          "name": "funds",
          "type": "uint256[]"
        },
        {
          "internalType": "string",
          "name": "name",
          "type": "string"
        },
        {
          "internalType": "string",
          "name": "date",
          "type": "string"
        }
      ],
      "stateMutability": "nonpayable",
      "type": "constructor"
    },
    {
      "inputs": [],
      "name": "BUDGET",
      "outputs": [
        {
          "internalType": "uint256",
          "name": "",
          "type": "uint256"
        }
      ],
      "stateMutability": "view",
      "type": "function"
    },
    {
      "inputs": [
        {
          "internalType": "uint256",
          "name": "",
          "type": "uint256"
        }
      ],
      "name": "CREDITS_PER_YEAR",
      "outputs": [
        {
          "internalType": "uint256",
          "name": "",
          "type": "uint256"
        }
      ],
      "stateMutability": "view",
      "type": "function"
    },
    {
      "inputs": [],
      "name": "DATE",
      "outputs": [
        {
          "internalType": "string",
          "name": "",
          "type": "string"
        }
      ],
      "stateMutability": "view",
      "type": "function"
    },
    {
      "inputs": [
        {
          "internalType": "uint256",
          "name": "",
          "type": "uint256"
        }
      ],
      "name": "FUNDS",
      "outputs": [
        {
          "internalType": "uint256",
          "name": "",
          "type": "uint256"
        }
      ],
      "stateMutability": "view",
      "type": "function"
    },
    {
      "inputs": [],
      "name": "ISEE_LIMIT",
      "outputs": [
        {
          "internalType": "uint256",
          "name": "",
          "type": "uint256"
        }
      ],
      "stateMutability": "view",
      "type": "function"
    },
    {
      "inputs": [],
      "name": "ISEE_MIN",
      "outputs": [
        {
          "internalType": "uint256",
          "name": "",
          "type": "uint256"
        }
      ],
      "stateMutability": "view",
      "type": "function"
    },
    {
      "inputs": [],
      "name": "NAME",
      "outputs": [
        {
          "internalType": "string",
          "name": "",
          "type": "string"
        }
      ],
      "stateMutability": "view",
      "type": "function"
    },
    {
      "inputs": [
        {
          "internalType": "uint256",
          "name": "",
          "type": "uint256"
        }
      ],
      "name": "keys",
      "outputs": [
        {
          "internalType": "address",
          "name": "",
          "type": "address"
        }
      ],
      "stateMutability": "view",
      "type": "function"
    },
    {
      "inputs": [
        {
          "internalType": "address",
          "name": "",
          "type": "address"
        }
      ],
      "name": "mappingStudents",
      "outputs": [
        {
          "internalType": "address",
          "name": "accountAddress",
          "type": "address"
        },
        {
          "internalType": "uint256",
          "name": "isee",
          "type": "uint256"
        },
        {
          "internalType": "uint256",
          "name": "credits",
          "type": "uint256"
        },
        {
          "internalType": "uint256",
          "name": "year",
          "type": "uint256"
        },
        {
          "internalType": "uint256",
          "name": "score",
          "type": "uint256"
        },
        {
          "internalType": "uint256",
          "name": "funds",
          "type": "uint256"
        },
        {
          "internalType": "bool",
          "name": "eligible",
          "type": "bool"
        },
        {
          "internalType": "enum MyContract.status",
          "name": "_status",
          "type": "uint8"
        }
      ],
      "stateMutability": "view",
      "type": "function"
    },
    {
      "inputs": [
        {
          "internalType": "uint256",
          "name": "",
          "type": "uint256"
        }
      ],
      "name": "rankedKeys",
      "outputs": [
        {
          "internalType": "address",
          "name": "",
          "type": "address"
        }
      ],
      "stateMutability": "view",
      "type": "function"
    },
    {
      "inputs": [],
      "name": "getKeys",
      "outputs": [
        {
          "internalType": "address[]",
          "name": "",
          "type": "address[]"
        }
      ],
      "stateMutability": "view",
      "type": "function"
    },
    {
      "inputs": [],
      "name": "getRankedKeys",
      "outputs": [
        {
          "internalType": "address[]",
          "name": "",
          "type": "address[]"
        }
      ],
      "stateMutability": "view",
      "type": "function"
    },
    {
      "inputs": [],
      "name": "getStudents",
      "outputs": [
        {
          "components": [
            {
              "internalType": "address",
              "name": "accountAddress",
              "type": "address"
            },
            {
              "internalType": "uint256",
              "name": "isee",
              "type": "uint256"
            },
            {
              "internalType": "uint256",
              "name": "credits",
              "type": "uint256"
            },
            {
              "internalType": "uint256",
              "name": "year",
              "type": "uint256"
            },
            {
              "internalType": "uint256",
              "name": "score",
              "type": "uint256"
            },
            {
              "internalType": "uint256",
              "name": "funds",
              "type": "uint256"
            },
            {
              "internalType": "bool",
              "name": "eligible",
              "type": "bool"
            },
            {
              "internalType": "enum MyContract.status",
              "name": "_status",
              "type": "uint8"
            }
          ],
          "internalType": "struct MyContract.Student[]",
          "name": "",
          "type": "tuple[]"
        }
      ],
      "stateMutability": "view",
      "type": "function"
    },
    {
      "inputs": [
        {
          "internalType": "uint256",
          "name": "_isee",
          "type": "uint256"
        },
        {
          "internalType": "uint256",
          "name": "_crediti",
          "type": "uint256"
        },
        {
          "internalType": "uint256",
          "name": "_year",
          "type": "uint256"
        },
        {
          "internalType": "address",
          "name": "key",
          "type": "address"
        },
        {
          "internalType": "enum MyContract.status",
          "name": "_status",
          "type": "uint8"
        }
      ],
      "name": "addStudent",
      "outputs": [],
      "stateMutability": "nonpayable",
      "type": "function"
    },
    {
      "inputs": [],
      "name": "getStudentCount",
      "outputs": [
        {
          "internalType": "uint256",
          "name": "",
          "type": "uint256"
        }
      ],
      "stateMutability": "view",
      "type": "function"
    },
    {
      "inputs": [],
      "name": "rankStudents",
      "outputs": [],
      "stateMutability": "nonpayable",
      "type": "function"
    },
    {
      "inputs": [],
      "name": "assignFunding",
      "outputs": [],
      "stateMutability": "nonpayable",
      "type": "function"
    }
  ],
  "bytecode": "0x60c06040523480156200001157600080fd5b5060405162002b3738038062002b3783398181016040528101906200003791906200051b565b600086118015620000485750600085115b801562000074575061012c846000815181106200006a576200006962000633565b5b6020026020010151105b8015620000a0575061012c8460018151811062000096576200009562000633565b5b6020026020010151105b8015620000cc575061012c84600281518110620000c257620000c162000633565b5b6020026020010151105b8015620000f75750600083600081518110620000ed57620000ec62000633565b5b6020026020010151115b801562000122575060008360018151811062000118576200011762000633565b5b6020026020010151115b80156200014d575060008360028151811062000143576200014262000633565b5b6020026020010151115b6200018f576040517f08c379a00000000000000000000000000000000000000000000000000000000081526004016200018690620006c3565b60405180910390fd5b84608081815250508560a081815250508360029080519060200190620001b792919062000201565b508260039080519060200190620001d092919062000201565b508160009081620001e2919062000926565b508060019081620001f4919062000926565b5050505050505062000a0d565b82805482825590600052602060002090810192821562000240579160200282015b828111156200023f57825182559160200191906001019062000222565b5b5090506200024f919062000253565b5090565b5b808211156200026e57600081600090555060010162000254565b5090565b6000604051905090565b600080fd5b600080fd5b6000819050919050565b6200029b8162000286565b8114620002a757600080fd5b50565b600081519050620002bb8162000290565b92915050565b600080fd5b6000601f19601f8301169050919050565b7f4e487b7100000000000000000000000000000000000000000000000000000000600052604160045260246000fd5b6200031182620002c6565b810181811067ffffffffffffffff82111715620003335762000332620002d7565b5b80604052505050565b60006200034862000272565b905062000356828262000306565b919050565b600067ffffffffffffffff821115620003795762000378620002d7565b5b602082029050602081019050919050565b600080fd5b6000620003a6620003a0846200035b565b6200033c565b90508083825260208201905060208402830185811115620003cc57620003cb6200038a565b5b835b81811015620003f95780620003e48882620002aa565b845260208401935050602081019050620003ce565b5050509392505050565b600082601f8301126200041b576200041a620002c1565b5b81516200042d8482602086016200038f565b91505092915050565b600080fd5b600067ffffffffffffffff821115620004595762000458620002d7565b5b6200046482620002c6565b9050602081019050919050565b60005b838110156200049157808201518184015260208101905062000474565b60008484015250505050565b6000620004b4620004ae846200043b565b6200033c565b905082815260208101848484011115620004d357620004d262000436565b5b620004e084828562000471565b509392505050565b600082601f8301126200050057620004ff620002c1565b5b8151620005128482602086016200049d565b91505092915050565b60008060008060008060c087890312156200053b576200053a6200027c565b5b60006200054b89828a01620002aa565b96505060206200055e89828a01620002aa565b955050604087015167ffffffffffffffff81111562000582576200058162000281565b5b6200059089828a0162000403565b945050606087015167ffffffffffffffff811115620005b457620005b362000281565b5b620005c289828a0162000403565b935050608087015167ffffffffffffffff811115620005e657620005e562000281565b5b620005f489828a01620004e8565b92505060a087015167ffffffffffffffff81111562000618576200061762000281565b5b6200062689828a01620004e8565b9150509295509295509295565b7f4e487b7100000000000000000000000000000000000000000000000000000000600052603260045260246000fd5b600082825260208201905092915050565b7f496e76616c696420706172616d65746572000000000000000000000000000000600082015250565b6000620006ab60118362000662565b9150620006b88262000673565b602082019050919050565b60006020820190508181036000830152620006de816200069c565b9050919050565b600081519050919050565b7f4e487b7100000000000000000000000000000000000000000000000000000000600052602260045260246000fd5b600060028204905060018216806200073857607f821691505b6020821081036200074e576200074d620006f0565b5b50919050565b60008190508160005260206000209050919050565b60006020601f8301049050919050565b600082821b905092915050565b600060088302620007b87fffffffffffffffffffffffffffffffffffffffffffffffffffffffffffffffff8262000779565b620007c4868362000779565b95508019841693508086168417925050509392505050565b6000819050919050565b60006200080762000801620007fb8462000286565b620007dc565b62000286565b9050919050565b6000819050919050565b6200082383620007e6565b6200083b62000832826200080e565b84845462000786565b825550505050565b600090565b6200085262000843565b6200085f81848462000818565b505050565b5b8181101562000887576200087b60008262000848565b60018101905062000865565b5050565b601f821115620008d657620008a08162000754565b620008ab8462000769565b81016020851015620008bb578190505b620008d3620008ca8562000769565b83018262000864565b50505b505050565b600082821c905092915050565b6000620008fb60001984600802620008db565b1980831691505092915050565b6000620009168383620008e8565b9150826002028217905092915050565b6200093182620006e5565b67ffffffffffffffff8111156200094d576200094c620002d7565b5b6200095982546200071f565b620009668282856200088b565b600060209050601f8311600181146200099e576000841562000989578287015190505b62000995858262000908565b86555062000a05565b601f198416620009ae8662000754565b60005b82811015620009d857848901518255600182019150602085019450602081019050620009b1565b86831015620009f85784890151620009f4601f891682620008e8565b8355505b6001600288020188555050505b505050505050565b60805160a0516120ef62000a48600039600081816108b8015261097601526000818161042101528181610df101526115d801526120ef6000f3fe608060405234801561001057600080fd5b506004361061010b5760003560e01c8063a3f4df7e116100a2578063e7d7393d11610071578063e7d7393d146102be578063ea8728ea146102c8578063eb63e643146102d2578063ed04845014610309578063f1d064b3146103275761010b565b8063a3f4df7e14610234578063e03eb24914610252578063e2ff94c514610282578063e4861bdd146102a05761010b565b80635fc67f46116100de5780635fc67f461461019a5780636fd4d505146101ca5780637d3567b8146101e857806395cdd66e146102185761010b565b80630cb6aaf1146101105780632150c5181461014057806341e0c4071461015e57806342d65b2c1461017c575b600080fd5b61012a6004803603810190610125919061179c565b610345565b604051610137919061180a565b60405180910390f35b610148610384565b60405161015591906118e3565b60405180910390f35b610166610412565b6040516101739190611914565b60405180910390f35b61018461041f565b6040516101919190611914565b60405180910390f35b6101b460048036038101906101af919061179c565b610443565b6040516101c1919061180a565b60405180910390f35b6101d2610482565b6040516101df9190611914565b60405180910390f35b61020260048036038101906101fd919061179c565b610487565b60405161020f9190611914565b60405180910390f35b610232600480360381019061022d9190611980565b6104ab565b005b61023c610804565b6040516102499190611a8b565b60405180910390f35b61026c6004803603810190610267919061179c565b610892565b6040516102799190611914565b60405180910390f35b61028a6108b6565b6040516102979190611914565b60405180910390f35b6102a86108da565b6040516102b59190611a8b565b60405180910390f35b6102c6610968565b005b6102d0610f1c565b005b6102ec60048036038101906102e79190611aad565b61129a565b604051610300989796959493929190611b6c565b60405180910390f35b61031161131c565b60405161031e91906118e3565b60405180910390f35b61032f6113aa565b60405161033c9190611d69565b60405180910390f35b6005818154811061035557600080fd5b906000526020600020016000915054906101000a900473ffffffffffffffffffffffffffffffffffffffff1681565b6060600580548060200260200160405190810160405280929190818152602001828054801561040857602002820191906000526020600020905b8160009054906101000a900473ffffffffffffffffffffffffffffffffffffffff1673ffffffffffffffffffffffffffffffffffffffff16815260200190600101908083116103be575b5050505050905090565b6000600580549050905090565b7f000000000000000000000000000000000000000000000000000000000000000081565b6006818154811061045357600080fd5b906000526020600020016000915054906101000a900473ffffffffffffffffffffffffffffffffffffffff1681565b600281565b6003818154811061049757600080fd5b906000526020600020016000915090505481565b6000851180156104bc575061012c84105b80156104d65750600183101580156104d5575060038311155b5b801561056357506002808111156104f0576104ef611af5565b5b81600281111561050357610502611af5565b5b148061053357506000600281111561051e5761051d611af5565b5b81600281111561053157610530611af5565b5b145b8061056257506001600281111561054d5761054c611af5565b5b8160028111156105605761055f611af5565b5b145b5b6105a2576040517f08c379a000000000000000000000000000000000000000000000000000000000815260040161059990611dd7565b60405180910390fd5b60006040518061010001604052808473ffffffffffffffffffffffffffffffffffffffff168152602001878152602001868152602001858152602001600081526020016000815260200160001515815260200183600281111561060857610607611af5565b5b8152509050610616816115ba565b8160c00190151590811515815250508060c0015115610642576106388161163d565b8160800181815250505b6000600460008573ffffffffffffffffffffffffffffffffffffffff1673ffffffffffffffffffffffffffffffffffffffff16815260200190815260200160002060010154036106f0576005839080600181540180825580915050600190039060005260206000200160009091909190916101000a81548173ffffffffffffffffffffffffffffffffffffffff021916908373ffffffffffffffffffffffffffffffffffffffff1602179055505b80600460008573ffffffffffffffffffffffffffffffffffffffff1673ffffffffffffffffffffffffffffffffffffffff16815260200190815260200160002060008201518160000160006101000a81548173ffffffffffffffffffffffffffffffffffffffff021916908373ffffffffffffffffffffffffffffffffffffffff1602179055506020820151816001015560408201518160020155606082015181600301556080820151816004015560a0820151816005015560c08201518160060160006101000a81548160ff02191690831515021790555060e08201518160060160016101000a81548160ff021916908360028111156107f4576107f3611af5565b5b0217905550905050505050505050565b6000805461081190611e26565b80601f016020809104026020016040519081016040528092919081815260200182805461083d90611e26565b801561088a5780601f1061085f5761010080835404028352916020019161088a565b820191906000526020600020905b81548152906001019060200180831161086d57829003601f168201915b505050505081565b600281815481106108a257600080fd5b906000526020600020016000915090505481565b7f000000000000000000000000000000000000000000000000000000000000000081565b600180546108e790611e26565b80601f016020809104026020016040519081016040528092919081815260200182805461091390611e26565b80156109605780601f1061093557610100808354040283529160200191610960565b820191906000526020600020905b81548152906001019060200180831161094357829003601f168201915b505050505081565b6000600680549050905060007f00000000000000000000000000000000000000000000000000000000000000009050600080600080600090505b85811015610f135760046000600683815481106109c2576109c1611e57565b5b9060005260206000200160009054906101000a900473ffffffffffffffffffffffffffffffffffffffff1673ffffffffffffffffffffffffffffffffffffffff1673ffffffffffffffffffffffffffffffffffffffff16815260200190815260200160002060060160009054906101000a900460ff1615610f005760026004600060068481548110610a5757610a56611e57565b5b9060005260206000200160009054906101000a900473ffffffffffffffffffffffffffffffffffffffff1673ffffffffffffffffffffffffffffffffffffffff1673ffffffffffffffffffffffffffffffffffffffff1681526020019081526020016000206001015411610acc576002610b4e565b6004600060068381548110610ae457610ae3611e57565b5b9060005260206000200160009054906101000a900473ffffffffffffffffffffffffffffffffffffffff1673ffffffffffffffffffffffffffffffffffffffff1673ffffffffffffffffffffffffffffffffffffffff168152602001908152602001600020600101545b935060006002811115610b6457610b63611af5565b5b6004600060068481548110610b7c57610b7b611e57565b5b9060005260206000200160009054906101000a900473ffffffffffffffffffffffffffffffffffffffff1673ffffffffffffffffffffffffffffffffffffffff1673ffffffffffffffffffffffffffffffffffffffff16815260200190815260200160002060060160019054906101000a900460ff166002811115610c0457610c03611af5565b5b03610c30576003600081548110610c1e57610c1d611e57565b5b90600052602060002001549250610ded565b60016002811115610c4457610c43611af5565b5b6004600060068481548110610c5c57610c5b611e57565b5b9060005260206000200160009054906101000a900473ffffffffffffffffffffffffffffffffffffffff1673ffffffffffffffffffffffffffffffffffffffff1673ffffffffffffffffffffffffffffffffffffffff16815260200190815260200160002060060160019054906101000a900460ff166002811115610ce457610ce3611af5565b5b03610d10576003600181548110610cfe57610cfd611e57565b5b90600052602060002001549250610dec565b600280811115610d2357610d22611af5565b5b6004600060068481548110610d3b57610d3a611e57565b5b9060005260206000200160009054906101000a900473ffffffffffffffffffffffffffffffffffffffff1673ffffffffffffffffffffffffffffffffffffffff1673ffffffffffffffffffffffffffffffffffffffff16815260200190815260200160002060060160019054906101000a900460ff166002811115610dc357610dc2611af5565b5b03610deb576003600281548110610ddd57610ddc611e57565b5b906000526020600020015492505b5b5b60027f0000000000000000000000000000000000000000000000000000000000000000610e1a9190611eb5565b600285610e279190611ef3565b84610e329190611f36565b610e3c9190611fdd565b836002610e499190611f36565b610e539190611ef3565b9150818510610ef4578185610e689190611eb5565b9450816004600060068481548110610e8357610e82611e57565b5b9060005260206000200160009054906101000a900473ffffffffffffffffffffffffffffffffffffffff1673ffffffffffffffffffffffffffffffffffffffff1673ffffffffffffffffffffffffffffffffffffffff16815260200190815260200160002060050181905550610eff565b505050505050610f1a565b5b8080610f0b9061200e565b9150506109a2565b5050505050505b565b60006005805480602002602001604051908101604052809291908181526020018280548015610fa057602002820191906000526020600020905b8160009054906101000a900473ffffffffffffffffffffffffffffffffffffffff1673ffffffffffffffffffffffffffffffffffffffff1681526020019060010190808311610f56575b50505050509050600081519050600067ffffffffffffffff811115610fc857610fc7612056565b5b604051908082528060200260200182016040528015610ff65781602001602082028036833780820191505090505b506006908051906020019061100c92919061164b565b50600181036110985760068260008151811061102b5761102a611e57565b5b60200260200101519080600181540180825580915050600190039060005260206000200160009091909190916101000a81548173ffffffffffffffffffffffffffffffffffffffff021916908373ffffffffffffffffffffffffffffffffffffffff160217905550611296565b60005b6001826110a89190611eb5565b81101561127d5760006001826110be9190612085565b90505b8281101561126957600460008583815181106110e0576110df611e57565b5b602002602001015173ffffffffffffffffffffffffffffffffffffffff1673ffffffffffffffffffffffffffffffffffffffff168152602001908152602001600020600401546004600086858151811061113d5761113c611e57565b5b602002602001015173ffffffffffffffffffffffffffffffffffffffff1673ffffffffffffffffffffffffffffffffffffffff1681526020019081526020016000206004015411156112565783818151811061119c5761119b611e57565b5b60200260200101518483815181106111b7576111b6611e57565b5b60200260200101518584815181106111d2576111d1611e57565b5b602002602001018684815181106111ec576111eb611e57565b5b602002602001018273ffffffffffffffffffffffffffffffffffffffff1673ffffffffffffffffffffffffffffffffffffffff168152508273ffffffffffffffffffffffffffffffffffffffff1673ffffffffffffffffffffffffffffffffffffffff1681525050505b80806112619061200e565b9150506110c1565b5080806112759061200e565b91505061109b565b50816006908051906020019061129492919061164b565b505b5050565b60046020528060005260406000206000915090508060000160009054906101000a900473ffffffffffffffffffffffffffffffffffffffff16908060010154908060020154908060030154908060040154908060050154908060060160009054906101000a900460ff16908060060160019054906101000a900460ff16905088565b606060068054806020026020016040519081016040528092919081815260200182805480156113a057602002820191906000526020600020905b8160009054906101000a900473ffffffffffffffffffffffffffffffffffffffff1673ffffffffffffffffffffffffffffffffffffffff1681526020019060010190808311611356575b5050505050905090565b60606000600680549050905060008167ffffffffffffffff8111156113d2576113d1612056565b5b60405190808252806020026020018201604052801561140b57816020015b6113f86116d5565b8152602001906001900390816113f05790505b50905060005b828110156115b157600460006006838154811061143157611430611e57565b5b9060005260206000200160009054906101000a900473ffffffffffffffffffffffffffffffffffffffff1673ffffffffffffffffffffffffffffffffffffffff1673ffffffffffffffffffffffffffffffffffffffff168152602001908152602001600020604051806101000160405290816000820160009054906101000a900473ffffffffffffffffffffffffffffffffffffffff1673ffffffffffffffffffffffffffffffffffffffff1673ffffffffffffffffffffffffffffffffffffffff16815260200160018201548152602001600282015481526020016003820154815260200160048201548152602001600582015481526020016006820160009054906101000a900460ff161515151581526020016006820160019054906101000a900460ff16600281111561156a57611569611af5565b5b600281111561157c5761157b611af5565b5b8152505082828151811061159357611592611e57565b5b602002602001018190525080806115a99061200e565b915050611411565b50809250505090565b600080600190506000600184606001516115d49190611eb5565b90507f00000000000000000000000000000000000000000000000000000000000000008460200151118061162957506002818154811061161757611616611e57565b5b90600052602060002001548460400151105b1561163357600091505b8192505050919050565b600081602001519050919050565b8280548282559060005260206000209081019282156116c4579160200282015b828111156116c35782518260006101000a81548173ffffffffffffffffffffffffffffffffffffffff021916908373ffffffffffffffffffffffffffffffffffffffff1602179055509160200191906001019061166b565b5b5090506116d19190611744565b5090565b604051806101000160405280600073ffffffffffffffffffffffffffffffffffffffff16815260200160008152602001600081526020016000815260200160008152602001600081526020016000151581526020016000600281111561173e5761173d611af5565b5b81525090565b5b8082111561175d576000816000905550600101611745565b5090565b600080fd5b6000819050919050565b61177981611766565b811461178457600080fd5b50565b60008135905061179681611770565b92915050565b6000602082840312156117b2576117b1611761565b5b60006117c084828501611787565b91505092915050565b600073ffffffffffffffffffffffffffffffffffffffff82169050919050565b60006117f4826117c9565b9050919050565b611804816117e9565b82525050565b600060208201905061181f60008301846117fb565b92915050565b600081519050919050565b600082825260208201905092915050565b6000819050602082019050919050565b61185a816117e9565b82525050565b600061186c8383611851565b60208301905092915050565b6000602082019050919050565b600061189082611825565b61189a8185611830565b93506118a583611841565b8060005b838110156118d65781516118bd8882611860565b97506118c883611878565b9250506001810190506118a9565b5085935050505092915050565b600060208201905081810360008301526118fd8184611885565b905092915050565b61190e81611766565b82525050565b60006020820190506119296000830184611905565b92915050565b611938816117e9565b811461194357600080fd5b50565b6000813590506119558161192f565b92915050565b6003811061196857600080fd5b50565b60008135905061197a8161195b565b92915050565b600080600080600060a0868803121561199c5761199b611761565b5b60006119aa88828901611787565b95505060206119bb88828901611787565b94505060406119cc88828901611787565b93505060606119dd88828901611946565b92505060806119ee8882890161196b565b9150509295509295909350565b600081519050919050565b600082825260208201905092915050565b60005b83811015611a35578082015181840152602081019050611a1a565b60008484015250505050565b6000601f19601f8301169050919050565b6000611a5d826119fb565b611a678185611a06565b9350611a77818560208601611a17565b611a8081611a41565b840191505092915050565b60006020820190508181036000830152611aa58184611a52565b905092915050565b600060208284031215611ac357611ac2611761565b5b6000611ad184828501611946565b91505092915050565b60008115159050919050565b611aef81611ada565b82525050565b7f4e487b7100000000000000000000000000000000000000000000000000000000600052602160045260246000fd5b60038110611b3557611b34611af5565b5b50565b6000819050611b4682611b24565b919050565b6000611b5682611b38565b9050919050565b611b6681611b4b565b82525050565b600061010082019050611b82600083018b6117fb565b611b8f602083018a611905565b611b9c6040830189611905565b611ba96060830188611905565b611bb66080830187611905565b611bc360a0830186611905565b611bd060c0830185611ae6565b611bdd60e0830184611b5d565b9998505050505050505050565b600081519050919050565b600082825260208201905092915050565b6000819050602082019050919050565b611c1f81611766565b82525050565b611c2e81611ada565b82525050565b611c3d81611b4b565b82525050565b61010082016000820151611c5a6000850182611851565b506020820151611c6d6020850182611c16565b506040820151611c806040850182611c16565b506060820151611c936060850182611c16565b506080820151611ca66080850182611c16565b5060a0820151611cb960a0850182611c16565b5060c0820151611ccc60c0850182611c25565b5060e0820151611cdf60e0850182611c34565b50505050565b6000611cf18383611c43565b6101008301905092915050565b6000602082019050919050565b6000611d1682611bea565b611d208185611bf5565b9350611d2b83611c06565b8060005b83811015611d5c578151611d438882611ce5565b9750611d4e83611cfe565b925050600181019050611d2f565b5085935050505092915050565b60006020820190508181036000830152611d838184611d0b565b905092915050565b7f496e76616c696420706172616d65746572000000000000000000000000000000600082015250565b6000611dc1601183611a06565b9150611dcc82611d8b565b602082019050919050565b60006020820190508181036000830152611df081611db4565b9050919050565b7f4e487b7100000000000000000000000000000000000000000000000000000000600052602260045260246000fd5b60006002820490506001821680611e3e57607f821691505b602082108103611e5157611e50611df7565b5b50919050565b7f4e487b7100000000000000000000000000000000000000000000000000000000600052603260045260246000fd5b7f4e487b7100000000000000000000000000000000000000000000000000000000600052601160045260246000fd5b6000611ec082611766565b9150611ecb83611766565b9250828203905081811115611ee357611ee2611e86565b5b92915050565b6000819050919050565b6000611efe82611ee9565b9150611f0983611ee9565b9250828203905081811260008412168282136000851215161715611f3057611f2f611e86565b5b92915050565b6000611f4182611ee9565b9150611f4c83611ee9565b9250828202611f5a81611ee9565b91507f80000000000000000000000000000000000000000000000000000000000000008414600084121615611f9257611f91611e86565b5b8282058414831517611fa757611fa6611e86565b5b5092915050565b7f4e487b7100000000000000000000000000000000000000000000000000000000600052601260045260246000fd5b6000611fe882611766565b9150611ff383611766565b92508261200357612002611fae565b5b828204905092915050565b600061201982611766565b91507fffffffffffffffffffffffffffffffffffffffffffffffffffffffffffffffff820361204b5761204a611e86565b5b600182019050919050565b7f4e487b7100000000000000000000000000000000000000000000000000000000600052604160045260246000fd5b600061209082611766565b915061209b83611766565b92508282019050808211156120b3576120b2611e86565b5b9291505056fea2646970667358221220a7c61a05f11aa22c2d31d8baab15a00e270ecdf549cba43f55b467997fd7640a64736f6c63430008130033",
  "immutableReferences": {
    "25": [
      {
        "length": 32,
        "start": 1057
      },
      {
        "length": 32,
        "start": 3569
      },
      {
        "length": 32,
        "start": 5592
      }
    ],
    "30": [
      {
        "length": 32,
        "start": 2232
      },
      {
        "length": 32,
        "start": 2422
      }
    ]
  },
  "source": "// SPDX-License-Identifier: MIT\npragma solidity ^0.8.0;\n\ncontract MyContract {\n\n    /////////////////////////////////////////////////////////////////////\n    // STRUCTS AND GLOBAL VARIABLES\n\n    struct Student {\n        address accountAddress; //address of the account of the student\n        uint256 isee; // [1, 1000000]\n        uint256 credits; // [0, 1000]\n        uint256 year; //year you are asking for the scholarship [1, 3]\n        uint256 score; //computed for ranking \n        uint256 funds; //scholarship value for the student\n        bool eligible; // true/false\n        status _status;\n    }\n\n    enum status{ IN_SEDE, PENDOLARE, FUORI_SEDE } //the three allowed statuses for students\n\n    uint256 public immutable ISEE_LIMIT; //maximum allowed ISEE to be eligible\n    uint256 public constant ISEE_MIN = 2; //supposed minimum ISEE (for scholarship computation)\n    uint256 public immutable BUDGET; //entire budget for the scholarships\n    string public NAME; //name of scholarship\n    string public DATE; //end date to apply for the scholarship\n    uint256[] public CREDITS_PER_YEAR; //required credits for each year of the bachelor to be eligible\n    uint256[] public FUNDS; //minimum scholarsip value for each student status (max is double)\n    \n    mapping(address => Student) public mappingStudents; //contains the association address->student\n    address[] public keys; //stores the key of each applying student\n    address[] public rankedKeys; //stores the keys of students after rankStudents() gets called\n\n    /////////////////////////////////////////////////////////////////////\n\n    constructor(uint256 budget, uint256 isee_limit, uint256[] memory credits, uint256[] memory funds, string memory name, string memory date) {\n        require((budget > 0 && isee_limit > 0 && credits[0] < 300 && credits[1] < 300 && credits[2] < 300 && funds[0] > 0 && funds[1] > 0 && funds[2] > 0), \"Invalid parameter\");\n        \n        ISEE_LIMIT = isee_limit;\n        BUDGET = budget;\n        CREDITS_PER_YEAR = credits;\n        FUNDS = funds;\n        NAME = name;\n        DATE = date;\n    }\n\n    /////////////////////////////////////////////////////////////////////\n    // STUDENTS\n\n    function getKeys() external view returns (address[] memory) {\n        return keys;\n    }\n\n     function getRankedKeys() external view returns (address[] memory) {\n        return rankedKeys;\n    }\n\n    function getStudents() external view returns (Student[] memory){\n        uint256 len = rankedKeys.length;\n        Student[] memory studentArray = new Student[](len);\n\n        for (uint256 i = 0; i < len; i++) {\n            studentArray[i] = mappingStudents[rankedKeys[i]];\n        }\n\n        return studentArray;\n    }\n\n    function addStudent(uint256 _isee, uint256 _crediti, uint256 _year, address key, status _status) external{\n        require((_isee > 0 && _crediti < 300 && (_year >= 1 && _year <= 3) && (_status == status.FUORI_SEDE || _status == status.IN_SEDE || _status == status.PENDOLARE)), \"Invalid parameter\");\n\n        Student memory newStudent = Student(key, _isee, _crediti, _year, uint256(0), uint256(0), false, _status);\n\n        newStudent.eligible = isEligible(newStudent);\n        if(newStudent.eligible)\n            newStudent.score = computeScore(newStudent);\n\n        if(mappingStudents[key].isee == 0) //check if students is already inserted by looking at isee value\n            keys.push(key);\n\n        mappingStudents[key] = newStudent;\n    }\n\n    function getStudentCount() external view returns (uint256) {\n        return keys.length;\n    }\n\n    function computeScore(Student memory student) private pure returns (uint256) {\n        //To be modified if a different ranking metric is necessary\n        return student.isee;\n    }\n\n    function rankStudents() external {\n        address[] memory sortedArray = keys;\n        uint256 len = sortedArray.length;\n\n        rankedKeys = new address[](0);\n\n        if(len == 1) {\n            rankedKeys.push(sortedArray[0]);\n        }\n        else \n        {\n            // Order students' addresses by looking at their score\n            for (uint256 i = 0; i < len - 1; i++) {\n                for (uint256 j = i + 1; j < len; j++) {\n                    if (mappingStudents[sortedArray[i]].score > mappingStudents[sortedArray[j]].score) {\n                        (sortedArray[i], sortedArray[j]) = (sortedArray[j], sortedArray[i]); \n                    }\n                }\n            }\n\n            rankedKeys = sortedArray;\n        }\n            \n    }\n\n    //Uses the student's ranking to assign funds to each student until funds are depleted\n    function assignFunding() external {\n        uint256 len = rankedKeys.length;\n        uint256 budget = BUDGET;\n        uint256 isee = 0;\n        uint256 minFund = 0;\n        uint256 funds;\n\n        for (uint256 i = 0; i < len; i++) {\n            if(mappingStudents[rankedKeys[i]].eligible){\n                isee = mappingStudents[rankedKeys[i]].isee > ISEE_MIN ? mappingStudents[rankedKeys[i]].isee : ISEE_MIN;\n\n                if(mappingStudents[rankedKeys[i]]._status == status.IN_SEDE) {\n                    minFund = FUNDS[0];\n                } else if (mappingStudents[rankedKeys[i]]._status == status.PENDOLARE) {\n                    minFund = FUNDS[1];\n                } else if (mappingStudents[rankedKeys[i]]._status == status.FUORI_SEDE) {\n                    minFund = FUNDS[2];\n                }\n\n                /// SAFE MATH LIBRARY NOT NEEDED SINCE FROM VERSION 0.8.0 IT IS AUTOMATICALLY IMPLEMENTED          \n                funds = uint256(2 * int256(minFund) - int256((uint256(int256(minFund) * (int256(isee) - int256(ISEE_MIN))) / (ISEE_LIMIT - ISEE_MIN))));\n\n                if(budget >= funds) {\n                    budget = budget - funds;\n                    mappingStudents[rankedKeys[i]].funds = funds;\n                } else {\n                    return;\n                }\n            }\n        }\n    }\n\n    // Checks if a student should be eligible for the scholarship based on its ISEE and credits\n    function isEligible(Student memory student) private view returns (bool) {\n        bool eligible = true;\n        uint256 studentYear = student.year-1;\n        if(student.isee > ISEE_LIMIT || student.credits < CREDITS_PER_YEAR[studentYear]) {\n            eligible = false;\n        }\n\n        return eligible;\n    }\n    /////////////////////////////////////////////////////////////////////\n}",
  "sourcePath": "/Users/michelelamon/Documents/UNITN/Blockchain/Blockchain-Project/Scholarship-master/ScholarshipServer/contracts/MyContract.sol",
  "compiler": {
    "name": "solc",
    "version": "0.8.19+commit.7dd6d404.Emscripten.clang"
  },
  "schemaVersion": "3.4.14",
  "updatedAt": "2023-07-05T15:07:59.745Z",
  "devdoc": {
    "kind": "dev",
    "methods": {},
    "version": 1
  },
  "userdoc": {
    "kind": "user",
    "methods": {},
    "version": 1
  }
}