{
  "contractName": "MyContract",
  "abi": [
    {
      "inputs": [
        {
          "internalType": "string",
          "name": "initialValue",
          "type": "string"
        }
      ],
      "stateMutability": "nonpayable",
      "type": "constructor"
    },
    {
      "inputs": [
        {
          "internalType": "uint256",
          "name": "",
          "type": "uint256"
        }
      ],
      "name": "CREDITS_PER_YEAR",
      "outputs": [
        {
          "internalType": "uint256",
          "name": "",
          "type": "uint256"
        }
      ],
      "stateMutability": "view",
      "type": "function"
    },
    {
      "inputs": [],
      "name": "ISEE_LIMIT",
      "outputs": [
        {
          "internalType": "uint256",
          "name": "",
          "type": "uint256"
        }
      ],
      "stateMutability": "view",
      "type": "function"
    },
    {
      "inputs": [
        {
          "internalType": "uint256",
          "name": "",
          "type": "uint256"
        }
      ],
      "name": "keys",
      "outputs": [
        {
          "internalType": "address",
          "name": "",
          "type": "address"
        }
      ],
      "stateMutability": "view",
      "type": "function"
    },
    {
      "inputs": [
        {
          "internalType": "address",
          "name": "",
          "type": "address"
        }
      ],
      "name": "mappingStudents",
      "outputs": [
        {
          "internalType": "string",
          "name": "name",
          "type": "string"
        },
        {
          "internalType": "string",
          "name": "surname",
          "type": "string"
        },
        {
          "internalType": "string",
          "name": "taxcode",
          "type": "string"
        },
        {
          "internalType": "uint256",
          "name": "isee",
          "type": "uint256"
        },
        {
          "internalType": "uint256",
          "name": "crediti",
          "type": "uint256"
        },
        {
          "internalType": "uint256",
          "name": "year",
          "type": "uint256"
        },
        {
          "internalType": "uint256",
          "name": "score",
          "type": "uint256"
        }
      ],
      "stateMutability": "view",
      "type": "function"
    },
    {
      "inputs": [],
      "name": "myVariable",
      "outputs": [
        {
          "internalType": "string",
          "name": "",
          "type": "string"
        }
      ],
      "stateMutability": "view",
      "type": "function"
    },
    {
      "inputs": [
        {
          "internalType": "address",
          "name": "",
          "type": "address"
        }
      ],
      "name": "rankedStudents",
      "outputs": [
        {
          "internalType": "string",
          "name": "name",
          "type": "string"
        },
        {
          "internalType": "string",
          "name": "surname",
          "type": "string"
        },
        {
          "internalType": "string",
          "name": "taxcode",
          "type": "string"
        },
        {
          "internalType": "uint256",
          "name": "isee",
          "type": "uint256"
        },
        {
          "internalType": "uint256",
          "name": "crediti",
          "type": "uint256"
        },
        {
          "internalType": "uint256",
          "name": "year",
          "type": "uint256"
        },
        {
          "internalType": "uint256",
          "name": "score",
          "type": "uint256"
        }
      ],
      "stateMutability": "view",
      "type": "function"
    },
    {
      "inputs": [],
      "name": "val",
      "outputs": [
        {
          "internalType": "uint256",
          "name": "",
          "type": "uint256"
        }
      ],
      "stateMutability": "view",
      "type": "function"
    },
    {
      "inputs": [],
      "name": "getValue",
      "outputs": [
        {
          "internalType": "uint256",
          "name": "",
          "type": "uint256"
        }
      ],
      "stateMutability": "view",
      "type": "function"
    },
    {
      "inputs": [],
      "name": "incrementValue",
      "outputs": [],
      "stateMutability": "nonpayable",
      "type": "function"
    },
    {
      "inputs": [],
      "name": "getKeys",
      "outputs": [
        {
          "internalType": "address[]",
          "name": "",
          "type": "address[]"
        }
      ],
      "stateMutability": "view",
      "type": "function"
    },
    {
      "inputs": [
        {
          "internalType": "address",
          "name": "key",
          "type": "address"
        }
      ],
      "name": "getStudent",
      "outputs": [
        {
          "components": [
            {
              "internalType": "string",
              "name": "name",
              "type": "string"
            },
            {
              "internalType": "string",
              "name": "surname",
              "type": "string"
            },
            {
              "internalType": "string",
              "name": "taxcode",
              "type": "string"
            },
            {
              "internalType": "uint256",
              "name": "isee",
              "type": "uint256"
            },
            {
              "internalType": "uint256",
              "name": "crediti",
              "type": "uint256"
            },
            {
              "internalType": "uint256",
              "name": "year",
              "type": "uint256"
            },
            {
              "internalType": "uint256",
              "name": "score",
              "type": "uint256"
            }
          ],
          "internalType": "struct MyContract.Student",
          "name": "",
          "type": "tuple"
        }
      ],
      "stateMutability": "view",
      "type": "function"
    },
    {
      "inputs": [
        {
          "internalType": "string",
          "name": "_name",
          "type": "string"
        },
        {
          "internalType": "string",
          "name": "_surname",
          "type": "string"
        },
        {
          "internalType": "string",
          "name": "_taxcode",
          "type": "string"
        },
        {
          "internalType": "uint256",
          "name": "_isee",
          "type": "uint256"
        },
        {
          "internalType": "uint256",
          "name": "_crediti",
          "type": "uint256"
        },
        {
          "internalType": "uint256",
          "name": "_year",
          "type": "uint256"
        },
        {
          "internalType": "address",
          "name": "key",
          "type": "address"
        }
      ],
      "name": "addStudent",
      "outputs": [],
      "stateMutability": "nonpayable",
      "type": "function"
    },
    {
      "inputs": [],
      "name": "getStudentCount",
      "outputs": [
        {
          "internalType": "uint256",
          "name": "",
          "type": "uint256"
        }
      ],
      "stateMutability": "view",
      "type": "function"
    },
    {
      "inputs": [
        {
          "components": [
            {
              "internalType": "string",
              "name": "name",
              "type": "string"
            },
            {
              "internalType": "string",
              "name": "surname",
              "type": "string"
            },
            {
              "internalType": "string",
              "name": "taxcode",
              "type": "string"
            },
            {
              "internalType": "uint256",
              "name": "isee",
              "type": "uint256"
            },
            {
              "internalType": "uint256",
              "name": "crediti",
              "type": "uint256"
            },
            {
              "internalType": "uint256",
              "name": "year",
              "type": "uint256"
            },
            {
              "internalType": "uint256",
              "name": "score",
              "type": "uint256"
            }
          ],
          "internalType": "struct MyContract.Student",
          "name": "student",
          "type": "tuple"
        }
      ],
      "name": "computeScore",
      "outputs": [
        {
          "internalType": "uint256",
          "name": "",
          "type": "uint256"
        }
      ],
      "stateMutability": "view",
      "type": "function"
    },
    {
      "inputs": [],
      "name": "rankStudents",
      "outputs": [
        {
          "internalType": "address[]",
          "name": "",
          "type": "address[]"
        }
      ],
      "stateMutability": "view",
      "type": "function"
    }
  ],
  "bytecode": "0x6080604052615c30600055604051806060016040528060008152602001602d8152602001605581525060019060036200003a9291906200008c565b5060006006553480156200004d57600080fd5b50604051620022a0380380620022a0833981810160405281019062000073919062000290565b80600590816200008491906200052c565b505062000613565b828054828255906000526020600020908101928215620000cb579160200282015b82811115620000ca578251825591602001919060010190620000ad565b5b509050620000da9190620000de565b5090565b5b80821115620000f9576000816000905550600101620000df565b5090565b6000604051905090565b600080fd5b600080fd5b600080fd5b600080fd5b6000601f19601f8301169050919050565b7f4e487b7100000000000000000000000000000000000000000000000000000000600052604160045260246000fd5b62000166826200011b565b810181811067ffffffffffffffff821117156200018857620001876200012c565b5b80604052505050565b60006200019d620000fd565b9050620001ab82826200015b565b919050565b600067ffffffffffffffff821115620001ce57620001cd6200012c565b5b620001d9826200011b565b9050602081019050919050565b60005b8381101562000206578082015181840152602081019050620001e9565b60008484015250505050565b6000620002296200022384620001b0565b62000191565b90508281526020810184848401111562000248576200024762000116565b5b62000255848285620001e6565b509392505050565b600082601f83011262000275576200027462000111565b5b81516200028784826020860162000212565b91505092915050565b600060208284031215620002a957620002a862000107565b5b600082015167ffffffffffffffff811115620002ca57620002c96200010c565b5b620002d8848285016200025d565b91505092915050565b600081519050919050565b7f4e487b7100000000000000000000000000000000000000000000000000000000600052602260045260246000fd5b600060028204905060018216806200033457607f821691505b6020821081036200034a5762000349620002ec565b5b50919050565b60008190508160005260206000209050919050565b60006020601f8301049050919050565b600082821b905092915050565b600060088302620003b47fffffffffffffffffffffffffffffffffffffffffffffffffffffffffffffffff8262000375565b620003c0868362000375565b95508019841693508086168417925050509392505050565b6000819050919050565b6000819050919050565b60006200040d620004076200040184620003d8565b620003e2565b620003d8565b9050919050565b6000819050919050565b6200042983620003ec565b62000441620004388262000414565b84845462000382565b825550505050565b600090565b6200045862000449565b620004658184846200041e565b505050565b5b818110156200048d57620004816000826200044e565b6001810190506200046b565b5050565b601f821115620004dc57620004a68162000350565b620004b18462000365565b81016020851015620004c1578190505b620004d9620004d08562000365565b8301826200046a565b50505b505050565b600082821c905092915050565b60006200050160001984600802620004e1565b1980831691505092915050565b60006200051c8383620004ee565b9150826002028217905092915050565b6200053782620002e1565b67ffffffffffffffff8111156200055357620005526200012c565b5b6200055f82546200031b565b6200056c82828562000491565b600060209050601f831160018114620005a457600084156200058f578287015190505b6200059b85826200050e565b8655506200060b565b601f198416620005b48662000350565b60005b82811015620005de57848901518255600182019150602085019450602081019050620005b7565b86831015620005fe5784890151620005fa601f891682620004ee565b8355505b6001600288020188555050505b505050505050565b611c7d80620006236000396000f3fe608060405234801561001057600080fd5b50600436106100f55760003560e01c806342d65b2c116100975780638c48137a116100665780638c48137a1461027e578063e03eb2491461029a578063ea8728ea146102ca578063eb63e643146102e8576100f5565b806342d65b2c146101e25780634e59ff5614610200578063522afdec1461021e5780636b7b44d71461024e576100f5565b80632150c518116100d35780632150c5181461017e5780633bfd7fd31461019c5780633c6bb436146101a657806341e0c407146101c4576100f5565b80630c00aac2146100fa5780630cb6aaf1146101305780632096525514610160575b600080fd5b610114600480360381019061010f9190611074565b61031e565b604051610127979695949392919061114a565b60405180910390f35b61014a600480360381019061014591906111fa565b6104f8565b6040516101579190611236565b60405180910390f35b610168610537565b6040516101759190611251565b60405180910390f35b610186610541565b604051610193919061132a565b60405180910390f35b6101a46105cf565b005b6101ae6105e9565b6040516101bb9190611251565b60405180910390f35b6101cc6105ef565b6040516101d99190611251565b60405180910390f35b6101ea6105fc565b6040516101f79190611251565b60405180910390f35b610208610602565b604051610215919061134c565b60405180910390f35b610238600480360381019061023391906115b5565b610690565b6040516102459190611251565b60405180910390f35b61026860048036038101906102639190611074565b6107a1565b6040516102759190611701565b60405180910390f35b61029860048036038101906102939190611723565b6109d8565b005b6102b460048036038101906102af91906111fa565b610b3c565b6040516102c19190611251565b60405180910390f35b6102d2610b60565b6040516102df919061132a565b60405180910390f35b61030260048036038101906102fd9190611074565b610deb565b604051610315979695949392919061114a565b60405180910390f35b600360205280600052604060002060009150905080600001805461034190611848565b80601f016020809104026020016040519081016040528092919081815260200182805461036d90611848565b80156103ba5780601f1061038f576101008083540402835291602001916103ba565b820191906000526020600020905b81548152906001019060200180831161039d57829003601f168201915b5050505050908060010180546103cf90611848565b80601f01602080910402602001604051908101604052809291908181526020018280546103fb90611848565b80156104485780601f1061041d57610100808354040283529160200191610448565b820191906000526020600020905b81548152906001019060200180831161042b57829003601f168201915b50505050509080600201805461045d90611848565b80601f016020809104026020016040519081016040528092919081815260200182805461048990611848565b80156104d65780601f106104ab576101008083540402835291602001916104d6565b820191906000526020600020905b8154815290600101906020018083116104b957829003601f168201915b5050505050908060030154908060040154908060050154908060060154905087565b6004818154811061050857600080fd5b906000526020600020016000915054906101000a900473ffffffffffffffffffffffffffffffffffffffff1681565b6000600654905090565b606060048054806020026020016040519081016040528092919081815260200182805480156105c557602002820191906000526020600020905b8160009054906101000a900473ffffffffffffffffffffffffffffffffffffffff1673ffffffffffffffffffffffffffffffffffffffff168152602001906001019080831161057b575b5050505050905090565b600660008154809291906105e2906118a8565b9190505550565b60065481565b6000600480549050905090565b60005481565b6005805461060f90611848565b80601f016020809104026020016040519081016040528092919081815260200182805461063b90611848565b80156106885780601f1061065d57610100808354040283529160200191610688565b820191906000526020600020905b81548152906001019060200180831161066b57829003601f168201915b505050505081565b600080600090506000548360600151111580156106b2575060038360a0015111155b156107985760018360a001511180156106fc57506001808460a001516106d891906118f0565b815481106106e9576106e8611924565b5b9060005260206000200154836080015110155b156107695760646001808560a0015161071591906118f0565b8154811061072657610725611924565b5b9060005260206000200154846080015161074091906118f0565b61074a9190611953565b836060015160005461075c91906118f0565b6107669190611995565b90505b60018360a0015103610797576105dc836060015160005461078a91906118f0565b6107949190611995565b90505b5b80915050919050565b6107a9610fc5565b600260008373ffffffffffffffffffffffffffffffffffffffff1673ffffffffffffffffffffffffffffffffffffffff1681526020019081526020016000206040518060e001604052908160008201805461080390611848565b80601f016020809104026020016040519081016040528092919081815260200182805461082f90611848565b801561087c5780601f106108515761010080835404028352916020019161087c565b820191906000526020600020905b81548152906001019060200180831161085f57829003601f168201915b5050505050815260200160018201805461089590611848565b80601f01602080910402602001604051908101604052809291908181526020018280546108c190611848565b801561090e5780601f106108e35761010080835404028352916020019161090e565b820191906000526020600020905b8154815290600101906020018083116108f157829003601f168201915b5050505050815260200160028201805461092790611848565b80601f016020809104026020016040519081016040528092919081815260200182805461095390611848565b80156109a05780601f10610975576101008083540402835291602001916109a0565b820191906000526020600020905b81548152906001019060200180831161098357829003601f168201915b505050505081526020016003820154815260200160048201548152602001600582015481526020016006820154815250509050919050565b60006040518060e0016040528089815260200188815260200187815260200186815260200185815260200184815260200160008152509050610a1981610690565b8160c001818152505080600260008473ffffffffffffffffffffffffffffffffffffffff1673ffffffffffffffffffffffffffffffffffffffff1681526020019081526020016000206000820151816000019081610a779190611b75565b506020820151816001019081610a8d9190611b75565b506040820151816002019081610aa39190611b75565b50606082015181600301556080820151816004015560a0820151816005015560c082015181600601559050506004829080600181540180825580915050600190039060005260206000200160009091909190916101000a81548173ffffffffffffffffffffffffffffffffffffffff021916908373ffffffffffffffffffffffffffffffffffffffff1602179055505050505050505050565b60018181548110610b4c57600080fd5b906000526020600020016000915090505481565b606060006004805480602002602001604051908101604052809291908181526020018280548015610be657602002820191906000526020600020905b8160009054906101000a900473ffffffffffffffffffffffffffffffffffffffff1673ffffffffffffffffffffffffffffffffffffffff1681526020019060010190808311610b9c575b5050505050905060008151905060005b600182610c0391906118f0565b811015610de2576000600182610c199190611995565b90505b82811015610dce5760026000858381518110610c3b57610c3a611924565b5b602002602001015173ffffffffffffffffffffffffffffffffffffffff1673ffffffffffffffffffffffffffffffffffffffff1681526020019081526020016000206006015460026000868581518110610c9857610c97611924565b5b602002602001015173ffffffffffffffffffffffffffffffffffffffff1673ffffffffffffffffffffffffffffffffffffffff168152602001908152602001600020600601541015610dbb576000848381518110610cf957610cf8611924565b5b60200260200101519050848281518110610d1657610d15611924565b5b6020026020010151858481518110610d3157610d30611924565b5b602002602001019073ffffffffffffffffffffffffffffffffffffffff16908173ffffffffffffffffffffffffffffffffffffffff168152505080858381518110610d7f57610d7e611924565b5b602002602001019073ffffffffffffffffffffffffffffffffffffffff16908173ffffffffffffffffffffffffffffffffffffffff1681525050505b8080610dc6906118a8565b915050610c1c565b508080610dda906118a8565b915050610bf6565b50819250505090565b6002602052806000526040600020600091509050806000018054610e0e90611848565b80601f0160208091040260200160405190810160405280929190818152602001828054610e3a90611848565b8015610e875780601f10610e5c57610100808354040283529160200191610e87565b820191906000526020600020905b815481529060010190602001808311610e6a57829003601f168201915b505050505090806001018054610e9c90611848565b80601f0160208091040260200160405190810160405280929190818152602001828054610ec890611848565b8015610f155780601f10610eea57610100808354040283529160200191610f15565b820191906000526020600020905b815481529060010190602001808311610ef857829003601f168201915b505050505090806002018054610f2a90611848565b80601f0160208091040260200160405190810160405280929190818152602001828054610f5690611848565b8015610fa35780601f10610f7857610100808354040283529160200191610fa3565b820191906000526020600020905b815481529060010190602001808311610f8657829003601f168201915b5050505050908060030154908060040154908060050154908060060154905087565b6040518060e00160405280606081526020016060815260200160608152602001600081526020016000815260200160008152602001600081525090565b6000604051905090565b600080fd5b600080fd5b600073ffffffffffffffffffffffffffffffffffffffff82169050919050565b600061104182611016565b9050919050565b61105181611036565b811461105c57600080fd5b50565b60008135905061106e81611048565b92915050565b60006020828403121561108a5761108961100c565b5b60006110988482850161105f565b91505092915050565b600081519050919050565b600082825260208201905092915050565b60005b838110156110db5780820151818401526020810190506110c0565b60008484015250505050565b6000601f19601f8301169050919050565b6000611103826110a1565b61110d81856110ac565b935061111d8185602086016110bd565b611126816110e7565b840191505092915050565b6000819050919050565b61114481611131565b82525050565b600060e0820190508181036000830152611164818a6110f8565b9050818103602083015261117881896110f8565b9050818103604083015261118c81886110f8565b905061119b606083018761113b565b6111a8608083018661113b565b6111b560a083018561113b565b6111c260c083018461113b565b98975050505050505050565b6111d781611131565b81146111e257600080fd5b50565b6000813590506111f4816111ce565b92915050565b6000602082840312156112105761120f61100c565b5b600061121e848285016111e5565b91505092915050565b61123081611036565b82525050565b600060208201905061124b6000830184611227565b92915050565b6000602082019050611266600083018461113b565b92915050565b600081519050919050565b600082825260208201905092915050565b6000819050602082019050919050565b6112a181611036565b82525050565b60006112b38383611298565b60208301905092915050565b6000602082019050919050565b60006112d78261126c565b6112e18185611277565b93506112ec83611288565b8060005b8381101561131d57815161130488826112a7565b975061130f836112bf565b9250506001810190506112f0565b5085935050505092915050565b6000602082019050818103600083015261134481846112cc565b905092915050565b6000602082019050818103600083015261136681846110f8565b905092915050565b600080fd5b7f4e487b7100000000000000000000000000000000000000000000000000000000600052604160045260246000fd5b6113ab826110e7565b810181811067ffffffffffffffff821117156113ca576113c9611373565b5b80604052505050565b60006113dd611002565b90506113e982826113a2565b919050565b600080fd5b600080fd5b600080fd5b600067ffffffffffffffff82111561141857611417611373565b5b611421826110e7565b9050602081019050919050565b82818337600083830152505050565b600061145061144b846113fd565b6113d3565b90508281526020810184848401111561146c5761146b6113f8565b5b61147784828561142e565b509392505050565b600082601f830112611494576114936113f3565b5b81356114a484826020860161143d565b91505092915050565b600060e082840312156114c3576114c261136e565b5b6114cd60e06113d3565b9050600082013567ffffffffffffffff8111156114ed576114ec6113ee565b5b6114f98482850161147f565b600083015250602082013567ffffffffffffffff81111561151d5761151c6113ee565b5b6115298482850161147f565b602083015250604082013567ffffffffffffffff81111561154d5761154c6113ee565b5b6115598482850161147f565b604083015250606061156d848285016111e5565b6060830152506080611581848285016111e5565b60808301525060a0611595848285016111e5565b60a08301525060c06115a9848285016111e5565b60c08301525092915050565b6000602082840312156115cb576115ca61100c565b5b600082013567ffffffffffffffff8111156115e9576115e8611011565b5b6115f5848285016114ad565b91505092915050565b600082825260208201905092915050565b600061161a826110a1565b61162481856115fe565b93506116348185602086016110bd565b61163d816110e7565b840191505092915050565b61165181611131565b82525050565b600060e0830160008301518482036000860152611674828261160f565b9150506020830151848203602086015261168e828261160f565b915050604083015184820360408601526116a8828261160f565b91505060608301516116bd6060860182611648565b5060808301516116d06080860182611648565b5060a08301516116e360a0860182611648565b5060c08301516116f660c0860182611648565b508091505092915050565b6000602082019050818103600083015261171b8184611657565b905092915050565b600080600080600080600060e0888a0312156117425761174161100c565b5b600088013567ffffffffffffffff8111156117605761175f611011565b5b61176c8a828b0161147f565b975050602088013567ffffffffffffffff81111561178d5761178c611011565b5b6117998a828b0161147f565b965050604088013567ffffffffffffffff8111156117ba576117b9611011565b5b6117c68a828b0161147f565b95505060606117d78a828b016111e5565b94505060806117e88a828b016111e5565b93505060a06117f98a828b016111e5565b92505060c061180a8a828b0161105f565b91505092959891949750929550565b7f4e487b7100000000000000000000000000000000000000000000000000000000600052602260045260246000fd5b6000600282049050600182168061186057607f821691505b60208210810361187357611872611819565b5b50919050565b7f4e487b7100000000000000000000000000000000000000000000000000000000600052601160045260246000fd5b60006118b382611131565b91507fffffffffffffffffffffffffffffffffffffffffffffffffffffffffffffffff82036118e5576118e4611879565b5b600182019050919050565b60006118fb82611131565b915061190683611131565b925082820390508181111561191e5761191d611879565b5b92915050565b7f4e487b7100000000000000000000000000000000000000000000000000000000600052603260045260246000fd5b600061195e82611131565b915061196983611131565b925082820261197781611131565b9150828204841483151761198e5761198d611879565b5b5092915050565b60006119a082611131565b91506119ab83611131565b92508282019050808211156119c3576119c2611879565b5b92915050565b60008190508160005260206000209050919050565b60006020601f8301049050919050565b600082821b905092915050565b600060088302611a2b7fffffffffffffffffffffffffffffffffffffffffffffffffffffffffffffffff826119ee565b611a3586836119ee565b95508019841693508086168417925050509392505050565b6000819050919050565b6000611a72611a6d611a6884611131565b611a4d565b611131565b9050919050565b6000819050919050565b611a8c83611a57565b611aa0611a9882611a79565b8484546119fb565b825550505050565b600090565b611ab5611aa8565b611ac0818484611a83565b505050565b5b81811015611ae457611ad9600082611aad565b600181019050611ac6565b5050565b601f821115611b2957611afa816119c9565b611b03846119de565b81016020851015611b12578190505b611b26611b1e856119de565b830182611ac5565b50505b505050565b600082821c905092915050565b6000611b4c60001984600802611b2e565b1980831691505092915050565b6000611b658383611b3b565b9150826002028217905092915050565b611b7e826110a1565b67ffffffffffffffff811115611b9757611b96611373565b5b611ba18254611848565b611bac828285611ae8565b600060209050601f831160018114611bdf5760008415611bcd578287015190505b611bd78582611b59565b865550611c3f565b601f198416611bed866119c9565b60005b82811015611c1557848901518255600182019150602085019450602081019050611bf0565b86831015611c325784890151611c2e601f891682611b3b565b8355505b6001600288020188555050505b50505050505056fea2646970667358221220c3e58508a77fa9e41a8b5ac6ecf72447896cd7a361d416059a7b64a1afc7cdc364736f6c63430008130033",
  "immutableReferences": {},
  "source": "// SPDX-License-Identifier: MIT\npragma solidity ^0.8.0;\n\ncontract MyContract {\n\n    uint256 public ISEE_LIMIT = 23600;\n    uint256[] public CREDITS_PER_YEAR = [uint256(0), 45, 85]; //crediti richiesti per onni anno della triennale\n\n    struct Student {\n        string name;\n        string surname;\n        string taxcode;\n        uint256 isee;\n        uint256 crediti;\n        uint256 year; //supposed to go from 1 to 3 (anno della triennale per cui fai richiesta della borsa)\n        uint256 score;\n    }\n\n    mapping(address => Student) public mappingStudents;\n\n    mapping(address => Student) public rankedStudents;\n\n    address[] public keys;\n\n    string public myVariable;\n    uint256 public val = 0;\n\n    constructor(string memory initialValue) {\n        myVariable = initialValue;\n    }\n\n    function getValue() public view returns (uint256) {\n        return val;\n    }\n\n    function incrementValue() public {\n        val++;\n    }\n\n    function getKeys() public view returns (address[] memory) {\n        return keys;\n    }\n\n    function getStudent(address key) public view returns (Student memory) {\n        return mappingStudents[key];\n    }\n\n    function addStudent(\n        string memory _name,\n        string memory _surname,\n        string memory _taxcode,\n        uint256 _isee,\n        uint256 _crediti,\n        uint256 _year,\n        address key\n    ) public {\n        Student memory newStudent = Student(_name, _surname, _taxcode, _isee, _crediti, _year, uint256(0));\n        newStudent.score = computeScore(newStudent);\n        mappingStudents[key] = newStudent;\n        keys.push(key);\n    }\n\n    function getStudentCount() public view returns (uint256) {\n        return keys.length;\n    }\n\n    function computeScore(Student memory student) public view returns (uint256) {\n\n        uint256 score = 0;\n\n        if(student.isee <= ISEE_LIMIT && student.year <= 3) {\n\n            if(student.year > 1 && student.crediti >= CREDITS_PER_YEAR[student.year - 1]) {\n                score = (ISEE_LIMIT - student.isee) + (student.crediti - CREDITS_PER_YEAR[student.year - 1]) * 100;\n            }\n            if(student.year == 1) {\n                score = (ISEE_LIMIT - student.isee) + 15 * 100;\n            }\n        }\n\n        return score;\n    }\n\n    function rankStudents() public view returns (address[] memory){\n\n        address[] memory sortedArray = keys;\n        uint len = sortedArray.length;\n\n        // Order students' addresses by looking at their score\n        for (uint i = 0; i < len - 1; i++) {\n            for (uint j = i + 1; j < len; j++) {\n                if (mappingStudents[sortedArray[i]].score < mappingStudents[sortedArray[j]].score) {\n                    // Swap elements\n                    address temp = sortedArray[i];\n                    sortedArray[i] = sortedArray[j];\n                    sortedArray[j] = temp;\n                }\n            }\n        }\n\n        return sortedArray;\n    }\n\n}\n",
  "sourcePath": "/Users/paoloaliprandi/Desktop/University of Trento/Magistrale/Primo anno/secondo semestre/Blockchain/Blockchain-Project/Scholarship-master/ScholarshipServer/contracts/MyContract.sol",
  "compiler": {
    "name": "solc",
    "version": "0.8.19+commit.7dd6d404.Emscripten.clang"
  },
  "schemaVersion": "3.4.13",
  "updatedAt": "2023-06-19T13:53:36.153Z",
  "devdoc": {
    "kind": "dev",
    "methods": {},
    "version": 1
  },
  "userdoc": {
    "kind": "user",
    "methods": {},
    "version": 1
  }
}