{
  "contractName": "MyContract",
  "abi": [
    {
      "inputs": [
        {
          "internalType": "uint256",
          "name": "budget",
          "type": "uint256"
        }
      ],
      "stateMutability": "nonpayable",
      "type": "constructor"
    },
    {
      "inputs": [],
      "name": "BUDGET",
      "outputs": [
        {
          "internalType": "uint256",
          "name": "",
          "type": "uint256"
        }
      ],
      "stateMutability": "view",
      "type": "function"
    },
    {
      "inputs": [
        {
          "internalType": "uint256",
          "name": "",
          "type": "uint256"
        }
      ],
      "name": "CREDITS_PER_YEAR",
      "outputs": [
        {
          "internalType": "uint256",
          "name": "",
          "type": "uint256"
        }
      ],
      "stateMutability": "view",
      "type": "function"
    },
    {
      "inputs": [],
      "name": "ISEE_LIMIT",
      "outputs": [
        {
          "internalType": "uint256",
          "name": "",
          "type": "uint256"
        }
      ],
      "stateMutability": "view",
      "type": "function"
    },
    {
      "inputs": [
        {
          "internalType": "uint256",
          "name": "",
          "type": "uint256"
        }
      ],
      "name": "keys",
      "outputs": [
        {
          "internalType": "address",
          "name": "",
          "type": "address"
        }
      ],
      "stateMutability": "view",
      "type": "function"
    },
    {
      "inputs": [
        {
          "internalType": "address",
          "name": "",
          "type": "address"
        }
      ],
      "name": "mappingStudents",
      "outputs": [
        {
          "internalType": "uint256",
          "name": "isee",
          "type": "uint256"
        },
        {
          "internalType": "uint256",
          "name": "crediti",
          "type": "uint256"
        },
        {
          "internalType": "uint256",
          "name": "year",
          "type": "uint256"
        },
        {
          "internalType": "uint256",
          "name": "score",
          "type": "uint256"
        }
      ],
      "stateMutability": "view",
      "type": "function"
    },
    {
      "inputs": [],
      "name": "myVariable",
      "outputs": [
        {
          "internalType": "string",
          "name": "",
          "type": "string"
        }
      ],
      "stateMutability": "view",
      "type": "function"
    },
    {
      "inputs": [
        {
          "internalType": "address",
          "name": "",
          "type": "address"
        }
      ],
      "name": "rankedStudents",
      "outputs": [
        {
          "internalType": "uint256",
          "name": "isee",
          "type": "uint256"
        },
        {
          "internalType": "uint256",
          "name": "crediti",
          "type": "uint256"
        },
        {
          "internalType": "uint256",
          "name": "year",
          "type": "uint256"
        },
        {
          "internalType": "uint256",
          "name": "score",
          "type": "uint256"
        }
      ],
      "stateMutability": "view",
      "type": "function"
    },
    {
      "inputs": [],
      "name": "val",
      "outputs": [
        {
          "internalType": "uint256",
          "name": "",
          "type": "uint256"
        }
      ],
      "stateMutability": "view",
      "type": "function"
    },
    {
      "inputs": [],
      "name": "getBudget",
      "outputs": [
        {
          "internalType": "uint256",
          "name": "",
          "type": "uint256"
        }
      ],
      "stateMutability": "view",
      "type": "function"
    },
    {
      "inputs": [],
      "name": "incrementBudget",
      "outputs": [],
      "stateMutability": "nonpayable",
      "type": "function"
    },
    {
      "inputs": [],
      "name": "getKeys",
      "outputs": [
        {
          "internalType": "address[]",
          "name": "",
          "type": "address[]"
        }
      ],
      "stateMutability": "view",
      "type": "function"
    },
    {
      "inputs": [
        {
          "internalType": "address",
          "name": "key",
          "type": "address"
        }
      ],
      "name": "getStudent",
      "outputs": [
        {
          "components": [
            {
              "internalType": "uint256",
              "name": "isee",
              "type": "uint256"
            },
            {
              "internalType": "uint256",
              "name": "crediti",
              "type": "uint256"
            },
            {
              "internalType": "uint256",
              "name": "year",
              "type": "uint256"
            },
            {
              "internalType": "uint256",
              "name": "score",
              "type": "uint256"
            }
          ],
          "internalType": "struct MyContract.Student",
          "name": "",
          "type": "tuple"
        }
      ],
      "stateMutability": "view",
      "type": "function"
    },
    {
      "inputs": [
        {
          "internalType": "uint256",
          "name": "_isee",
          "type": "uint256"
        },
        {
          "internalType": "uint256",
          "name": "_crediti",
          "type": "uint256"
        },
        {
          "internalType": "uint256",
          "name": "_year",
          "type": "uint256"
        },
        {
          "internalType": "address",
          "name": "key",
          "type": "address"
        }
      ],
      "name": "addStudent",
      "outputs": [],
      "stateMutability": "nonpayable",
      "type": "function"
    },
    {
      "inputs": [],
      "name": "getStudentCount",
      "outputs": [
        {
          "internalType": "uint256",
          "name": "",
          "type": "uint256"
        }
      ],
      "stateMutability": "view",
      "type": "function"
    },
    {
      "inputs": [
        {
          "components": [
            {
              "internalType": "uint256",
              "name": "isee",
              "type": "uint256"
            },
            {
              "internalType": "uint256",
              "name": "crediti",
              "type": "uint256"
            },
            {
              "internalType": "uint256",
              "name": "year",
              "type": "uint256"
            },
            {
              "internalType": "uint256",
              "name": "score",
              "type": "uint256"
            }
          ],
          "internalType": "struct MyContract.Student",
          "name": "student",
          "type": "tuple"
        }
      ],
      "name": "computeScore",
      "outputs": [
        {
          "internalType": "uint256",
          "name": "",
          "type": "uint256"
        }
      ],
      "stateMutability": "view",
      "type": "function"
    },
    {
      "inputs": [],
      "name": "rankStudents",
      "outputs": [
        {
          "internalType": "address[]",
          "name": "",
          "type": "address[]"
        }
      ],
      "stateMutability": "view",
      "type": "function"
    }
  ],
  "bytecode": "0x6080604052615c30600055604051806060016040528060008152602001602d8152602001605581525060019060036200003a92919062000081565b5060006007553480156200004d57600080fd5b506040516200134238038062001342833981810160405281019062000073919062000132565b806002819055505062000164565b828054828255906000526020600020908101928215620000c0579160200282015b82811115620000bf578251825591602001919060010190620000a2565b5b509050620000cf9190620000d3565b5090565b5b80821115620000ee576000816000905550600101620000d4565b5090565b600080fd5b6000819050919050565b6200010c81620000f7565b81146200011857600080fd5b50565b6000815190506200012c8162000101565b92915050565b6000602082840312156200014b576200014a620000f2565b5b60006200015b848285016200011b565b91505092915050565b6111ce80620001746000396000f3fe608060405234801561001057600080fd5b50600436106101005760003560e01c80634e59ff5611610097578063e03eb24911610066578063e03eb249146102a2578063e2ff94c5146102d2578063ea8728ea146102f0578063eb63e6431461030e57610100565b80634e59ff56146102085780636b7b44d714610226578063929bf56914610256578063bf0dfd971461028657610100565b806321536493116100d357806321536493146101a45780633c6bb436146101ae57806341e0c407146101cc57806342d65b2c146101ea57610100565b80630c00aac2146101055780630cb6aaf114610138578063127714c7146101685780632150c51814610186575b600080fd5b61011f600480360381019061011a9190610b22565b610341565b60405161012f9493929190610b68565b60405180910390f35b610152600480360381019061014d9190610bd9565b610371565b60405161015f9190610c15565b60405180910390f35b6101706103b0565b60405161017d9190610c30565b60405180910390f35b61018e6103ba565b60405161019b9190610d09565b60405180910390f35b6101ac610448565b005b6101b6610462565b6040516101c39190610c30565b60405180910390f35b6101d4610468565b6040516101e19190610c30565b60405180910390f35b6101f2610475565b6040516101ff9190610c30565b60405180910390f35b61021061047b565b60405161021d9190610dbb565b60405180910390f35b610240600480360381019061023b9190610b22565b610509565b60405161024d9190610e41565b60405180910390f35b610270600480360381019061026b9190610f54565b61058a565b60405161027d9190610c30565b60405180910390f35b6102a0600480360381019061029b9190610f81565b61069b565b005b6102bc60048036038101906102b79190610bd9565b6107a8565b6040516102c99190610c30565b60405180910390f35b6102da6107cc565b6040516102e79190610c30565b60405180910390f35b6102f86107d2565b6040516103059190610d09565b60405180910390f35b61032860048036038101906103239190610b22565b610a5d565b6040516103389493929190610b68565b60405180910390f35b60046020528060005260406000206000915090508060000154908060010154908060020154908060030154905084565b6005818154811061038157600080fd5b906000526020600020016000915054906101000a900473ffffffffffffffffffffffffffffffffffffffff1681565b6000600254905090565b6060600580548060200260200160405190810160405280929190818152602001828054801561043e57602002820191906000526020600020905b8160009054906101000a900473ffffffffffffffffffffffffffffffffffffffff1673ffffffffffffffffffffffffffffffffffffffff16815260200190600101908083116103f4575b5050505050905090565b6002600081548092919061045b90611017565b9190505550565b60075481565b6000600580549050905090565b60005481565b600680546104889061108e565b80601f01602080910402602001604051908101604052809291908181526020018280546104b49061108e565b80156105015780601f106104d657610100808354040283529160200191610501565b820191906000526020600020905b8154815290600101906020018083116104e457829003601f168201915b505050505081565b610511610a8d565b600360008373ffffffffffffffffffffffffffffffffffffffff1673ffffffffffffffffffffffffffffffffffffffff1681526020019081526020016000206040518060800160405290816000820154815260200160018201548152602001600282015481526020016003820154815250509050919050565b600080600090506000548360000151111580156105ac57506003836040015111155b1561069257600183604001511180156105f6575060018084604001516105d291906110bf565b815481106105e3576105e26110f3565b5b9060005260206000200154836020015110155b15610663576064600180856040015161060f91906110bf565b815481106106205761061f6110f3565b5b9060005260206000200154846020015161063a91906110bf565b6106449190611122565b836000015160005461065691906110bf565b6106609190611164565b90505b6001836040015103610691576105dc836000015160005461068491906110bf565b61068e9190611164565b90505b5b80915050919050565b60006040518060800160405280868152602001858152602001848152602001600081525090506106ca8161058a565b81606001818152505080600360008473ffffffffffffffffffffffffffffffffffffffff1673ffffffffffffffffffffffffffffffffffffffff168152602001908152602001600020600082015181600001556020820151816001015560408201518160020155606082015181600301559050506005829080600181540180825580915050600190039060005260206000200160009091909190916101000a81548173ffffffffffffffffffffffffffffffffffffffff021916908373ffffffffffffffffffffffffffffffffffffffff1602179055505050505050565b600181815481106107b857600080fd5b906000526020600020016000915090505481565b60025481565b60606000600580548060200260200160405190810160405280929190818152602001828054801561085857602002820191906000526020600020905b8160009054906101000a900473ffffffffffffffffffffffffffffffffffffffff1673ffffffffffffffffffffffffffffffffffffffff168152602001906001019080831161080e575b5050505050905060008151905060005b60018261087591906110bf565b811015610a5457600060018261088b9190611164565b90505b82811015610a4057600360008583815181106108ad576108ac6110f3565b5b602002602001015173ffffffffffffffffffffffffffffffffffffffff1673ffffffffffffffffffffffffffffffffffffffff168152602001908152602001600020600301546003600086858151811061090a576109096110f3565b5b602002602001015173ffffffffffffffffffffffffffffffffffffffff1673ffffffffffffffffffffffffffffffffffffffff168152602001908152602001600020600301541015610a2d57600084838151811061096b5761096a6110f3565b5b60200260200101519050848281518110610988576109876110f3565b5b60200260200101518584815181106109a3576109a26110f3565b5b602002602001019073ffffffffffffffffffffffffffffffffffffffff16908173ffffffffffffffffffffffffffffffffffffffff1681525050808583815181106109f1576109f06110f3565b5b602002602001019073ffffffffffffffffffffffffffffffffffffffff16908173ffffffffffffffffffffffffffffffffffffffff1681525050505b8080610a3890611017565b91505061088e565b508080610a4c90611017565b915050610868565b50819250505090565b60036020528060005260406000206000915090508060000154908060010154908060020154908060030154905084565b6040518060800160405280600081526020016000815260200160008152602001600081525090565b6000604051905090565b600080fd5b600073ffffffffffffffffffffffffffffffffffffffff82169050919050565b6000610aef82610ac4565b9050919050565b610aff81610ae4565b8114610b0a57600080fd5b50565b600081359050610b1c81610af6565b92915050565b600060208284031215610b3857610b37610abf565b5b6000610b4684828501610b0d565b91505092915050565b6000819050919050565b610b6281610b4f565b82525050565b6000608082019050610b7d6000830187610b59565b610b8a6020830186610b59565b610b976040830185610b59565b610ba46060830184610b59565b95945050505050565b610bb681610b4f565b8114610bc157600080fd5b50565b600081359050610bd381610bad565b92915050565b600060208284031215610bef57610bee610abf565b5b6000610bfd84828501610bc4565b91505092915050565b610c0f81610ae4565b82525050565b6000602082019050610c2a6000830184610c06565b92915050565b6000602082019050610c456000830184610b59565b92915050565b600081519050919050565b600082825260208201905092915050565b6000819050602082019050919050565b610c8081610ae4565b82525050565b6000610c928383610c77565b60208301905092915050565b6000602082019050919050565b6000610cb682610c4b565b610cc08185610c56565b9350610ccb83610c67565b8060005b83811015610cfc578151610ce38882610c86565b9750610cee83610c9e565b925050600181019050610ccf565b5085935050505092915050565b60006020820190508181036000830152610d238184610cab565b905092915050565b600081519050919050565b600082825260208201905092915050565b60005b83811015610d65578082015181840152602081019050610d4a565b60008484015250505050565b6000601f19601f8301169050919050565b6000610d8d82610d2b565b610d978185610d36565b9350610da7818560208601610d47565b610db081610d71565b840191505092915050565b60006020820190508181036000830152610dd58184610d82565b905092915050565b610de681610b4f565b82525050565b608082016000820151610e026000850182610ddd565b506020820151610e156020850182610ddd565b506040820151610e286040850182610ddd565b506060820151610e3b6060850182610ddd565b50505050565b6000608082019050610e566000830184610dec565b92915050565b600080fd5b7f4e487b7100000000000000000000000000000000000000000000000000000000600052604160045260246000fd5b610e9982610d71565b810181811067ffffffffffffffff82111715610eb857610eb7610e61565b5b80604052505050565b6000610ecb610ab5565b9050610ed78282610e90565b919050565b600060808284031215610ef257610ef1610e5c565b5b610efc6080610ec1565b90506000610f0c84828501610bc4565b6000830152506020610f2084828501610bc4565b6020830152506040610f3484828501610bc4565b6040830152506060610f4884828501610bc4565b60608301525092915050565b600060808284031215610f6a57610f69610abf565b5b6000610f7884828501610edc565b91505092915050565b60008060008060808587031215610f9b57610f9a610abf565b5b6000610fa987828801610bc4565b9450506020610fba87828801610bc4565b9350506040610fcb87828801610bc4565b9250506060610fdc87828801610b0d565b91505092959194509250565b7f4e487b7100000000000000000000000000000000000000000000000000000000600052601160045260246000fd5b600061102282610b4f565b91507fffffffffffffffffffffffffffffffffffffffffffffffffffffffffffffffff820361105457611053610fe8565b5b600182019050919050565b7f4e487b7100000000000000000000000000000000000000000000000000000000600052602260045260246000fd5b600060028204905060018216806110a657607f821691505b6020821081036110b9576110b861105f565b5b50919050565b60006110ca82610b4f565b91506110d583610b4f565b92508282039050818111156110ed576110ec610fe8565b5b92915050565b7f4e487b7100000000000000000000000000000000000000000000000000000000600052603260045260246000fd5b600061112d82610b4f565b915061113883610b4f565b925082820261114681610b4f565b9150828204841483151761115d5761115c610fe8565b5b5092915050565b600061116f82610b4f565b915061117a83610b4f565b925082820190508082111561119257611191610fe8565b5b9291505056fea26469706673582212208a6a04923690236ac8298a225b60075c28c51f277e95330493d9e0d4846033fa64736f6c63430008130033",
  "immutableReferences": {},
  "source": "// SPDX-License-Identifier: MIT\npragma solidity ^0.8.0;\n\ncontract MyContract {\n\n    uint256 public ISEE_LIMIT = 23600;\n    uint256[] public CREDITS_PER_YEAR = [uint256(0), 45, 85]; //crediti richiesti per onni anno della triennale\n    uint256 public BUDGET;\n\n    struct Student {\n        uint256 isee;\n        uint256 crediti;\n        uint256 year; //supposed to go from 1 to 3 (anno della triennale per cui fai richiesta della borsa)\n        uint256 score;\n    }\n\n    mapping(address => Student) public mappingStudents;\n\n    mapping(address => Student) public rankedStudents;\n\n    address[] public keys;\n\n    string public myVariable;\n    uint256 public val = 0;\n\n    constructor(uint256 budget) {\n        BUDGET = budget;\n    }\n\n    function getBudget() public view returns (uint256) {\n        return BUDGET;\n    }\n\n    function incrementBudget() public {\n        BUDGET++;\n    }\n\n    function getKeys() public view returns (address[] memory) {\n        return keys;\n    }\n\n    function getStudent(address key) public view returns (Student memory) {\n        return mappingStudents[key];\n    }\n\n    function addStudent(\n        uint256 _isee,\n        uint256 _crediti,\n        uint256 _year,\n        address key\n    ) public {\n        Student memory newStudent = Student(_isee, _crediti, _year, uint256(0));\n        newStudent.score = computeScore(newStudent);\n        mappingStudents[key] = newStudent;\n        keys.push(key);\n    }\n\n    function getStudentCount() public view returns (uint256) {\n        return keys.length;\n    }\n\n    function computeScore(Student memory student) public view returns (uint256) {\n\n        uint256 score = 0;\n\n        if(student.isee <= ISEE_LIMIT && student.year <= 3) {\n\n            if(student.year > 1 && student.crediti >= CREDITS_PER_YEAR[student.year - 1]) {\n                score = (ISEE_LIMIT - student.isee) + (student.crediti - CREDITS_PER_YEAR[student.year - 1]) * 100;\n            }\n            if(student.year == 1) {\n                score = (ISEE_LIMIT - student.isee) + 15 * 100;\n            }\n        }\n\n        return score;\n    }\n\n    function rankStudents() public view returns (address[] memory){\n\n        address[] memory sortedArray = keys;\n        uint len = sortedArray.length;\n\n        // Order students' addresses by looking at their score\n        for (uint i = 0; i < len - 1; i++) {\n            for (uint j = i + 1; j < len; j++) {\n                if (mappingStudents[sortedArray[i]].score < mappingStudents[sortedArray[j]].score) {\n                    // Swap elements\n                    address temp = sortedArray[i];\n                    sortedArray[i] = sortedArray[j];\n                    sortedArray[j] = temp;\n                }\n            }\n        }\n\n        return sortedArray;\n    }\n\n}\n",
  "sourcePath": "/Users/paoloaliprandi/Desktop/University of Trento/Magistrale/Primo anno/secondo semestre/Blockchain/Blockchain-Project/Scholarship-master/ScholarshipServer/contracts/MyContract.sol",
  "compiler": {
    "name": "solc",
    "version": "0.8.19+commit.7dd6d404.Emscripten.clang"
  },
  "schemaVersion": "3.4.13",
  "updatedAt": "2023-06-19T17:18:15.280Z",
  "devdoc": {
    "kind": "dev",
    "methods": {},
    "version": 1
  },
  "userdoc": {
    "kind": "user",
    "methods": {},
    "version": 1
  }
}