{
  "contractName": "MyContract",
  "abi": [
    {
      "inputs": [
        {
          "internalType": "string",
          "name": "initialValue",
          "type": "string"
        }
      ],
      "stateMutability": "nonpayable",
      "type": "constructor"
    },
    {
      "inputs": [],
      "name": "myVariable",
      "outputs": [
        {
          "internalType": "string",
          "name": "",
          "type": "string"
        }
      ],
      "stateMutability": "view",
      "type": "function"
    },
    {
      "inputs": [],
      "name": "getValue",
      "outputs": [
        {
          "internalType": "uint256",
          "name": "",
          "type": "uint256"
        }
      ],
      "stateMutability": "view",
      "type": "function"
    },
    {
      "inputs": [],
      "name": "incrementValue",
      "outputs": [],
      "stateMutability": "nonpayable",
      "type": "function"
    }
  ],
  "bytecode": "0x608060405260006001553480156200001657600080fd5b50604051620008ac380380620008ac83398181016040528101906200003c9190620001e8565b80600090816200004d919062000484565b50506200056b565b6000604051905090565b600080fd5b600080fd5b600080fd5b600080fd5b6000601f19601f8301169050919050565b7f4e487b7100000000000000000000000000000000000000000000000000000000600052604160045260246000fd5b620000be8262000073565b810181811067ffffffffffffffff82111715620000e057620000df62000084565b5b80604052505050565b6000620000f562000055565b9050620001038282620000b3565b919050565b600067ffffffffffffffff82111562000126576200012562000084565b5b620001318262000073565b9050602081019050919050565b60005b838110156200015e57808201518184015260208101905062000141565b60008484015250505050565b6000620001816200017b8462000108565b620000e9565b905082815260208101848484011115620001a0576200019f6200006e565b5b620001ad8482856200013e565b509392505050565b600082601f830112620001cd57620001cc62000069565b5b8151620001df8482602086016200016a565b91505092915050565b6000602082840312156200020157620002006200005f565b5b600082015167ffffffffffffffff81111562000222576200022162000064565b5b6200023084828501620001b5565b91505092915050565b600081519050919050565b7f4e487b7100000000000000000000000000000000000000000000000000000000600052602260045260246000fd5b600060028204905060018216806200028c57607f821691505b602082108103620002a257620002a162000244565b5b50919050565b60008190508160005260206000209050919050565b60006020601f8301049050919050565b600082821b905092915050565b6000600883026200030c7fffffffffffffffffffffffffffffffffffffffffffffffffffffffffffffffff82620002cd565b620003188683620002cd565b95508019841693508086168417925050509392505050565b6000819050919050565b6000819050919050565b6000620003656200035f620003598462000330565b6200033a565b62000330565b9050919050565b6000819050919050565b620003818362000344565b6200039962000390826200036c565b848454620002da565b825550505050565b600090565b620003b0620003a1565b620003bd81848462000376565b505050565b5b81811015620003e557620003d9600082620003a6565b600181019050620003c3565b5050565b601f8211156200043457620003fe81620002a8565b6200040984620002bd565b8101602085101562000419578190505b620004316200042885620002bd565b830182620003c2565b50505b505050565b600082821c905092915050565b6000620004596000198460080262000439565b1980831691505092915050565b600062000474838362000446565b9150826002028217905092915050565b6200048f8262000239565b67ffffffffffffffff811115620004ab57620004aa62000084565b5b620004b7825462000273565b620004c4828285620003e9565b600060209050601f831160018114620004fc5760008415620004e7578287015190505b620004f3858262000466565b86555062000563565b601f1984166200050c86620002a8565b60005b8281101562000536578489015182556001820191506020850194506020810190506200050f565b8683101562000556578489015162000552601f89168262000446565b8355505b6001600288020188555050505b505050505050565b610331806200057b6000396000f3fe608060405234801561001057600080fd5b50600436106100415760003560e01c806320965255146100465780633bfd7fd3146100645780634e59ff561461006e575b600080fd5b61004e61008c565b60405161005b9190610157565b60405180910390f35b61006c610096565b005b6100766100b0565b6040516100839190610202565b60405180910390f35b6000600154905090565b600160008154809291906100a990610253565b9190505550565b600080546100bd906102ca565b80601f01602080910402602001604051908101604052809291908181526020018280546100e9906102ca565b80156101365780601f1061010b57610100808354040283529160200191610136565b820191906000526020600020905b81548152906001019060200180831161011957829003601f168201915b505050505081565b6000819050919050565b6101518161013e565b82525050565b600060208201905061016c6000830184610148565b92915050565b600081519050919050565b600082825260208201905092915050565b60005b838110156101ac578082015181840152602081019050610191565b60008484015250505050565b6000601f19601f8301169050919050565b60006101d482610172565b6101de818561017d565b93506101ee81856020860161018e565b6101f7816101b8565b840191505092915050565b6000602082019050818103600083015261021c81846101c9565b905092915050565b7f4e487b7100000000000000000000000000000000000000000000000000000000600052601160045260246000fd5b600061025e8261013e565b91507fffffffffffffffffffffffffffffffffffffffffffffffffffffffffffffffff82036102905761028f610224565b5b600182019050919050565b7f4e487b7100000000000000000000000000000000000000000000000000000000600052602260045260246000fd5b600060028204905060018216806102e257607f821691505b6020821081036102f5576102f461029b565b5b5091905056fea2646970667358221220b783cbcc83f962141040eeabf4cfa6fc031c793838f3e4bc35a0c3fd5d6cd0f064736f6c63430008130033",
  "immutableReferences": {},
  "source": "// SPDX-License-Identifier: MIT\npragma solidity ^0.8.0;\n\ncontract MyContract {\n    string public myVariable;\n    uint256  val=0;\n    constructor(string memory initialValue) {\n        myVariable = initialValue;\n    }\n\n    function getValue() public view returns (uint256) {\n      return val;\n    }\n\n    function incrementValue() public {\n      val++;\n    }\n}\n",
  "sourcePath": "/Users/paoloaliprandi/Desktop/University of Trento/Magistrale/Primo anno/secondo semestre/Blockchain/Blockchain-Project/contracts/MyContract.sol",
  "compiler": {
    "name": "solc",
    "version": "0.8.19+commit.7dd6d404.Emscripten.clang"
  },
  "schemaVersion": "3.4.13",
  "updatedAt": "2023-05-30T15:42:23.435Z",
  "devdoc": {
    "kind": "dev",
    "methods": {},
    "version": 1
  },
  "userdoc": {
    "kind": "user",
    "methods": {},
    "version": 1
  }
}