{
  "contractName": "MyContract",
  "abi": [
    {
      "inputs": [
        {
          "internalType": "string",
          "name": "initialValue",
          "type": "string"
        }
      ],
      "stateMutability": "nonpayable",
      "type": "constructor"
    },
    {
      "inputs": [
        {
          "internalType": "uint256",
          "name": "",
          "type": "uint256"
        }
      ],
      "name": "keys",
      "outputs": [
        {
          "internalType": "address",
          "name": "",
          "type": "address"
        }
      ],
      "stateMutability": "view",
      "type": "function"
    },
    {
      "inputs": [
        {
          "internalType": "address",
          "name": "",
          "type": "address"
        }
      ],
      "name": "mappingStudents",
      "outputs": [
        {
          "internalType": "string",
          "name": "name",
          "type": "string"
        },
        {
          "internalType": "string",
          "name": "surname",
          "type": "string"
        },
        {
          "internalType": "string",
          "name": "taxcode",
          "type": "string"
        },
        {
          "internalType": "uint256",
          "name": "isee",
          "type": "uint256"
        },
        {
          "internalType": "uint256",
          "name": "crediti",
          "type": "uint256"
        }
      ],
      "stateMutability": "view",
      "type": "function"
    },
    {
      "inputs": [],
      "name": "myVariable",
      "outputs": [
        {
          "internalType": "string",
          "name": "",
          "type": "string"
        }
      ],
      "stateMutability": "view",
      "type": "function"
    },
    {
      "inputs": [
        {
          "internalType": "address",
          "name": "",
          "type": "address"
        }
      ],
      "name": "rankedStudents",
      "outputs": [
        {
          "internalType": "string",
          "name": "name",
          "type": "string"
        },
        {
          "internalType": "string",
          "name": "surname",
          "type": "string"
        },
        {
          "internalType": "string",
          "name": "taxcode",
          "type": "string"
        },
        {
          "internalType": "uint256",
          "name": "isee",
          "type": "uint256"
        },
        {
          "internalType": "uint256",
          "name": "crediti",
          "type": "uint256"
        }
      ],
      "stateMutability": "view",
      "type": "function"
    },
    {
      "inputs": [],
      "name": "val",
      "outputs": [
        {
          "internalType": "uint256",
          "name": "",
          "type": "uint256"
        }
      ],
      "stateMutability": "view",
      "type": "function"
    },
    {
      "inputs": [],
      "name": "getValue",
      "outputs": [
        {
          "internalType": "uint256",
          "name": "",
          "type": "uint256"
        }
      ],
      "stateMutability": "view",
      "type": "function"
    },
    {
      "inputs": [],
      "name": "incrementValue",
      "outputs": [],
      "stateMutability": "nonpayable",
      "type": "function"
    },
    {
      "inputs": [],
      "name": "getKeys",
      "outputs": [
        {
          "internalType": "address[]",
          "name": "",
          "type": "address[]"
        }
      ],
      "stateMutability": "view",
      "type": "function"
    },
    {
      "inputs": [
        {
          "internalType": "address",
          "name": "key",
          "type": "address"
        }
      ],
      "name": "getStudent",
      "outputs": [
        {
          "components": [
            {
              "internalType": "string",
              "name": "name",
              "type": "string"
            },
            {
              "internalType": "string",
              "name": "surname",
              "type": "string"
            },
            {
              "internalType": "string",
              "name": "taxcode",
              "type": "string"
            },
            {
              "internalType": "uint256",
              "name": "isee",
              "type": "uint256"
            },
            {
              "internalType": "uint256",
              "name": "crediti",
              "type": "uint256"
            }
          ],
          "internalType": "struct MyContract.Student",
          "name": "",
          "type": "tuple"
        }
      ],
      "stateMutability": "view",
      "type": "function"
    },
    {
      "inputs": [
        {
          "internalType": "string",
          "name": "_name",
          "type": "string"
        },
        {
          "internalType": "string",
          "name": "_surname",
          "type": "string"
        },
        {
          "internalType": "string",
          "name": "_taxcode",
          "type": "string"
        },
        {
          "internalType": "uint256",
          "name": "_isee",
          "type": "uint256"
        },
        {
          "internalType": "uint256",
          "name": "_crediti",
          "type": "uint256"
        },
        {
          "internalType": "address",
          "name": "key",
          "type": "address"
        }
      ],
      "name": "addStudent",
      "outputs": [],
      "stateMutability": "nonpayable",
      "type": "function"
    },
    {
      "inputs": [],
      "name": "getStudentCount",
      "outputs": [
        {
          "internalType": "uint256",
          "name": "",
          "type": "uint256"
        }
      ],
      "stateMutability": "view",
      "type": "function"
    },
    {
      "inputs": [],
      "name": "rankStudents",
      "outputs": [
        {
          "internalType": "uint256",
          "name": "",
          "type": "uint256"
        }
      ],
      "stateMutability": "nonpayable",
      "type": "function"
    }
  ],
  "bytecode": "0x608060405260006004553480156200001657600080fd5b50604051620022253803806200222583398181016040528101906200003c9190620001e8565b80600390816200004d919062000484565b50506200056b565b6000604051905090565b600080fd5b600080fd5b600080fd5b600080fd5b6000601f19601f8301169050919050565b7f4e487b7100000000000000000000000000000000000000000000000000000000600052604160045260246000fd5b620000be8262000073565b810181811067ffffffffffffffff82111715620000e057620000df62000084565b5b80604052505050565b6000620000f562000055565b9050620001038282620000b3565b919050565b600067ffffffffffffffff82111562000126576200012562000084565b5b620001318262000073565b9050602081019050919050565b60005b838110156200015e57808201518184015260208101905062000141565b60008484015250505050565b6000620001816200017b8462000108565b620000e9565b905082815260208101848484011115620001a0576200019f6200006e565b5b620001ad8482856200013e565b509392505050565b600082601f830112620001cd57620001cc62000069565b5b8151620001df8482602086016200016a565b91505092915050565b6000602082840312156200020157620002006200005f565b5b600082015167ffffffffffffffff81111562000222576200022162000064565b5b6200023084828501620001b5565b91505092915050565b600081519050919050565b7f4e487b7100000000000000000000000000000000000000000000000000000000600052602260045260246000fd5b600060028204905060018216806200028c57607f821691505b602082108103620002a257620002a162000244565b5b50919050565b60008190508160005260206000209050919050565b60006020601f8301049050919050565b600082821b905092915050565b6000600883026200030c7fffffffffffffffffffffffffffffffffffffffffffffffffffffffffffffffff82620002cd565b620003188683620002cd565b95508019841693508086168417925050509392505050565b6000819050919050565b6000819050919050565b6000620003656200035f620003598462000330565b6200033a565b62000330565b9050919050565b6000819050919050565b620003818362000344565b6200039962000390826200036c565b848454620002da565b825550505050565b600090565b620003b0620003a1565b620003bd81848462000376565b505050565b5b81811015620003e557620003d9600082620003a6565b600181019050620003c3565b5050565b601f8211156200043457620003fe81620002a8565b6200040984620002bd565b8101602085101562000419578190505b620004316200042885620002bd565b830182620003c2565b50505b505050565b600082821c905092915050565b6000620004596000198460080262000439565b1980831691505092915050565b600062000474838362000446565b9150826002028217905092915050565b6200048f8262000239565b67ffffffffffffffff811115620004ab57620004aa62000084565b5b620004b7825462000273565b620004c4828285620003e9565b600060209050601f831160018114620004fc5760008415620004e7578287015190505b620004f3858262000466565b86555062000563565b601f1984166200050c86620002a8565b60005b8281101562000536578489015182556001820191506020850194506020810190506200050f565b8683101562000556578489015162000552601f89168262000446565b8355505b6001600288020188555050505b505050505050565b611caa806200057b6000396000f3fe608060405234801561001057600080fd5b50600436106100b45760003560e01c806341e0c4071161007157806341e0c407146101815780634e59ff561461019f5780636b7b44d7146101bd57806377169fad146101ed578063ea8728ea14610209578063eb63e64314610227576100b4565b80630c00aac2146100b95780630cb6aaf1146100ed578063209652551461011d5780632150c5181461013b5780633bfd7fd3146101595780633c6bb43614610163575b600080fd5b6100d360048036038101906100ce9190611197565b61025b565b6040516100e495949392919061126d565b60405180910390f35b61010760048036038101906101029190611301565b610429565b604051610114919061133d565b60405180910390f35b610125610468565b6040516101329190611358565b60405180910390f35b610143610472565b6040516101509190611431565b60405180910390f35b610161610500565b005b61016b61051a565b6040516101789190611358565b60405180910390f35b610189610520565b6040516101969190611358565b60405180910390f35b6101a761052d565b6040516101b49190611453565b60405180910390f35b6101d760048036038101906101d29190611197565b6105bb565b6040516101e49190611552565b60405180910390f35b610207600480360381019061020291906116a9565b6107dd565b005b61021161090c565b60405161021e9190611358565b60405180910390f35b610241600480360381019061023c9190611197565b610f28565b60405161025295949392919061126d565b60405180910390f35b600160205280600052604060002060009150905080600001805461027e906117b9565b80601f01602080910402602001604051908101604052809291908181526020018280546102aa906117b9565b80156102f75780601f106102cc576101008083540402835291602001916102f7565b820191906000526020600020905b8154815290600101906020018083116102da57829003601f168201915b50505050509080600101805461030c906117b9565b80601f0160208091040260200160405190810160405280929190818152602001828054610338906117b9565b80156103855780601f1061035a57610100808354040283529160200191610385565b820191906000526020600020905b81548152906001019060200180831161036857829003601f168201915b50505050509080600201805461039a906117b9565b80601f01602080910402602001604051908101604052809291908181526020018280546103c6906117b9565b80156104135780601f106103e857610100808354040283529160200191610413565b820191906000526020600020905b8154815290600101906020018083116103f657829003601f168201915b5050505050908060030154908060040154905085565b6002818154811061043957600080fd5b906000526020600020016000915054906101000a900473ffffffffffffffffffffffffffffffffffffffff1681565b6000600454905090565b606060028054806020026020016040519081016040528092919081815260200182805480156104f657602002820191906000526020600020905b8160009054906101000a900473ffffffffffffffffffffffffffffffffffffffff1673ffffffffffffffffffffffffffffffffffffffff16815260200190600101908083116104ac575b5050505050905090565b6004600081548092919061051390611819565b9190505550565b60045481565b6000600280549050905090565b6003805461053a906117b9565b80601f0160208091040260200160405190810160405280929190818152602001828054610566906117b9565b80156105b35780601f10610588576101008083540402835291602001916105b3565b820191906000526020600020905b81548152906001019060200180831161059657829003601f168201915b505050505081565b6105c36110f6565b6000808373ffffffffffffffffffffffffffffffffffffffff1673ffffffffffffffffffffffffffffffffffffffff1681526020019081526020016000206040518060a001604052908160008201805461061c906117b9565b80601f0160208091040260200160405190810160405280929190818152602001828054610648906117b9565b80156106955780601f1061066a57610100808354040283529160200191610695565b820191906000526020600020905b81548152906001019060200180831161067857829003601f168201915b505050505081526020016001820180546106ae906117b9565b80601f01602080910402602001604051908101604052809291908181526020018280546106da906117b9565b80156107275780601f106106fc57610100808354040283529160200191610727565b820191906000526020600020905b81548152906001019060200180831161070a57829003601f168201915b50505050508152602001600282018054610740906117b9565b80601f016020809104026020016040519081016040528092919081815260200182805461076c906117b9565b80156107b95780601f1061078e576101008083540402835291602001916107b9565b820191906000526020600020905b81548152906001019060200180831161079c57829003601f168201915b50505050508152602001600382015481526020016004820154815250509050919050565b60006040518060a00160405280888152602001878152602001868152602001858152602001848152509050806000808473ffffffffffffffffffffffffffffffffffffffff1673ffffffffffffffffffffffffffffffffffffffff168152602001908152602001600020600082015181600001908161085c9190611a0d565b5060208201518160010190816108729190611a0d565b5060408201518160020190816108889190611a0d565b5060608201518160030155608082015181600401559050506002829080600181540180825580915050600190039060005260206000200160009091909190916101000a81548173ffffffffffffffffffffffffffffffffffffffff021916908373ffffffffffffffffffffffffffffffffffffffff16021790555050505050505050565b600080600090505b60016002805490506109269190611adf565b811015610f205760005b6001826002805490506109439190611adf565b61094d9190611adf565b811015610f0c5760008060026001846109669190611b13565b8154811061097757610976611b47565b5b9060005260206000200160009054906101000a900473ffffffffffffffffffffffffffffffffffffffff1673ffffffffffffffffffffffffffffffffffffffff1673ffffffffffffffffffffffffffffffffffffffff16815260200190815260200160002060030154600080600284815481106109f7576109f6611b47565b5b9060005260206000200160009054906101000a900473ffffffffffffffffffffffffffffffffffffffff1673ffffffffffffffffffffffffffffffffffffffff1673ffffffffffffffffffffffffffffffffffffffff168152602001908152602001600020600301541115610ef957600080600060028481548110610a7f57610a7e611b47565b5b9060005260206000200160009054906101000a900473ffffffffffffffffffffffffffffffffffffffff1673ffffffffffffffffffffffffffffffffffffffff1673ffffffffffffffffffffffffffffffffffffffff1681526020019081526020016000206040518060a0016040529081600082018054610aff906117b9565b80601f0160208091040260200160405190810160405280929190818152602001828054610b2b906117b9565b8015610b785780601f10610b4d57610100808354040283529160200191610b78565b820191906000526020600020905b815481529060010190602001808311610b5b57829003601f168201915b50505050508152602001600182018054610b91906117b9565b80601f0160208091040260200160405190810160405280929190818152602001828054610bbd906117b9565b8015610c0a5780601f10610bdf57610100808354040283529160200191610c0a565b820191906000526020600020905b815481529060010190602001808311610bed57829003601f168201915b50505050508152602001600282018054610c23906117b9565b80601f0160208091040260200160405190810160405280929190818152602001828054610c4f906117b9565b8015610c9c5780601f10610c7157610100808354040283529160200191610c9c565b820191906000526020600020905b815481529060010190602001808311610c7f57829003601f168201915b505050505081526020016003820154815260200160048201548152505090506000806002600185610ccd9190611b13565b81548110610cde57610cdd611b47565b5b9060005260206000200160009054906101000a900473ffffffffffffffffffffffffffffffffffffffff1673ffffffffffffffffffffffffffffffffffffffff1673ffffffffffffffffffffffffffffffffffffffff16815260200190815260200160002060008060028581548110610d5a57610d59611b47565b5b9060005260206000200160009054906101000a900473ffffffffffffffffffffffffffffffffffffffff1673ffffffffffffffffffffffffffffffffffffffff1673ffffffffffffffffffffffffffffffffffffffff16815260200190815260200160002060008201816000019081610dd39190611b8c565b5060018201816001019081610de89190611b8c565b5060028201816002019081610dfd9190611b8c565b506003820154816003015560048201548160040155905050806000806002600186610e289190611b13565b81548110610e3957610e38611b47565b5b9060005260206000200160009054906101000a900473ffffffffffffffffffffffffffffffffffffffff1673ffffffffffffffffffffffffffffffffffffffff1673ffffffffffffffffffffffffffffffffffffffff1681526020019081526020016000206000820151816000019081610eb39190611a0d565b506020820151816001019081610ec99190611a0d565b506040820151816002019081610edf9190611a0d565b506060820151816003015560808201518160040155905050505b8080610f0490611819565b915050610930565b508080610f1890611819565b915050610914565b506000905090565b6000602052806000526040600020600091509050806000018054610f4b906117b9565b80601f0160208091040260200160405190810160405280929190818152602001828054610f77906117b9565b8015610fc45780601f10610f9957610100808354040283529160200191610fc4565b820191906000526020600020905b815481529060010190602001808311610fa757829003601f168201915b505050505090806001018054610fd9906117b9565b80601f0160208091040260200160405190810160405280929190818152602001828054611005906117b9565b80156110525780601f1061102757610100808354040283529160200191611052565b820191906000526020600020905b81548152906001019060200180831161103557829003601f168201915b505050505090806002018054611067906117b9565b80601f0160208091040260200160405190810160405280929190818152602001828054611093906117b9565b80156110e05780601f106110b5576101008083540402835291602001916110e0565b820191906000526020600020905b8154815290600101906020018083116110c357829003601f168201915b5050505050908060030154908060040154905085565b6040518060a0016040528060608152602001606081526020016060815260200160008152602001600081525090565b6000604051905090565b600080fd5b600080fd5b600073ffffffffffffffffffffffffffffffffffffffff82169050919050565b600061116482611139565b9050919050565b61117481611159565b811461117f57600080fd5b50565b6000813590506111918161116b565b92915050565b6000602082840312156111ad576111ac61112f565b5b60006111bb84828501611182565b91505092915050565b600081519050919050565b600082825260208201905092915050565b60005b838110156111fe5780820151818401526020810190506111e3565b60008484015250505050565b6000601f19601f8301169050919050565b6000611226826111c4565b61123081856111cf565b93506112408185602086016111e0565b6112498161120a565b840191505092915050565b6000819050919050565b61126781611254565b82525050565b600060a0820190508181036000830152611287818861121b565b9050818103602083015261129b818761121b565b905081810360408301526112af818661121b565b90506112be606083018561125e565b6112cb608083018461125e565b9695505050505050565b6112de81611254565b81146112e957600080fd5b50565b6000813590506112fb816112d5565b92915050565b6000602082840312156113175761131661112f565b5b6000611325848285016112ec565b91505092915050565b61133781611159565b82525050565b6000602082019050611352600083018461132e565b92915050565b600060208201905061136d600083018461125e565b92915050565b600081519050919050565b600082825260208201905092915050565b6000819050602082019050919050565b6113a881611159565b82525050565b60006113ba838361139f565b60208301905092915050565b6000602082019050919050565b60006113de82611373565b6113e8818561137e565b93506113f38361138f565b8060005b8381101561142457815161140b88826113ae565b9750611416836113c6565b9250506001810190506113f7565b5085935050505092915050565b6000602082019050818103600083015261144b81846113d3565b905092915050565b6000602082019050818103600083015261146d818461121b565b905092915050565b600082825260208201905092915050565b6000611491826111c4565b61149b8185611475565b93506114ab8185602086016111e0565b6114b48161120a565b840191505092915050565b6114c881611254565b82525050565b600060a08301600083015184820360008601526114eb8282611486565b915050602083015184820360208601526115058282611486565b9150506040830151848203604086015261151f8282611486565b915050606083015161153460608601826114bf565b50608083015161154760808601826114bf565b508091505092915050565b6000602082019050818103600083015261156c81846114ce565b905092915050565b600080fd5b600080fd5b7f4e487b7100000000000000000000000000000000000000000000000000000000600052604160045260246000fd5b6115b68261120a565b810181811067ffffffffffffffff821117156115d5576115d461157e565b5b80604052505050565b60006115e8611125565b90506115f482826115ad565b919050565b600067ffffffffffffffff8211156116145761161361157e565b5b61161d8261120a565b9050602081019050919050565b82818337600083830152505050565b600061164c611647846115f9565b6115de565b90508281526020810184848401111561166857611667611579565b5b61167384828561162a565b509392505050565b600082601f8301126116905761168f611574565b5b81356116a0848260208601611639565b91505092915050565b60008060008060008060c087890312156116c6576116c561112f565b5b600087013567ffffffffffffffff8111156116e4576116e3611134565b5b6116f089828a0161167b565b965050602087013567ffffffffffffffff81111561171157611710611134565b5b61171d89828a0161167b565b955050604087013567ffffffffffffffff81111561173e5761173d611134565b5b61174a89828a0161167b565b945050606061175b89828a016112ec565b935050608061176c89828a016112ec565b92505060a061177d89828a01611182565b9150509295509295509295565b7f4e487b7100000000000000000000000000000000000000000000000000000000600052602260045260246000fd5b600060028204905060018216806117d157607f821691505b6020821081036117e4576117e361178a565b5b50919050565b7f4e487b7100000000000000000000000000000000000000000000000000000000600052601160045260246000fd5b600061182482611254565b91507fffffffffffffffffffffffffffffffffffffffffffffffffffffffffffffffff8203611856576118556117ea565b5b600182019050919050565b60008190508160005260206000209050919050565b60006020601f8301049050919050565b600082821b905092915050565b6000600883026118c37fffffffffffffffffffffffffffffffffffffffffffffffffffffffffffffffff82611886565b6118cd8683611886565b95508019841693508086168417925050509392505050565b6000819050919050565b600061190a61190561190084611254565b6118e5565b611254565b9050919050565b6000819050919050565b611924836118ef565b61193861193082611911565b848454611893565b825550505050565b600090565b61194d611940565b61195881848461191b565b505050565b5b8181101561197c57611971600082611945565b60018101905061195e565b5050565b601f8211156119c15761199281611861565b61199b84611876565b810160208510156119aa578190505b6119be6119b685611876565b83018261195d565b50505b505050565b600082821c905092915050565b60006119e4600019846008026119c6565b1980831691505092915050565b60006119fd83836119d3565b9150826002028217905092915050565b611a16826111c4565b67ffffffffffffffff811115611a2f57611a2e61157e565b5b611a3982546117b9565b611a44828285611980565b600060209050601f831160018114611a775760008415611a65578287015190505b611a6f85826119f1565b865550611ad7565b601f198416611a8586611861565b60005b82811015611aad57848901518255600182019150602085019450602081019050611a88565b86831015611aca5784890151611ac6601f8916826119d3565b8355505b6001600288020188555050505b505050505050565b6000611aea82611254565b9150611af583611254565b9250828203905081811115611b0d57611b0c6117ea565b5b92915050565b6000611b1e82611254565b9150611b2983611254565b9250828201905080821115611b4157611b406117ea565b5b92915050565b7f4e487b7100000000000000000000000000000000000000000000000000000000600052603260045260246000fd5b600081549050611b85816117b9565b9050919050565b818103611b9a575050611c72565b611ba382611b76565b67ffffffffffffffff811115611bbc57611bbb61157e565b5b611bc682546117b9565b611bd1828285611980565b6000601f831160018114611c005760008415611bee578287015490505b611bf885826119f1565b865550611c6b565b601f198416611c0e87611861565b9650611c1986611861565b60005b82811015611c4157848901548255600182019150600185019450602081019050611c1c565b86831015611c5e5784890154611c5a601f8916826119d3565b8355505b6001600288020188555050505b5050505050505b56fea2646970667358221220364c01b12120d5f1e257dedff93622617e0002ba9633746bd898aef34e65145b64736f6c63430008130033",
  "immutableReferences": {},
  "source": "// SPDX-License-Identifier: MIT\npragma solidity ^0.8.0;\n\ncontract MyContract {\n\n    struct Student {\n        string name;\n        string surname;\n        string taxcode;\n        uint isee;\n        uint crediti;\n    }\n\n    mapping(address => Student) public mappingStudents;\n\n    mapping(address => Student) public rankedStudents;\n\n    address[] public keys;\n\n    string public myVariable;\n    uint256 public val = 0;\n\n    constructor(string memory initialValue) {\n        myVariable = initialValue;\n    }\n\n    function getValue() public view returns (uint256) {\n        return val;\n    }\n\n    function incrementValue() public {\n        val++;\n    }\n\n    function getKeys() public view returns (address[] memory) {\n        return keys;\n    }\n\n    function getStudent(address key) public view returns (Student memory) {\n        return mappingStudents[key];\n    }\n\n    function addStudent(\n    string memory _name,\n    string memory _surname,\n    string memory _taxcode,\n    uint256 _isee,\n    uint256 _crediti,\n    address key\n    ) public {\n    Student memory newStudent = Student(_name,_surname,_taxcode,_isee,_crediti);\n\n        mappingStudents[key] = newStudent;\n        keys.push(key);\n\n    }\n\n    function getStudentCount() public view returns (uint256) {\n        return keys.length;\n    }\n\n    function rankStudents() public returns (uint256) {\n\n        // Perform sorting based on the parameter (ascending order)\n        for (uint256 i = 0; i < keys.length - 1; i++) {\n            for (uint256 j = 0; j < keys.length - i - 1; j++) {\n                if (mappingStudents[keys[j]].isee > mappingStudents[keys[j + 1]].isee) {\n                    // Swap the positions\n                    Student memory temp = mappingStudents[keys[j]];\n                    mappingStudents[keys[j]] = mappingStudents[keys[j + 1]];\n                    mappingStudents[keys[j + 1]] = temp;\n                }\n            }\n        }\n\n        return 0;\n    }\n\n\n}\n",
  "sourcePath": "/Users/paoloaliprandi/Desktop/University of Trento/Magistrale/Primo anno/secondo semestre/Blockchain/Blockchain-Project/contracts/MyContract.sol",
  "compiler": {
    "name": "solc",
    "version": "0.8.19+commit.7dd6d404.Emscripten.clang"
  },
  "schemaVersion": "3.4.13",
  "updatedAt": "2023-06-15T10:19:16.686Z",
  "devdoc": {
    "kind": "dev",
    "methods": {},
    "version": 1
  },
  "userdoc": {
    "kind": "user",
    "methods": {},
    "version": 1
  }
}