{
  "contractName": "MyContract",
  "abi": [
    {
      "inputs": [
        {
          "internalType": "string",
          "name": "initialValue",
          "type": "string"
        }
      ],
      "stateMutability": "nonpayable",
      "type": "constructor"
    },
    {
      "inputs": [
        {
          "internalType": "address",
          "name": "",
          "type": "address"
        }
      ],
      "name": "mappingStudent",
      "outputs": [
        {
          "internalType": "string",
          "name": "name",
          "type": "string"
        },
        {
          "internalType": "string",
          "name": "surname",
          "type": "string"
        },
        {
          "internalType": "string",
          "name": "taxcode",
          "type": "string"
        },
        {
          "internalType": "uint256",
          "name": "isee",
          "type": "uint256"
        },
        {
          "internalType": "uint256",
          "name": "crediti",
          "type": "uint256"
        }
      ],
      "stateMutability": "view",
      "type": "function"
    },
    {
      "inputs": [],
      "name": "myVariable",
      "outputs": [
        {
          "internalType": "string",
          "name": "",
          "type": "string"
        }
      ],
      "stateMutability": "view",
      "type": "function"
    },
    {
      "inputs": [],
      "name": "val",
      "outputs": [
        {
          "internalType": "uint256",
          "name": "",
          "type": "uint256"
        }
      ],
      "stateMutability": "view",
      "type": "function"
    },
    {
      "inputs": [],
      "name": "getValue",
      "outputs": [
        {
          "internalType": "uint256",
          "name": "",
          "type": "uint256"
        }
      ],
      "stateMutability": "view",
      "type": "function"
    },
    {
      "inputs": [],
      "name": "incrementValue",
      "outputs": [],
      "stateMutability": "nonpayable",
      "type": "function"
    },
    {
      "inputs": [
        {
          "internalType": "string",
          "name": "_name",
          "type": "string"
        },
        {
          "internalType": "string",
          "name": "_surname",
          "type": "string"
        },
        {
          "internalType": "string",
          "name": "_taxcode",
          "type": "string"
        },
        {
          "internalType": "uint256",
          "name": "_isee",
          "type": "uint256"
        },
        {
          "internalType": "uint256",
          "name": "_crediti",
          "type": "uint256"
        },
        {
          "internalType": "address",
          "name": "_address",
          "type": "address"
        }
      ],
      "name": "addStudent",
      "outputs": [],
      "stateMutability": "nonpayable",
      "type": "function"
    },
    {
      "inputs": [
        {
          "internalType": "address",
          "name": "index",
          "type": "address"
        }
      ],
      "name": "getArrayValue",
      "outputs": [
        {
          "components": [
            {
              "internalType": "string",
              "name": "name",
              "type": "string"
            },
            {
              "internalType": "string",
              "name": "surname",
              "type": "string"
            },
            {
              "internalType": "string",
              "name": "taxcode",
              "type": "string"
            },
            {
              "internalType": "uint256",
              "name": "isee",
              "type": "uint256"
            },
            {
              "internalType": "uint256",
              "name": "crediti",
              "type": "uint256"
            }
          ],
          "internalType": "struct MyContract.Student",
          "name": "",
          "type": "tuple"
        }
      ],
      "stateMutability": "view",
      "type": "function"
    }
  ],
  "bytecode": "0x608060405260006002553480156200001657600080fd5b506040516200153d3803806200153d83398181016040528101906200003c9190620001e8565b80600190816200004d919062000484565b50506200056b565b6000604051905090565b600080fd5b600080fd5b600080fd5b600080fd5b6000601f19601f8301169050919050565b7f4e487b7100000000000000000000000000000000000000000000000000000000600052604160045260246000fd5b620000be8262000073565b810181811067ffffffffffffffff82111715620000e057620000df62000084565b5b80604052505050565b6000620000f562000055565b9050620001038282620000b3565b919050565b600067ffffffffffffffff82111562000126576200012562000084565b5b620001318262000073565b9050602081019050919050565b60005b838110156200015e57808201518184015260208101905062000141565b60008484015250505050565b6000620001816200017b8462000108565b620000e9565b905082815260208101848484011115620001a0576200019f6200006e565b5b620001ad8482856200013e565b509392505050565b600082601f830112620001cd57620001cc62000069565b5b8151620001df8482602086016200016a565b91505092915050565b6000602082840312156200020157620002006200005f565b5b600082015167ffffffffffffffff81111562000222576200022162000064565b5b6200023084828501620001b5565b91505092915050565b600081519050919050565b7f4e487b7100000000000000000000000000000000000000000000000000000000600052602260045260246000fd5b600060028204905060018216806200028c57607f821691505b602082108103620002a257620002a162000244565b5b50919050565b60008190508160005260206000209050919050565b60006020601f8301049050919050565b600082821b905092915050565b6000600883026200030c7fffffffffffffffffffffffffffffffffffffffffffffffffffffffffffffffff82620002cd565b620003188683620002cd565b95508019841693508086168417925050509392505050565b6000819050919050565b6000819050919050565b6000620003656200035f620003598462000330565b6200033a565b62000330565b9050919050565b6000819050919050565b620003818362000344565b6200039962000390826200036c565b848454620002da565b825550505050565b600090565b620003b0620003a1565b620003bd81848462000376565b505050565b5b81811015620003e557620003d9600082620003a6565b600181019050620003c3565b5050565b601f8211156200043457620003fe81620002a8565b6200040984620002bd565b8101602085101562000419578190505b620004316200042885620002bd565b830182620003c2565b50505b505050565b600082821c905092915050565b6000620004596000198460080262000439565b1980831691505092915050565b600062000474838362000446565b9150826002028217905092915050565b6200048f8262000239565b67ffffffffffffffff811115620004ab57620004aa62000084565b5b620004b7825462000273565b620004c4828285620003e9565b600060209050601f831160018114620004fc5760008415620004e7578287015190505b620004f3858262000466565b86555062000563565b601f1984166200050c86620002a8565b60005b8281101562000536578489015182556001820191506020850194506020810190506200050f565b8683101562000556578489015162000552601f89168262000446565b8355505b6001600288020188555050505b505050505050565b610fc2806200057b6000396000f3fe608060405234801561001057600080fd5b506004361061007d5760003560e01c80633c6bb4361161005b5780633c6bb436146100de5780634e59ff56146100fc57806377169fad1461011a578063ddc4a0a4146101365761007d565b806320965255146100825780633b6d54b7146100a05780633bfd7fd3146100d4575b600080fd5b61008a610166565b6040516100979190610722565b60405180910390f35b6100ba60048036038101906100b591906107af565b610170565b6040516100cb95949392919061086c565b60405180910390f35b6100dc61033e565b005b6100e6610358565b6040516100f39190610722565b60405180910390f35b61010461035e565b60405161011191906108d4565b60405180910390f35b610134600480360381019061012f9190610a57565b6103ec565b005b610150600480360381019061014b91906107af565b6104b8565b60405161015d9190610c15565b60405180910390f35b6000600254905090565b600060205280600052604060002060009150905080600001805461019390610c66565b80601f01602080910402602001604051908101604052809291908181526020018280546101bf90610c66565b801561020c5780601f106101e15761010080835404028352916020019161020c565b820191906000526020600020905b8154815290600101906020018083116101ef57829003601f168201915b50505050509080600101805461022190610c66565b80601f016020809104026020016040519081016040528092919081815260200182805461024d90610c66565b801561029a5780601f1061026f5761010080835404028352916020019161029a565b820191906000526020600020905b81548152906001019060200180831161027d57829003601f168201915b5050505050908060020180546102af90610c66565b80601f01602080910402602001604051908101604052809291908181526020018280546102db90610c66565b80156103285780601f106102fd57610100808354040283529160200191610328565b820191906000526020600020905b81548152906001019060200180831161030b57829003601f168201915b5050505050908060030154908060040154905085565b6002600081548092919061035190610cc6565b9190505550565b60025481565b6001805461036b90610c66565b80601f016020809104026020016040519081016040528092919081815260200182805461039790610c66565b80156103e45780601f106103b9576101008083540402835291602001916103e4565b820191906000526020600020905b8154815290600101906020018083116103c757829003601f168201915b505050505081565b60006040518060a00160405280888152602001878152602001868152602001858152602001848152509050806000808473ffffffffffffffffffffffffffffffffffffffff1673ffffffffffffffffffffffffffffffffffffffff168152602001908152602001600020600082015181600001908161046b9190610eba565b5060208201518160010190816104819190610eba565b5060408201518160020190816104979190610eba565b50606082015181600301556080820151816004015590505050505050505050565b6104c06106da565b6000808373ffffffffffffffffffffffffffffffffffffffff1673ffffffffffffffffffffffffffffffffffffffff1681526020019081526020016000206040518060a001604052908160008201805461051990610c66565b80601f016020809104026020016040519081016040528092919081815260200182805461054590610c66565b80156105925780601f1061056757610100808354040283529160200191610592565b820191906000526020600020905b81548152906001019060200180831161057557829003601f168201915b505050505081526020016001820180546105ab90610c66565b80601f01602080910402602001604051908101604052809291908181526020018280546105d790610c66565b80156106245780601f106105f957610100808354040283529160200191610624565b820191906000526020600020905b81548152906001019060200180831161060757829003601f168201915b5050505050815260200160028201805461063d90610c66565b80601f016020809104026020016040519081016040528092919081815260200182805461066990610c66565b80156106b65780601f1061068b576101008083540402835291602001916106b6565b820191906000526020600020905b81548152906001019060200180831161069957829003601f168201915b50505050508152602001600382015481526020016004820154815250509050919050565b6040518060a0016040528060608152602001606081526020016060815260200160008152602001600081525090565b6000819050919050565b61071c81610709565b82525050565b60006020820190506107376000830184610713565b92915050565b6000604051905090565b600080fd5b600080fd5b600073ffffffffffffffffffffffffffffffffffffffff82169050919050565b600061077c82610751565b9050919050565b61078c81610771565b811461079757600080fd5b50565b6000813590506107a981610783565b92915050565b6000602082840312156107c5576107c4610747565b5b60006107d38482850161079a565b91505092915050565b600081519050919050565b600082825260208201905092915050565b60005b838110156108165780820151818401526020810190506107fb565b60008484015250505050565b6000601f19601f8301169050919050565b600061083e826107dc565b61084881856107e7565b93506108588185602086016107f8565b61086181610822565b840191505092915050565b600060a08201905081810360008301526108868188610833565b9050818103602083015261089a8187610833565b905081810360408301526108ae8186610833565b90506108bd6060830185610713565b6108ca6080830184610713565b9695505050505050565b600060208201905081810360008301526108ee8184610833565b905092915050565b600080fd5b600080fd5b7f4e487b7100000000000000000000000000000000000000000000000000000000600052604160045260246000fd5b61093882610822565b810181811067ffffffffffffffff8211171561095757610956610900565b5b80604052505050565b600061096a61073d565b9050610976828261092f565b919050565b600067ffffffffffffffff82111561099657610995610900565b5b61099f82610822565b9050602081019050919050565b82818337600083830152505050565b60006109ce6109c98461097b565b610960565b9050828152602081018484840111156109ea576109e96108fb565b5b6109f58482856109ac565b509392505050565b600082601f830112610a1257610a116108f6565b5b8135610a228482602086016109bb565b91505092915050565b610a3481610709565b8114610a3f57600080fd5b50565b600081359050610a5181610a2b565b92915050565b60008060008060008060c08789031215610a7457610a73610747565b5b600087013567ffffffffffffffff811115610a9257610a9161074c565b5b610a9e89828a016109fd565b965050602087013567ffffffffffffffff811115610abf57610abe61074c565b5b610acb89828a016109fd565b955050604087013567ffffffffffffffff811115610aec57610aeb61074c565b5b610af889828a016109fd565b9450506060610b0989828a01610a42565b9350506080610b1a89828a01610a42565b92505060a0610b2b89828a0161079a565b9150509295509295509295565b600082825260208201905092915050565b6000610b54826107dc565b610b5e8185610b38565b9350610b6e8185602086016107f8565b610b7781610822565b840191505092915050565b610b8b81610709565b82525050565b600060a0830160008301518482036000860152610bae8282610b49565b91505060208301518482036020860152610bc88282610b49565b91505060408301518482036040860152610be28282610b49565b9150506060830151610bf76060860182610b82565b506080830151610c0a6080860182610b82565b508091505092915050565b60006020820190508181036000830152610c2f8184610b91565b905092915050565b7f4e487b7100000000000000000000000000000000000000000000000000000000600052602260045260246000fd5b60006002820490506001821680610c7e57607f821691505b602082108103610c9157610c90610c37565b5b50919050565b7f4e487b7100000000000000000000000000000000000000000000000000000000600052601160045260246000fd5b6000610cd182610709565b91507fffffffffffffffffffffffffffffffffffffffffffffffffffffffffffffffff8203610d0357610d02610c97565b5b600182019050919050565b60008190508160005260206000209050919050565b60006020601f8301049050919050565b600082821b905092915050565b600060088302610d707fffffffffffffffffffffffffffffffffffffffffffffffffffffffffffffffff82610d33565b610d7a8683610d33565b95508019841693508086168417925050509392505050565b6000819050919050565b6000610db7610db2610dad84610709565b610d92565b610709565b9050919050565b6000819050919050565b610dd183610d9c565b610de5610ddd82610dbe565b848454610d40565b825550505050565b600090565b610dfa610ded565b610e05818484610dc8565b505050565b5b81811015610e2957610e1e600082610df2565b600181019050610e0b565b5050565b601f821115610e6e57610e3f81610d0e565b610e4884610d23565b81016020851015610e57578190505b610e6b610e6385610d23565b830182610e0a565b50505b505050565b600082821c905092915050565b6000610e9160001984600802610e73565b1980831691505092915050565b6000610eaa8383610e80565b9150826002028217905092915050565b610ec3826107dc565b67ffffffffffffffff811115610edc57610edb610900565b5b610ee68254610c66565b610ef1828285610e2d565b600060209050601f831160018114610f245760008415610f12578287015190505b610f1c8582610e9e565b865550610f84565b601f198416610f3286610d0e565b60005b82811015610f5a57848901518255600182019150602085019450602081019050610f35565b86831015610f775784890151610f73601f891682610e80565b8355505b6001600288020188555050505b50505050505056fea2646970667358221220a21fee9d2f38186328b5865b38946415829f57e2aa80bee4c0b05ac6908903dd64736f6c63430008130033",
  "immutableReferences": {},
  "source": "// SPDX-License-Identifier: MIT\npragma solidity ^0.8.0;\n\ncontract MyContract {\n\n    struct Student {\n        string name;\n        string surname;\n        string taxcode;\n        uint isee;\n        uint crediti;\n    }\n\n    mapping(address => Student) public mappingStudent;\n\n    string public myVariable;\n    uint256 public val = 0;\n\n    constructor(string memory initialValue) {\n        myVariable = initialValue;\n    }\n\n    function getValue() public view returns (uint256) {\n        return val;\n    }\n\n    function incrementValue() public {\n        val++;\n    }\n\n    function addStudent(\n    string memory _name,\n    string memory _surname,\n    string memory _taxcode,\n    uint256 _isee,\n    uint256 _crediti,\n    address _address\n) public {\n    Student memory newStudent = Student(_name,_surname,_taxcode,_isee,_crediti);\n\n     mappingStudent[_address] = newStudent;\n\n}\n\n\n    function getArrayValue(address index) public view returns (Student memory) {\n        return mappingStudent[index];\n    }\n\n\n}\n",
  "sourcePath": "/Users/paoloaliprandi/Desktop/University of Trento/Magistrale/Primo anno/secondo semestre/Blockchain/Blockchain-Project/contracts/MyContract.sol",
  "compiler": {
    "name": "solc",
    "version": "0.8.19+commit.7dd6d404.Emscripten.clang"
  },
  "schemaVersion": "3.4.13",
  "updatedAt": "2023-06-15T07:56:59.599Z",
  "devdoc": {
    "kind": "dev",
    "methods": {},
    "version": 1
  },
  "userdoc": {
    "kind": "user",
    "methods": {},
    "version": 1
  }
}