{
  "contractName": "MyContract",
  "abi": [
    {
      "inputs": [
        {
          "internalType": "string",
          "name": "initialValue",
          "type": "string"
        }
      ],
      "stateMutability": "nonpayable",
      "type": "constructor"
    },
    {
      "inputs": [
        {
          "internalType": "uint256",
          "name": "",
          "type": "uint256"
        }
      ],
      "name": "CREDITS_PER_YEAR",
      "outputs": [
        {
          "internalType": "uint256",
          "name": "",
          "type": "uint256"
        }
      ],
      "stateMutability": "view",
      "type": "function"
    },
    {
      "inputs": [],
      "name": "ISEE_LIMIT",
      "outputs": [
        {
          "internalType": "uint256",
          "name": "",
          "type": "uint256"
        }
      ],
      "stateMutability": "view",
      "type": "function"
    },
    {
      "inputs": [
        {
          "internalType": "uint256",
          "name": "",
          "type": "uint256"
        }
      ],
      "name": "keys",
      "outputs": [
        {
          "internalType": "address",
          "name": "",
          "type": "address"
        }
      ],
      "stateMutability": "view",
      "type": "function"
    },
    {
      "inputs": [
        {
          "internalType": "address",
          "name": "",
          "type": "address"
        }
      ],
      "name": "mappingStudents",
      "outputs": [
        {
          "internalType": "string",
          "name": "name",
          "type": "string"
        },
        {
          "internalType": "string",
          "name": "surname",
          "type": "string"
        },
        {
          "internalType": "string",
          "name": "taxcode",
          "type": "string"
        },
        {
          "internalType": "uint256",
          "name": "isee",
          "type": "uint256"
        },
        {
          "internalType": "uint256",
          "name": "crediti",
          "type": "uint256"
        },
        {
          "internalType": "uint256",
          "name": "year",
          "type": "uint256"
        },
        {
          "internalType": "uint256",
          "name": "score",
          "type": "uint256"
        }
      ],
      "stateMutability": "view",
      "type": "function"
    },
    {
      "inputs": [],
      "name": "myVariable",
      "outputs": [
        {
          "internalType": "string",
          "name": "",
          "type": "string"
        }
      ],
      "stateMutability": "view",
      "type": "function"
    },
    {
      "inputs": [
        {
          "internalType": "address",
          "name": "",
          "type": "address"
        }
      ],
      "name": "rankedStudents",
      "outputs": [
        {
          "internalType": "string",
          "name": "name",
          "type": "string"
        },
        {
          "internalType": "string",
          "name": "surname",
          "type": "string"
        },
        {
          "internalType": "string",
          "name": "taxcode",
          "type": "string"
        },
        {
          "internalType": "uint256",
          "name": "isee",
          "type": "uint256"
        },
        {
          "internalType": "uint256",
          "name": "crediti",
          "type": "uint256"
        },
        {
          "internalType": "uint256",
          "name": "year",
          "type": "uint256"
        },
        {
          "internalType": "uint256",
          "name": "score",
          "type": "uint256"
        }
      ],
      "stateMutability": "view",
      "type": "function"
    },
    {
      "inputs": [],
      "name": "val",
      "outputs": [
        {
          "internalType": "uint256",
          "name": "",
          "type": "uint256"
        }
      ],
      "stateMutability": "view",
      "type": "function"
    },
    {
      "inputs": [],
      "name": "getValue",
      "outputs": [
        {
          "internalType": "uint256",
          "name": "",
          "type": "uint256"
        }
      ],
      "stateMutability": "view",
      "type": "function"
    },
    {
      "inputs": [],
      "name": "incrementValue",
      "outputs": [],
      "stateMutability": "nonpayable",
      "type": "function"
    },
    {
      "inputs": [],
      "name": "getKeys",
      "outputs": [
        {
          "internalType": "address[]",
          "name": "",
          "type": "address[]"
        }
      ],
      "stateMutability": "view",
      "type": "function"
    },
    {
      "inputs": [
        {
          "internalType": "address",
          "name": "key",
          "type": "address"
        }
      ],
      "name": "getStudent",
      "outputs": [
        {
          "components": [
            {
              "internalType": "string",
              "name": "name",
              "type": "string"
            },
            {
              "internalType": "string",
              "name": "surname",
              "type": "string"
            },
            {
              "internalType": "string",
              "name": "taxcode",
              "type": "string"
            },
            {
              "internalType": "uint256",
              "name": "isee",
              "type": "uint256"
            },
            {
              "internalType": "uint256",
              "name": "crediti",
              "type": "uint256"
            },
            {
              "internalType": "uint256",
              "name": "year",
              "type": "uint256"
            },
            {
              "internalType": "uint256",
              "name": "score",
              "type": "uint256"
            }
          ],
          "internalType": "struct MyContract.Student",
          "name": "",
          "type": "tuple"
        }
      ],
      "stateMutability": "view",
      "type": "function"
    },
    {
      "inputs": [
        {
          "internalType": "string",
          "name": "_name",
          "type": "string"
        },
        {
          "internalType": "string",
          "name": "_surname",
          "type": "string"
        },
        {
          "internalType": "string",
          "name": "_taxcode",
          "type": "string"
        },
        {
          "internalType": "uint256",
          "name": "_isee",
          "type": "uint256"
        },
        {
          "internalType": "uint256",
          "name": "_crediti",
          "type": "uint256"
        },
        {
          "internalType": "uint256",
          "name": "_year",
          "type": "uint256"
        },
        {
          "internalType": "address",
          "name": "key",
          "type": "address"
        }
      ],
      "name": "addStudent",
      "outputs": [],
      "stateMutability": "nonpayable",
      "type": "function"
    },
    {
      "inputs": [],
      "name": "getStudentCount",
      "outputs": [
        {
          "internalType": "uint256",
          "name": "",
          "type": "uint256"
        }
      ],
      "stateMutability": "view",
      "type": "function"
    },
    {
      "inputs": [
        {
          "components": [
            {
              "internalType": "string",
              "name": "name",
              "type": "string"
            },
            {
              "internalType": "string",
              "name": "surname",
              "type": "string"
            },
            {
              "internalType": "string",
              "name": "taxcode",
              "type": "string"
            },
            {
              "internalType": "uint256",
              "name": "isee",
              "type": "uint256"
            },
            {
              "internalType": "uint256",
              "name": "crediti",
              "type": "uint256"
            },
            {
              "internalType": "uint256",
              "name": "year",
              "type": "uint256"
            },
            {
              "internalType": "uint256",
              "name": "score",
              "type": "uint256"
            }
          ],
          "internalType": "struct MyContract.Student",
          "name": "student",
          "type": "tuple"
        }
      ],
      "name": "computeScore",
      "outputs": [
        {
          "internalType": "uint256",
          "name": "",
          "type": "uint256"
        }
      ],
      "stateMutability": "view",
      "type": "function"
    },
    {
      "inputs": [],
      "name": "rankStudents",
      "outputs": [
        {
          "internalType": "uint256",
          "name": "",
          "type": "uint256"
        }
      ],
      "stateMutability": "nonpayable",
      "type": "function"
    }
  ],
  "bytecode": "0x6080604052615c30600055604051806060016040528060008152602001602d8152602001605581525060019060036200003a9291906200008c565b5060006006553480156200004d57600080fd5b506040516200274138038062002741833981810160405281019062000073919062000290565b80600590816200008491906200052c565b505062000613565b828054828255906000526020600020908101928215620000cb579160200282015b82811115620000ca578251825591602001919060010190620000ad565b5b509050620000da9190620000de565b5090565b5b80821115620000f9576000816000905550600101620000df565b5090565b6000604051905090565b600080fd5b600080fd5b600080fd5b600080fd5b6000601f19601f8301169050919050565b7f4e487b7100000000000000000000000000000000000000000000000000000000600052604160045260246000fd5b62000166826200011b565b810181811067ffffffffffffffff821117156200018857620001876200012c565b5b80604052505050565b60006200019d620000fd565b9050620001ab82826200015b565b919050565b600067ffffffffffffffff821115620001ce57620001cd6200012c565b5b620001d9826200011b565b9050602081019050919050565b60005b8381101562000206578082015181840152602081019050620001e9565b60008484015250505050565b6000620002296200022384620001b0565b62000191565b90508281526020810184848401111562000248576200024762000116565b5b62000255848285620001e6565b509392505050565b600082601f83011262000275576200027462000111565b5b81516200028784826020860162000212565b91505092915050565b600060208284031215620002a957620002a862000107565b5b600082015167ffffffffffffffff811115620002ca57620002c96200010c565b5b620002d8848285016200025d565b91505092915050565b600081519050919050565b7f4e487b7100000000000000000000000000000000000000000000000000000000600052602260045260246000fd5b600060028204905060018216806200033457607f821691505b6020821081036200034a5762000349620002ec565b5b50919050565b60008190508160005260206000209050919050565b60006020601f8301049050919050565b600082821b905092915050565b600060088302620003b47fffffffffffffffffffffffffffffffffffffffffffffffffffffffffffffffff8262000375565b620003c0868362000375565b95508019841693508086168417925050509392505050565b6000819050919050565b6000819050919050565b60006200040d620004076200040184620003d8565b620003e2565b620003d8565b9050919050565b6000819050919050565b6200042983620003ec565b62000441620004388262000414565b84845462000382565b825550505050565b600090565b6200045862000449565b620004658184846200041e565b505050565b5b818110156200048d57620004816000826200044e565b6001810190506200046b565b5050565b601f821115620004dc57620004a68162000350565b620004b18462000365565b81016020851015620004c1578190505b620004d9620004d08562000365565b8301826200046a565b50505b505050565b600082821c905092915050565b60006200050160001984600802620004e1565b1980831691505092915050565b60006200051c8383620004ee565b9150826002028217905092915050565b6200053782620002e1565b67ffffffffffffffff8111156200055357620005526200012c565b5b6200055f82546200031b565b6200056c82828562000491565b600060209050601f831160018114620005a457600084156200058f578287015190505b6200059b85826200050e565b8655506200060b565b601f198416620005b48662000350565b60005b82811015620005de57848901518255600182019150602085019450602081019050620005b7565b86831015620005fe5784890151620005fa601f891682620004ee565b8355505b6001600288020188555050505b505050505050565b61211e80620006236000396000f3fe608060405234801561001057600080fd5b50600436106100f55760003560e01c806342d65b2c116100975780638c48137a116100665780638c48137a1461027e578063e03eb2491461029a578063ea8728ea146102ca578063eb63e643146102e8576100f5565b806342d65b2c146101e25780634e59ff5614610200578063522afdec1461021e5780636b7b44d71461024e576100f5565b80632150c518116100d35780632150c5181461017e5780633bfd7fd31461019c5780633c6bb436146101a657806341e0c407146101c4576100f5565b80630c00aac2146100fa5780630cb6aaf1146101305780632096525514610160575b600080fd5b610114600480360381019061010f9190611417565b61031e565b60405161012797969594939291906114ed565b60405180910390f35b61014a6004803603810190610145919061159d565b6104f8565b60405161015791906115d9565b60405180910390f35b610168610537565b60405161017591906115f4565b60405180910390f35b610186610541565b60405161019391906116cd565b60405180910390f35b6101a46105cf565b005b6101ae6105e9565b6040516101bb91906115f4565b60405180910390f35b6101cc6105ef565b6040516101d991906115f4565b60405180910390f35b6101ea6105fc565b6040516101f791906115f4565b60405180910390f35b610208610602565b60405161021591906116ef565b60405180910390f35b61023860048036038101906102339190611958565b610690565b60405161024591906115f4565b60405180910390f35b61026860048036038101906102639190611417565b610761565b6040516102759190611aa4565b60405180910390f35b61029860048036038101906102939190611ac6565b610998565b005b6102b460048036038101906102af919061159d565b610afc565b6040516102c191906115f4565b60405180910390f35b6102d2610b20565b6040516102df91906115f4565b60405180910390f35b61030260048036038101906102fd9190611417565b61118e565b60405161031597969594939291906114ed565b60405180910390f35b600360205280600052604060002060009150905080600001805461034190611beb565b80601f016020809104026020016040519081016040528092919081815260200182805461036d90611beb565b80156103ba5780601f1061038f576101008083540402835291602001916103ba565b820191906000526020600020905b81548152906001019060200180831161039d57829003601f168201915b5050505050908060010180546103cf90611beb565b80601f01602080910402602001604051908101604052809291908181526020018280546103fb90611beb565b80156104485780601f1061041d57610100808354040283529160200191610448565b820191906000526020600020905b81548152906001019060200180831161042b57829003601f168201915b50505050509080600201805461045d90611beb565b80601f016020809104026020016040519081016040528092919081815260200182805461048990611beb565b80156104d65780601f106104ab576101008083540402835291602001916104d6565b820191906000526020600020905b8154815290600101906020018083116104b957829003601f168201915b5050505050908060030154908060040154908060050154908060060154905087565b6004818154811061050857600080fd5b906000526020600020016000915054906101000a900473ffffffffffffffffffffffffffffffffffffffff1681565b6000600654905090565b606060048054806020026020016040519081016040528092919081815260200182805480156105c557602002820191906000526020600020905b8160009054906101000a900473ffffffffffffffffffffffffffffffffffffffff1673ffffffffffffffffffffffffffffffffffffffff168152602001906001019080831161057b575b5050505050905090565b600660008154809291906105e290611c4b565b9190505550565b60065481565b6000600480549050905090565b60005481565b6005805461060f90611beb565b80601f016020809104026020016040519081016040528092919081815260200182805461063b90611beb565b80156106885780601f1061065d57610100808354040283529160200191610688565b820191906000526020600020905b81548152906001019060200180831161066b57829003601f168201915b505050505081565b600080600090506000548360600151111580156106b2575060038360a0015111155b15610758576001808460a001516106c99190611c93565b815481106106da576106d9611cc7565b5b90600052602060002001548360800151106107575760646001808560a001516107039190611c93565b8154811061071457610713611cc7565b5b9060005260206000200154846080015161072e9190611c93565b6107389190611cf6565b836060015160005461074a9190611c93565b6107549190611d38565b90505b5b80915050919050565b610769611368565b600260008373ffffffffffffffffffffffffffffffffffffffff1673ffffffffffffffffffffffffffffffffffffffff1681526020019081526020016000206040518060e00160405290816000820180546107c390611beb565b80601f01602080910402602001604051908101604052809291908181526020018280546107ef90611beb565b801561083c5780601f106108115761010080835404028352916020019161083c565b820191906000526020600020905b81548152906001019060200180831161081f57829003601f168201915b5050505050815260200160018201805461085590611beb565b80601f016020809104026020016040519081016040528092919081815260200182805461088190611beb565b80156108ce5780601f106108a3576101008083540402835291602001916108ce565b820191906000526020600020905b8154815290600101906020018083116108b157829003601f168201915b505050505081526020016002820180546108e790611beb565b80601f016020809104026020016040519081016040528092919081815260200182805461091390611beb565b80156109605780601f1061093557610100808354040283529160200191610960565b820191906000526020600020905b81548152906001019060200180831161094357829003601f168201915b505050505081526020016003820154815260200160048201548152602001600582015481526020016006820154815250509050919050565b60006040518060e00160405280898152602001888152602001878152602001868152602001858152602001848152602001600081525090506109d981610690565b8160c001818152505080600260008473ffffffffffffffffffffffffffffffffffffffff1673ffffffffffffffffffffffffffffffffffffffff1681526020019081526020016000206000820151816000019081610a379190611f18565b506020820151816001019081610a4d9190611f18565b506040820151816002019081610a639190611f18565b50606082015181600301556080820151816004015560a0820151816005015560c082015181600601559050506004829080600181540180825580915050600190039060005260206000200160009091909190916101000a81548173ffffffffffffffffffffffffffffffffffffffff021916908373ffffffffffffffffffffffffffffffffffffffff1602179055505050505050505050565b60018181548110610b0c57600080fd5b906000526020600020016000915090505481565b6000806000905060005b6001600480549050610b3c9190611c93565b8110156111865760005b600182600480549050610b599190611c93565b610b639190611c93565b81101561117257600260006004600184610b7d9190611d38565b81548110610b8e57610b8d611cc7565b5b9060005260206000200160009054906101000a900473ffffffffffffffffffffffffffffffffffffffff1673ffffffffffffffffffffffffffffffffffffffff1673ffffffffffffffffffffffffffffffffffffffff168152602001908152602001600020600301546002600060048481548110610c0f57610c0e611cc7565b5b9060005260206000200160009054906101000a900473ffffffffffffffffffffffffffffffffffffffff1673ffffffffffffffffffffffffffffffffffffffff1673ffffffffffffffffffffffffffffffffffffffff16815260200190815260200160002060030154111561115f578280610c8990611c4b565b93505060006002600060048481548110610ca657610ca5611cc7565b5b9060005260206000200160009054906101000a900473ffffffffffffffffffffffffffffffffffffffff1673ffffffffffffffffffffffffffffffffffffffff1673ffffffffffffffffffffffffffffffffffffffff1681526020019081526020016000206040518060e0016040529081600082018054610d2690611beb565b80601f0160208091040260200160405190810160405280929190818152602001828054610d5290611beb565b8015610d9f5780601f10610d7457610100808354040283529160200191610d9f565b820191906000526020600020905b815481529060010190602001808311610d8257829003601f168201915b50505050508152602001600182018054610db890611beb565b80601f0160208091040260200160405190810160405280929190818152602001828054610de490611beb565b8015610e315780601f10610e0657610100808354040283529160200191610e31565b820191906000526020600020905b815481529060010190602001808311610e1457829003601f168201915b50505050508152602001600282018054610e4a90611beb565b80601f0160208091040260200160405190810160405280929190818152602001828054610e7690611beb565b8015610ec35780601f10610e9857610100808354040283529160200191610ec3565b820191906000526020600020905b815481529060010190602001808311610ea657829003601f168201915b505050505081526020016003820154815260200160048201548152602001600582015481526020016006820154815250509050600260006004600185610f099190611d38565b81548110610f1a57610f19611cc7565b5b9060005260206000200160009054906101000a900473ffffffffffffffffffffffffffffffffffffffff1673ffffffffffffffffffffffffffffffffffffffff1673ffffffffffffffffffffffffffffffffffffffff1681526020019081526020016000206002600060048581548110610f9757610f96611cc7565b5b9060005260206000200160009054906101000a900473ffffffffffffffffffffffffffffffffffffffff1673ffffffffffffffffffffffffffffffffffffffff1673ffffffffffffffffffffffffffffffffffffffff168152602001908152602001600020600082018160000190816110109190612000565b50600182018160010190816110259190612000565b506002820181600201908161103a9190612000565b50600382015481600301556004820154816004015560058201548160050155600682015481600601559050508060026000600460018661107a9190611d38565b8154811061108b5761108a611cc7565b5b9060005260206000200160009054906101000a900473ffffffffffffffffffffffffffffffffffffffff1673ffffffffffffffffffffffffffffffffffffffff1673ffffffffffffffffffffffffffffffffffffffff16815260200190815260200160002060008201518160000190816111059190611f18565b50602082015181600101908161111b9190611f18565b5060408201518160020190816111319190611f18565b50606082015181600301556080820151816004015560a0820151816005015560c08201518160060155905050505b808061116a90611c4b565b915050610b46565b50808061117e90611c4b565b915050610b2a565b508091505090565b60026020528060005260406000206000915090508060000180546111b190611beb565b80601f01602080910402602001604051908101604052809291908181526020018280546111dd90611beb565b801561122a5780601f106111ff5761010080835404028352916020019161122a565b820191906000526020600020905b81548152906001019060200180831161120d57829003601f168201915b50505050509080600101805461123f90611beb565b80601f016020809104026020016040519081016040528092919081815260200182805461126b90611beb565b80156112b85780601f1061128d576101008083540402835291602001916112b8565b820191906000526020600020905b81548152906001019060200180831161129b57829003601f168201915b5050505050908060020180546112cd90611beb565b80601f01602080910402602001604051908101604052809291908181526020018280546112f990611beb565b80156113465780601f1061131b57610100808354040283529160200191611346565b820191906000526020600020905b81548152906001019060200180831161132957829003601f168201915b5050505050908060030154908060040154908060050154908060060154905087565b6040518060e00160405280606081526020016060815260200160608152602001600081526020016000815260200160008152602001600081525090565b6000604051905090565b600080fd5b600080fd5b600073ffffffffffffffffffffffffffffffffffffffff82169050919050565b60006113e4826113b9565b9050919050565b6113f4816113d9565b81146113ff57600080fd5b50565b600081359050611411816113eb565b92915050565b60006020828403121561142d5761142c6113af565b5b600061143b84828501611402565b91505092915050565b600081519050919050565b600082825260208201905092915050565b60005b8381101561147e578082015181840152602081019050611463565b60008484015250505050565b6000601f19601f8301169050919050565b60006114a682611444565b6114b0818561144f565b93506114c0818560208601611460565b6114c98161148a565b840191505092915050565b6000819050919050565b6114e7816114d4565b82525050565b600060e0820190508181036000830152611507818a61149b565b9050818103602083015261151b818961149b565b9050818103604083015261152f818861149b565b905061153e60608301876114de565b61154b60808301866114de565b61155860a08301856114de565b61156560c08301846114de565b98975050505050505050565b61157a816114d4565b811461158557600080fd5b50565b60008135905061159781611571565b92915050565b6000602082840312156115b3576115b26113af565b5b60006115c184828501611588565b91505092915050565b6115d3816113d9565b82525050565b60006020820190506115ee60008301846115ca565b92915050565b600060208201905061160960008301846114de565b92915050565b600081519050919050565b600082825260208201905092915050565b6000819050602082019050919050565b611644816113d9565b82525050565b6000611656838361163b565b60208301905092915050565b6000602082019050919050565b600061167a8261160f565b611684818561161a565b935061168f8361162b565b8060005b838110156116c05781516116a7888261164a565b97506116b283611662565b925050600181019050611693565b5085935050505092915050565b600060208201905081810360008301526116e7818461166f565b905092915050565b60006020820190508181036000830152611709818461149b565b905092915050565b600080fd5b7f4e487b7100000000000000000000000000000000000000000000000000000000600052604160045260246000fd5b61174e8261148a565b810181811067ffffffffffffffff8211171561176d5761176c611716565b5b80604052505050565b60006117806113a5565b905061178c8282611745565b919050565b600080fd5b600080fd5b600080fd5b600067ffffffffffffffff8211156117bb576117ba611716565b5b6117c48261148a565b9050602081019050919050565b82818337600083830152505050565b60006117f36117ee846117a0565b611776565b90508281526020810184848401111561180f5761180e61179b565b5b61181a8482856117d1565b509392505050565b600082601f83011261183757611836611796565b5b81356118478482602086016117e0565b91505092915050565b600060e0828403121561186657611865611711565b5b61187060e0611776565b9050600082013567ffffffffffffffff8111156118905761188f611791565b5b61189c84828501611822565b600083015250602082013567ffffffffffffffff8111156118c0576118bf611791565b5b6118cc84828501611822565b602083015250604082013567ffffffffffffffff8111156118f0576118ef611791565b5b6118fc84828501611822565b604083015250606061191084828501611588565b606083015250608061192484828501611588565b60808301525060a061193884828501611588565b60a08301525060c061194c84828501611588565b60c08301525092915050565b60006020828403121561196e5761196d6113af565b5b600082013567ffffffffffffffff81111561198c5761198b6113b4565b5b61199884828501611850565b91505092915050565b600082825260208201905092915050565b60006119bd82611444565b6119c781856119a1565b93506119d7818560208601611460565b6119e08161148a565b840191505092915050565b6119f4816114d4565b82525050565b600060e0830160008301518482036000860152611a1782826119b2565b91505060208301518482036020860152611a3182826119b2565b91505060408301518482036040860152611a4b82826119b2565b9150506060830151611a6060608601826119eb565b506080830151611a7360808601826119eb565b5060a0830151611a8660a08601826119eb565b5060c0830151611a9960c08601826119eb565b508091505092915050565b60006020820190508181036000830152611abe81846119fa565b905092915050565b600080600080600080600060e0888a031215611ae557611ae46113af565b5b600088013567ffffffffffffffff811115611b0357611b026113b4565b5b611b0f8a828b01611822565b975050602088013567ffffffffffffffff811115611b3057611b2f6113b4565b5b611b3c8a828b01611822565b965050604088013567ffffffffffffffff811115611b5d57611b5c6113b4565b5b611b698a828b01611822565b9550506060611b7a8a828b01611588565b9450506080611b8b8a828b01611588565b93505060a0611b9c8a828b01611588565b92505060c0611bad8a828b01611402565b91505092959891949750929550565b7f4e487b7100000000000000000000000000000000000000000000000000000000600052602260045260246000fd5b60006002820490506001821680611c0357607f821691505b602082108103611c1657611c15611bbc565b5b50919050565b7f4e487b7100000000000000000000000000000000000000000000000000000000600052601160045260246000fd5b6000611c56826114d4565b91507fffffffffffffffffffffffffffffffffffffffffffffffffffffffffffffffff8203611c8857611c87611c1c565b5b600182019050919050565b6000611c9e826114d4565b9150611ca9836114d4565b9250828203905081811115611cc157611cc0611c1c565b5b92915050565b7f4e487b7100000000000000000000000000000000000000000000000000000000600052603260045260246000fd5b6000611d01826114d4565b9150611d0c836114d4565b9250828202611d1a816114d4565b91508282048414831517611d3157611d30611c1c565b5b5092915050565b6000611d43826114d4565b9150611d4e836114d4565b9250828201905080821115611d6657611d65611c1c565b5b92915050565b60008190508160005260206000209050919050565b60006020601f8301049050919050565b600082821b905092915050565b600060088302611dce7fffffffffffffffffffffffffffffffffffffffffffffffffffffffffffffffff82611d91565b611dd88683611d91565b95508019841693508086168417925050509392505050565b6000819050919050565b6000611e15611e10611e0b846114d4565b611df0565b6114d4565b9050919050565b6000819050919050565b611e2f83611dfa565b611e43611e3b82611e1c565b848454611d9e565b825550505050565b600090565b611e58611e4b565b611e63818484611e26565b505050565b5b81811015611e8757611e7c600082611e50565b600181019050611e69565b5050565b601f821115611ecc57611e9d81611d6c565b611ea684611d81565b81016020851015611eb5578190505b611ec9611ec185611d81565b830182611e68565b50505b505050565b600082821c905092915050565b6000611eef60001984600802611ed1565b1980831691505092915050565b6000611f088383611ede565b9150826002028217905092915050565b611f2182611444565b67ffffffffffffffff811115611f3a57611f39611716565b5b611f448254611beb565b611f4f828285611e8b565b600060209050601f831160018114611f825760008415611f70578287015190505b611f7a8582611efc565b865550611fe2565b601f198416611f9086611d6c565b60005b82811015611fb857848901518255600182019150602085019450602081019050611f93565b86831015611fd55784890151611fd1601f891682611ede565b8355505b6001600288020188555050505b505050505050565b600081549050611ff981611beb565b9050919050565b81810361200e5750506120e6565b61201782611fea565b67ffffffffffffffff8111156120305761202f611716565b5b61203a8254611beb565b612045828285611e8b565b6000601f8311600181146120745760008415612062578287015490505b61206c8582611efc565b8655506120df565b601f19841661208287611d6c565b965061208d86611d6c565b60005b828110156120b557848901548255600182019150600185019450602081019050612090565b868310156120d257848901546120ce601f891682611ede565b8355505b6001600288020188555050505b5050505050505b56fea26469706673582212206b4a9ecdee6567ead9883be68f21f480114d3c35606234d6320db0eae4920e3364736f6c63430008130033",
  "immutableReferences": {},
  "source": "// SPDX-License-Identifier: MIT\npragma solidity ^0.8.0;\n\ncontract MyContract {\n\n    uint256 public ISEE_LIMIT = 23600;\n    uint256[] public CREDITS_PER_YEAR = [uint256(0), 45, 85]; //crediti richiesti per onni anno della triennale\n\n    struct Student {\n        string name;\n        string surname;\n        string taxcode;\n        uint256 isee;\n        uint256 crediti;\n        uint256 year; //supposd to go from 1 to 3 (anno della triennale per cui fai richiesta della borsa)\n        uint256 score;\n    }\n\n    mapping(address => Student) public mappingStudents;\n\n    mapping(address => Student) public rankedStudents;\n\n    address[] public keys;\n\n    string public myVariable;\n    uint256 public val = 0;\n\n    constructor(string memory initialValue) {\n        myVariable = initialValue;\n    }\n\n    function getValue() public view returns (uint256) {\n        return val;\n    }\n\n    function incrementValue() public {\n        val++;\n    }\n\n    function getKeys() public view returns (address[] memory) {\n        return keys;\n    }\n\n    function getStudent(address key) public view returns (Student memory) {\n        return mappingStudents[key];\n    }\n\n    function addStudent(\n        string memory _name,\n        string memory _surname,\n        string memory _taxcode,\n        uint256 _isee,\n        uint256 _crediti,\n        uint256 _year,\n        address key\n    ) public {\n        Student memory newStudent = Student(_name, _surname, _taxcode, _isee, _crediti, _year, uint256(0));\n        newStudent.score = computeScore(newStudent);\n        mappingStudents[key] = newStudent;\n        keys.push(key);\n    }\n\n    function getStudentCount() public view returns (uint256) {\n        return keys.length;\n    }\n\n    function computeScore(Student memory student) public view returns (uint256) {\n\n        uint256 score = 0;\n\n        if(student.isee <= ISEE_LIMIT && student.year <= uint256(3)) {\n            if(student.crediti >= CREDITS_PER_YEAR[student.year - uint256(1)]) {\n                score = (ISEE_LIMIT - student.isee) + (student.crediti - CREDITS_PER_YEAR[student.year - uint256(1)]) * 100;\n            }\n        }\n\n        return score;\n    }\n\n    function rankStudents() public returns (uint256) {\n\n        uint swap=0;\n\n        // Perform sorting based on the parameter (ascending order)\n        for (uint256 i = 0; i < keys.length - 1; i++) {\n            for (uint256 j = 0; j < keys.length - i - 1; j++) {\n                if (mappingStudents[keys[j]].isee > mappingStudents[keys[j + 1]].isee) {\n                    swap++;\n                    Student memory temp = mappingStudents[keys[j]];\n                    mappingStudents[keys[j]] = mappingStudents[keys[j + 1]];\n                    mappingStudents[keys[j + 1]] = temp;\n                }\n            }\n        }\n\n        return swap;\n    }\n\n\n}\n",
  "sourcePath": "/Users/michelelamon/Documents/UNITN/Blockchain/Blockchain-Project/contracts/MyContract.sol",
  "compiler": {
    "name": "solc",
    "version": "0.8.19+commit.7dd6d404.Emscripten.clang"
  },
  "schemaVersion": "3.4.14",
  "updatedAt": "2023-06-15T17:51:05.307Z",
  "devdoc": {
    "kind": "dev",
    "methods": {},
    "version": 1
  },
  "userdoc": {
    "kind": "user",
    "methods": {},
    "version": 1
  }
}