{
  "contractName": "NFTContract",
  "abi": [
    {
      "inputs": [],
      "stateMutability": "nonpayable",
      "type": "constructor"
    },
    {
      "anonymous": false,
      "inputs": [
        {
          "indexed": true,
          "internalType": "address",
          "name": "owner",
          "type": "address"
        },
        {
          "indexed": true,
          "internalType": "address",
          "name": "approved",
          "type": "address"
        },
        {
          "indexed": true,
          "internalType": "uint256",
          "name": "tokenId",
          "type": "uint256"
        }
      ],
      "name": "Approval",
      "type": "event"
    },
    {
      "anonymous": false,
      "inputs": [
        {
          "indexed": true,
          "internalType": "address",
          "name": "owner",
          "type": "address"
        },
        {
          "indexed": true,
          "internalType": "address",
          "name": "operator",
          "type": "address"
        },
        {
          "indexed": false,
          "internalType": "bool",
          "name": "approved",
          "type": "bool"
        }
      ],
      "name": "ApprovalForAll",
      "type": "event"
    },
    {
      "anonymous": false,
      "inputs": [
        {
          "indexed": false,
          "internalType": "uint256",
          "name": "_fromTokenId",
          "type": "uint256"
        },
        {
          "indexed": false,
          "internalType": "uint256",
          "name": "_toTokenId",
          "type": "uint256"
        }
      ],
      "name": "BatchMetadataUpdate",
      "type": "event"
    },
    {
      "anonymous": false,
      "inputs": [
        {
          "indexed": false,
          "internalType": "uint256",
          "name": "_tokenId",
          "type": "uint256"
        }
      ],
      "name": "MetadataUpdate",
      "type": "event"
    },
    {
      "anonymous": false,
      "inputs": [
        {
          "indexed": true,
          "internalType": "address",
          "name": "from",
          "type": "address"
        },
        {
          "indexed": true,
          "internalType": "address",
          "name": "to",
          "type": "address"
        },
        {
          "indexed": true,
          "internalType": "uint256",
          "name": "tokenId",
          "type": "uint256"
        }
      ],
      "name": "Transfer",
      "type": "event"
    },
    {
      "inputs": [
        {
          "internalType": "address",
          "name": "to",
          "type": "address"
        },
        {
          "internalType": "uint256",
          "name": "tokenId",
          "type": "uint256"
        }
      ],
      "name": "approve",
      "outputs": [],
      "stateMutability": "nonpayable",
      "type": "function"
    },
    {
      "inputs": [
        {
          "internalType": "address",
          "name": "owner",
          "type": "address"
        }
      ],
      "name": "balanceOf",
      "outputs": [
        {
          "internalType": "uint256",
          "name": "",
          "type": "uint256"
        }
      ],
      "stateMutability": "view",
      "type": "function"
    },
    {
      "inputs": [
        {
          "internalType": "uint256",
          "name": "tokenId",
          "type": "uint256"
        }
      ],
      "name": "getApproved",
      "outputs": [
        {
          "internalType": "address",
          "name": "",
          "type": "address"
        }
      ],
      "stateMutability": "view",
      "type": "function"
    },
    {
      "inputs": [
        {
          "internalType": "address",
          "name": "owner",
          "type": "address"
        },
        {
          "internalType": "address",
          "name": "operator",
          "type": "address"
        }
      ],
      "name": "isApprovedForAll",
      "outputs": [
        {
          "internalType": "bool",
          "name": "",
          "type": "bool"
        }
      ],
      "stateMutability": "view",
      "type": "function"
    },
    {
      "inputs": [],
      "name": "name",
      "outputs": [
        {
          "internalType": "string",
          "name": "",
          "type": "string"
        }
      ],
      "stateMutability": "view",
      "type": "function"
    },
    {
      "inputs": [
        {
          "internalType": "uint256",
          "name": "tokenId",
          "type": "uint256"
        }
      ],
      "name": "ownerOf",
      "outputs": [
        {
          "internalType": "address",
          "name": "",
          "type": "address"
        }
      ],
      "stateMutability": "view",
      "type": "function"
    },
    {
      "inputs": [
        {
          "internalType": "address",
          "name": "from",
          "type": "address"
        },
        {
          "internalType": "address",
          "name": "to",
          "type": "address"
        },
        {
          "internalType": "uint256",
          "name": "tokenId",
          "type": "uint256"
        }
      ],
      "name": "safeTransferFrom",
      "outputs": [],
      "stateMutability": "nonpayable",
      "type": "function"
    },
    {
      "inputs": [
        {
          "internalType": "address",
          "name": "from",
          "type": "address"
        },
        {
          "internalType": "address",
          "name": "to",
          "type": "address"
        },
        {
          "internalType": "uint256",
          "name": "tokenId",
          "type": "uint256"
        },
        {
          "internalType": "bytes",
          "name": "data",
          "type": "bytes"
        }
      ],
      "name": "safeTransferFrom",
      "outputs": [],
      "stateMutability": "nonpayable",
      "type": "function"
    },
    {
      "inputs": [
        {
          "internalType": "address",
          "name": "operator",
          "type": "address"
        },
        {
          "internalType": "bool",
          "name": "approved",
          "type": "bool"
        }
      ],
      "name": "setApprovalForAll",
      "outputs": [],
      "stateMutability": "nonpayable",
      "type": "function"
    },
    {
      "inputs": [
        {
          "internalType": "bytes4",
          "name": "interfaceId",
          "type": "bytes4"
        }
      ],
      "name": "supportsInterface",
      "outputs": [
        {
          "internalType": "bool",
          "name": "",
          "type": "bool"
        }
      ],
      "stateMutability": "view",
      "type": "function"
    },
    {
      "inputs": [],
      "name": "symbol",
      "outputs": [
        {
          "internalType": "string",
          "name": "",
          "type": "string"
        }
      ],
      "stateMutability": "view",
      "type": "function"
    },
    {
      "inputs": [
        {
          "internalType": "uint256",
          "name": "tokenId",
          "type": "uint256"
        }
      ],
      "name": "tokenURI",
      "outputs": [
        {
          "internalType": "string",
          "name": "",
          "type": "string"
        }
      ],
      "stateMutability": "view",
      "type": "function"
    },
    {
      "inputs": [
        {
          "internalType": "address",
          "name": "from",
          "type": "address"
        },
        {
          "internalType": "address",
          "name": "to",
          "type": "address"
        },
        {
          "internalType": "uint256",
          "name": "tokenId",
          "type": "uint256"
        }
      ],
      "name": "transferFrom",
      "outputs": [],
      "stateMutability": "nonpayable",
      "type": "function"
    },
    {
      "inputs": [
        {
          "internalType": "address",
          "name": "to",
          "type": "address"
        },
        {
          "internalType": "string",
          "name": "tokenURI",
          "type": "string"
        }
      ],
      "name": "generateNFT",
      "outputs": [
        {
          "internalType": "uint256",
          "name": "",
          "type": "uint256"
        }
      ],
      "stateMutability": "nonpayable",
      "type": "function"
    }
  ],
  "bytecode": "0x60806040523480156200001157600080fd5b506040518060400160405280600b81526020017f4e4654436f6e74726163740000000000000000000000000000000000000000008152506040518060400160405280600481526020017f4e4654430000000000000000000000000000000000000000000000000000000081525081600090816200008f919062000324565b508060019081620000a1919062000324565b5050506200040b565b600081519050919050565b7f4e487b7100000000000000000000000000000000000000000000000000000000600052604160045260246000fd5b7f4e487b7100000000000000000000000000000000000000000000000000000000600052602260045260246000fd5b600060028204905060018216806200012c57607f821691505b602082108103620001425762000141620000e4565b5b50919050565b60008190508160005260206000209050919050565b60006020601f8301049050919050565b600082821b905092915050565b600060088302620001ac7fffffffffffffffffffffffffffffffffffffffffffffffffffffffffffffffff826200016d565b620001b886836200016d565b95508019841693508086168417925050509392505050565b6000819050919050565b6000819050919050565b600062000205620001ff620001f984620001d0565b620001da565b620001d0565b9050919050565b6000819050919050565b6200022183620001e4565b6200023962000230826200020c565b8484546200017a565b825550505050565b600090565b6200025062000241565b6200025d81848462000216565b505050565b5b8181101562000285576200027960008262000246565b60018101905062000263565b5050565b601f821115620002d4576200029e8162000148565b620002a9846200015d565b81016020851015620002b9578190505b620002d1620002c8856200015d565b83018262000262565b50505b505050565b600082821c905092915050565b6000620002f960001984600802620002d9565b1980831691505092915050565b6000620003148383620002e6565b9150826002028217905092915050565b6200032f82620000aa565b67ffffffffffffffff8111156200034b576200034a620000b5565b5b62000357825462000113565b6200036482828562000289565b600060209050601f8311600181146200039c576000841562000387578287015190505b62000393858262000306565b86555062000403565b601f198416620003ac8662000148565b60005b82811015620003d657848901518255600182019150602085019450602081019050620003af565b86831015620003f65784890151620003f2601f891682620002e6565b8355505b6001600288020188555050505b505050505050565b612bb2806200041b6000396000f3fe608060405234801561001057600080fd5b50600436106100ea5760003560e01c80636352211e1161008c578063a22cb46511610066578063a22cb4651461026f578063b88d4fde1461028b578063c87b56dd146102a7578063e985e9c5146102d7576100ea565b80636352211e146101f157806370a082311461022157806395d89b4114610251576100ea565b8063095ea7b3116100c8578063095ea7b31461016d57806323b872dd1461018957806342842e0e146101a557806345ae35b8146101c1576100ea565b806301ffc9a7146100ef57806306fdde031461011f578063081812fc1461013d575b600080fd5b61010960048036038101906101049190611a2a565b610307565b6040516101169190611a72565b60405180910390f35b610127610368565b6040516101349190611b1d565b60405180910390f35b61015760048036038101906101529190611b75565b6103fa565b6040516101649190611be3565b60405180910390f35b61018760048036038101906101829190611c2a565b610440565b005b6101a3600480360381019061019e9190611c6a565b610557565b005b6101bf60048036038101906101ba9190611c6a565b6105b7565b005b6101db60048036038101906101d69190611df2565b6105d7565b6040516101e89190611e5d565b60405180910390f35b61020b60048036038101906102069190611b75565b610615565b6040516102189190611be3565b60405180910390f35b61023b60048036038101906102369190611e78565b61069b565b6040516102489190611e5d565b60405180910390f35b610259610752565b6040516102669190611b1d565b60405180910390f35b61028960048036038101906102849190611ed1565b6107e4565b005b6102a560048036038101906102a09190611fb2565b6107fa565b005b6102c160048036038101906102bc9190611b75565b61085c565b6040516102ce9190611b1d565b60405180910390f35b6102f160048036038101906102ec9190612035565b61096e565b6040516102fe9190611a72565b60405180910390f35b6000634906490660e01b7bffffffffffffffffffffffffffffffffffffffffffffffffffffffff1916827bffffffffffffffffffffffffffffffffffffffffffffffffffffffff19161480610361575061036082610a02565b5b9050919050565b606060008054610377906120a4565b80601f01602080910402602001604051908101604052809291908181526020018280546103a3906120a4565b80156103f05780601f106103c5576101008083540402835291602001916103f0565b820191906000526020600020905b8154815290600101906020018083116103d357829003601f168201915b5050505050905090565b600061040582610ae4565b6004600083815260200190815260200160002060009054906101000a900473ffffffffffffffffffffffffffffffffffffffff169050919050565b600061044b82610615565b90508073ffffffffffffffffffffffffffffffffffffffff168373ffffffffffffffffffffffffffffffffffffffff16036104bb576040517f08c379a00000000000000000000000000000000000000000000000000000000081526004016104b290612147565b60405180910390fd5b8073ffffffffffffffffffffffffffffffffffffffff166104da610b2f565b73ffffffffffffffffffffffffffffffffffffffff161480610509575061050881610503610b2f565b61096e565b5b610548576040517f08c379a000000000000000000000000000000000000000000000000000000000815260040161053f906121d9565b60405180910390fd5b6105528383610b37565b505050565b610568610562610b2f565b82610bf0565b6105a7576040517f08c379a000000000000000000000000000000000000000000000000000000000815260040161059e9061226b565b60405180910390fd5b6105b2838383610c85565b505050565b6105d2838383604051806020016040528060008152506107fa565b505050565b60008060075490506105e98482610f7e565b6105f38184610f9c565b60076000815480929190610606906122ba565b91905055508091505092915050565b60008061062183611040565b9050600073ffffffffffffffffffffffffffffffffffffffff168173ffffffffffffffffffffffffffffffffffffffff1603610692576040517f08c379a00000000000000000000000000000000000000000000000000000000081526004016106899061234e565b60405180910390fd5b80915050919050565b60008073ffffffffffffffffffffffffffffffffffffffff168273ffffffffffffffffffffffffffffffffffffffff160361070b576040517f08c379a0000000000000000000000000000000000000000000000000000000008152600401610702906123e0565b60405180910390fd5b600360008373ffffffffffffffffffffffffffffffffffffffff1673ffffffffffffffffffffffffffffffffffffffff168152602001908152602001600020549050919050565b606060018054610761906120a4565b80601f016020809104026020016040519081016040528092919081815260200182805461078d906120a4565b80156107da5780601f106107af576101008083540402835291602001916107da565b820191906000526020600020905b8154815290600101906020018083116107bd57829003601f168201915b5050505050905090565b6107f66107ef610b2f565b838361107d565b5050565b61080b610805610b2f565b83610bf0565b61084a576040517f08c379a00000000000000000000000000000000000000000000000000000000081526004016108419061226b565b60405180910390fd5b610856848484846111e9565b50505050565b606061086782610ae4565b6000600660008481526020019081526020016000208054610887906120a4565b80601f01602080910402602001604051908101604052809291908181526020018280546108b3906120a4565b80156109005780601f106108d557610100808354040283529160200191610900565b820191906000526020600020905b8154815290600101906020018083116108e357829003601f168201915b505050505090506000610911611245565b90506000815103610926578192505050610969565b60008251111561095b57808260405160200161094392919061243c565b60405160208183030381529060405292505050610969565b6109648461125c565b925050505b919050565b6000600560008473ffffffffffffffffffffffffffffffffffffffff1673ffffffffffffffffffffffffffffffffffffffff16815260200190815260200160002060008373ffffffffffffffffffffffffffffffffffffffff1673ffffffffffffffffffffffffffffffffffffffff16815260200190815260200160002060009054906101000a900460ff16905092915050565b60007f80ac58cd000000000000000000000000000000000000000000000000000000007bffffffffffffffffffffffffffffffffffffffffffffffffffffffff1916827bffffffffffffffffffffffffffffffffffffffffffffffffffffffff19161480610acd57507f5b5e139f000000000000000000000000000000000000000000000000000000007bffffffffffffffffffffffffffffffffffffffffffffffffffffffff1916827bffffffffffffffffffffffffffffffffffffffffffffffffffffffff1916145b80610add5750610adc826112c4565b5b9050919050565b610aed8161132e565b610b2c576040517f08c379a0000000000000000000000000000000000000000000000000000000008152600401610b239061234e565b60405180910390fd5b50565b600033905090565b816004600083815260200190815260200160002060006101000a81548173ffffffffffffffffffffffffffffffffffffffff021916908373ffffffffffffffffffffffffffffffffffffffff160217905550808273ffffffffffffffffffffffffffffffffffffffff16610baa83610615565b73ffffffffffffffffffffffffffffffffffffffff167f8c5be1e5ebec7d5bd14f71427d1e84f3dd0314c0f7b2291e5b200ac8c7c3b92560405160405180910390a45050565b600080610bfc83610615565b90508073ffffffffffffffffffffffffffffffffffffffff168473ffffffffffffffffffffffffffffffffffffffff161480610c3e5750610c3d818561096e565b5b80610c7c57508373ffffffffffffffffffffffffffffffffffffffff16610c64846103fa565b73ffffffffffffffffffffffffffffffffffffffff16145b91505092915050565b8273ffffffffffffffffffffffffffffffffffffffff16610ca582610615565b73ffffffffffffffffffffffffffffffffffffffff1614610cfb576040517f08c379a0000000000000000000000000000000000000000000000000000000008152600401610cf2906124d2565b60405180910390fd5b600073ffffffffffffffffffffffffffffffffffffffff168273ffffffffffffffffffffffffffffffffffffffff1603610d6a576040517f08c379a0000000000000000000000000000000000000000000000000000000008152600401610d6190612564565b60405180910390fd5b610d77838383600161136f565b8273ffffffffffffffffffffffffffffffffffffffff16610d9782610615565b73ffffffffffffffffffffffffffffffffffffffff1614610ded576040517f08c379a0000000000000000000000000000000000000000000000000000000008152600401610de4906124d2565b60405180910390fd5b6004600082815260200190815260200160002060006101000a81549073ffffffffffffffffffffffffffffffffffffffff02191690556001600360008573ffffffffffffffffffffffffffffffffffffffff1673ffffffffffffffffffffffffffffffffffffffff168152602001908152602001600020600082825403925050819055506001600360008473ffffffffffffffffffffffffffffffffffffffff1673ffffffffffffffffffffffffffffffffffffffff16815260200190815260200160002060008282540192505081905550816002600083815260200190815260200160002060006101000a81548173ffffffffffffffffffffffffffffffffffffffff021916908373ffffffffffffffffffffffffffffffffffffffff160217905550808273ffffffffffffffffffffffffffffffffffffffff168473ffffffffffffffffffffffffffffffffffffffff167fddf252ad1be2c89b69c2b068fc378daa952ba7f163c4a11628f55a4df523b3ef60405160405180910390a4610f798383836001611375565b505050565b610f9882826040518060200160405280600081525061137b565b5050565b610fa58261132e565b610fe4576040517f08c379a0000000000000000000000000000000000000000000000000000000008152600401610fdb906125f6565b60405180910390fd5b8060066000848152602001908152602001600020908161100491906127c2565b507ff8e1a15aba9398e019f0b49df1a4fde98ee17ae345cb5f6b5e2c27f5033e8ce7826040516110349190611e5d565b60405180910390a15050565b60006002600083815260200190815260200160002060009054906101000a900473ffffffffffffffffffffffffffffffffffffffff169050919050565b8173ffffffffffffffffffffffffffffffffffffffff168373ffffffffffffffffffffffffffffffffffffffff16036110eb576040517f08c379a00000000000000000000000000000000000000000000000000000000081526004016110e2906128e0565b60405180910390fd5b80600560008573ffffffffffffffffffffffffffffffffffffffff1673ffffffffffffffffffffffffffffffffffffffff16815260200190815260200160002060008473ffffffffffffffffffffffffffffffffffffffff1673ffffffffffffffffffffffffffffffffffffffff16815260200190815260200160002060006101000a81548160ff0219169083151502179055508173ffffffffffffffffffffffffffffffffffffffff168373ffffffffffffffffffffffffffffffffffffffff167f17307eab39ab6107e8899845ad3d59bd9653f200f220920489ca2b5937696c31836040516111dc9190611a72565b60405180910390a3505050565b6111f4848484610c85565b611200848484846113d6565b61123f576040517f08c379a000000000000000000000000000000000000000000000000000000000815260040161123690612972565b60405180910390fd5b50505050565b606060405180602001604052806000815250905090565b606061126782610ae4565b6000611271611245565b9050600081511161129157604051806020016040528060008152506112bc565b8061129b8461155d565b6040516020016112ac92919061243c565b6040516020818303038152906040525b915050919050565b60007f01ffc9a7000000000000000000000000000000000000000000000000000000007bffffffffffffffffffffffffffffffffffffffffffffffffffffffff1916827bffffffffffffffffffffffffffffffffffffffffffffffffffffffff1916149050919050565b60008073ffffffffffffffffffffffffffffffffffffffff1661135083611040565b73ffffffffffffffffffffffffffffffffffffffff1614159050919050565b50505050565b50505050565b611385838361162b565b61139260008484846113d6565b6113d1576040517f08c379a00000000000000000000000000000000000000000000000000000000081526004016113c890612972565b60405180910390fd5b505050565b60006113f78473ffffffffffffffffffffffffffffffffffffffff16611848565b15611550578373ffffffffffffffffffffffffffffffffffffffff1663150b7a02611420610b2f565b8786866040518563ffffffff1660e01b815260040161144294939291906129e7565b6020604051808303816000875af192505050801561147e57506040513d601f19601f8201168201806040525081019061147b9190612a48565b60015b611500573d80600081146114ae576040519150601f19603f3d011682016040523d82523d6000602084013e6114b3565b606091505b5060008151036114f8576040517f08c379a00000000000000000000000000000000000000000000000000000000081526004016114ef90612972565b60405180910390fd5b805181602001fd5b63150b7a0260e01b7bffffffffffffffffffffffffffffffffffffffffffffffffffffffff1916817bffffffffffffffffffffffffffffffffffffffffffffffffffffffff191614915050611555565b600190505b949350505050565b60606000600161156c8461186b565b01905060008167ffffffffffffffff81111561158b5761158a611cc7565b5b6040519080825280601f01601f1916602001820160405280156115bd5781602001600182028036833780820191505090505b509050600082602001820190505b600115611620578080600190039150507f3031323334353637383961626364656600000000000000000000000000000000600a86061a8153600a858161161457611613612a75565b5b049450600085036115cb575b819350505050919050565b600073ffffffffffffffffffffffffffffffffffffffff168273ffffffffffffffffffffffffffffffffffffffff160361169a576040517f08c379a000000000000000000000000000000000000000000000000000000000815260040161169190612af0565b60405180910390fd5b6116a38161132e565b156116e3576040517f08c379a00000000000000000000000000000000000000000000000000000000081526004016116da90612b5c565b60405180910390fd5b6116f160008383600161136f565b6116fa8161132e565b1561173a576040517f08c379a000000000000000000000000000000000000000000000000000000000815260040161173190612b5c565b60405180910390fd5b6001600360008473ffffffffffffffffffffffffffffffffffffffff1673ffffffffffffffffffffffffffffffffffffffff16815260200190815260200160002060008282540192505081905550816002600083815260200190815260200160002060006101000a81548173ffffffffffffffffffffffffffffffffffffffff021916908373ffffffffffffffffffffffffffffffffffffffff160217905550808273ffffffffffffffffffffffffffffffffffffffff16600073ffffffffffffffffffffffffffffffffffffffff167fddf252ad1be2c89b69c2b068fc378daa952ba7f163c4a11628f55a4df523b3ef60405160405180910390a4611844600083836001611375565b5050565b6000808273ffffffffffffffffffffffffffffffffffffffff163b119050919050565b600080600090507a184f03e93ff9f4daa797ed6e38ed64bf6a1f01000000000000000083106118c9577a184f03e93ff9f4daa797ed6e38ed64bf6a1f01000000000000000083816118bf576118be612a75565b5b0492506040810190505b6d04ee2d6d415b85acef81000000008310611906576d04ee2d6d415b85acef810000000083816118fc576118fb612a75565b5b0492506020810190505b662386f26fc10000831061193557662386f26fc10000838161192b5761192a612a75565b5b0492506010810190505b6305f5e100831061195e576305f5e100838161195457611953612a75565b5b0492506008810190505b612710831061198357612710838161197957611978612a75565b5b0492506004810190505b606483106119a6576064838161199c5761199b612a75565b5b0492506002810190505b600a83106119b5576001810190505b80915050919050565b6000604051905090565b600080fd5b600080fd5b60007fffffffff0000000000000000000000000000000000000000000000000000000082169050919050565b611a07816119d2565b8114611a1257600080fd5b50565b600081359050611a24816119fe565b92915050565b600060208284031215611a4057611a3f6119c8565b5b6000611a4e84828501611a15565b91505092915050565b60008115159050919050565b611a6c81611a57565b82525050565b6000602082019050611a876000830184611a63565b92915050565b600081519050919050565b600082825260208201905092915050565b60005b83811015611ac7578082015181840152602081019050611aac565b60008484015250505050565b6000601f19601f8301169050919050565b6000611aef82611a8d565b611af98185611a98565b9350611b09818560208601611aa9565b611b1281611ad3565b840191505092915050565b60006020820190508181036000830152611b378184611ae4565b905092915050565b6000819050919050565b611b5281611b3f565b8114611b5d57600080fd5b50565b600081359050611b6f81611b49565b92915050565b600060208284031215611b8b57611b8a6119c8565b5b6000611b9984828501611b60565b91505092915050565b600073ffffffffffffffffffffffffffffffffffffffff82169050919050565b6000611bcd82611ba2565b9050919050565b611bdd81611bc2565b82525050565b6000602082019050611bf86000830184611bd4565b92915050565b611c0781611bc2565b8114611c1257600080fd5b50565b600081359050611c2481611bfe565b92915050565b60008060408385031215611c4157611c406119c8565b5b6000611c4f85828601611c15565b9250506020611c6085828601611b60565b9150509250929050565b600080600060608486031215611c8357611c826119c8565b5b6000611c9186828701611c15565b9350506020611ca286828701611c15565b9250506040611cb386828701611b60565b9150509250925092565b600080fd5b600080fd5b7f4e487b7100000000000000000000000000000000000000000000000000000000600052604160045260246000fd5b611cff82611ad3565b810181811067ffffffffffffffff82111715611d1e57611d1d611cc7565b5b80604052505050565b6000611d316119be565b9050611d3d8282611cf6565b919050565b600067ffffffffffffffff821115611d5d57611d5c611cc7565b5b611d6682611ad3565b9050602081019050919050565b82818337600083830152505050565b6000611d95611d9084611d42565b611d27565b905082815260208101848484011115611db157611db0611cc2565b5b611dbc848285611d73565b509392505050565b600082601f830112611dd957611dd8611cbd565b5b8135611de9848260208601611d82565b91505092915050565b60008060408385031215611e0957611e086119c8565b5b6000611e1785828601611c15565b925050602083013567ffffffffffffffff811115611e3857611e376119cd565b5b611e4485828601611dc4565b9150509250929050565b611e5781611b3f565b82525050565b6000602082019050611e726000830184611e4e565b92915050565b600060208284031215611e8e57611e8d6119c8565b5b6000611e9c84828501611c15565b91505092915050565b611eae81611a57565b8114611eb957600080fd5b50565b600081359050611ecb81611ea5565b92915050565b60008060408385031215611ee857611ee76119c8565b5b6000611ef685828601611c15565b9250506020611f0785828601611ebc565b9150509250929050565b600067ffffffffffffffff821115611f2c57611f2b611cc7565b5b611f3582611ad3565b9050602081019050919050565b6000611f55611f5084611f11565b611d27565b905082815260208101848484011115611f7157611f70611cc2565b5b611f7c848285611d73565b509392505050565b600082601f830112611f9957611f98611cbd565b5b8135611fa9848260208601611f42565b91505092915050565b60008060008060808587031215611fcc57611fcb6119c8565b5b6000611fda87828801611c15565b9450506020611feb87828801611c15565b9350506040611ffc87828801611b60565b925050606085013567ffffffffffffffff81111561201d5761201c6119cd565b5b61202987828801611f84565b91505092959194509250565b6000806040838503121561204c5761204b6119c8565b5b600061205a85828601611c15565b925050602061206b85828601611c15565b9150509250929050565b7f4e487b7100000000000000000000000000000000000000000000000000000000600052602260045260246000fd5b600060028204905060018216806120bc57607f821691505b6020821081036120cf576120ce612075565b5b50919050565b7f4552433732313a20617070726f76616c20746f2063757272656e74206f776e6560008201527f7200000000000000000000000000000000000000000000000000000000000000602082015250565b6000612131602183611a98565b915061213c826120d5565b604082019050919050565b6000602082019050818103600083015261216081612124565b9050919050565b7f4552433732313a20617070726f76652063616c6c6572206973206e6f7420746f60008201527f6b656e206f776e6572206f7220617070726f76656420666f7220616c6c000000602082015250565b60006121c3603d83611a98565b91506121ce82612167565b604082019050919050565b600060208201905081810360008301526121f2816121b6565b9050919050565b7f4552433732313a2063616c6c6572206973206e6f7420746f6b656e206f776e6560008201527f72206f7220617070726f76656400000000000000000000000000000000000000602082015250565b6000612255602d83611a98565b9150612260826121f9565b604082019050919050565b6000602082019050818103600083015261228481612248565b9050919050565b7f4e487b7100000000000000000000000000000000000000000000000000000000600052601160045260246000fd5b60006122c582611b3f565b91507fffffffffffffffffffffffffffffffffffffffffffffffffffffffffffffffff82036122f7576122f661228b565b5b600182019050919050565b7f4552433732313a20696e76616c696420746f6b656e2049440000000000000000600082015250565b6000612338601883611a98565b915061234382612302565b602082019050919050565b600060208201905081810360008301526123678161232b565b9050919050565b7f4552433732313a2061646472657373207a65726f206973206e6f74206120766160008201527f6c6964206f776e65720000000000000000000000000000000000000000000000602082015250565b60006123ca602983611a98565b91506123d58261236e565b604082019050919050565b600060208201905081810360008301526123f9816123bd565b9050919050565b600081905092915050565b600061241682611a8d565b6124208185612400565b9350612430818560208601611aa9565b80840191505092915050565b6000612448828561240b565b9150612454828461240b565b91508190509392505050565b7f4552433732313a207472616e736665722066726f6d20696e636f72726563742060008201527f6f776e6572000000000000000000000000000000000000000000000000000000602082015250565b60006124bc602583611a98565b91506124c782612460565b604082019050919050565b600060208201905081810360008301526124eb816124af565b9050919050565b7f4552433732313a207472616e7366657220746f20746865207a65726f2061646460008201527f7265737300000000000000000000000000000000000000000000000000000000602082015250565b600061254e602483611a98565b9150612559826124f2565b604082019050919050565b6000602082019050818103600083015261257d81612541565b9050919050565b7f45524337323155524953746f726167653a2055524920736574206f66206e6f6e60008201527f6578697374656e7420746f6b656e000000000000000000000000000000000000602082015250565b60006125e0602e83611a98565b91506125eb82612584565b604082019050919050565b6000602082019050818103600083015261260f816125d3565b9050919050565b60008190508160005260206000209050919050565b60006020601f8301049050919050565b600082821b905092915050565b6000600883026126787fffffffffffffffffffffffffffffffffffffffffffffffffffffffffffffffff8261263b565b612682868361263b565b95508019841693508086168417925050509392505050565b6000819050919050565b60006126bf6126ba6126b584611b3f565b61269a565b611b3f565b9050919050565b6000819050919050565b6126d9836126a4565b6126ed6126e5826126c6565b848454612648565b825550505050565b600090565b6127026126f5565b61270d8184846126d0565b505050565b5b81811015612731576127266000826126fa565b600181019050612713565b5050565b601f8211156127765761274781612616565b6127508461262b565b8101602085101561275f578190505b61277361276b8561262b565b830182612712565b50505b505050565b600082821c905092915050565b60006127996000198460080261277b565b1980831691505092915050565b60006127b28383612788565b9150826002028217905092915050565b6127cb82611a8d565b67ffffffffffffffff8111156127e4576127e3611cc7565b5b6127ee82546120a4565b6127f9828285612735565b600060209050601f83116001811461282c576000841561281a578287015190505b61282485826127a6565b86555061288c565b601f19841661283a86612616565b60005b828110156128625784890151825560018201915060208501945060208101905061283d565b8683101561287f578489015161287b601f891682612788565b8355505b6001600288020188555050505b505050505050565b7f4552433732313a20617070726f766520746f2063616c6c657200000000000000600082015250565b60006128ca601983611a98565b91506128d582612894565b602082019050919050565b600060208201905081810360008301526128f9816128bd565b9050919050565b7f4552433732313a207472616e7366657220746f206e6f6e20455243373231526560008201527f63656976657220696d706c656d656e7465720000000000000000000000000000602082015250565b600061295c603283611a98565b915061296782612900565b604082019050919050565b6000602082019050818103600083015261298b8161294f565b9050919050565b600081519050919050565b600082825260208201905092915050565b60006129b982612992565b6129c3818561299d565b93506129d3818560208601611aa9565b6129dc81611ad3565b840191505092915050565b60006080820190506129fc6000830187611bd4565b612a096020830186611bd4565b612a166040830185611e4e565b8181036060830152612a2881846129ae565b905095945050505050565b600081519050612a42816119fe565b92915050565b600060208284031215612a5e57612a5d6119c8565b5b6000612a6c84828501612a33565b91505092915050565b7f4e487b7100000000000000000000000000000000000000000000000000000000600052601260045260246000fd5b7f4552433732313a206d696e7420746f20746865207a65726f2061646472657373600082015250565b6000612ada602083611a98565b9150612ae582612aa4565b602082019050919050565b60006020820190508181036000830152612b0981612acd565b9050919050565b7f4552433732313a20746f6b656e20616c7265616479206d696e74656400000000600082015250565b6000612b46601c83611a98565b9150612b5182612b10565b602082019050919050565b60006020820190508181036000830152612b7581612b39565b905091905056fea2646970667358221220d28fa93f00a8d74a159a2cb7d28378059b489b32883eb2a2e1d07d12463f4f4a64736f6c63430008130033",
  "immutableReferences": {},
  "source": "// SPDX-License-Identifier: MIT\npragma solidity ^0.8.0;\n\nimport \"@openzeppelin/contracts/token/ERC721/extensions/ERC721URIStorage.sol\";\n\ncontract NFTContract is ERC721URIStorage {\n    uint256 private tokenIdCounter;\n\n    constructor() ERC721(\"NFTContract\", \"NFTC\") {}\n\n    function generateNFT(address to, string memory tokenURI) external returns (uint256) {\n        uint256 newTokenId = tokenIdCounter;\n        _safeMint(to, newTokenId);\n        _setTokenURI(newTokenId, tokenURI);\n        tokenIdCounter++;\n        return newTokenId;\n    }\n}\n",
  "sourcePath": "/Users/paoloaliprandi/Desktop/University of Trento/Magistrale/Primo anno/secondo semestre/Blockchain/Blockchain-Project/contracts/NFTContract.sol",
  "compiler": {
    "name": "solc",
    "version": "0.8.19+commit.7dd6d404.Emscripten.clang"
  },
  "schemaVersion": "3.4.13",
  "updatedAt": "2023-06-15T07:56:59.610Z",
  "devdoc": {
    "events": {
      "Approval(address,address,uint256)": {
        "details": "Emitted when `owner` enables `approved` to manage the `tokenId` token."
      },
      "ApprovalForAll(address,address,bool)": {
        "details": "Emitted when `owner` enables or disables (`approved`) `operator` to manage all of its assets."
      },
      "BatchMetadataUpdate(uint256,uint256)": {
        "details": "This event emits when the metadata of a range of tokens is changed. So that the third-party platforms such as NFT market could timely update the images and related attributes of the NFTs."
      },
      "MetadataUpdate(uint256)": {
        "details": "This event emits when the metadata of a token is changed. So that the third-party platforms such as NFT market could timely update the images and related attributes of the NFT."
      },
      "Transfer(address,address,uint256)": {
        "details": "Emitted when `tokenId` token is transferred from `from` to `to`."
      }
    },
    "kind": "dev",
    "methods": {
      "approve(address,uint256)": {
        "details": "See {IERC721-approve}."
      },
      "balanceOf(address)": {
        "details": "See {IERC721-balanceOf}."
      },
      "getApproved(uint256)": {
        "details": "See {IERC721-getApproved}."
      },
      "isApprovedForAll(address,address)": {
        "details": "See {IERC721-isApprovedForAll}."
      },
      "name()": {
        "details": "See {IERC721Metadata-name}."
      },
      "ownerOf(uint256)": {
        "details": "See {IERC721-ownerOf}."
      },
      "safeTransferFrom(address,address,uint256)": {
        "details": "See {IERC721-safeTransferFrom}."
      },
      "safeTransferFrom(address,address,uint256,bytes)": {
        "details": "See {IERC721-safeTransferFrom}."
      },
      "setApprovalForAll(address,bool)": {
        "details": "See {IERC721-setApprovalForAll}."
      },
      "supportsInterface(bytes4)": {
        "details": "See {IERC165-supportsInterface}"
      },
      "symbol()": {
        "details": "See {IERC721Metadata-symbol}."
      },
      "tokenURI(uint256)": {
        "details": "See {IERC721Metadata-tokenURI}."
      },
      "transferFrom(address,address,uint256)": {
        "details": "See {IERC721-transferFrom}."
      }
    },
    "version": 1
  },
  "userdoc": {
    "kind": "user",
    "methods": {},
    "version": 1
  }
}