{
  "contractName": "PeopleCollector",
  "abi": [
    {
      "inputs": [],
      "stateMutability": "nonpayable",
      "type": "constructor"
    },
    {
      "inputs": [
        {
          "internalType": "address",
          "name": "userAddress",
          "type": "address"
        },
        {
          "internalType": "string",
          "name": "name",
          "type": "string"
        },
        {
          "internalType": "uint256",
          "name": "isee",
          "type": "uint256"
        }
      ],
      "name": "setUser",
      "outputs": [],
      "stateMutability": "nonpayable",
      "type": "function"
    },
    {
      "inputs": [
        {
          "internalType": "address",
          "name": "userAddress",
          "type": "address"
        }
      ],
      "name": "getUserByAddress",
      "outputs": [
        {
          "internalType": "string",
          "name": "",
          "type": "string"
        },
        {
          "internalType": "uint256",
          "name": "",
          "type": "uint256"
        }
      ],
      "stateMutability": "view",
      "type": "function"
    },
    {
      "inputs": [],
      "name": "printStudents",
      "outputs": [
        {
          "internalType": "string",
          "name": "",
          "type": "string"
        }
      ],
      "stateMutability": "view",
      "type": "function"
    }
  ],
  "bytecode": "0x608060405234801561001057600080fd5b50600060010160018160018154018082558091505003906000526020600020505060008060020181905550610f818061004a6000396000f3fe608060405234801561001057600080fd5b50600436106100415760003560e01c8063059be3831461004657806369c212f614610064578063af431f0314610095575b600080fd5b61004e6100b1565b60405161005b9190610696565b60405180910390f35b61007e6004803603810190610079919061072a565b610154565b60405161008c929190610770565b60405180910390f35b6100af60048036038101906100aa9190610901565b6101f1565b005b6060600060405180602001604052806000815250905060006100d36000610227565b90505b6100ea81600061023b90919063ffffffff16565b1561014c57600061010582600061024f90919063ffffffff16565b91505082816000015160405160200161011f9291906109dd565b60405160208183030381529060405292505061014581600061039990919063ffffffff16565b90506100d6565b508091505090565b6060600080600073__IterableMapping_______________________6380763c4e9091866040518363ffffffff1660e01b8152600401610195929190610a26565b600060405180830381865af41580156101b2573d6000803e3d6000fd5b505050506040513d6000823e3d601f19601f820116820180604052508101906101db9190610b4a565b9050806000015181602001519250925050915091565b60006040518060400160405280848152602001838152509050610220848260006103b99092919063ffffffff16565b5050505050565b6000610234826000610585565b9050919050565b600082600101805490508210905092915050565b60006102596105ec565b600083905084600101818154811061027457610273610b93565b5b9060005260206000200160000160009054906101000a900473ffffffffffffffffffffffffffffffffffffffff1692508460000160008473ffffffffffffffffffffffffffffffffffffffff1673ffffffffffffffffffffffffffffffffffffffff16815260200190815260200160002060010160405180604001604052908160008201805461030390610bf1565b80601f016020809104026020016040519081016040528092919081815260200182805461032f90610bf1565b801561037c5780601f106103515761010080835404028352916020019161037c565b820191906000526020600020905b81548152906001019060200180831161035f57829003601f168201915b505050505081526020016001820154815250509150509250929050565b60006103b1836001846103ac9190610c51565b610585565b905092915050565b6000808460000160008573ffffffffffffffffffffffffffffffffffffffff1673ffffffffffffffffffffffffffffffffffffffff168152602001908152602001600020600001549050828560000160008673ffffffffffffffffffffffffffffffffffffffff1673ffffffffffffffffffffffffffffffffffffffff168152602001908152602001600020600101600082015181600001908161045d9190610e31565b5060208201518160010155905050600081111561047e57600191505061057e565b84600101805490509050846001016001816001815401808255809150500390600052602060002050506001816104b49190610c51565b8560000160008673ffffffffffffffffffffffffffffffffffffffff1673ffffffffffffffffffffffffffffffffffffffff168152602001908152602001600020600001819055508385600101828154811061051357610512610b93565b5b9060005260206000200160000160006101000a81548173ffffffffffffffffffffffffffffffffffffffff021916908373ffffffffffffffffffffffffffffffffffffffff16021790555084600201600081548092919061057390610f03565b919050555060009150505b9392505050565b60005b8260010180549050821080156105cb57508260010182815481106105af576105ae610b93565b5b9060005260206000200160000160149054906101000a900460ff165b156105e35781806105db90610f03565b925050610588565b81905092915050565b604051806040016040528060608152602001600081525090565b600081519050919050565b600082825260208201905092915050565b60005b83811015610640578082015181840152602081019050610625565b60008484015250505050565b6000601f19601f8301169050919050565b600061066882610606565b6106728185610611565b9350610682818560208601610622565b61068b8161064c565b840191505092915050565b600060208201905081810360008301526106b0818461065d565b905092915050565b6000604051905090565b600080fd5b600080fd5b600073ffffffffffffffffffffffffffffffffffffffff82169050919050565b60006106f7826106cc565b9050919050565b610707816106ec565b811461071257600080fd5b50565b600081359050610724816106fe565b92915050565b6000602082840312156107405761073f6106c2565b5b600061074e84828501610715565b91505092915050565b6000819050919050565b61076a81610757565b82525050565b6000604082019050818103600083015261078a818561065d565b90506107996020830184610761565b9392505050565b600080fd5b600080fd5b7f4e487b7100000000000000000000000000000000000000000000000000000000600052604160045260246000fd5b6107e28261064c565b810181811067ffffffffffffffff82111715610801576108006107aa565b5b80604052505050565b60006108146106b8565b905061082082826107d9565b919050565b600067ffffffffffffffff8211156108405761083f6107aa565b5b6108498261064c565b9050602081019050919050565b82818337600083830152505050565b600061087861087384610825565b61080a565b905082815260208101848484011115610894576108936107a5565b5b61089f848285610856565b509392505050565b600082601f8301126108bc576108bb6107a0565b5b81356108cc848260208601610865565b91505092915050565b6108de81610757565b81146108e957600080fd5b50565b6000813590506108fb816108d5565b92915050565b60008060006060848603121561091a576109196106c2565b5b600061092886828701610715565b935050602084013567ffffffffffffffff811115610949576109486106c7565b5b610955868287016108a7565b9250506040610966868287016108ec565b9150509250925092565b600081519050919050565b600081905092915050565b600061099182610970565b61099b818561097b565b93506109ab818560208601610622565b80840191505092915050565b7f2c20000000000000000000000000000000000000000000000000000000000000815250565b60006109e98285610986565b91506109f58284610986565b9150610a00826109b7565b6002820191508190509392505050565b8082525050565b610a20816106ec565b82525050565b6000604082019050610a3b6000830185610a10565b610a486020830184610a17565b9392505050565b600080fd5b600080fd5b6000610a6c610a6784610825565b61080a565b905082815260208101848484011115610a8857610a876107a5565b5b610a93848285610622565b509392505050565b600082601f830112610ab057610aaf6107a0565b5b8151610ac0848260208601610a59565b91505092915050565b600081519050610ad8816108d5565b92915050565b600060408284031215610af457610af3610a4f565b5b610afe604061080a565b9050600082015167ffffffffffffffff811115610b1e57610b1d610a54565b5b610b2a84828501610a9b565b6000830152506020610b3e84828501610ac9565b60208301525092915050565b600060208284031215610b6057610b5f6106c2565b5b600082015167ffffffffffffffff811115610b7e57610b7d6106c7565b5b610b8a84828501610ade565b91505092915050565b7f4e487b7100000000000000000000000000000000000000000000000000000000600052603260045260246000fd5b7f4e487b7100000000000000000000000000000000000000000000000000000000600052602260045260246000fd5b60006002820490506001821680610c0957607f821691505b602082108103610c1c57610c1b610bc2565b5b50919050565b7f4e487b7100000000000000000000000000000000000000000000000000000000600052601160045260246000fd5b6000610c5c82610757565b9150610c6783610757565b9250828201905080821115610c7f57610c7e610c22565b5b92915050565b60008190508160005260206000209050919050565b60006020601f8301049050919050565b600082821b905092915050565b600060088302610ce77fffffffffffffffffffffffffffffffffffffffffffffffffffffffffffffffff82610caa565b610cf18683610caa565b95508019841693508086168417925050509392505050565b6000819050919050565b6000610d2e610d29610d2484610757565b610d09565b610757565b9050919050565b6000819050919050565b610d4883610d13565b610d5c610d5482610d35565b848454610cb7565b825550505050565b600090565b610d71610d64565b610d7c818484610d3f565b505050565b5b81811015610da057610d95600082610d69565b600181019050610d82565b5050565b601f821115610de557610db681610c85565b610dbf84610c9a565b81016020851015610dce578190505b610de2610dda85610c9a565b830182610d81565b50505b505050565b600082821c905092915050565b6000610e0860001984600802610dea565b1980831691505092915050565b6000610e218383610df7565b9150826002028217905092915050565b610e3a82610606565b67ffffffffffffffff811115610e5357610e526107aa565b5b610e5d8254610bf1565b610e68828285610da4565b600060209050601f831160018114610e9b5760008415610e89578287015190505b610e938582610e15565b865550610efb565b601f198416610ea986610c85565b60005b82811015610ed157848901518255600182019150602085019450602081019050610eac565b86831015610eee5784890151610eea601f891682610df7565b8355505b6001600288020188555050505b505050505050565b6000610f0e82610757565b91507fffffffffffffffffffffffffffffffffffffffffffffffffffffffffffffffff8203610f4057610f3f610c22565b5b60018201905091905056fea264697066735822122008a76da13c5c2eb116e29c518515c09e9017902729ae3cb13dc4982c71ba401a64736f6c63430008130033",
  "immutableReferences": {},
  "source": "// SPDX-License-Identifier: MIT \npragma solidity ^0.8.0;\nimport \"./IterableMapping.sol\";\n\n// Contract for collecting users' personal information\ncontract PeopleCollector {\n\n    // Struct holding our data.\n    itmap students;\n    // Apply library functions to the data type.\n    using IterableMapping for itmap;\n\n    constructor() {\n        // Initialize the students mapping.\n        students.keys.push();\n        students.size = 0;\n    }\n\n    function setUser(address userAddress, string memory name, uint256 isee) public {\n        Student memory student = Student(name, isee);\n        students.insert(userAddress, student);\n    }\n\n    function getUserByAddress(address userAddress) public view returns (string memory, uint256) {\n        Student memory userData = students.getStudent(userAddress);\n        return (userData.name, userData.isee);\n    }\n\n    function printStudents() public view returns (string memory) {\n        string memory s = \"\";\n\n        for (\n            Iterator i = students.iterateStart();\n            students.iterateValid(i);\n            i = students.iterateNext(i)\n        ) {\n            (, Student memory student) = students.iterateGet(i);\n            // s = string(abi.encodePacked(s, student.name));\n            // s = string(abi.encodePacked(s, \" \"));\n            // s = string(abi.encodePacked(s, student.isee.toString()));\n            // s = string(abi.encodePacked(s, \", \"));\n            s = string(bytes.concat(bytes(s), bytes(student.name), \", \"));\n        }\n\n        return s;\n    }\n}\n\n\n// Ma gli utenti sono pronti a dover avere un portafoglio metamask ed accettare il contratto tramite lo stesso?\n// Come funziona la soluzione di Trenitalia?",
  "sourcePath": "/Users/michelelamon/Documents/UNITN/Blockchain/Blockchain-Project/contracts/PeopleCollector.sol",
  "compiler": {
    "name": "solc",
    "version": "0.8.19+commit.7dd6d404.Emscripten.clang"
  },
  "schemaVersion": "3.4.14",
  "updatedAt": "2023-06-03T23:41:44.010Z",
  "devdoc": {
    "kind": "dev",
    "methods": {},
    "version": 1
  },
  "userdoc": {
    "kind": "user",
    "methods": {},
    "version": 1
  }
}